{
	"data": {
		"bytecode": {
			"linkReferences": {},
			"object": "6101a06040527f6e71edae12b1b97f4d1f60370fef10105fa2faae0126114a169c64845d6126c9610140523480156200003757600080fd5b50604051620064e2380380620064e28339810160408190526200005a916200044e565b6040518060400160405280601681526020017f566f74652d657363726f776564204e4654576f726c640000000000000000000081525080604051806040016040528060018152602001603160f81b8152506040518060400160405280601681526020017f566f74652d657363726f776564204e4654576f726c6400000000000000000000815250604051806040016040528060068152602001651d9955d4931160d21b8152508160049080519060200190620001189291906200038b565b5080516200012e9060059060208401906200038b565b5050825160208085019190912083518483012060e08290526101008190524660a0818152604080517f8b73c3c69bb8fe3d512ecc4cf759cc79239f7b179b0ffacaa9a75d522b39400f81880181905281830187905260608201869052608082019490945230818401528151808203909301835260c0019052805194019390932091935091906080523060601b60c0526101205250506001600b555050506001600160a01b038216620002105760405162461bcd60e51b815260206004820152600660248201526506164647220360d41b60448201526064015b60405180910390fd5b6001600160a01b038116620002515760405162461bcd60e51b815260206004820152600660248201526506164647220360d41b604482015260640162000207565b6200025e600033620002d7565b6200028a7fb19546dff01e856fb3f010c267a7b1c60363cf8a4664e21cc89c26224620214e33620002d7565b620002b67f8736816fdbcc15d6cc3f6dcf60e42b0ef33eb02281d312c807a38b4ad09190c082620002d7565b6001600160601b0319606092831b811661016052911b1661018052620004c3565b620002e38282620002e7565b5050565b6000828152600a602090815260408083206001600160a01b038516845290915290205460ff16620002e3576000828152600a602090815260408083206001600160a01b03851684529091529020805460ff19166001179055620003473390565b6001600160a01b0316816001600160a01b0316837f2f8788117e7eff1d82e926ec794901d17c78024a50270940304540a733656f0d60405160405180910390a45050565b828054620003999062000486565b90600052602060002090601f016020900481019282620003bd576000855562000408565b82601f10620003d857805160ff191683800117855562000408565b8280016001018555821562000408579182015b8281111562000408578251825591602001919060010190620003eb565b50620004169291506200041a565b5090565b5b808211156200041657600081556001016200041b565b80516001600160a01b03811681146200044957600080fd5b919050565b600080604083850312156200046257600080fd5b6200046d8362000431565b91506200047d6020840162000431565b90509250929050565b600181811c908216806200049b57607f821691505b60208210811415620004bd57634e487b7160e01b600052602260045260246000fd5b50919050565b60805160a05160c05160601c60e0516101005161012051610140516101605160601c6101805160601c615f586200058a60003960008181610e4001528181610f46015281816113010152818161156c0152818161161b0152818161295201528181612ddb01528181612e8a01526131cd015260008181610c0d01528181611e9f015281816122f101526127fc01526000612b8401526000614142015260006141910152600061416c015260006140c5015260006140ef015260006141190152615f586000f3fe608060405234801561001057600080fd5b50600436106103275760003560e01c8063757ddbd5116101b8578063a9059cbb11610104578063d547741f116100a2578063e449f3411161007c578063e449f34114610889578063f1127ed81461089c578063f9217419146108d9578063fc196d08146108ec57600080fd5b8063d547741f1461082a578063dbb37abf1461083d578063dd62ed3e1461085057600080fd5b8063b326f59a116100de578063b326f59a146107de578063be26989c146107f1578063c3cda52014610804578063d505accf1461081757600080fd5b8063a9059cbb14610723578063a93482a714610736578063ae1e68b91461077f57600080fd5b8063939113e3116101715780639ab24eb01161014b5780639ab24eb0146106e2578063a217fddf146106f5578063a354f39e146106fd578063a457c2d71461071057600080fd5b8063939113e3146106b457806395d89b41146106c75780639a1e9c33146106cf57600080fd5b8063757ddbd51461063c5780637e1a37861461064f5780637ecebe00146106685780638c81172a1461067b5780638e539e8c1461068e57806391d14854146106a157600080fd5b80633644e51511610277578063587cde1e1161023057806364fe85771161020a57806364fe8577146105c55780636c19e783146105d85780636fcfff45146105eb57806370a082311461061357600080fd5b8063587cde1e1461053e57806358ba9d27146105825780635c19a95c146105b257600080fd5b80633644e515146104c957806336568abe146104d157806339509351146104e45780633a46b1a8146104f757806353c8388e1461050a57806354fd4d501461051d57600080fd5b80631e83409a116102e457806326ae2b78116102be57806326ae2b781461045b5780632cd8d4d7146104945780632f2ff15d146104a7578063313ce567146104ba57600080fd5b80631e83409a1461041257806323b872dd14610425578063248a9ca31461043857600080fd5b806301ffc9a71461032c57806306fdde03146103545780630700037d14610369578063095ea7b3146103d857806310a0638a146103eb57806318160ddd14610400575b600080fd5b61033f61033a3660046158dd565b61095a565b60405190151581526020015b60405180910390f35b61035c610985565b60405161034b9190615b4c565b6103ac610377366004615408565b614e2e6020526000908152604090205463ffffffff8116906001600160601b03600160201b8204811691600160801b90041683565b6040805163ffffffff90941684526001600160601b03928316602085015291169082015260600161034b565b61033f6103e6366004615558565b610a17565b6103fe6103f93660046159ec565b610a2d565b005b6003545b60405190815260200161034b565b6103fe610420366004615408565b610bbd565b61033f61043336600461547b565b610c72565b61040461044636600461589f565b6000908152600a602052604090206001015490565b614e2c546104779063ffffffff80821691600160201b90041682565b6040805163ffffffff93841681529290911660208301520161034b565b6103fe6104a23660046157fd565b610d23565b6103fe6104b53660046158b8565b6110bf565b6040516012815260200161034b565b6104046110ea565b6103fe6104df3660046158b8565b6110f9565b61033f6104f2366004615558565b611177565b610404610505366004615558565b6111b3565b6103fe610518366004615907565b61122d565b6040805180820190915260058152640312e302e360dc1b602082015261035c565b61056a61054c366004615408565b6001600160a01b039081166000908152600760205260409020541690565b6040516001600160a01b03909116815260200161034b565b610404610590366004615408565b6001600160a01b03166000908152614e2e602052604090205463ffffffff1690565b6103fe6105c0366004615408565b611368565b6103fe6105d33660046156ed565b611375565b6103fe6105e6366004615408565b611884565b6105fe6105f9366004615408565b6118c1565b60405163ffffffff909116815260200161034b565b610404610621366004615408565b6001600160a01b031660009081526001602052604090205490565b61040461064a36600461589f565b6118e3565b614e2d54600160a01b90046001600160601b0316610404565b610404610676366004615408565b611aa0565b6103fe61068936600461552a565b611abe565b61040461069c36600461589f565b611b31565b61033f6106af3660046158b8565b611b8d565b6103fe6106c2366004615976565b611bb8565b61035c611fcc565b6104046106dd366004615408565b611fdb565b6104046106f0366004615408565b612195565b610404600081565b6103fe61070b3660046159b2565b61221b565b61033f61071e366004615558565b61248e565b61033f610731366004615558565b612527565b61074961074436600461589f565b612534565b604080516001600160a01b03909516855263ffffffff93841660208601529183169184019190915216606082015260800161034b565b61079261078d36600461589f565b612579565b6040805161ffff97881681526001600160a01b03909616602087015293861693850193909352908416606084015292909216608082015263ffffffff90911660a082015260c00161034b565b6103fe6107ec366004615953565b6125d3565b6103fe6107ff366004615907565b612910565b6103fe610812366004615584565b612a03565b6103fe6108253660046154bc565b612b30565b6103fe6108383660046158b8565b612c94565b6103fe61084b366004615655565b612cba565b61040461085e366004615442565b6001600160a01b03918216600090815260026020908152604080832093909416825291909152205490565b6103fe610897366004615613565b613098565b6108af6108aa3660046155de565b6133d9565b60408051825163ffffffff1681526020928301516001600160e01b0316928101929092520161034b565b6103fe6108e736600461589f565b61345c565b614e2d546109239063ffffffff808216916001600160601b03600160201b8204811692600160801b83041691600160a01b90041684565b6040805163ffffffff95861681526001600160601b039485166020820152949092169184019190915216606082015260800161034b565b60006001600160e01b031982166351aa79cf60e11b148061097f575061097f826136a2565b92915050565b60606004805461099490615e37565b80601f01602080910402602001604051908101604052809291908181526020018280546109c090615e37565b8015610a0d5780601f106109e257610100808354040283529160200191610a0d565b820191906000526020600020905b8154815290600101906020018083116109f057829003601f168201915b5050505050905090565b6000610a243384846136d7565b50600192915050565b600080516020615f03833981519152610a4681336137fb565b666a94d74f430000826001600160601b0316118015610a7657506801a055690d9db80000826001600160601b0316105b610ab85760405162461bcd60e51b815260206004820152600e60248201526d14985d19481a5b98dbdc9c9958dd60921b60448201526064015b60405180910390fd5b614e2c5463ffffffff16610acb4261385f565b63ffffffff16118015610afb5750614e2c54600160201b900463ffffffff16610af34261385f565b63ffffffff16105b610b3c5760405162461bcd60e51b815260206004820152601260248201527152657761726473206e6f742061637469766560701b6044820152606401610aaf565b614e2d80546001600160a01b0316600160a01b6001600160601b03851690810291909117909155614e2c546040805163ffffffff8084168252600160201b90930490921660208301528101919091527f7002fe256bf93307d98bb026fa5ff340a910a7fff410b4c7004cdc6ded69d34c906060015b60405180910390a15050565b610bc86000806138c8565b6000610bd633600080613ae2565b336000908152614e2e6020526040902080546fffffffffffffffffffffffff00000000191690556001600160601b03169050610c337f00000000000000000000000000000000000000000000000000000000000000008383613d32565b604080516001600160a01b0384168152602081018390527f106f923f993c2149d49b4255ff723acafa1f2d94393f561d3eda32ae348f72419101610bb1565b6001600160a01b03831660009081526002602090815260408083203384529091528120546000198114610d0d5782811015610d005760405162461bcd60e51b815260206004820152602860248201527f45524332303a207472616e7366657220616d6f756e74206578636565647320616044820152676c6c6f77616e636560c01b6064820152608401610aaf565b610d0d85338584036136d7565b610d18858585613e4d565b506001949350505050565b60005b858110156110b6576000600c826127108110610d4457610d44615eb3565b6040805160c081018252929091015461ffff80821684526001600160a01b03620100008304166020850152600160b01b8204811692840192909252600160c01b810482166060840152600160d01b8104909116608083015263ffffffff600160e01b9091041660a082015290506000888884818110610dc557610dc5615eb3565b905060200201359050816000015161ffff1660001415610e205760405162461bcd60e51b815260206004820152601660248201527515d95a59da1d081b9bdd081a5b9a5d1a585b1a5e995960521b6044820152606401610aaf565b6040516331a9108f60e11b81526004810182905230906001600160a01b037f00000000000000000000000000000000000000000000000000000000000000001690636352211e9060240160206040518083038186803b158015610e8257600080fd5b505afa158015610e96573d6000803e3d6000fd5b505050506040513d601f19601f82011682018060405250810190610eba9190615425565b6001600160a01b0316148015610edc575060208201516001600160a01b031633145b610ef85760405162461bcd60e51b8152600401610aaf90615b7f565b600061271c846127108110610f0f57610f0f615eb3565b01546001600160a01b031614610f375760405162461bcd60e51b8152600401610aaf90615bab565b6040516323b872dd60e01b81527f00000000000000000000000000000000000000000000000000000000000000006001600160a01b0316906323b872dd90610f8790339030908690600401615ace565b600060405180830381600087803b158015610fa157600080fd5b505af1158015610fb5573d6000803e3d6000fd5b50505061ffff8089166040850152878116606085015286166080840152505063ffffffff831660a082015280600c836127108110610ff557610ff5615eb3565b825191018054602084015160408501516060860151608087015160a09097015163ffffffff16600160e01b026001600160e01b0361ffff988916600160d01b02166001600160d01b03928916600160c01b0261ffff60c01b19948a16600160b01b029490941663ffffffff60b01b196001600160a01b0390961662010000026001600160b01b0319909716999098169890981794909417929092169490941793909317929092169290921717905550806110ae81615e6c565b915050610d26565b50505050505050565b6000828152600a60205260409020600101546110db81336137fb565b6110e58383614032565b505050565b60006110f46140b8565b905090565b6001600160a01b03811633146111695760405162461bcd60e51b815260206004820152602f60248201527f416363657373436f6e74726f6c3a2063616e206f6e6c792072656e6f756e636560448201526e103937b632b9903337b91039b2b63360891b6064820152608401610aaf565b61117382826141df565b5050565b3360008181526002602090815260408083206001600160a01b03871684529091528120549091610a249185906111ae908690615c6e565b6136d7565b60004382106112045760405162461bcd60e51b815260206004820152601f60248201527f4552433230566f7465733a20626c6f636b206e6f7420796574206d696e6564006044820152606401610aaf565b6001600160a01b03831660009081526008602052604090206112269083614246565b9392505050565b600061271c84612710811061124457611244615eb3565b01546001600160a01b031614801561127f575033600c84612710811061126c5761126c615eb3565b01546201000090046001600160a01b0316145b806112a857503361271c84612710811061129b5761129b615eb3565b01546001600160a01b0316145b6112ea5760405162461bcd60e51b8152602060048201526013602482015272139bdd081bdddb9959081bdc881c995b9d1959606a1b6044820152606401610aaf565b604051636756328360e11b81526001600160a01b037f0000000000000000000000000000000000000000000000000000000000000000169063ceac65069061133a90869086908690600401615bd1565b600060405180830381600087803b15801561135457600080fd5b505af11580156110b6573d6000803e3d6000fd5b6113723382614302565b50565b8a89146113bc5760405162461bcd60e51b8152602060048201526015602482015274092dce0eae840d8cadccee8d040dad2e6dac2e8c6d605b1b6044820152606401610aaf565b6113f98c8c8c8c3388306040516020016113dc9796959493929190615af2565b60405160208183030381529060405280519060200120838361437c565b6114395760405162461bcd60e51b8152602060048201526011602482015270496e76616c6964207369676e617475726560781b6044820152606401610aaf565b6000805b8c811015611831576000600c82612710811061145b5761145b615eb3565b6040805160c081018252929091015461ffff80821684526001600160a01b03620100008304166020850152600160b01b8204811692840192909252600160c01b810482166060840152600160d01b8104909116608083015263ffffffff600160e01b9091041660a0820152905060008f8f848181106114dc576114dc615eb3565b905060200201359050816000015161ffff166000146115495760405162461bcd60e51b815260206004820152602360248201527f5765696768742063616e206f6e6c7920626520696e697469616c697a6564206f6044820152626e636560e81b6064820152608401610aaf565b336040516331a9108f60e11b8152600481018390526001600160a01b03918216917f00000000000000000000000000000000000000000000000000000000000000001690636352211e9060240160206040518083038186803b1580156115ae57600080fd5b505afa1580156115c2573d6000803e3d6000fd5b505050506040513d601f19601f820116820180604052508101906115e69190615425565b6001600160a01b03161461160c5760405162461bcd60e51b8152600401610aaf90615b7f565b6040516323b872dd60e01b81527f00000000000000000000000000000000000000000000000000000000000000006001600160a01b0316906323b872dd9061165c90339030908690600401615ace565b600060405180830381600087803b15801561167657600080fd5b505af115801561168a573d6000803e3d6000fd5b505050507f386d7662103b38221201a01f5f88ff9c8c03246b5349135976c5dec31f07b7ef818d6040516116d19291909182526001600160a01b0316602082015260400190565b60405180910390a1508c8c838181106116ec576116ec615eb3565b90506020020135836116fe9190615c6e565b92506117218d8d8481811061171557611715615eb3565b905060200201356143e9565b61ffff90811682526001600160a01b038c1660208301528a8116604083015289811660608301528816608082015263ffffffff871660a082015280600c83612710811061177057611770615eb3565b825191018054602084015160408501516060860151608087015160a09097015163ffffffff16600160e01b026001600160e01b0361ffff988916600160d01b02166001600160d01b03928916600160c01b0261ffff60c01b19948a16600160b01b029490941663ffffffff60b01b196001600160a01b0390961662010000026001600160b01b03199097169990981698909817949094179290921694909417939093179290921692909217179055508061182981615e6c565b91505061143d565b5061184561183e8261385f565b60016138c8565b611859896118528361385f565b6001613ae2565b50611875896118708e670de0b6b3a7640000615d14565b61444c565b50505050505050505050505050565b600080516020615f0383398151915261189d81336137fb565b50614e2f80546001600160a01b0319166001600160a01b0392909216919091179055565b6001600160a01b03811660009081526008602052604081205461097f9061385f565b600080600c8361271081106118fa576118fa615eb3565b6040805160c081018252929091015461ffff80821684526001600160a01b03620100008304166020850152600160b01b8204811692840192909252600160c01b810482166060840152600160d01b8104909116608083015263ffffffff600160e01b9091041660a08201529050600061271c84612710811061197e5761197e615eb3565b6040805160808101825292909101546001600160a01b038116835263ffffffff600160a01b820481166020850152600160c01b82048116928401839052600160e01b9091041660608084019190915284015191925060009161ffff16906119e89062015180615d14565b6119f29190615cc7565b90506000611a30846080015161ffff1662015180611a109190615ce9565b62ffffff16846020015163ffffffff1642611a2b9190615d98565b614456565b8211905080611a6857836060015161ffff16846040015161ffff1662015180611a599190615d14565b611a639190615cc7565b611a6b565b60005b4283856020015163ffffffff16611a829190615c07565b611a8c9190615d59565b611a969190615d59565b9695505050505050565b6001600160a01b03811660009081526006602052604081205461097f565b600080516020615f03833981519152611ad781336137fb565b8115611b07576110e57ff51e39aad788caa2d21dcd39f2b0c07c6bf0bb8f5dbf12f2578b71ea806092f184614032565b6110e57ff51e39aad788caa2d21dcd39f2b0c07c6bf0bb8f5dbf12f2578b71ea806092f1846141df565b6000438210611b825760405162461bcd60e51b815260206004820152601f60248201527f4552433230566f7465733a20626c6f636b206e6f7420796574206d696e6564006044820152606401610aaf565b61097f600983614246565b6000918252600a602090815260408084206001600160a01b0393909316845291905290205460ff1690565b6002600b541415611c0b5760405162461bcd60e51b815260206004820152601f60248201527f5265656e7472616e637947756172643a207265656e7472616e742063616c6c006044820152606401610aaf565b6002600b556000600c846127108110611c2657611c26615eb3565b6040805160c081018252929091015461ffff80821684526001600160a01b03620100008304166020850152600160b01b8204811692840192909252600160c01b810482166060840152600160d01b8104909116608083015263ffffffff600160e01b9091041660a08201529050600061271c856127108110611caa57611caa615eb3565b604080516080808201835293909201546001600160a01b038116835263ffffffff600160a01b820481166020850152600160c01b8204811692840192909252600160e01b900416606082015290830151909150611d0e9061ffff1662015180615ce9565b611d1d9062ffffff1642615c6e565b8260a0015163ffffffff1611611d655760405162461bcd60e51b815260206004820152600d60248201526c4e6f7420617661696c61626c6560981b6044820152606401610aaf565b80516001600160a01b031615611d8d5760405162461bcd60e51b8152600401610aaf90615bab565b81606001518260400151611da19190615c48565b61ffff168363ffffffff1611611df95760405162461bcd60e51b815260206004820152601b60248201527f5061796d656e7420616d6f756e7420696e73756666696369656e7400000000006044820152606401610aaf565b6000611e54836040015161ffff1662015180856060015161ffff16428760a0015163ffffffff16611e2a9190615d98565b611e349190615d14565b611e3e9190615cc7565b611e489190615c6e565b8563ffffffff1661446d565b3383529050611e624261385f565b63ffffffff166020830152611e768161385f565b82604001818151611e879190615c86565b63ffffffff9081169091528616606084015250611edc7f0000000000000000000000000000000000000000000000000000000000000000335b6020860151611ed785670de0b6b3a7640000615d14565b61447c565b8161271c876127108110611ef257611ef2615eb3565b825191018054602084015160408501516060909501516001600160a01b039094166001600160c01b031990921691909117600160a01b63ffffffff92831602176001600160c01b0316600160c01b948216949094026001600160e01b031693909317600160e01b93909216929092021790557f1e29568197ea50b42324d3d0e7c1cc0bbf744df069a4150d45bc1871e03ae76e8633611f9984670de0b6b3a7640000615d14565b604080519384526001600160a01b0390921660208401529082015260600160405180910390a150506001600b5550505050565b60606005805461099490615e37565b60408051608081018252614e2d5463ffffffff8082168352600160201b8083046001600160601b03908116602080870191909152600160801b808604851687890152600160a01b909504821660608088019190915287518089018952614e2c5480871682528590048616818401526001600160a01b038a166000908152614e2e84528981208a519384018b52549687168352948604841692820192909252949093041694830194909452908361209d6120934261385f565b84602001516145a8565b905060008460400151826120b19190615daf565b63ffffffff169050801561213457845163ffffffff161561212757845160608601516121189163ffffffff16906120f1906001600160601b031684615d14565b6120fb9190615cc7565b86602001516001600160601b03166121139190615c6e565b6145c3565b6001600160601b031660208601525b63ffffffff821660408601525b826040015185602001516121489190615dd4565b835161215a919063ffffffff16615d33565b83602001516121699190615ca5565b6001600160601b0390811660208086018290529690960151166040909301929092525091949350505050565b6001600160a01b0381166000908152600860205260408120548015612208576001600160a01b03831660009081526008602052604090206121d7600183615d98565b815481106121e7576121e7615eb3565b600091825260209091200154600160201b90046001600160e01b031661220b565b60005b6001600160e01b03169392505050565b600080516020615f0383398151915261223481336137fb565b8263ffffffff168463ffffffff1611156122825760405162461bcd60e51b815260206004820152600f60248201526e125b98dbdc9c9958dd081a5b9c1d5d608a1b6044820152606401610aaf565b666a94d74f430000826001600160601b03161180156122b257506801a055690d9db80000826001600160601b0316105b6122ef5760405162461bcd60e51b815260206004820152600e60248201526d14985d19481a5b98dbdc9c9958dd60921b6044820152606401610aaf565b7f00000000000000000000000000000000000000000000000000000000000000006001600160a01b031661235d5760405162461bcd60e51b815260206004820152601560248201527414995dd85c991cc81d1bdad95b881b9bdd081cd95d605a1b6044820152606401610aaf565b614e2c5463ffffffff166123704261385f565b63ffffffff16108061239f5750614e2c54600160201b900463ffffffff166123974261385f565b63ffffffff16115b6123e15760405162461bcd60e51b815260206004820152601360248201527214995dd85c991cc8185b1c9958591e481cd95d606a1b6044820152606401610aaf565b614e2c805463ffffffff86811667ffffffffffffffff199092168217600160201b91871691820217909255614e2d80546001600160801b0316600160801b83026001600160a01b031617600160a01b6001600160601b03871690810291909117909155604080519283526020830193909352918101919091527f95efd8a2a0aa591f48fd9673cf5d13c2150ca7a1fe1cbe438dd3f0ae47064663906060015b60405180910390a150505050565b3360009081526002602090815260408083206001600160a01b0386168452909152812054828110156125105760405162461bcd60e51b815260206004820152602560248201527f45524332303a2064656372656173656420616c6c6f77616e63652062656c6f77604482015264207a65726f60d81b6064820152608401610aaf565b61251d33858584036136d7565b5060019392505050565b6000610a24338484613e4d565b61271c81612710811061254657600080fd5b01546001600160a01b038116915063ffffffff600160a01b8204811691600160c01b8104821691600160e01b9091041684565b600c81612710811061258a57600080fd5b015461ffff80821692506201000082046001600160a01b031691600160b01b8104821691600160c01b8204811691600160d01b810490911690600160e01b900463ffffffff1686565b6002600b5414156126265760405162461bcd60e51b815260206004820152601f60248201527f5265656e7472616e637947756172643a207265656e7472616e742063616c6c006044820152606401610aaf565b6002600b556000600c83612710811061264157612641615eb3565b6040805160c081018252929091015461ffff80821684526001600160a01b03620100008304166020850152600160b01b8204811692840192909252600160c01b810482166060840152600160d01b8104909116608083015263ffffffff600160e01b9091041660a08201529050600061271c8461271081106126c5576126c5615eb3565b6040805160808101825292909101546001600160a01b038116835263ffffffff600160a01b820481166020850152600160c01b8204811692840192909252600160e01b900416606082015290506127193390565b6001600160a01b031681600001516001600160a01b03161461276a5760405162461bcd60e51b815260206004820152600a602482015269139bdd081c995b9d195960b21b6044820152606401610aaf565b60006127d2826040015163ffffffff16846040015161ffff1662015180866060015161ffff1686602001518860a001516127a49190615daf565b63ffffffff166127b49190615d14565b6127be9190615cc7565b6127c89190615c6e565b611e489190615d98565b90506127dd8161385f565b826040018181516127ee9190615c86565b63ffffffff169052506128217f000000000000000000000000000000000000000000000000000000000000000033611ec0565b8161271c86612710811061283757612837615eb3565b825191018054602084015160408501516060909501516001600160a01b039094166001600160c01b031990921691909117600160a01b63ffffffff92831602176001600160c01b0316600160c01b948216949094026001600160e01b031693909317600160e01b93909216929092021790557f4d7281212f84ddb5b45fa8c98cceaca247d2a9ca33497d7feb95df1d3d047b0885336128de84670de0b6b3a7640000615d14565b604080519384526001600160a01b0390921660208401529082015260600160405180910390a150506001600b55505050565b7ff51e39aad788caa2d21dcd39f2b0c07c6bf0bb8f5dbf12f2578b71ea806092f161293b81336137fb565b604051636756328360e11b81526001600160a01b037f0000000000000000000000000000000000000000000000000000000000000000169063ceac65069061298b90879087908790600401615bd1565b600060405180830381600087803b1580156129a557600080fd5b505af11580156129b9573d6000803e3d6000fd5b505050507f5e1f8b6e070ba95a96e5921c703fc1f3ae9acce39aef68c989829d7b0dbfd3dd846129e63390565b604080519283526001600160a01b03909116602083015201612480565b83421115612a535760405162461bcd60e51b815260206004820152601d60248201527f4552433230566f7465733a207369676e617475726520657870697265640000006044820152606401610aaf565b604080517fe48329057bfd03d55e49b547132e39cffd9c1820ad7b9d4c5307691425d15adf60208201526001600160a01b038816918101919091526060810186905260808101859052600090612acd90612ac59060a0016040516020818303038152906040528051906020012061462b565b858585614679565b9050612ad8816146a1565b8614612b265760405162461bcd60e51b815260206004820152601960248201527f4552433230566f7465733a20696e76616c6964206e6f6e6365000000000000006044820152606401610aaf565b6110b68188614302565b83421115612b805760405162461bcd60e51b815260206004820152601d60248201527f45524332305065726d69743a206578706972656420646561646c696e650000006044820152606401610aaf565b60007f0000000000000000000000000000000000000000000000000000000000000000888888612baf8c6146a1565b6040805160208101969096526001600160a01b0394851690860152929091166060840152608083015260a082015260c0810186905260e0016040516020818303038152906040528051906020012090506000612c0a8261462b565b90506000612c1a82878787614679565b9050896001600160a01b0316816001600160a01b031614612c7d5760405162461bcd60e51b815260206004820152601e60248201527f45524332305065726d69743a20696e76616c6964207369676e617475726500006044820152606401610aaf565b612c888a8a8a6136d7565b50505050505050505050565b6000828152600a6020526040902060010154612cb081336137fb565b6110e583836141df565b6000805b8781101561305d576000600c826127108110612cdc57612cdc615eb3565b6040805160c081018252929091015461ffff80821684526001600160a01b03620100008304166020850152600160b01b8204811692840192909252600160c01b810482166060840152600160d01b8104909116608083015263ffffffff600160e01b9091041660a0820152905060008a8a84818110612d5d57612d5d615eb3565b905060200201359050816000015161ffff1660001415612db85760405162461bcd60e51b815260206004820152601660248201527515d95a59da1d081b9bdd081a5b9a5d1a585b1a5e995960521b6044820152606401610aaf565b336040516331a9108f60e11b8152600481018390526001600160a01b03918216917f00000000000000000000000000000000000000000000000000000000000000001690636352211e9060240160206040518083038186803b158015612e1d57600080fd5b505afa158015612e31573d6000803e3d6000fd5b505050506040513d601f19601f82011682018060405250810190612e559190615425565b6001600160a01b031614612e7b5760405162461bcd60e51b8152600401610aaf90615b7f565b6040516323b872dd60e01b81527f00000000000000000000000000000000000000000000000000000000000000006001600160a01b0316906323b872dd90612ecb90339030908690600401615ace565b600060405180830381600087803b158015612ee557600080fd5b505af1158015612ef9573d6000803e3d6000fd5b5050604080518481526001600160a01b038d1660208201527f386d7662103b38221201a01f5f88ff9c8c03246b5349135976c5dec31f07b7ef935001905060405180910390a1508051612f509061ffff1684615c6e565b6001600160a01b038916602083015261ffff808916604084015287811660608401528616608083015263ffffffff851660a0830152925080600c836127108110612f9c57612f9c615eb3565b825191018054602084015160408501516060860151608087015160a09097015163ffffffff16600160e01b026001600160e01b0361ffff988916600160d01b02166001600160d01b03928916600160c01b0261ffff60c01b19948a16600160b01b029490941663ffffffff60b01b196001600160a01b0390961662010000026001600160b01b03199097169990981698909817949094179290921694909417939093179290921692909217179055508061305581615e6c565b915050612cbe565b5061306a61183e8261385f565b613077866118528361385f565b5061308e8661187089670de0b6b3a7640000615d14565b5050505050505050565b6000805b82811015613395576000600c8261271081106130ba576130ba615eb3565b6040805160c081018252929091015461ffff80821684526001600160a01b03620100008304166020850152600160b01b8204811692840192909252600160c01b810482166060840152600160d01b8104909116608083015263ffffffff600160e01b9091041660a08201529050600085858481811061313b5761313b615eb3565b90506020020135905061314b3390565b6001600160a01b031682602001516001600160a01b03161461317f5760405162461bcd60e51b8152600401610aaf90615b7f565b600061271c84612710811061319657613196615eb3565b01546001600160a01b0316146131be5760405162461bcd60e51b8152600401610aaf90615bab565b6040516323b872dd60e01b81527f00000000000000000000000000000000000000000000000000000000000000006001600160a01b0316906323b872dd9061320e90309033908690600401615ace565b600060405180830381600087803b15801561322857600080fd5b505af115801561323c573d6000803e3d6000fd5b505050507ffa3da614f910b1404dc8190d3b3592514bbeda644f073679a843be160f262add816132693390565b604080519283526001600160a01b0390911660208301520160405180910390a150805161329a9061ffff1684615c6e565b60006020830181905260408301819052606083018190526080830181905260a0830152925080600c8361271081106132d4576132d4615eb3565b825191018054602084015160408501516060860151608087015160a09097015163ffffffff16600160e01b026001600160e01b0361ffff988916600160d01b02166001600160d01b03928916600160c01b0261ffff60c01b19948a16600160b01b029490941663ffffffff60b01b196001600160a01b0390961662010000026001600160b01b03199097169990981698909817949094179290921694909417939093179290921692909217179055508061338d81615e6c565b91505061309c565b506133a96133a28261385f565b60006138c8565b6133bd336133b68361385f565b6000613ae2565b506110e5336133d484670de0b6b3a7640000615d14565b6146c9565b60408051808201909152600080825260208201526001600160a01b0383166000908152600860205260409020805463ffffffff841690811061341d5761341d615eb3565b60009182526020918290206040805180820190915291015463ffffffff81168252600160201b90046001600160e01b0316918101919091529392505050565b6000600c82612710811061347257613472615eb3565b6040805160c081018252929091015461ffff80821684526001600160a01b03620100008304166020850152600160b01b8204811692840192909252600160c01b810482166060840152600160d01b8104909116608083015263ffffffff600160e01b9091041660a08201529050600061271c8361271081106134f6576134f6615eb3565b6040805160808101825292909101546001600160a01b038116835263ffffffff600160a01b820481166020850152600160c01b82048116928401839052600160e01b9091041660608084019190915284015191925060009161ffff16906135609062015180615d14565b61356a9190615cc7565b90506000613588846080015161ffff1662015180611a109190615ce9565b8211806135db575060208301516135a59063ffffffff1642615d98565b846060015161ffff16856040015161ffff16620151806135c59190615d14565b6135cf9190615cc7565b6135d99084615d98565b115b905080156135fb5760405162461bcd60e51b8152600401610aaf90615bab565b6000808452602084018190526040840181905260608401528261271c86612710811061362957613629615eb3565b825191018054602084015160408501516060909501516001600160a01b039094166001600160c01b031990921691909117600160a01b63ffffffff92831602176001600160c01b0316600160c01b948216949094026001600160e01b031693909317600160e01b93909216929092021790555050505050565b60006001600160e01b03198216637965db0b60e01b148061097f57506301ffc9a760e01b6001600160e01b031983161461097f565b6001600160a01b0383166137395760405162461bcd60e51b8152602060048201526024808201527f45524332303a20617070726f76652066726f6d20746865207a65726f206164646044820152637265737360e01b6064820152608401610aaf565b6001600160a01b03821661379a5760405162461bcd60e51b815260206004820152602260248201527f45524332303a20617070726f766520746f20746865207a65726f206164647265604482015261737360f01b6064820152608401610aaf565b6001600160a01b0383811660008181526002602090815260408083209487168084529482529182902085905590518481527f8c5be1e5ebec7d5bd14f71427d1e84f3dd0314c0f7b2291e5b200ac8c7c3b925910160405180910390a3505050565b6138058282611b8d565b6111735761381d816001600160a01b031660146146d3565b6138288360206146d3565b604051602001613839929190615a59565b60408051601f198184030181529082905262461bcd60e51b8252610aaf91600401615b4c565b600063ffffffff8211156138c45760405162461bcd60e51b815260206004820152602660248201527f53616665436173743a2076616c756520646f65736e27742066697420696e203360448201526532206269747360d01b6064820152608401610aaf565b5090565b60408051608081018252614e2d5463ffffffff8082168352600160201b8083046001600160601b03908116602080870191909152600160801b8504841686880152600160a01b9094041660608501528451808601909552614e2c54808316808752919004909116918401919091529091906139424261385f565b63ffffffff16106139fa57600061396561395b4261385f565b83602001516145a8565b905060008360400151826139799190615daf565b63ffffffff16905080156139f757835163ffffffff16156139ea57835160608501516139db9163ffffffff16906139b9906001600160601b031684615d14565b6139c39190615cc7565b85602001516001600160601b03166121139190615c6e565b6001600160601b031660208501525b63ffffffff821660408501525b50505b8215613a20578382600001818151613a129190615c86565b63ffffffff16905250613a3c565b8382600001818151613a329190615daf565b63ffffffff169052505b8151614e2d805460208086015160408088015160608901516001600160601b03908116600160a01b026001600160a01b0363ffffffff938416600160801b02166001600160801b0392909516600160201b81026001600160801b0319909816939099169290921795909517949094169190911792909217909255519182527faac1802288db8019f8ec43430efc11a152c72473c57d6ddcde3b6dd0c89260679101612480565b6001600160a01b0383166000908152614e2e60209081526040808320815160608082018452915463ffffffff80821683526001600160601b03600160201b808404821685890152600160801b9384900482168588019081528751608081018952614e2d54808616825292830484169981018a905294820490931696840196909652600160a01b90950490941692810192909252915191929091613b8491615dd4565b8251613b96919063ffffffff16615d33565b8260200151613ba59190615ca5565b6001600160601b039081166020808501919091528201511660408301528315613be8578482600001818151613bda9190615c86565b63ffffffff16905250613c04565b8482600001818151613bfa9190615daf565b63ffffffff169052505b6001600160a01b0386166000818152614e2e602090815260409182902085518154878401518886015163ffffffff9384166001600160801b031990931692909217600160201b6001600160601b0392831602176bffffffffffffffffffffffff60801b1916600160801b919092160217909155825188151581529089169181019190915242918101919091527fb1de227711aba68cec92891ccaabad9474a3f417d166ca8f57e7d616f467d3439060600160405180910390a27f5b9aaf4cc5141c090a75f8b8a627863eba92df81f0c83c096350da9b79aedd048683602001518460400151604051613d1d939291906001600160a01b039390931683526001600160601b03918216602084015216604082015260600190565b60405180910390a15060200151949350505050565b604080516001600160a01b038481166024830152604480830185905283518084039091018152606490920183526020820180516001600160e01b031663a9059cbb60e01b1790529151600092839290871691613d8e9190615a3d565b6000604051808303816000865af19150503d8060008114613dcb576040519150601f19603f3d011682016040523d82523d6000602084013e613dd0565b606091505b5091509150818015613dfa575080511580613dfa575080806020019051810190613dfa9190615882565b613e465760405162461bcd60e51b815260206004820152601f60248201527f5472616e7366657248656c7065723a205452414e534645525f4641494c4544006044820152606401610aaf565b5050505050565b6001600160a01b038316613eb15760405162461bcd60e51b815260206004820152602560248201527f45524332303a207472616e736665722066726f6d20746865207a65726f206164604482015264647265737360d81b6064820152608401610aaf565b6001600160a01b038216613f135760405162461bcd60e51b815260206004820152602360248201527f45524332303a207472616e7366657220746f20746865207a65726f206164647260448201526265737360e81b6064820152608401610aaf565b613f1e83838361486f565b6001600160a01b03831660009081526001602052604090205481811015613f965760405162461bcd60e51b815260206004820152602660248201527f45524332303a207472616e7366657220616d6f756e7420657863656564732062604482015265616c616e636560d01b6064820152608401610aaf565b6001600160a01b03808516600090815260016020526040808220858503905591851681529081208054849290613fcd908490615c6e565b92505081905550826001600160a01b0316846001600160a01b03167fddf252ad1be2c89b69c2b068fc378daa952ba7f163c4a11628f55a4df523b3ef8460405161401991815260200190565b60405180910390a361402c8484846148d8565b50505050565b61403c8282611b8d565b611173576000828152600a602090815260408083206001600160a01b03851684529091529020805460ff191660011790556140743390565b6001600160a01b0316816001600160a01b0316837f2f8788117e7eff1d82e926ec794901d17c78024a50270940304540a733656f0d60405160405180910390a45050565b6000306001600160a01b037f00000000000000000000000000000000000000000000000000000000000000001614801561411157507f000000000000000000000000000000000000000000000000000000000000000046145b1561413b57507f000000000000000000000000000000000000000000000000000000000000000090565b50604080517f00000000000000000000000000000000000000000000000000000000000000006020808301919091527f0000000000000000000000000000000000000000000000000000000000000000828401527f000000000000000000000000000000000000000000000000000000000000000060608301524660808301523060a0808401919091528351808403909101815260c0909201909252805191012090565b6141e98282611b8d565b15611173576000828152600a602090815260408083206001600160a01b0385168085529252808320805460ff1916905551339285917ff6391f5c32d9c69d2a47ea670b442974b53935d1edc7fd64eb21e047a839171b9190a45050565b8154600090815b818110156142aa57600061426182846148e3565b90508486828154811061427657614276615eb3565b60009182526020909120015463ffffffff161115614296578092506142a4565b6142a1816001615c6e565b91505b5061424d565b81156142ed57846142bc600184615d98565b815481106142cc576142cc615eb3565b600091825260209091200154600160201b90046001600160e01b03166142f0565b60005b6001600160e01b031695945050505050565b6001600160a01b03828116600081815260076020818152604080842080546001845282862054949093528787166001600160a01b03198416811790915590519190951694919391928592917f3134e8a2e6d97e929a7e54011ea5485d7d196dd5f0ba4d4ef95803e8e3fc257f9190a461402c8284836148fe565b614e2f54604080516020601f85018190048102820181019092528381526000926001600160a01b0316916143d7919086908690819084018382808284376000920191909152506143d19250899150614a3b9050565b90614a8e565b6001600160a01b031614949350505050565b600061ffff8211156138c45760405162461bcd60e51b815260206004820152602660248201527f53616665436173743a2076616c756520646f65736e27742066697420696e203160448201526536206269747360d01b6064820152608401610aaf565b6111738282614ab2565b6000818310156144665781611226565b5090919050565b60008183106144665781611226565b600080856001600160a01b03166323b872dd8686866040516024016144a393929190615ace565b6040516020818303038152906040529060e01b6020820180516001600160e01b0383818316178352505050506040516144dc9190615a3d565b6000604051808303816000865af19150503d8060008114614519576040519150601f19603f3d011682016040523d82523d6000602084013e61451e565b606091505b50915091508180156145485750805115806145485750808060200190518101906145489190615882565b6145a05760405162461bcd60e51b8152602060048201526024808201527f5472616e7366657248656c7065723a205452414e534645525f46524f4d5f46416044820152631253115160e21b6064820152608401610aaf565b505050505050565b60008163ffffffff168363ffffffff16106144665781611226565b60006001600160601b038211156138c45760405162461bcd60e51b815260206004820152602660248201527f53616665436173743a2076616c756520646f65736e27742066697420696e203960448201526536206269747360d01b6064820152608401610aaf565b600061097f6146386140b8565b8360405161190160f01b6020820152602281018390526042810182905260009060620160405160208183030381529060405280519060200120905092915050565b600080600061468a87878787614b3c565b9150915061469781614c29565b5095945050505050565b6001600160a01b03811660009081526006602052604090208054600181018255905b50919050565b6111738282614de4565b606060006146e2836002615d14565b6146ed906002615c6e565b67ffffffffffffffff81111561470557614705615ec9565b6040519080825280601f01601f19166020018201604052801561472f576020820181803683370190505b509050600360fc1b8160008151811061474a5761474a615eb3565b60200101906001600160f81b031916908160001a905350600f60fb1b8160018151811061477957614779615eb3565b60200101906001600160f81b031916908160001a905350600061479d846002615d14565b6147a8906001615c6e565b90505b6001811115614820576f181899199a1a9b1b9c1cb0b131b232b360811b85600f16601081106147dc576147dc615eb3565b1a60f81b8282815181106147f2576147f2615eb3565b60200101906001600160f81b031916908160001a90535060049490941c9361481981615e20565b90506147ab565b5083156112265760405162461bcd60e51b815260206004820181905260248201527f537472696e67733a20686578206c656e67746820696e73756666696369656e746044820152606401610aaf565b6001600160a01b038316158061488c57506001600160a01b038216155b6110e55760405162461bcd60e51b815260206004820152601860248201527f45524332303a204e6f6e2d7472616e736665727261626c6500000000000000006044820152606401610aaf565b6110e5838383614dfc565b60006148f26002848418615cc7565b61122690848416615c6e565b816001600160a01b0316836001600160a01b0316141580156149205750600081115b156110e5576001600160a01b038316156149ae576001600160a01b0383166000908152600860205260408120819061495b90614e2e85614e3a565b91509150846001600160a01b03167fdec2bacdd2f05b59de34da9b523dff8be42e5e38e818c82fdb0bae774387a72483836040516149a3929190918252602082015260400190565b60405180910390a250505b6001600160a01b038216156110e5576001600160a01b038216600090815260086020526040812081906149e490614fb185614e3a565b91509150836001600160a01b03167fdec2bacdd2f05b59de34da9b523dff8be42e5e38e818c82fdb0bae774387a7248383604051614a2c929190918252602082015260400190565b60405180910390a25050505050565b6040517f19457468657265756d205369676e6564204d6573736167653a0a3332000000006020820152603c8101829052600090605c01604051602081830303815290604052805190602001209050919050565b6000806000614a9d8585614fbd565b91509150614aaa81614c29565b509392505050565b614abc828261502d565b6003546001600160e01b031015614b2e5760405162461bcd60e51b815260206004820152603060248201527f4552433230566f7465733a20746f74616c20737570706c79207269736b73206f60448201526f766572666c6f77696e6720766f74657360801b6064820152608401610aaf565b61402c6009614fb183614e3a565b6000807f7fffffffffffffffffffffffffffffff5d576e7357a4501ddfe92f46681b20a0831115614b735750600090506003614c20565b8460ff16601b14158015614b8b57508460ff16601c14155b15614b9c5750600090506004614c20565b6040805160008082526020820180845289905260ff881692820192909252606081018690526080810185905260019060a0016020604051602081039080840390855afa158015614bf0573d6000803e3d6000fd5b5050604051601f1901519150506001600160a01b038116614c1957600060019250925050614c20565b9150600090505b94509492505050565b6000816004811115614c3d57614c3d615e9d565b1415614c465750565b6001816004811115614c5a57614c5a615e9d565b1415614ca85760405162461bcd60e51b815260206004820152601860248201527f45434453413a20696e76616c6964207369676e617475726500000000000000006044820152606401610aaf565b6002816004811115614cbc57614cbc615e9d565b1415614d0a5760405162461bcd60e51b815260206004820152601f60248201527f45434453413a20696e76616c6964207369676e6174757265206c656e677468006044820152606401610aaf565b6003816004811115614d1e57614d1e615e9d565b1415614d775760405162461bcd60e51b815260206004820152602260248201527f45434453413a20696e76616c6964207369676e6174757265202773272076616c604482015261756560f01b6064820152608401610aaf565b6004816004811115614d8b57614d8b615e9d565b14156113725760405162461bcd60e51b815260206004820152602260248201527f45434453413a20696e76616c6964207369676e6174757265202776272076616c604482015261756560f01b6064820152608401610aaf565b614dee8282615120565b61402c6009614e2e83614e3a565b6001600160a01b038381166000908152600760205260408082205485841683529120546110e5929182169116836148fe565b60006112268284615d98565b825460009081908015614e845785614e53600183615d98565b81548110614e6357614e63615eb3565b600091825260209091200154600160201b90046001600160e01b0316614e87565b60005b6001600160e01b03169250614ea083858763ffffffff16565b9150600081118015614ede57504386614eba600184615d98565b81548110614eca57614eca615eb3565b60009182526020909120015463ffffffff16145b15614f3e57614eec82615281565b86614ef8600184615d98565b81548110614f0857614f08615eb3565b9060005260206000200160000160046101000a8154816001600160e01b0302191690836001600160e01b03160217905550614fa8565b856040518060400160405280614f534361385f565b63ffffffff168152602001614f6785615281565b6001600160e01b039081169091528254600181018455600093845260209384902083519490930151909116600160201b0263ffffffff909316929092179101555b50935093915050565b60006112268284615c6e565b600080825160411415614ff45760208301516040840151606085015160001a614fe887828585614b3c565b94509450505050615026565b82516040141561501e57602083015160408401516150138683836152ea565b935093505050615026565b506000905060025b9250929050565b6001600160a01b0382166150835760405162461bcd60e51b815260206004820152601f60248201527f45524332303a206d696e7420746f20746865207a65726f2061646472657373006044820152606401610aaf565b61508f6000838361486f565b80600360008282546150a19190615c6e565b90915550506001600160a01b038216600090815260016020526040812080548392906150ce908490615c6e565b90915550506040518181526001600160a01b038316906000907fddf252ad1be2c89b69c2b068fc378daa952ba7f163c4a11628f55a4df523b3ef9060200160405180910390a3611173600083836148d8565b6001600160a01b0382166151805760405162461bcd60e51b815260206004820152602160248201527f45524332303a206275726e2066726f6d20746865207a65726f206164647265736044820152607360f81b6064820152608401610aaf565b61518c8260008361486f565b6001600160a01b038216600090815260016020526040902054818110156152005760405162461bcd60e51b815260206004820152602260248201527f45524332303a206275726e20616d6f756e7420657863656564732062616c616e604482015261636560f01b6064820152608401610aaf565b6001600160a01b038316600090815260016020526040812083830390556003805484929061522f908490615d98565b90915550506040518281526000906001600160a01b038516907fddf252ad1be2c89b69c2b068fc378daa952ba7f163c4a11628f55a4df523b3ef9060200160405180910390a36110e5836000846148d8565b60006001600160e01b038211156138c45760405162461bcd60e51b815260206004820152602760248201527f53616665436173743a2076616c756520646f65736e27742066697420696e20326044820152663234206269747360c81b6064820152608401610aaf565b6000806001600160ff1b0383168161530760ff86901c601b615c6e565b905061531587828885614b3c565b935093505050935093915050565b803561532e81615edf565b919050565b60008083601f84011261534557600080fd5b50813567ffffffffffffffff81111561535d57600080fd5b6020830191508360208260051b850101111561502657600080fd5b60008083601f84011261538a57600080fd5b50813567ffffffffffffffff8111156153a257600080fd5b60208301915083602082850101111561502657600080fd5b803561ffff8116811461532e57600080fd5b803563ffffffff8116811461532e57600080fd5b803560ff8116811461532e57600080fd5b80356001600160601b038116811461532e57600080fd5b60006020828403121561541a57600080fd5b813561122681615edf565b60006020828403121561543757600080fd5b815161122681615edf565b6000806040838503121561545557600080fd5b823561546081615edf565b9150602083013561547081615edf565b809150509250929050565b60008060006060848603121561549057600080fd5b833561549b81615edf565b925060208401356154ab81615edf565b929592945050506040919091013590565b600080600080600080600060e0888a0312156154d757600080fd5b87356154e281615edf565b965060208801356154f281615edf565b9550604088013594506060880135935061550e608089016153e0565b925060a0880135915060c0880135905092959891949750929550565b6000806040838503121561553d57600080fd5b823561554881615edf565b9150602083013561547081615ef4565b6000806040838503121561556b57600080fd5b823561557681615edf565b946020939093013593505050565b60008060008060008060c0878903121561559d57600080fd5b86356155a881615edf565b955060208701359450604087013593506155c4606088016153e0565b92506080870135915060a087013590509295509295509295565b600080604083850312156155f157600080fd5b82356155fc81615edf565b915061560a602084016153cc565b90509250929050565b6000806020838503121561562657600080fd5b823567ffffffffffffffff81111561563d57600080fd5b61564985828601615333565b90969095509350505050565b600080600080600080600060c0888a03121561567057600080fd5b873567ffffffffffffffff81111561568757600080fd5b6156938a828b01615333565b90985096505060208801356156a781615edf565b94506156b5604089016153ba565b93506156c3606089016153ba565b92506156d1608089016153ba565b91506156df60a089016153cc565b905092959891949750929550565b6000806000806000806000806000806000806101208d8f03121561571057600080fd5b67ffffffffffffffff8d35111561572657600080fd5b6157338e8e358f01615333565b909c509a5067ffffffffffffffff60208e0135111561575157600080fd5b6157618e60208f01358f01615333565b909a50985061577260408e01615323565b975061578060608e016153ba565b965061578e60808e016153ba565b955061579c60a08e016153ba565b94506157aa60c08e016153cc565b93506157b860e08e016153cc565b925067ffffffffffffffff6101008e013511156157d457600080fd5b6157e58e6101008f01358f01615378565b81935080925050509295989b509295989b509295989b565b60008060008060008060a0878903121561581657600080fd5b863567ffffffffffffffff81111561582d57600080fd5b61583989828a01615333565b909750955061584c9050602088016153ba565b935061585a604088016153ba565b9250615868606088016153ba565b9150615876608088016153cc565b90509295509295509295565b60006020828403121561589457600080fd5b815161122681615ef4565b6000602082840312156158b157600080fd5b5035919050565b600080604083850312156158cb57600080fd5b82359150602083013561547081615edf565b6000602082840312156158ef57600080fd5b81356001600160e01b03198116811461122657600080fd5b60008060006040848603121561591c57600080fd5b83359250602084013567ffffffffffffffff81111561593a57600080fd5b61594686828701615378565b9497909650939450505050565b6000806040838503121561596657600080fd5b8235915061560a602084016153cc565b60008060006060848603121561598b57600080fd5b8335925061599b602085016153cc565b91506159a9604085016153cc565b90509250925092565b6000806000606084860312156159c757600080fd5b6159d0846153cc565b92506159de602085016153cc565b91506159a9604085016153f1565b6000602082840312156159fe57600080fd5b611226826153f1565b81835260006001600160fb1b03831115615a2057600080fd5b8260051b8083602087013760009401602001938452509192915050565b60008251615a4f818460208701615df4565b9190910192915050565b7f416363657373436f6e74726f6c3a206163636f756e7420000000000000000000815260008351615a91816017850160208801615df4565b7001034b99036b4b9b9b4b733903937b6329607d1b6017918401918201528351615ac2816028840160208801615df4565b01602801949350505050565b6001600160a01b039384168152919092166020820152604081019190915260600190565b60a081526000615b0660a08301898b615a07565b8281036020840152615b1981888a615a07565b6001600160a01b03968716604085015263ffffffff95909516606084015250509216608090920191909152949350505050565b6020815260008251806020840152615b6b816040850160208701615df4565b601f01601f19169190910160400192915050565b602080825260129082015271139bdd081e5bdd5c881bdddb881ddbdc9b1960721b604082015260600190565b6020808252600c908201526b13db99dbda5b99c81c995b9d60a21b604082015260600190565b83815260406020820152816040820152818360608301376000818301606090810191909152601f909201601f1916010192915050565b600080821280156001600160ff1b0384900385131615615c2957615c29615e87565b600160ff1b8390038412811615615c4257615c42615e87565b50500190565b600061ffff808316818516808303821115615c6557615c65615e87565b01949350505050565b60008219821115615c8157615c81615e87565b500190565b600063ffffffff808316818516808303821115615c6557615c65615e87565b60006001600160601b03808316818516808303821115615c6557615c65615e87565b600082615ce457634e487b7160e01b600052601260045260246000fd5b500490565b600062ffffff80831681851681830481118215151615615d0b57615d0b615e87565b02949350505050565b6000816000190483118215151615615d2e57615d2e615e87565b500290565b60006001600160601b0380831681851681830481118215151615615d0b57615d0b615e87565b60008083128015600160ff1b850184121615615d7757615d77615e87565b6001600160ff1b0384018313811615615d9257615d92615e87565b50500390565b600082821015615daa57615daa615e87565b500390565b600063ffffffff83811690831681811015615dcc57615dcc615e87565b039392505050565b60006001600160601b0383811690831681811015615dcc57615dcc615e87565b60005b83811015615e0f578181015183820152602001615df7565b8381111561402c5750506000910152565b600081615e2f57615e2f615e87565b506000190190565b600181811c90821680615e4b57607f821691505b602082108114156146c357634e487b7160e01b600052602260045260246000fd5b6000600019821415615e8057615e80615e87565b5060010190565b634e487b7160e01b600052601160045260246000fd5b634e487b7160e01b600052602160045260246000fd5b634e487b7160e01b600052603260045260246000fd5b634e487b7160e01b600052604160045260246000fd5b6001600160a01b038116811461137257600080fd5b801515811461137257600080fdfeb19546dff01e856fb3f010c267a7b1c60363cf8a4664e21cc89c26224620214ea26469706673582212209ac61d1fa4867ba6865bd7aac8e1d15548ba70f18a06d73d04a038372ea5a6f964736f6c63430008070033",
			"opcodes": "PUSH2 0x1A0 PUSH1 0x40 MSTORE PUSH32 0x6E71EDAE12B1B97F4D1F60370FEF10105FA2FAAE0126114A169C64845D6126C9 PUSH2 0x140 MSTORE CALLVALUE DUP1 ISZERO PUSH3 0x37 JUMPI PUSH1 0x0 DUP1 REVERT JUMPDEST POP PUSH1 0x40 MLOAD PUSH3 0x64E2 CODESIZE SUB DUP1 PUSH3 0x64E2 DUP4 CODECOPY DUP2 ADD PUSH1 0x40 DUP2 SWAP1 MSTORE PUSH3 0x5A SWAP2 PUSH3 0x44E JUMP JUMPDEST PUSH1 0x40 MLOAD DUP1 PUSH1 0x40 ADD PUSH1 0x40 MSTORE DUP1 PUSH1 0x16 DUP2 MSTORE PUSH1 0x20 ADD PUSH32 0x566F74652D657363726F776564204E4654576F726C6400000000000000000000 DUP2 MSTORE POP DUP1 PUSH1 0x40 MLOAD DUP1 PUSH1 0x40 ADD PUSH1 0x40 MSTORE DUP1 PUSH1 0x1 DUP2 MSTORE PUSH1 0x20 ADD PUSH1 0x31 PUSH1 0xF8 SHL DUP2 MSTORE POP PUSH1 0x40 MLOAD DUP1 PUSH1 0x40 ADD PUSH1 0x40 MSTORE DUP1 PUSH1 0x16 DUP2 MSTORE PUSH1 0x20 ADD PUSH32 0x566F74652D657363726F776564204E4654576F726C6400000000000000000000 DUP2 MSTORE POP PUSH1 0x40 MLOAD DUP1 PUSH1 0x40 ADD PUSH1 0x40 MSTORE DUP1 PUSH1 0x6 DUP2 MSTORE PUSH1 0x20 ADD PUSH6 0x1D9955D49311 PUSH1 0xD2 SHL DUP2 MSTORE POP DUP2 PUSH1 0x4 SWAP1 DUP1 MLOAD SWAP1 PUSH1 0x20 ADD SWAP1 PUSH3 0x118 SWAP3 SWAP2 SWAP1 PUSH3 0x38B JUMP JUMPDEST POP DUP1 MLOAD PUSH3 0x12E SWAP1 PUSH1 0x5 SWAP1 PUSH1 0x20 DUP5 ADD SWAP1 PUSH3 0x38B JUMP JUMPDEST POP POP DUP3 MLOAD PUSH1 0x20 DUP1 DUP6 ADD SWAP2 SWAP1 SWAP2 KECCAK256 DUP4 MLOAD DUP5 DUP4 ADD KECCAK256 PUSH1 0xE0 DUP3 SWAP1 MSTORE PUSH2 0x100 DUP2 SWAP1 MSTORE CHAINID PUSH1 0xA0 DUP2 DUP2 MSTORE PUSH1 0x40 DUP1 MLOAD PUSH32 0x8B73C3C69BB8FE3D512ECC4CF759CC79239F7B179B0FFACAA9A75D522B39400F DUP2 DUP9 ADD DUP2 SWAP1 MSTORE DUP2 DUP4 ADD DUP8 SWAP1 MSTORE PUSH1 0x60 DUP3 ADD DUP7 SWAP1 MSTORE PUSH1 0x80 DUP3 ADD SWAP5 SWAP1 SWAP5 MSTORE ADDRESS DUP2 DUP5 ADD MSTORE DUP2 MLOAD DUP1 DUP3 SUB SWAP1 SWAP4 ADD DUP4 MSTORE PUSH1 0xC0 ADD SWAP1 MSTORE DUP1 MLOAD SWAP5 ADD SWAP4 SWAP1 SWAP4 KECCAK256 SWAP2 SWAP4 POP SWAP2 SWAP1 PUSH1 0x80 MSTORE ADDRESS PUSH1 0x60 SHL PUSH1 0xC0 MSTORE PUSH2 0x120 MSTORE POP POP PUSH1 0x1 PUSH1 0xB SSTORE POP POP POP PUSH1 0x1 PUSH1 0x1 PUSH1 0xA0 SHL SUB DUP3 AND PUSH3 0x210 JUMPI PUSH1 0x40 MLOAD PUSH3 0x461BCD PUSH1 0xE5 SHL DUP2 MSTORE PUSH1 0x20 PUSH1 0x4 DUP3 ADD MSTORE PUSH1 0x6 PUSH1 0x24 DUP3 ADD MSTORE PUSH6 0x61646472203 PUSH1 0xD4 SHL PUSH1 0x44 DUP3 ADD MSTORE PUSH1 0x64 ADD JUMPDEST PUSH1 0x40 MLOAD DUP1 SWAP2 SUB SWAP1 REVERT JUMPDEST PUSH1 0x1 PUSH1 0x1 PUSH1 0xA0 SHL SUB DUP2 AND PUSH3 0x251 JUMPI PUSH1 0x40 MLOAD PUSH3 0x461BCD PUSH1 0xE5 SHL DUP2 MSTORE PUSH1 0x20 PUSH1 0x4 DUP3 ADD MSTORE PUSH1 0x6 PUSH1 0x24 DUP3 ADD MSTORE PUSH6 0x61646472203 PUSH1 0xD4 SHL PUSH1 0x44 DUP3 ADD MSTORE PUSH1 0x64 ADD PUSH3 0x207 JUMP JUMPDEST PUSH3 0x25E PUSH1 0x0 CALLER PUSH3 0x2D7 JUMP JUMPDEST PUSH3 0x28A PUSH32 0xB19546DFF01E856FB3F010C267A7B1C60363CF8A4664E21CC89C26224620214E CALLER PUSH3 0x2D7 JUMP JUMPDEST PUSH3 0x2B6 PUSH32 0x8736816FDBCC15D6CC3F6DCF60E42B0EF33EB02281D312C807A38B4AD09190C0 DUP3 PUSH3 0x2D7 JUMP JUMPDEST PUSH1 0x1 PUSH1 0x1 PUSH1 0x60 SHL SUB NOT PUSH1 0x60 SWAP3 DUP4 SHL DUP2 AND PUSH2 0x160 MSTORE SWAP2 SHL AND PUSH2 0x180 MSTORE PUSH3 0x4C3 JUMP JUMPDEST PUSH3 0x2E3 DUP3 DUP3 PUSH3 0x2E7 JUMP JUMPDEST POP POP JUMP JUMPDEST PUSH1 0x0 DUP3 DUP2 MSTORE PUSH1 0xA PUSH1 0x20 SWAP1 DUP2 MSTORE PUSH1 0x40 DUP1 DUP4 KECCAK256 PUSH1 0x1 PUSH1 0x1 PUSH1 0xA0 SHL SUB DUP6 AND DUP5 MSTORE SWAP1 SWAP2 MSTORE SWAP1 KECCAK256 SLOAD PUSH1 0xFF AND PUSH3 0x2E3 JUMPI PUSH1 0x0 DUP3 DUP2 MSTORE PUSH1 0xA PUSH1 0x20 SWAP1 DUP2 MSTORE PUSH1 0x40 DUP1 DUP4 KECCAK256 PUSH1 0x1 PUSH1 0x1 PUSH1 0xA0 SHL SUB DUP6 AND DUP5 MSTORE SWAP1 SWAP2 MSTORE SWAP1 KECCAK256 DUP1 SLOAD PUSH1 0xFF NOT AND PUSH1 0x1 OR SWAP1 SSTORE PUSH3 0x347 CALLER SWAP1 JUMP JUMPDEST PUSH1 0x1 PUSH1 0x1 PUSH1 0xA0 SHL SUB AND DUP2 PUSH1 0x1 PUSH1 0x1 PUSH1 0xA0 SHL SUB AND DUP4 PUSH32 0x2F8788117E7EFF1D82E926EC794901D17C78024A50270940304540A733656F0D PUSH1 0x40 MLOAD PUSH1 0x40 MLOAD DUP1 SWAP2 SUB SWAP1 LOG4 POP POP JUMP JUMPDEST DUP3 DUP1 SLOAD PUSH3 0x399 SWAP1 PUSH3 0x486 JUMP JUMPDEST SWAP1 PUSH1 0x0 MSTORE PUSH1 0x20 PUSH1 0x0 KECCAK256 SWAP1 PUSH1 0x1F ADD PUSH1 0x20 SWAP1 DIV DUP2 ADD SWAP3 DUP3 PUSH3 0x3BD JUMPI PUSH1 0x0 DUP6 SSTORE PUSH3 0x408 JUMP JUMPDEST DUP3 PUSH1 0x1F LT PUSH3 0x3D8 JUMPI DUP1 MLOAD PUSH1 0xFF NOT AND DUP4 DUP1 ADD OR DUP6 SSTORE PUSH3 0x408 JUMP JUMPDEST DUP3 DUP1 ADD PUSH1 0x1 ADD DUP6 SSTORE DUP3 ISZERO PUSH3 0x408 JUMPI SWAP2 DUP3 ADD JUMPDEST DUP3 DUP2 GT ISZERO PUSH3 0x408 JUMPI DUP3 MLOAD DUP3 SSTORE SWAP2 PUSH1 0x20 ADD SWAP2 SWAP1 PUSH1 0x1 ADD SWAP1 PUSH3 0x3EB JUMP JUMPDEST POP PUSH3 0x416 SWAP3 SWAP2 POP PUSH3 0x41A JUMP JUMPDEST POP SWAP1 JUMP JUMPDEST JUMPDEST DUP1 DUP3 GT ISZERO PUSH3 0x416 JUMPI PUSH1 0x0 DUP2 SSTORE PUSH1 0x1 ADD PUSH3 0x41B JUMP JUMPDEST DUP1 MLOAD PUSH1 0x1 PUSH1 0x1 PUSH1 0xA0 SHL SUB DUP2 AND DUP2 EQ PUSH3 0x449 JUMPI PUSH1 0x0 DUP1 REVERT JUMPDEST SWAP2 SWAP1 POP JUMP JUMPDEST PUSH1 0x0 DUP1 PUSH1 0x40 DUP4 DUP6 SUB SLT ISZERO PUSH3 0x462 JUMPI PUSH1 0x0 DUP1 REVERT JUMPDEST PUSH3 0x46D DUP4 PUSH3 0x431 JUMP JUMPDEST SWAP2 POP PUSH3 0x47D PUSH1 0x20 DUP5 ADD PUSH3 0x431 JUMP JUMPDEST SWAP1 POP SWAP3 POP SWAP3 SWAP1 POP JUMP JUMPDEST PUSH1 0x1 DUP2 DUP2 SHR SWAP1 DUP3 AND DUP1 PUSH3 0x49B JUMPI PUSH1 0x7F DUP3 AND SWAP2 POP JUMPDEST PUSH1 0x20 DUP3 LT DUP2 EQ ISZERO PUSH3 0x4BD JUMPI PUSH4 0x4E487B71 PUSH1 0xE0 SHL PUSH1 0x0 MSTORE PUSH1 0x22 PUSH1 0x4 MSTORE PUSH1 0x24 PUSH1 0x0 REVERT JUMPDEST POP SWAP2 SWAP1 POP JUMP JUMPDEST PUSH1 0x80 MLOAD PUSH1 0xA0 MLOAD PUSH1 0xC0 MLOAD PUSH1 0x60 SHR PUSH1 0xE0 MLOAD PUSH2 0x100 MLOAD PUSH2 0x120 MLOAD PUSH2 0x140 MLOAD PUSH2 0x160 MLOAD PUSH1 0x60 SHR PUSH2 0x180 MLOAD PUSH1 0x60 SHR PUSH2 0x5F58 PUSH3 0x58A PUSH1 0x0 CODECOPY PUSH1 0x0 DUP2 DUP2 PUSH2 0xE40 ADD MSTORE DUP2 DUP2 PUSH2 0xF46 ADD MSTORE DUP2 DUP2 PUSH2 0x1301 ADD MSTORE DUP2 DUP2 PUSH2 0x156C ADD MSTORE DUP2 DUP2 PUSH2 0x161B ADD MSTORE DUP2 DUP2 PUSH2 0x2952 ADD MSTORE DUP2 DUP2 PUSH2 0x2DDB ADD MSTORE DUP2 DUP2 PUSH2 0x2E8A ADD MSTORE PUSH2 0x31CD ADD MSTORE PUSH1 0x0 DUP2 DUP2 PUSH2 0xC0D ADD MSTORE DUP2 DUP2 PUSH2 0x1E9F ADD MSTORE DUP2 DUP2 PUSH2 0x22F1 ADD MSTORE PUSH2 0x27FC ADD MSTORE PUSH1 0x0 PUSH2 0x2B84 ADD MSTORE PUSH1 0x0 PUSH2 0x4142 ADD MSTORE PUSH1 0x0 PUSH2 0x4191 ADD MSTORE PUSH1 0x0 PUSH2 0x416C ADD MSTORE PUSH1 0x0 PUSH2 0x40C5 ADD MSTORE PUSH1 0x0 PUSH2 0x40EF ADD MSTORE PUSH1 0x0 PUSH2 0x4119 ADD MSTORE PUSH2 0x5F58 PUSH1 0x0 RETURN INVALID PUSH1 0x80 PUSH1 0x40 MSTORE CALLVALUE DUP1 ISZERO PUSH2 0x10 JUMPI PUSH1 0x0 DUP1 REVERT JUMPDEST POP PUSH1 0x4 CALLDATASIZE LT PUSH2 0x327 JUMPI PUSH1 0x0 CALLDATALOAD PUSH1 0xE0 SHR DUP1 PUSH4 0x757DDBD5 GT PUSH2 0x1B8 JUMPI DUP1 PUSH4 0xA9059CBB GT PUSH2 0x104 JUMPI DUP1 PUSH4 0xD547741F GT PUSH2 0xA2 JUMPI DUP1 PUSH4 0xE449F341 GT PUSH2 0x7C JUMPI DUP1 PUSH4 0xE449F341 EQ PUSH2 0x889 JUMPI DUP1 PUSH4 0xF1127ED8 EQ PUSH2 0x89C JUMPI DUP1 PUSH4 0xF9217419 EQ PUSH2 0x8D9 JUMPI DUP1 PUSH4 0xFC196D08 EQ PUSH2 0x8EC JUMPI PUSH1 0x0 DUP1 REVERT JUMPDEST DUP1 PUSH4 0xD547741F EQ PUSH2 0x82A JUMPI DUP1 PUSH4 0xDBB37ABF EQ PUSH2 0x83D JUMPI DUP1 PUSH4 0xDD62ED3E EQ PUSH2 0x850 JUMPI PUSH1 0x0 DUP1 REVERT JUMPDEST DUP1 PUSH4 0xB326F59A GT PUSH2 0xDE JUMPI DUP1 PUSH4 0xB326F59A EQ PUSH2 0x7DE JUMPI DUP1 PUSH4 0xBE26989C EQ PUSH2 0x7F1 JUMPI DUP1 PUSH4 0xC3CDA520 EQ PUSH2 0x804 JUMPI DUP1 PUSH4 0xD505ACCF EQ PUSH2 0x817 JUMPI PUSH1 0x0 DUP1 REVERT JUMPDEST DUP1 PUSH4 0xA9059CBB EQ PUSH2 0x723 JUMPI DUP1 PUSH4 0xA93482A7 EQ PUSH2 0x736 JUMPI DUP1 PUSH4 0xAE1E68B9 EQ PUSH2 0x77F JUMPI PUSH1 0x0 DUP1 REVERT JUMPDEST DUP1 PUSH4 0x939113E3 GT PUSH2 0x171 JUMPI DUP1 PUSH4 0x9AB24EB0 GT PUSH2 0x14B JUMPI DUP1 PUSH4 0x9AB24EB0 EQ PUSH2 0x6E2 JUMPI DUP1 PUSH4 0xA217FDDF EQ PUSH2 0x6F5 JUMPI DUP1 PUSH4 0xA354F39E EQ PUSH2 0x6FD JUMPI DUP1 PUSH4 0xA457C2D7 EQ PUSH2 0x710 JUMPI PUSH1 0x0 DUP1 REVERT JUMPDEST DUP1 PUSH4 0x939113E3 EQ PUSH2 0x6B4 JUMPI DUP1 PUSH4 0x95D89B41 EQ PUSH2 0x6C7 JUMPI DUP1 PUSH4 0x9A1E9C33 EQ PUSH2 0x6CF JUMPI PUSH1 0x0 DUP1 REVERT JUMPDEST DUP1 PUSH4 0x757DDBD5 EQ PUSH2 0x63C JUMPI DUP1 PUSH4 0x7E1A3786 EQ PUSH2 0x64F JUMPI DUP1 PUSH4 0x7ECEBE00 EQ PUSH2 0x668 JUMPI DUP1 PUSH4 0x8C81172A EQ PUSH2 0x67B JUMPI DUP1 PUSH4 0x8E539E8C EQ PUSH2 0x68E JUMPI DUP1 PUSH4 0x91D14854 EQ PUSH2 0x6A1 JUMPI PUSH1 0x0 DUP1 REVERT JUMPDEST DUP1 PUSH4 0x3644E515 GT PUSH2 0x277 JUMPI DUP1 PUSH4 0x587CDE1E GT PUSH2 0x230 JUMPI DUP1 PUSH4 0x64FE8577 GT PUSH2 0x20A JUMPI DUP1 PUSH4 0x64FE8577 EQ PUSH2 0x5C5 JUMPI DUP1 PUSH4 0x6C19E783 EQ PUSH2 0x5D8 JUMPI DUP1 PUSH4 0x6FCFFF45 EQ PUSH2 0x5EB JUMPI DUP1 PUSH4 0x70A08231 EQ PUSH2 0x613 JUMPI PUSH1 0x0 DUP1 REVERT JUMPDEST DUP1 PUSH4 0x587CDE1E EQ PUSH2 0x53E JUMPI DUP1 PUSH4 0x58BA9D27 EQ PUSH2 0x582 JUMPI DUP1 PUSH4 0x5C19A95C EQ PUSH2 0x5B2 JUMPI PUSH1 0x0 DUP1 REVERT JUMPDEST DUP1 PUSH4 0x3644E515 EQ PUSH2 0x4C9 JUMPI DUP1 PUSH4 0x36568ABE EQ PUSH2 0x4D1 JUMPI DUP1 PUSH4 0x39509351 EQ PUSH2 0x4E4 JUMPI DUP1 PUSH4 0x3A46B1A8 EQ PUSH2 0x4F7 JUMPI DUP1 PUSH4 0x53C8388E EQ PUSH2 0x50A JUMPI DUP1 PUSH4 0x54FD4D50 EQ PUSH2 0x51D JUMPI PUSH1 0x0 DUP1 REVERT JUMPDEST DUP1 PUSH4 0x1E83409A GT PUSH2 0x2E4 JUMPI DUP1 PUSH4 0x26AE2B78 GT PUSH2 0x2BE JUMPI DUP1 PUSH4 0x26AE2B78 EQ PUSH2 0x45B JUMPI DUP1 PUSH4 0x2CD8D4D7 EQ PUSH2 0x494 JUMPI DUP1 PUSH4 0x2F2FF15D EQ PUSH2 0x4A7 JUMPI DUP1 PUSH4 0x313CE567 EQ PUSH2 0x4BA JUMPI PUSH1 0x0 DUP1 REVERT JUMPDEST DUP1 PUSH4 0x1E83409A EQ PUSH2 0x412 JUMPI DUP1 PUSH4 0x23B872DD EQ PUSH2 0x425 JUMPI DUP1 PUSH4 0x248A9CA3 EQ PUSH2 0x438 JUMPI PUSH1 0x0 DUP1 REVERT JUMPDEST DUP1 PUSH4 0x1FFC9A7 EQ PUSH2 0x32C JUMPI DUP1 PUSH4 0x6FDDE03 EQ PUSH2 0x354 JUMPI DUP1 PUSH4 0x700037D EQ PUSH2 0x369 JUMPI DUP1 PUSH4 0x95EA7B3 EQ PUSH2 0x3D8 JUMPI DUP1 PUSH4 0x10A0638A EQ PUSH2 0x3EB JUMPI DUP1 PUSH4 0x18160DDD EQ PUSH2 0x400 JUMPI JUMPDEST PUSH1 0x0 DUP1 REVERT JUMPDEST PUSH2 0x33F PUSH2 0x33A CALLDATASIZE PUSH1 0x4 PUSH2 0x58DD JUMP JUMPDEST PUSH2 0x95A JUMP JUMPDEST PUSH1 0x40 MLOAD SWAP1 ISZERO ISZERO DUP2 MSTORE PUSH1 0x20 ADD JUMPDEST PUSH1 0x40 MLOAD DUP1 SWAP2 SUB SWAP1 RETURN JUMPDEST PUSH2 0x35C PUSH2 0x985 JUMP JUMPDEST PUSH1 0x40 MLOAD PUSH2 0x34B SWAP2 SWAP1 PUSH2 0x5B4C JUMP JUMPDEST PUSH2 0x3AC PUSH2 0x377 CALLDATASIZE PUSH1 0x4 PUSH2 0x5408 JUMP JUMPDEST PUSH2 0x4E2E PUSH1 0x20 MSTORE PUSH1 0x0 SWAP1 DUP2 MSTORE PUSH1 0x40 SWAP1 KECCAK256 SLOAD PUSH4 0xFFFFFFFF DUP2 AND SWAP1 PUSH1 0x1 PUSH1 0x1 PUSH1 0x60 SHL SUB PUSH1 0x1 PUSH1 0x20 SHL DUP3 DIV DUP2 AND SWAP2 PUSH1 0x1 PUSH1 0x80 SHL SWAP1 DIV AND DUP4 JUMP JUMPDEST PUSH1 0x40 DUP1 MLOAD PUSH4 0xFFFFFFFF SWAP1 SWAP5 AND DUP5 MSTORE PUSH1 0x1 PUSH1 0x1 PUSH1 0x60 SHL SUB SWAP3 DUP4 AND PUSH1 0x20 DUP6 ADD MSTORE SWAP2 AND SWAP1 DUP3 ADD MSTORE PUSH1 0x60 ADD PUSH2 0x34B JUMP JUMPDEST PUSH2 0x33F PUSH2 0x3E6 CALLDATASIZE PUSH1 0x4 PUSH2 0x5558 JUMP JUMPDEST PUSH2 0xA17 JUMP JUMPDEST PUSH2 0x3FE PUSH2 0x3F9 CALLDATASIZE PUSH1 0x4 PUSH2 0x59EC JUMP JUMPDEST PUSH2 0xA2D JUMP JUMPDEST STOP JUMPDEST PUSH1 0x3 SLOAD JUMPDEST PUSH1 0x40 MLOAD SWAP1 DUP2 MSTORE PUSH1 0x20 ADD PUSH2 0x34B JUMP JUMPDEST PUSH2 0x3FE PUSH2 0x420 CALLDATASIZE PUSH1 0x4 PUSH2 0x5408 JUMP JUMPDEST PUSH2 0xBBD JUMP JUMPDEST PUSH2 0x33F PUSH2 0x433 CALLDATASIZE PUSH1 0x4 PUSH2 0x547B JUMP JUMPDEST PUSH2 0xC72 JUMP JUMPDEST PUSH2 0x404 PUSH2 0x446 CALLDATASIZE PUSH1 0x4 PUSH2 0x589F JUMP JUMPDEST PUSH1 0x0 SWAP1 DUP2 MSTORE PUSH1 0xA PUSH1 0x20 MSTORE PUSH1 0x40 SWAP1 KECCAK256 PUSH1 0x1 ADD SLOAD SWAP1 JUMP JUMPDEST PUSH2 0x4E2C SLOAD PUSH2 0x477 SWAP1 PUSH4 0xFFFFFFFF DUP1 DUP3 AND SWAP2 PUSH1 0x1 PUSH1 0x20 SHL SWAP1 DIV AND DUP3 JUMP JUMPDEST PUSH1 0x40 DUP1 MLOAD PUSH4 0xFFFFFFFF SWAP4 DUP5 AND DUP2 MSTORE SWAP3 SWAP1 SWAP2 AND PUSH1 0x20 DUP4 ADD MSTORE ADD PUSH2 0x34B JUMP JUMPDEST PUSH2 0x3FE PUSH2 0x4A2 CALLDATASIZE PUSH1 0x4 PUSH2 0x57FD JUMP JUMPDEST PUSH2 0xD23 JUMP JUMPDEST PUSH2 0x3FE PUSH2 0x4B5 CALLDATASIZE PUSH1 0x4 PUSH2 0x58B8 JUMP JUMPDEST PUSH2 0x10BF JUMP JUMPDEST PUSH1 0x40 MLOAD PUSH1 0x12 DUP2 MSTORE PUSH1 0x20 ADD PUSH2 0x34B JUMP JUMPDEST PUSH2 0x404 PUSH2 0x10EA JUMP JUMPDEST PUSH2 0x3FE PUSH2 0x4DF CALLDATASIZE PUSH1 0x4 PUSH2 0x58B8 JUMP JUMPDEST PUSH2 0x10F9 JUMP JUMPDEST PUSH2 0x33F PUSH2 0x4F2 CALLDATASIZE PUSH1 0x4 PUSH2 0x5558 JUMP JUMPDEST PUSH2 0x1177 JUMP JUMPDEST PUSH2 0x404 PUSH2 0x505 CALLDATASIZE PUSH1 0x4 PUSH2 0x5558 JUMP JUMPDEST PUSH2 0x11B3 JUMP JUMPDEST PUSH2 0x3FE PUSH2 0x518 CALLDATASIZE PUSH1 0x4 PUSH2 0x5907 JUMP JUMPDEST PUSH2 0x122D JUMP JUMPDEST PUSH1 0x40 DUP1 MLOAD DUP1 DUP3 ADD SWAP1 SWAP2 MSTORE PUSH1 0x5 DUP2 MSTORE PUSH5 0x312E302E3 PUSH1 0xDC SHL PUSH1 0x20 DUP3 ADD MSTORE PUSH2 0x35C JUMP JUMPDEST PUSH2 0x56A PUSH2 0x54C CALLDATASIZE PUSH1 0x4 PUSH2 0x5408 JUMP JUMPDEST PUSH1 0x1 PUSH1 0x1 PUSH1 0xA0 SHL SUB SWAP1 DUP2 AND PUSH1 0x0 SWAP1 DUP2 MSTORE PUSH1 0x7 PUSH1 0x20 MSTORE PUSH1 0x40 SWAP1 KECCAK256 SLOAD AND SWAP1 JUMP JUMPDEST PUSH1 0x40 MLOAD PUSH1 0x1 PUSH1 0x1 PUSH1 0xA0 SHL SUB SWAP1 SWAP2 AND DUP2 MSTORE PUSH1 0x20 ADD PUSH2 0x34B JUMP JUMPDEST PUSH2 0x404 PUSH2 0x590 CALLDATASIZE PUSH1 0x4 PUSH2 0x5408 JUMP JUMPDEST PUSH1 0x1 PUSH1 0x1 PUSH1 0xA0 SHL SUB AND PUSH1 0x0 SWAP1 DUP2 MSTORE PUSH2 0x4E2E PUSH1 0x20 MSTORE PUSH1 0x40 SWAP1 KECCAK256 SLOAD PUSH4 0xFFFFFFFF AND SWAP1 JUMP JUMPDEST PUSH2 0x3FE PUSH2 0x5C0 CALLDATASIZE PUSH1 0x4 PUSH2 0x5408 JUMP JUMPDEST PUSH2 0x1368 JUMP JUMPDEST PUSH2 0x3FE PUSH2 0x5D3 CALLDATASIZE PUSH1 0x4 PUSH2 0x56ED JUMP JUMPDEST PUSH2 0x1375 JUMP JUMPDEST PUSH2 0x3FE PUSH2 0x5E6 CALLDATASIZE PUSH1 0x4 PUSH2 0x5408 JUMP JUMPDEST PUSH2 0x1884 JUMP JUMPDEST PUSH2 0x5FE PUSH2 0x5F9 CALLDATASIZE PUSH1 0x4 PUSH2 0x5408 JUMP JUMPDEST PUSH2 0x18C1 JUMP JUMPDEST PUSH1 0x40 MLOAD PUSH4 0xFFFFFFFF SWAP1 SWAP2 AND DUP2 MSTORE PUSH1 0x20 ADD PUSH2 0x34B JUMP JUMPDEST PUSH2 0x404 PUSH2 0x621 CALLDATASIZE PUSH1 0x4 PUSH2 0x5408 JUMP JUMPDEST PUSH1 0x1 PUSH1 0x1 PUSH1 0xA0 SHL SUB AND PUSH1 0x0 SWAP1 DUP2 MSTORE PUSH1 0x1 PUSH1 0x20 MSTORE PUSH1 0x40 SWAP1 KECCAK256 SLOAD SWAP1 JUMP JUMPDEST PUSH2 0x404 PUSH2 0x64A CALLDATASIZE PUSH1 0x4 PUSH2 0x589F JUMP JUMPDEST PUSH2 0x18E3 JUMP JUMPDEST PUSH2 0x4E2D SLOAD PUSH1 0x1 PUSH1 0xA0 SHL SWAP1 DIV PUSH1 0x1 PUSH1 0x1 PUSH1 0x60 SHL SUB AND PUSH2 0x404 JUMP JUMPDEST PUSH2 0x404 PUSH2 0x676 CALLDATASIZE PUSH1 0x4 PUSH2 0x5408 JUMP JUMPDEST PUSH2 0x1AA0 JUMP JUMPDEST PUSH2 0x3FE PUSH2 0x689 CALLDATASIZE PUSH1 0x4 PUSH2 0x552A JUMP JUMPDEST PUSH2 0x1ABE JUMP JUMPDEST PUSH2 0x404 PUSH2 0x69C CALLDATASIZE PUSH1 0x4 PUSH2 0x589F JUMP JUMPDEST PUSH2 0x1B31 JUMP JUMPDEST PUSH2 0x33F PUSH2 0x6AF CALLDATASIZE PUSH1 0x4 PUSH2 0x58B8 JUMP JUMPDEST PUSH2 0x1B8D JUMP JUMPDEST PUSH2 0x3FE PUSH2 0x6C2 CALLDATASIZE PUSH1 0x4 PUSH2 0x5976 JUMP JUMPDEST PUSH2 0x1BB8 JUMP JUMPDEST PUSH2 0x35C PUSH2 0x1FCC JUMP JUMPDEST PUSH2 0x404 PUSH2 0x6DD CALLDATASIZE PUSH1 0x4 PUSH2 0x5408 JUMP JUMPDEST PUSH2 0x1FDB JUMP JUMPDEST PUSH2 0x404 PUSH2 0x6F0 CALLDATASIZE PUSH1 0x4 PUSH2 0x5408 JUMP JUMPDEST PUSH2 0x2195 JUMP JUMPDEST PUSH2 0x404 PUSH1 0x0 DUP2 JUMP JUMPDEST PUSH2 0x3FE PUSH2 0x70B CALLDATASIZE PUSH1 0x4 PUSH2 0x59B2 JUMP JUMPDEST PUSH2 0x221B JUMP JUMPDEST PUSH2 0x33F PUSH2 0x71E CALLDATASIZE PUSH1 0x4 PUSH2 0x5558 JUMP JUMPDEST PUSH2 0x248E JUMP JUMPDEST PUSH2 0x33F PUSH2 0x731 CALLDATASIZE PUSH1 0x4 PUSH2 0x5558 JUMP JUMPDEST PUSH2 0x2527 JUMP JUMPDEST PUSH2 0x749 PUSH2 0x744 CALLDATASIZE PUSH1 0x4 PUSH2 0x589F JUMP JUMPDEST PUSH2 0x2534 JUMP JUMPDEST PUSH1 0x40 DUP1 MLOAD PUSH1 0x1 PUSH1 0x1 PUSH1 0xA0 SHL SUB SWAP1 SWAP6 AND DUP6 MSTORE PUSH4 0xFFFFFFFF SWAP4 DUP5 AND PUSH1 0x20 DUP7 ADD MSTORE SWAP2 DUP4 AND SWAP2 DUP5 ADD SWAP2 SWAP1 SWAP2 MSTORE AND PUSH1 0x60 DUP3 ADD MSTORE PUSH1 0x80 ADD PUSH2 0x34B JUMP JUMPDEST PUSH2 0x792 PUSH2 0x78D CALLDATASIZE PUSH1 0x4 PUSH2 0x589F JUMP JUMPDEST PUSH2 0x2579 JUMP JUMPDEST PUSH1 0x40 DUP1 MLOAD PUSH2 0xFFFF SWAP8 DUP9 AND DUP2 MSTORE PUSH1 0x1 PUSH1 0x1 PUSH1 0xA0 SHL SUB SWAP1 SWAP7 AND PUSH1 0x20 DUP8 ADD MSTORE SWAP4 DUP7 AND SWAP4 DUP6 ADD SWAP4 SWAP1 SWAP4 MSTORE SWAP1 DUP5 AND PUSH1 0x60 DUP5 ADD MSTORE SWAP3 SWAP1 SWAP3 AND PUSH1 0x80 DUP3 ADD MSTORE PUSH4 0xFFFFFFFF SWAP1 SWAP2 AND PUSH1 0xA0 DUP3 ADD MSTORE PUSH1 0xC0 ADD PUSH2 0x34B JUMP JUMPDEST PUSH2 0x3FE PUSH2 0x7EC CALLDATASIZE PUSH1 0x4 PUSH2 0x5953 JUMP JUMPDEST PUSH2 0x25D3 JUMP JUMPDEST PUSH2 0x3FE PUSH2 0x7FF CALLDATASIZE PUSH1 0x4 PUSH2 0x5907 JUMP JUMPDEST PUSH2 0x2910 JUMP JUMPDEST PUSH2 0x3FE PUSH2 0x812 CALLDATASIZE PUSH1 0x4 PUSH2 0x5584 JUMP JUMPDEST PUSH2 0x2A03 JUMP JUMPDEST PUSH2 0x3FE PUSH2 0x825 CALLDATASIZE PUSH1 0x4 PUSH2 0x54BC JUMP JUMPDEST PUSH2 0x2B30 JUMP JUMPDEST PUSH2 0x3FE PUSH2 0x838 CALLDATASIZE PUSH1 0x4 PUSH2 0x58B8 JUMP JUMPDEST PUSH2 0x2C94 JUMP JUMPDEST PUSH2 0x3FE PUSH2 0x84B CALLDATASIZE PUSH1 0x4 PUSH2 0x5655 JUMP JUMPDEST PUSH2 0x2CBA JUMP JUMPDEST PUSH2 0x404 PUSH2 0x85E CALLDATASIZE PUSH1 0x4 PUSH2 0x5442 JUMP JUMPDEST PUSH1 0x1 PUSH1 0x1 PUSH1 0xA0 SHL SUB SWAP2 DUP3 AND PUSH1 0x0 SWAP1 DUP2 MSTORE PUSH1 0x2 PUSH1 0x20 SWAP1 DUP2 MSTORE PUSH1 0x40 DUP1 DUP4 KECCAK256 SWAP4 SWAP1 SWAP5 AND DUP3 MSTORE SWAP2 SWAP1 SWAP2 MSTORE KECCAK256 SLOAD SWAP1 JUMP JUMPDEST PUSH2 0x3FE PUSH2 0x897 CALLDATASIZE PUSH1 0x4 PUSH2 0x5613 JUMP JUMPDEST PUSH2 0x3098 JUMP JUMPDEST PUSH2 0x8AF PUSH2 0x8AA CALLDATASIZE PUSH1 0x4 PUSH2 0x55DE JUMP JUMPDEST PUSH2 0x33D9 JUMP JUMPDEST PUSH1 0x40 DUP1 MLOAD DUP3 MLOAD PUSH4 0xFFFFFFFF AND DUP2 MSTORE PUSH1 0x20 SWAP3 DUP4 ADD MLOAD PUSH1 0x1 PUSH1 0x1 PUSH1 0xE0 SHL SUB AND SWAP3 DUP2 ADD SWAP3 SWAP1 SWAP3 MSTORE ADD PUSH2 0x34B JUMP JUMPDEST PUSH2 0x3FE PUSH2 0x8E7 CALLDATASIZE PUSH1 0x4 PUSH2 0x589F JUMP JUMPDEST PUSH2 0x345C JUMP JUMPDEST PUSH2 0x4E2D SLOAD PUSH2 0x923 SWAP1 PUSH4 0xFFFFFFFF DUP1 DUP3 AND SWAP2 PUSH1 0x1 PUSH1 0x1 PUSH1 0x60 SHL SUB PUSH1 0x1 PUSH1 0x20 SHL DUP3 DIV DUP2 AND SWAP3 PUSH1 0x1 PUSH1 0x80 SHL DUP4 DIV AND SWAP2 PUSH1 0x1 PUSH1 0xA0 SHL SWAP1 DIV AND DUP5 JUMP JUMPDEST PUSH1 0x40 DUP1 MLOAD PUSH4 0xFFFFFFFF SWAP6 DUP7 AND DUP2 MSTORE PUSH1 0x1 PUSH1 0x1 PUSH1 0x60 SHL SUB SWAP5 DUP6 AND PUSH1 0x20 DUP3 ADD MSTORE SWAP5 SWAP1 SWAP3 AND SWAP2 DUP5 ADD SWAP2 SWAP1 SWAP2 MSTORE AND PUSH1 0x60 DUP3 ADD MSTORE PUSH1 0x80 ADD PUSH2 0x34B JUMP JUMPDEST PUSH1 0x0 PUSH1 0x1 PUSH1 0x1 PUSH1 0xE0 SHL SUB NOT DUP3 AND PUSH4 0x51AA79CF PUSH1 0xE1 SHL EQ DUP1 PUSH2 0x97F JUMPI POP PUSH2 0x97F DUP3 PUSH2 0x36A2 JUMP JUMPDEST SWAP3 SWAP2 POP POP JUMP JUMPDEST PUSH1 0x60 PUSH1 0x4 DUP1 SLOAD PUSH2 0x994 SWAP1 PUSH2 0x5E37 JUMP JUMPDEST DUP1 PUSH1 0x1F ADD PUSH1 0x20 DUP1 SWAP2 DIV MUL PUSH1 0x20 ADD PUSH1 0x40 MLOAD SWAP1 DUP2 ADD PUSH1 0x40 MSTORE DUP1 SWAP3 SWAP2 SWAP1 DUP2 DUP2 MSTORE PUSH1 0x20 ADD DUP3 DUP1 SLOAD PUSH2 0x9C0 SWAP1 PUSH2 0x5E37 JUMP JUMPDEST DUP1 ISZERO PUSH2 0xA0D JUMPI DUP1 PUSH1 0x1F LT PUSH2 0x9E2 JUMPI PUSH2 0x100 DUP1 DUP4 SLOAD DIV MUL DUP4 MSTORE SWAP2 PUSH1 0x20 ADD SWAP2 PUSH2 0xA0D JUMP JUMPDEST DUP3 ADD SWAP2 SWAP1 PUSH1 0x0 MSTORE PUSH1 0x20 PUSH1 0x0 KECCAK256 SWAP1 JUMPDEST DUP2 SLOAD DUP2 MSTORE SWAP1 PUSH1 0x1 ADD SWAP1 PUSH1 0x20 ADD DUP1 DUP4 GT PUSH2 0x9F0 JUMPI DUP3 SWAP1 SUB PUSH1 0x1F AND DUP3 ADD SWAP2 JUMPDEST POP POP POP POP POP SWAP1 POP SWAP1 JUMP JUMPDEST PUSH1 0x0 PUSH2 0xA24 CALLER DUP5 DUP5 PUSH2 0x36D7 JUMP JUMPDEST POP PUSH1 0x1 SWAP3 SWAP2 POP POP JUMP JUMPDEST PUSH1 0x0 DUP1 MLOAD PUSH1 0x20 PUSH2 0x5F03 DUP4 CODECOPY DUP2 MLOAD SWAP2 MSTORE PUSH2 0xA46 DUP2 CALLER PUSH2 0x37FB JUMP JUMPDEST PUSH7 0x6A94D74F430000 DUP3 PUSH1 0x1 PUSH1 0x1 PUSH1 0x60 SHL SUB AND GT DUP1 ISZERO PUSH2 0xA76 JUMPI POP PUSH9 0x1A055690D9DB80000 DUP3 PUSH1 0x1 PUSH1 0x1 PUSH1 0x60 SHL SUB AND LT JUMPDEST PUSH2 0xAB8 JUMPI PUSH1 0x40 MLOAD PUSH3 0x461BCD PUSH1 0xE5 SHL DUP2 MSTORE PUSH1 0x20 PUSH1 0x4 DUP3 ADD MSTORE PUSH1 0xE PUSH1 0x24 DUP3 ADD MSTORE PUSH14 0x14985D19481A5B98DBDC9C9958DD PUSH1 0x92 SHL PUSH1 0x44 DUP3 ADD MSTORE PUSH1 0x64 ADD JUMPDEST PUSH1 0x40 MLOAD DUP1 SWAP2 SUB SWAP1 REVERT JUMPDEST PUSH2 0x4E2C SLOAD PUSH4 0xFFFFFFFF AND PUSH2 0xACB TIMESTAMP PUSH2 0x385F JUMP JUMPDEST PUSH4 0xFFFFFFFF AND GT DUP1 ISZERO PUSH2 0xAFB JUMPI POP PUSH2 0x4E2C SLOAD PUSH1 0x1 PUSH1 0x20 SHL SWAP1 DIV PUSH4 0xFFFFFFFF AND PUSH2 0xAF3 TIMESTAMP PUSH2 0x385F JUMP JUMPDEST PUSH4 0xFFFFFFFF AND LT JUMPDEST PUSH2 0xB3C JUMPI PUSH1 0x40 MLOAD PUSH3 0x461BCD PUSH1 0xE5 SHL DUP2 MSTORE PUSH1 0x20 PUSH1 0x4 DUP3 ADD MSTORE PUSH1 0x12 PUSH1 0x24 DUP3 ADD MSTORE PUSH18 0x52657761726473206E6F7420616374697665 PUSH1 0x70 SHL PUSH1 0x44 DUP3 ADD MSTORE PUSH1 0x64 ADD PUSH2 0xAAF JUMP JUMPDEST PUSH2 0x4E2D DUP1 SLOAD PUSH1 0x1 PUSH1 0x1 PUSH1 0xA0 SHL SUB AND PUSH1 0x1 PUSH1 0xA0 SHL PUSH1 0x1 PUSH1 0x1 PUSH1 0x60 SHL SUB DUP6 AND SWAP1 DUP2 MUL SWAP2 SWAP1 SWAP2 OR SWAP1 SWAP2 SSTORE PUSH2 0x4E2C SLOAD PUSH1 0x40 DUP1 MLOAD PUSH4 0xFFFFFFFF DUP1 DUP5 AND DUP3 MSTORE PUSH1 0x1 PUSH1 0x20 SHL SWAP1 SWAP4 DIV SWAP1 SWAP3 AND PUSH1 0x20 DUP4 ADD MSTORE DUP2 ADD SWAP2 SWAP1 SWAP2 MSTORE PUSH32 0x7002FE256BF93307D98BB026FA5FF340A910A7FFF410B4C7004CDC6DED69D34C SWAP1 PUSH1 0x60 ADD JUMPDEST PUSH1 0x40 MLOAD DUP1 SWAP2 SUB SWAP1 LOG1 POP POP JUMP JUMPDEST PUSH2 0xBC8 PUSH1 0x0 DUP1 PUSH2 0x38C8 JUMP JUMPDEST PUSH1 0x0 PUSH2 0xBD6 CALLER PUSH1 0x0 DUP1 PUSH2 0x3AE2 JUMP JUMPDEST CALLER PUSH1 0x0 SWAP1 DUP2 MSTORE PUSH2 0x4E2E PUSH1 0x20 MSTORE PUSH1 0x40 SWAP1 KECCAK256 DUP1 SLOAD PUSH16 0xFFFFFFFFFFFFFFFFFFFFFFFF00000000 NOT AND SWAP1 SSTORE PUSH1 0x1 PUSH1 0x1 PUSH1 0x60 SHL SUB AND SWAP1 POP PUSH2 0xC33 PUSH32 0x0 DUP4 DUP4 PUSH2 0x3D32 JUMP JUMPDEST PUSH1 0x40 DUP1 MLOAD PUSH1 0x1 PUSH1 0x1 PUSH1 0xA0 SHL SUB DUP5 AND DUP2 MSTORE PUSH1 0x20 DUP2 ADD DUP4 SWAP1 MSTORE PUSH32 0x106F923F993C2149D49B4255FF723ACAFA1F2D94393F561D3EDA32AE348F7241 SWAP2 ADD PUSH2 0xBB1 JUMP JUMPDEST PUSH1 0x1 PUSH1 0x1 PUSH1 0xA0 SHL SUB DUP4 AND PUSH1 0x0 SWAP1 DUP2 MSTORE PUSH1 0x2 PUSH1 0x20 SWAP1 DUP2 MSTORE PUSH1 0x40 DUP1 DUP4 KECCAK256 CALLER DUP5 MSTORE SWAP1 SWAP2 MSTORE DUP2 KECCAK256 SLOAD PUSH1 0x0 NOT DUP2 EQ PUSH2 0xD0D JUMPI DUP3 DUP2 LT ISZERO PUSH2 0xD00 JUMPI PUSH1 0x40 MLOAD PUSH3 0x461BCD PUSH1 0xE5 SHL DUP2 MSTORE PUSH1 0x20 PUSH1 0x4 DUP3 ADD MSTORE PUSH1 0x28 PUSH1 0x24 DUP3 ADD MSTORE PUSH32 0x45524332303A207472616E7366657220616D6F756E7420657863656564732061 PUSH1 0x44 DUP3 ADD MSTORE PUSH8 0x6C6C6F77616E6365 PUSH1 0xC0 SHL PUSH1 0x64 DUP3 ADD MSTORE PUSH1 0x84 ADD PUSH2 0xAAF JUMP JUMPDEST PUSH2 0xD0D DUP6 CALLER DUP6 DUP5 SUB PUSH2 0x36D7 JUMP JUMPDEST PUSH2 0xD18 DUP6 DUP6 DUP6 PUSH2 0x3E4D JUMP JUMPDEST POP PUSH1 0x1 SWAP5 SWAP4 POP POP POP POP JUMP JUMPDEST PUSH1 0x0 JUMPDEST DUP6 DUP2 LT ISZERO PUSH2 0x10B6 JUMPI PUSH1 0x0 PUSH1 0xC DUP3 PUSH2 0x2710 DUP2 LT PUSH2 0xD44 JUMPI PUSH2 0xD44 PUSH2 0x5EB3 JUMP JUMPDEST PUSH1 0x40 DUP1 MLOAD PUSH1 0xC0 DUP2 ADD DUP3 MSTORE SWAP3 SWAP1 SWAP2 ADD SLOAD PUSH2 0xFFFF DUP1 DUP3 AND DUP5 MSTORE PUSH1 0x1 PUSH1 0x1 PUSH1 0xA0 SHL SUB PUSH3 0x10000 DUP4 DIV AND PUSH1 0x20 DUP6 ADD MSTORE PUSH1 0x1 PUSH1 0xB0 SHL DUP3 DIV DUP2 AND SWAP3 DUP5 ADD SWAP3 SWAP1 SWAP3 MSTORE PUSH1 0x1 PUSH1 0xC0 SHL DUP2 DIV DUP3 AND PUSH1 0x60 DUP5 ADD MSTORE PUSH1 0x1 PUSH1 0xD0 SHL DUP2 DIV SWAP1 SWAP2 AND PUSH1 0x80 DUP4 ADD MSTORE PUSH4 0xFFFFFFFF PUSH1 0x1 PUSH1 0xE0 SHL SWAP1 SWAP2 DIV AND PUSH1 0xA0 DUP3 ADD MSTORE SWAP1 POP PUSH1 0x0 DUP9 DUP9 DUP5 DUP2 DUP2 LT PUSH2 0xDC5 JUMPI PUSH2 0xDC5 PUSH2 0x5EB3 JUMP JUMPDEST SWAP1 POP PUSH1 0x20 MUL ADD CALLDATALOAD SWAP1 POP DUP2 PUSH1 0x0 ADD MLOAD PUSH2 0xFFFF AND PUSH1 0x0 EQ ISZERO PUSH2 0xE20 JUMPI PUSH1 0x40 MLOAD PUSH3 0x461BCD PUSH1 0xE5 SHL DUP2 MSTORE PUSH1 0x20 PUSH1 0x4 DUP3 ADD MSTORE PUSH1 0x16 PUSH1 0x24 DUP3 ADD MSTORE PUSH22 0x15D95A59DA1D081B9BDD081A5B9A5D1A585B1A5E9959 PUSH1 0x52 SHL PUSH1 0x44 DUP3 ADD MSTORE PUSH1 0x64 ADD PUSH2 0xAAF JUMP JUMPDEST PUSH1 0x40 MLOAD PUSH4 0x31A9108F PUSH1 0xE1 SHL DUP2 MSTORE PUSH1 0x4 DUP2 ADD DUP3 SWAP1 MSTORE ADDRESS SWAP1 PUSH1 0x1 PUSH1 0x1 PUSH1 0xA0 SHL SUB PUSH32 0x0 AND SWAP1 PUSH4 0x6352211E SWAP1 PUSH1 0x24 ADD PUSH1 0x20 PUSH1 0x40 MLOAD DUP1 DUP4 SUB DUP2 DUP7 DUP1 EXTCODESIZE ISZERO DUP1 ISZERO PUSH2 0xE82 JUMPI PUSH1 0x0 DUP1 REVERT JUMPDEST POP GAS STATICCALL ISZERO DUP1 ISZERO PUSH2 0xE96 JUMPI RETURNDATASIZE PUSH1 0x0 DUP1 RETURNDATACOPY RETURNDATASIZE PUSH1 0x0 REVERT JUMPDEST POP POP POP POP PUSH1 0x40 MLOAD RETURNDATASIZE PUSH1 0x1F NOT PUSH1 0x1F DUP3 ADD AND DUP3 ADD DUP1 PUSH1 0x40 MSTORE POP DUP2 ADD SWAP1 PUSH2 0xEBA SWAP2 SWAP1 PUSH2 0x5425 JUMP JUMPDEST PUSH1 0x1 PUSH1 0x1 PUSH1 0xA0 SHL SUB AND EQ DUP1 ISZERO PUSH2 0xEDC JUMPI POP PUSH1 0x20 DUP3 ADD MLOAD PUSH1 0x1 PUSH1 0x1 PUSH1 0xA0 SHL SUB AND CALLER EQ JUMPDEST PUSH2 0xEF8 JUMPI PUSH1 0x40 MLOAD PUSH3 0x461BCD PUSH1 0xE5 SHL DUP2 MSTORE PUSH1 0x4 ADD PUSH2 0xAAF SWAP1 PUSH2 0x5B7F JUMP JUMPDEST PUSH1 0x0 PUSH2 0x271C DUP5 PUSH2 0x2710 DUP2 LT PUSH2 0xF0F JUMPI PUSH2 0xF0F PUSH2 0x5EB3 JUMP JUMPDEST ADD SLOAD PUSH1 0x1 PUSH1 0x1 PUSH1 0xA0 SHL SUB AND EQ PUSH2 0xF37 JUMPI PUSH1 0x40 MLOAD PUSH3 0x461BCD PUSH1 0xE5 SHL DUP2 MSTORE PUSH1 0x4 ADD PUSH2 0xAAF SWAP1 PUSH2 0x5BAB JUMP JUMPDEST PUSH1 0x40 MLOAD PUSH4 0x23B872DD PUSH1 0xE0 SHL DUP2 MSTORE PUSH32 0x0 PUSH1 0x1 PUSH1 0x1 PUSH1 0xA0 SHL SUB AND SWAP1 PUSH4 0x23B872DD SWAP1 PUSH2 0xF87 SWAP1 CALLER SWAP1 ADDRESS SWAP1 DUP7 SWAP1 PUSH1 0x4 ADD PUSH2 0x5ACE JUMP JUMPDEST PUSH1 0x0 PUSH1 0x40 MLOAD DUP1 DUP4 SUB DUP2 PUSH1 0x0 DUP8 DUP1 EXTCODESIZE ISZERO DUP1 ISZERO PUSH2 0xFA1 JUMPI PUSH1 0x0 DUP1 REVERT JUMPDEST POP GAS CALL ISZERO DUP1 ISZERO PUSH2 0xFB5 JUMPI RETURNDATASIZE PUSH1 0x0 DUP1 RETURNDATACOPY RETURNDATASIZE PUSH1 0x0 REVERT JUMPDEST POP POP POP PUSH2 0xFFFF DUP1 DUP10 AND PUSH1 0x40 DUP6 ADD MSTORE DUP8 DUP2 AND PUSH1 0x60 DUP6 ADD MSTORE DUP7 AND PUSH1 0x80 DUP5 ADD MSTORE POP POP PUSH4 0xFFFFFFFF DUP4 AND PUSH1 0xA0 DUP3 ADD MSTORE DUP1 PUSH1 0xC DUP4 PUSH2 0x2710 DUP2 LT PUSH2 0xFF5 JUMPI PUSH2 0xFF5 PUSH2 0x5EB3 JUMP JUMPDEST DUP3 MLOAD SWAP2 ADD DUP1 SLOAD PUSH1 0x20 DUP5 ADD MLOAD PUSH1 0x40 DUP6 ADD MLOAD PUSH1 0x60 DUP7 ADD MLOAD PUSH1 0x80 DUP8 ADD MLOAD PUSH1 0xA0 SWAP1 SWAP8 ADD MLOAD PUSH4 0xFFFFFFFF AND PUSH1 0x1 PUSH1 0xE0 SHL MUL PUSH1 0x1 PUSH1 0x1 PUSH1 0xE0 SHL SUB PUSH2 0xFFFF SWAP9 DUP10 AND PUSH1 0x1 PUSH1 0xD0 SHL MUL AND PUSH1 0x1 PUSH1 0x1 PUSH1 0xD0 SHL SUB SWAP3 DUP10 AND PUSH1 0x1 PUSH1 0xC0 SHL MUL PUSH2 0xFFFF PUSH1 0xC0 SHL NOT SWAP5 DUP11 AND PUSH1 0x1 PUSH1 0xB0 SHL MUL SWAP5 SWAP1 SWAP5 AND PUSH4 0xFFFFFFFF PUSH1 0xB0 SHL NOT PUSH1 0x1 PUSH1 0x1 PUSH1 0xA0 SHL SUB SWAP1 SWAP7 AND PUSH3 0x10000 MUL PUSH1 0x1 PUSH1 0x1 PUSH1 0xB0 SHL SUB NOT SWAP1 SWAP8 AND SWAP10 SWAP1 SWAP9 AND SWAP9 SWAP1 SWAP9 OR SWAP5 SWAP1 SWAP5 OR SWAP3 SWAP1 SWAP3 AND SWAP5 SWAP1 SWAP5 OR SWAP4 SWAP1 SWAP4 OR SWAP3 SWAP1 SWAP3 AND SWAP3 SWAP1 SWAP3 OR OR SWAP1 SSTORE POP DUP1 PUSH2 0x10AE DUP2 PUSH2 0x5E6C JUMP JUMPDEST SWAP2 POP POP PUSH2 0xD26 JUMP JUMPDEST POP POP POP POP POP POP POP JUMP JUMPDEST PUSH1 0x0 DUP3 DUP2 MSTORE PUSH1 0xA PUSH1 0x20 MSTORE PUSH1 0x40 SWAP1 KECCAK256 PUSH1 0x1 ADD SLOAD PUSH2 0x10DB DUP2 CALLER PUSH2 0x37FB JUMP JUMPDEST PUSH2 0x10E5 DUP4 DUP4 PUSH2 0x4032 JUMP JUMPDEST POP POP POP JUMP JUMPDEST PUSH1 0x0 PUSH2 0x10F4 PUSH2 0x40B8 JUMP JUMPDEST SWAP1 POP SWAP1 JUMP JUMPDEST PUSH1 0x1 PUSH1 0x1 PUSH1 0xA0 SHL SUB DUP2 AND CALLER EQ PUSH2 0x1169 JUMPI PUSH1 0x40 MLOAD PUSH3 0x461BCD PUSH1 0xE5 SHL DUP2 MSTORE PUSH1 0x20 PUSH1 0x4 DUP3 ADD MSTORE PUSH1 0x2F PUSH1 0x24 DUP3 ADD MSTORE PUSH32 0x416363657373436F6E74726F6C3A2063616E206F6E6C792072656E6F756E6365 PUSH1 0x44 DUP3 ADD MSTORE PUSH15 0x103937B632B9903337B91039B2B633 PUSH1 0x89 SHL PUSH1 0x64 DUP3 ADD MSTORE PUSH1 0x84 ADD PUSH2 0xAAF JUMP JUMPDEST PUSH2 0x1173 DUP3 DUP3 PUSH2 0x41DF JUMP JUMPDEST POP POP JUMP JUMPDEST CALLER PUSH1 0x0 DUP2 DUP2 MSTORE PUSH1 0x2 PUSH1 0x20 SWAP1 DUP2 MSTORE PUSH1 0x40 DUP1 DUP4 KECCAK256 PUSH1 0x1 PUSH1 0x1 PUSH1 0xA0 SHL SUB DUP8 AND DUP5 MSTORE SWAP1 SWAP2 MSTORE DUP2 KECCAK256 SLOAD SWAP1 SWAP2 PUSH2 0xA24 SWAP2 DUP6 SWAP1 PUSH2 0x11AE SWAP1 DUP7 SWAP1 PUSH2 0x5C6E JUMP JUMPDEST PUSH2 0x36D7 JUMP JUMPDEST PUSH1 0x0 NUMBER DUP3 LT PUSH2 0x1204 JUMPI PUSH1 0x40 MLOAD PUSH3 0x461BCD PUSH1 0xE5 SHL DUP2 MSTORE PUSH1 0x20 PUSH1 0x4 DUP3 ADD MSTORE PUSH1 0x1F PUSH1 0x24 DUP3 ADD MSTORE PUSH32 0x4552433230566F7465733A20626C6F636B206E6F7420796574206D696E656400 PUSH1 0x44 DUP3 ADD MSTORE PUSH1 0x64 ADD PUSH2 0xAAF JUMP JUMPDEST PUSH1 0x1 PUSH1 0x1 PUSH1 0xA0 SHL SUB DUP4 AND PUSH1 0x0 SWAP1 DUP2 MSTORE PUSH1 0x8 PUSH1 0x20 MSTORE PUSH1 0x40 SWAP1 KECCAK256 PUSH2 0x1226 SWAP1 DUP4 PUSH2 0x4246 JUMP JUMPDEST SWAP4 SWAP3 POP POP POP JUMP JUMPDEST PUSH1 0x0 PUSH2 0x271C DUP5 PUSH2 0x2710 DUP2 LT PUSH2 0x1244 JUMPI PUSH2 0x1244 PUSH2 0x5EB3 JUMP JUMPDEST ADD SLOAD PUSH1 0x1 PUSH1 0x1 PUSH1 0xA0 SHL SUB AND EQ DUP1 ISZERO PUSH2 0x127F JUMPI POP CALLER PUSH1 0xC DUP5 PUSH2 0x2710 DUP2 LT PUSH2 0x126C JUMPI PUSH2 0x126C PUSH2 0x5EB3 JUMP JUMPDEST ADD SLOAD PUSH3 0x10000 SWAP1 DIV PUSH1 0x1 PUSH1 0x1 PUSH1 0xA0 SHL SUB AND EQ JUMPDEST DUP1 PUSH2 0x12A8 JUMPI POP CALLER PUSH2 0x271C DUP5 PUSH2 0x2710 DUP2 LT PUSH2 0x129B JUMPI PUSH2 0x129B PUSH2 0x5EB3 JUMP JUMPDEST ADD SLOAD PUSH1 0x1 PUSH1 0x1 PUSH1 0xA0 SHL SUB AND EQ JUMPDEST PUSH2 0x12EA JUMPI PUSH1 0x40 MLOAD PUSH3 0x461BCD PUSH1 0xE5 SHL DUP2 MSTORE PUSH1 0x20 PUSH1 0x4 DUP3 ADD MSTORE PUSH1 0x13 PUSH1 0x24 DUP3 ADD MSTORE PUSH19 0x139BDD081BDDDB9959081BDC881C995B9D1959 PUSH1 0x6A SHL PUSH1 0x44 DUP3 ADD MSTORE PUSH1 0x64 ADD PUSH2 0xAAF JUMP JUMPDEST PUSH1 0x40 MLOAD PUSH4 0x67563283 PUSH1 0xE1 SHL DUP2 MSTORE PUSH1 0x1 PUSH1 0x1 PUSH1 0xA0 SHL SUB PUSH32 0x0 AND SWAP1 PUSH4 0xCEAC6506 SWAP1 PUSH2 0x133A SWAP1 DUP7 SWAP1 DUP7 SWAP1 DUP7 SWAP1 PUSH1 0x4 ADD PUSH2 0x5BD1 JUMP JUMPDEST PUSH1 0x0 PUSH1 0x40 MLOAD DUP1 DUP4 SUB DUP2 PUSH1 0x0 DUP8 DUP1 EXTCODESIZE ISZERO DUP1 ISZERO PUSH2 0x1354 JUMPI PUSH1 0x0 DUP1 REVERT JUMPDEST POP GAS CALL ISZERO DUP1 ISZERO PUSH2 0x10B6 JUMPI RETURNDATASIZE PUSH1 0x0 DUP1 RETURNDATACOPY RETURNDATASIZE PUSH1 0x0 REVERT JUMPDEST PUSH2 0x1372 CALLER DUP3 PUSH2 0x4302 JUMP JUMPDEST POP JUMP JUMPDEST DUP11 DUP10 EQ PUSH2 0x13BC JUMPI PUSH1 0x40 MLOAD PUSH3 0x461BCD PUSH1 0xE5 SHL DUP2 MSTORE PUSH1 0x20 PUSH1 0x4 DUP3 ADD MSTORE PUSH1 0x15 PUSH1 0x24 DUP3 ADD MSTORE PUSH21 0x92DCE0EAE840D8CADCCEE8D040DAD2E6DAC2E8C6D PUSH1 0x5B SHL PUSH1 0x44 DUP3 ADD MSTORE PUSH1 0x64 ADD PUSH2 0xAAF JUMP JUMPDEST PUSH2 0x13F9 DUP13 DUP13 DUP13 DUP13 CALLER DUP9 ADDRESS PUSH1 0x40 MLOAD PUSH1 0x20 ADD PUSH2 0x13DC SWAP8 SWAP7 SWAP6 SWAP5 SWAP4 SWAP3 SWAP2 SWAP1 PUSH2 0x5AF2 JUMP JUMPDEST PUSH1 0x40 MLOAD PUSH1 0x20 DUP2 DUP4 SUB SUB DUP2 MSTORE SWAP1 PUSH1 0x40 MSTORE DUP1 MLOAD SWAP1 PUSH1 0x20 ADD KECCAK256 DUP4 DUP4 PUSH2 0x437C JUMP JUMPDEST PUSH2 0x1439 JUMPI PUSH1 0x40 MLOAD PUSH3 0x461BCD PUSH1 0xE5 SHL DUP2 MSTORE PUSH1 0x20 PUSH1 0x4 DUP3 ADD MSTORE PUSH1 0x11 PUSH1 0x24 DUP3 ADD MSTORE PUSH17 0x496E76616C6964207369676E6174757265 PUSH1 0x78 SHL PUSH1 0x44 DUP3 ADD MSTORE PUSH1 0x64 ADD PUSH2 0xAAF JUMP JUMPDEST PUSH1 0x0 DUP1 JUMPDEST DUP13 DUP2 LT ISZERO PUSH2 0x1831 JUMPI PUSH1 0x0 PUSH1 0xC DUP3 PUSH2 0x2710 DUP2 LT PUSH2 0x145B JUMPI PUSH2 0x145B PUSH2 0x5EB3 JUMP JUMPDEST PUSH1 0x40 DUP1 MLOAD PUSH1 0xC0 DUP2 ADD DUP3 MSTORE SWAP3 SWAP1 SWAP2 ADD SLOAD PUSH2 0xFFFF DUP1 DUP3 AND DUP5 MSTORE PUSH1 0x1 PUSH1 0x1 PUSH1 0xA0 SHL SUB PUSH3 0x10000 DUP4 DIV AND PUSH1 0x20 DUP6 ADD MSTORE PUSH1 0x1 PUSH1 0xB0 SHL DUP3 DIV DUP2 AND SWAP3 DUP5 ADD SWAP3 SWAP1 SWAP3 MSTORE PUSH1 0x1 PUSH1 0xC0 SHL DUP2 DIV DUP3 AND PUSH1 0x60 DUP5 ADD MSTORE PUSH1 0x1 PUSH1 0xD0 SHL DUP2 DIV SWAP1 SWAP2 AND PUSH1 0x80 DUP4 ADD MSTORE PUSH4 0xFFFFFFFF PUSH1 0x1 PUSH1 0xE0 SHL SWAP1 SWAP2 DIV AND PUSH1 0xA0 DUP3 ADD MSTORE SWAP1 POP PUSH1 0x0 DUP16 DUP16 DUP5 DUP2 DUP2 LT PUSH2 0x14DC JUMPI PUSH2 0x14DC PUSH2 0x5EB3 JUMP JUMPDEST SWAP1 POP PUSH1 0x20 MUL ADD CALLDATALOAD SWAP1 POP DUP2 PUSH1 0x0 ADD MLOAD PUSH2 0xFFFF AND PUSH1 0x0 EQ PUSH2 0x1549 JUMPI PUSH1 0x40 MLOAD PUSH3 0x461BCD PUSH1 0xE5 SHL DUP2 MSTORE PUSH1 0x20 PUSH1 0x4 DUP3 ADD MSTORE PUSH1 0x23 PUSH1 0x24 DUP3 ADD MSTORE PUSH32 0x5765696768742063616E206F6E6C7920626520696E697469616C697A6564206F PUSH1 0x44 DUP3 ADD MSTORE PUSH3 0x6E6365 PUSH1 0xE8 SHL PUSH1 0x64 DUP3 ADD MSTORE PUSH1 0x84 ADD PUSH2 0xAAF JUMP JUMPDEST CALLER PUSH1 0x40 MLOAD PUSH4 0x31A9108F PUSH1 0xE1 SHL DUP2 MSTORE PUSH1 0x4 DUP2 ADD DUP4 SWAP1 MSTORE PUSH1 0x1 PUSH1 0x1 PUSH1 0xA0 SHL SUB SWAP2 DUP3 AND SWAP2 PUSH32 0x0 AND SWAP1 PUSH4 0x6352211E SWAP1 PUSH1 0x24 ADD PUSH1 0x20 PUSH1 0x40 MLOAD DUP1 DUP4 SUB DUP2 DUP7 DUP1 EXTCODESIZE ISZERO DUP1 ISZERO PUSH2 0x15AE JUMPI PUSH1 0x0 DUP1 REVERT JUMPDEST POP GAS STATICCALL ISZERO DUP1 ISZERO PUSH2 0x15C2 JUMPI RETURNDATASIZE PUSH1 0x0 DUP1 RETURNDATACOPY RETURNDATASIZE PUSH1 0x0 REVERT JUMPDEST POP POP POP POP PUSH1 0x40 MLOAD RETURNDATASIZE PUSH1 0x1F NOT PUSH1 0x1F DUP3 ADD AND DUP3 ADD DUP1 PUSH1 0x40 MSTORE POP DUP2 ADD SWAP1 PUSH2 0x15E6 SWAP2 SWAP1 PUSH2 0x5425 JUMP JUMPDEST PUSH1 0x1 PUSH1 0x1 PUSH1 0xA0 SHL SUB AND EQ PUSH2 0x160C JUMPI PUSH1 0x40 MLOAD PUSH3 0x461BCD PUSH1 0xE5 SHL DUP2 MSTORE PUSH1 0x4 ADD PUSH2 0xAAF SWAP1 PUSH2 0x5B7F JUMP JUMPDEST PUSH1 0x40 MLOAD PUSH4 0x23B872DD PUSH1 0xE0 SHL DUP2 MSTORE PUSH32 0x0 PUSH1 0x1 PUSH1 0x1 PUSH1 0xA0 SHL SUB AND SWAP1 PUSH4 0x23B872DD SWAP1 PUSH2 0x165C SWAP1 CALLER SWAP1 ADDRESS SWAP1 DUP7 SWAP1 PUSH1 0x4 ADD PUSH2 0x5ACE JUMP JUMPDEST PUSH1 0x0 PUSH1 0x40 MLOAD DUP1 DUP4 SUB DUP2 PUSH1 0x0 DUP8 DUP1 EXTCODESIZE ISZERO DUP1 ISZERO PUSH2 0x1676 JUMPI PUSH1 0x0 DUP1 REVERT JUMPDEST POP GAS CALL ISZERO DUP1 ISZERO PUSH2 0x168A JUMPI RETURNDATASIZE PUSH1 0x0 DUP1 RETURNDATACOPY RETURNDATASIZE PUSH1 0x0 REVERT JUMPDEST POP POP POP POP PUSH32 0x386D7662103B38221201A01F5F88FF9C8C03246B5349135976C5DEC31F07B7EF DUP2 DUP14 PUSH1 0x40 MLOAD PUSH2 0x16D1 SWAP3 SWAP2 SWAP1 SWAP2 DUP3 MSTORE PUSH1 0x1 PUSH1 0x1 PUSH1 0xA0 SHL SUB AND PUSH1 0x20 DUP3 ADD MSTORE PUSH1 0x40 ADD SWAP1 JUMP JUMPDEST PUSH1 0x40 MLOAD DUP1 SWAP2 SUB SWAP1 LOG1 POP DUP13 DUP13 DUP4 DUP2 DUP2 LT PUSH2 0x16EC JUMPI PUSH2 0x16EC PUSH2 0x5EB3 JUMP JUMPDEST SWAP1 POP PUSH1 0x20 MUL ADD CALLDATALOAD DUP4 PUSH2 0x16FE SWAP2 SWAP1 PUSH2 0x5C6E JUMP JUMPDEST SWAP3 POP PUSH2 0x1721 DUP14 DUP14 DUP5 DUP2 DUP2 LT PUSH2 0x1715 JUMPI PUSH2 0x1715 PUSH2 0x5EB3 JUMP JUMPDEST SWAP1 POP PUSH1 0x20 MUL ADD CALLDATALOAD PUSH2 0x43E9 JUMP JUMPDEST PUSH2 0xFFFF SWAP1 DUP2 AND DUP3 MSTORE PUSH1 0x1 PUSH1 0x1 PUSH1 0xA0 SHL SUB DUP13 AND PUSH1 0x20 DUP4 ADD MSTORE DUP11 DUP2 AND PUSH1 0x40 DUP4 ADD MSTORE DUP10 DUP2 AND PUSH1 0x60 DUP4 ADD MSTORE DUP9 AND PUSH1 0x80 DUP3 ADD MSTORE PUSH4 0xFFFFFFFF DUP8 AND PUSH1 0xA0 DUP3 ADD MSTORE DUP1 PUSH1 0xC DUP4 PUSH2 0x2710 DUP2 LT PUSH2 0x1770 JUMPI PUSH2 0x1770 PUSH2 0x5EB3 JUMP JUMPDEST DUP3 MLOAD SWAP2 ADD DUP1 SLOAD PUSH1 0x20 DUP5 ADD MLOAD PUSH1 0x40 DUP6 ADD MLOAD PUSH1 0x60 DUP7 ADD MLOAD PUSH1 0x80 DUP8 ADD MLOAD PUSH1 0xA0 SWAP1 SWAP8 ADD MLOAD PUSH4 0xFFFFFFFF AND PUSH1 0x1 PUSH1 0xE0 SHL MUL PUSH1 0x1 PUSH1 0x1 PUSH1 0xE0 SHL SUB PUSH2 0xFFFF SWAP9 DUP10 AND PUSH1 0x1 PUSH1 0xD0 SHL MUL AND PUSH1 0x1 PUSH1 0x1 PUSH1 0xD0 SHL SUB SWAP3 DUP10 AND PUSH1 0x1 PUSH1 0xC0 SHL MUL PUSH2 0xFFFF PUSH1 0xC0 SHL NOT SWAP5 DUP11 AND PUSH1 0x1 PUSH1 0xB0 SHL MUL SWAP5 SWAP1 SWAP5 AND PUSH4 0xFFFFFFFF PUSH1 0xB0 SHL NOT PUSH1 0x1 PUSH1 0x1 PUSH1 0xA0 SHL SUB SWAP1 SWAP7 AND PUSH3 0x10000 MUL PUSH1 0x1 PUSH1 0x1 PUSH1 0xB0 SHL SUB NOT SWAP1 SWAP8 AND SWAP10 SWAP1 SWAP9 AND SWAP9 SWAP1 SWAP9 OR SWAP5 SWAP1 SWAP5 OR SWAP3 SWAP1 SWAP3 AND SWAP5 SWAP1 SWAP5 OR SWAP4 SWAP1 SWAP4 OR SWAP3 SWAP1 SWAP3 AND SWAP3 SWAP1 SWAP3 OR OR SWAP1 SSTORE POP DUP1 PUSH2 0x1829 DUP2 PUSH2 0x5E6C JUMP JUMPDEST SWAP2 POP POP PUSH2 0x143D JUMP JUMPDEST POP PUSH2 0x1845 PUSH2 0x183E DUP3 PUSH2 0x385F JUMP JUMPDEST PUSH1 0x1 PUSH2 0x38C8 JUMP JUMPDEST PUSH2 0x1859 DUP10 PUSH2 0x1852 DUP4 PUSH2 0x385F JUMP JUMPDEST PUSH1 0x1 PUSH2 0x3AE2 JUMP JUMPDEST POP PUSH2 0x1875 DUP10 PUSH2 0x1870 DUP15 PUSH8 0xDE0B6B3A7640000 PUSH2 0x5D14 JUMP JUMPDEST PUSH2 0x444C JUMP JUMPDEST POP POP POP POP POP POP POP POP POP POP POP POP POP JUMP JUMPDEST PUSH1 0x0 DUP1 MLOAD PUSH1 0x20 PUSH2 0x5F03 DUP4 CODECOPY DUP2 MLOAD SWAP2 MSTORE PUSH2 0x189D DUP2 CALLER PUSH2 0x37FB JUMP JUMPDEST POP PUSH2 0x4E2F DUP1 SLOAD PUSH1 0x1 PUSH1 0x1 PUSH1 0xA0 SHL SUB NOT AND PUSH1 0x1 PUSH1 0x1 PUSH1 0xA0 SHL SUB SWAP3 SWAP1 SWAP3 AND SWAP2 SWAP1 SWAP2 OR SWAP1 SSTORE JUMP JUMPDEST PUSH1 0x1 PUSH1 0x1 PUSH1 0xA0 SHL SUB DUP2 AND PUSH1 0x0 SWAP1 DUP2 MSTORE PUSH1 0x8 PUSH1 0x20 MSTORE PUSH1 0x40 DUP2 KECCAK256 SLOAD PUSH2 0x97F SWAP1 PUSH2 0x385F JUMP JUMPDEST PUSH1 0x0 DUP1 PUSH1 0xC DUP4 PUSH2 0x2710 DUP2 LT PUSH2 0x18FA JUMPI PUSH2 0x18FA PUSH2 0x5EB3 JUMP JUMPDEST PUSH1 0x40 DUP1 MLOAD PUSH1 0xC0 DUP2 ADD DUP3 MSTORE SWAP3 SWAP1 SWAP2 ADD SLOAD PUSH2 0xFFFF DUP1 DUP3 AND DUP5 MSTORE PUSH1 0x1 PUSH1 0x1 PUSH1 0xA0 SHL SUB PUSH3 0x10000 DUP4 DIV AND PUSH1 0x20 DUP6 ADD MSTORE PUSH1 0x1 PUSH1 0xB0 SHL DUP3 DIV DUP2 AND SWAP3 DUP5 ADD SWAP3 SWAP1 SWAP3 MSTORE PUSH1 0x1 PUSH1 0xC0 SHL DUP2 DIV DUP3 AND PUSH1 0x60 DUP5 ADD MSTORE PUSH1 0x1 PUSH1 0xD0 SHL DUP2 DIV SWAP1 SWAP2 AND PUSH1 0x80 DUP4 ADD MSTORE PUSH4 0xFFFFFFFF PUSH1 0x1 PUSH1 0xE0 SHL SWAP1 SWAP2 DIV AND PUSH1 0xA0 DUP3 ADD MSTORE SWAP1 POP PUSH1 0x0 PUSH2 0x271C DUP5 PUSH2 0x2710 DUP2 LT PUSH2 0x197E JUMPI PUSH2 0x197E PUSH2 0x5EB3 JUMP JUMPDEST PUSH1 0x40 DUP1 MLOAD PUSH1 0x80 DUP2 ADD DUP3 MSTORE SWAP3 SWAP1 SWAP2 ADD SLOAD PUSH1 0x1 PUSH1 0x1 PUSH1 0xA0 SHL SUB DUP2 AND DUP4 MSTORE PUSH4 0xFFFFFFFF PUSH1 0x1 PUSH1 0xA0 SHL DUP3 DIV DUP2 AND PUSH1 0x20 DUP6 ADD MSTORE PUSH1 0x1 PUSH1 0xC0 SHL DUP3 DIV DUP2 AND SWAP3 DUP5 ADD DUP4 SWAP1 MSTORE PUSH1 0x1 PUSH1 0xE0 SHL SWAP1 SWAP2 DIV AND PUSH1 0x60 DUP1 DUP5 ADD SWAP2 SWAP1 SWAP2 MSTORE DUP5 ADD MLOAD SWAP2 SWAP3 POP PUSH1 0x0 SWAP2 PUSH2 0xFFFF AND SWAP1 PUSH2 0x19E8 SWAP1 PUSH3 0x15180 PUSH2 0x5D14 JUMP JUMPDEST PUSH2 0x19F2 SWAP2 SWAP1 PUSH2 0x5CC7 JUMP JUMPDEST SWAP1 POP PUSH1 0x0 PUSH2 0x1A30 DUP5 PUSH1 0x80 ADD MLOAD PUSH2 0xFFFF AND PUSH3 0x15180 PUSH2 0x1A10 SWAP2 SWAP1 PUSH2 0x5CE9 JUMP JUMPDEST PUSH3 0xFFFFFF AND DUP5 PUSH1 0x20 ADD MLOAD PUSH4 0xFFFFFFFF AND TIMESTAMP PUSH2 0x1A2B SWAP2 SWAP1 PUSH2 0x5D98 JUMP JUMPDEST PUSH2 0x4456 JUMP JUMPDEST DUP3 GT SWAP1 POP DUP1 PUSH2 0x1A68 JUMPI DUP4 PUSH1 0x60 ADD MLOAD PUSH2 0xFFFF AND DUP5 PUSH1 0x40 ADD MLOAD PUSH2 0xFFFF AND PUSH3 0x15180 PUSH2 0x1A59 SWAP2 SWAP1 PUSH2 0x5D14 JUMP JUMPDEST PUSH2 0x1A63 SWAP2 SWAP1 PUSH2 0x5CC7 JUMP JUMPDEST PUSH2 0x1A6B JUMP JUMPDEST PUSH1 0x0 JUMPDEST TIMESTAMP DUP4 DUP6 PUSH1 0x20 ADD MLOAD PUSH4 0xFFFFFFFF AND PUSH2 0x1A82 SWAP2 SWAP1 PUSH2 0x5C07 JUMP JUMPDEST PUSH2 0x1A8C SWAP2 SWAP1 PUSH2 0x5D59 JUMP JUMPDEST PUSH2 0x1A96 SWAP2 SWAP1 PUSH2 0x5D59 JUMP JUMPDEST SWAP7 SWAP6 POP POP POP POP POP POP JUMP JUMPDEST PUSH1 0x1 PUSH1 0x1 PUSH1 0xA0 SHL SUB DUP2 AND PUSH1 0x0 SWAP1 DUP2 MSTORE PUSH1 0x6 PUSH1 0x20 MSTORE PUSH1 0x40 DUP2 KECCAK256 SLOAD PUSH2 0x97F JUMP JUMPDEST PUSH1 0x0 DUP1 MLOAD PUSH1 0x20 PUSH2 0x5F03 DUP4 CODECOPY DUP2 MLOAD SWAP2 MSTORE PUSH2 0x1AD7 DUP2 CALLER PUSH2 0x37FB JUMP JUMPDEST DUP2 ISZERO PUSH2 0x1B07 JUMPI PUSH2 0x10E5 PUSH32 0xF51E39AAD788CAA2D21DCD39F2B0C07C6BF0BB8F5DBF12F2578B71EA806092F1 DUP5 PUSH2 0x4032 JUMP JUMPDEST PUSH2 0x10E5 PUSH32 0xF51E39AAD788CAA2D21DCD39F2B0C07C6BF0BB8F5DBF12F2578B71EA806092F1 DUP5 PUSH2 0x41DF JUMP JUMPDEST PUSH1 0x0 NUMBER DUP3 LT PUSH2 0x1B82 JUMPI PUSH1 0x40 MLOAD PUSH3 0x461BCD PUSH1 0xE5 SHL DUP2 MSTORE PUSH1 0x20 PUSH1 0x4 DUP3 ADD MSTORE PUSH1 0x1F PUSH1 0x24 DUP3 ADD MSTORE PUSH32 0x4552433230566F7465733A20626C6F636B206E6F7420796574206D696E656400 PUSH1 0x44 DUP3 ADD MSTORE PUSH1 0x64 ADD PUSH2 0xAAF JUMP JUMPDEST PUSH2 0x97F PUSH1 0x9 DUP4 PUSH2 0x4246 JUMP JUMPDEST PUSH1 0x0 SWAP2 DUP3 MSTORE PUSH1 0xA PUSH1 0x20 SWAP1 DUP2 MSTORE PUSH1 0x40 DUP1 DUP5 KECCAK256 PUSH1 0x1 PUSH1 0x1 PUSH1 0xA0 SHL SUB SWAP4 SWAP1 SWAP4 AND DUP5 MSTORE SWAP2 SWAP1 MSTORE SWAP1 KECCAK256 SLOAD PUSH1 0xFF AND SWAP1 JUMP JUMPDEST PUSH1 0x2 PUSH1 0xB SLOAD EQ ISZERO PUSH2 0x1C0B JUMPI PUSH1 0x40 MLOAD PUSH3 0x461BCD PUSH1 0xE5 SHL DUP2 MSTORE PUSH1 0x20 PUSH1 0x4 DUP3 ADD MSTORE PUSH1 0x1F PUSH1 0x24 DUP3 ADD MSTORE PUSH32 0x5265656E7472616E637947756172643A207265656E7472616E742063616C6C00 PUSH1 0x44 DUP3 ADD MSTORE PUSH1 0x64 ADD PUSH2 0xAAF JUMP JUMPDEST PUSH1 0x2 PUSH1 0xB SSTORE PUSH1 0x0 PUSH1 0xC DUP5 PUSH2 0x2710 DUP2 LT PUSH2 0x1C26 JUMPI PUSH2 0x1C26 PUSH2 0x5EB3 JUMP JUMPDEST PUSH1 0x40 DUP1 MLOAD PUSH1 0xC0 DUP2 ADD DUP3 MSTORE SWAP3 SWAP1 SWAP2 ADD SLOAD PUSH2 0xFFFF DUP1 DUP3 AND DUP5 MSTORE PUSH1 0x1 PUSH1 0x1 PUSH1 0xA0 SHL SUB PUSH3 0x10000 DUP4 DIV AND PUSH1 0x20 DUP6 ADD MSTORE PUSH1 0x1 PUSH1 0xB0 SHL DUP3 DIV DUP2 AND SWAP3 DUP5 ADD SWAP3 SWAP1 SWAP3 MSTORE PUSH1 0x1 PUSH1 0xC0 SHL DUP2 DIV DUP3 AND PUSH1 0x60 DUP5 ADD MSTORE PUSH1 0x1 PUSH1 0xD0 SHL DUP2 DIV SWAP1 SWAP2 AND PUSH1 0x80 DUP4 ADD MSTORE PUSH4 0xFFFFFFFF PUSH1 0x1 PUSH1 0xE0 SHL SWAP1 SWAP2 DIV AND PUSH1 0xA0 DUP3 ADD MSTORE SWAP1 POP PUSH1 0x0 PUSH2 0x271C DUP6 PUSH2 0x2710 DUP2 LT PUSH2 0x1CAA JUMPI PUSH2 0x1CAA PUSH2 0x5EB3 JUMP JUMPDEST PUSH1 0x40 DUP1 MLOAD PUSH1 0x80 DUP1 DUP3 ADD DUP4 MSTORE SWAP4 SWAP1 SWAP3 ADD SLOAD PUSH1 0x1 PUSH1 0x1 PUSH1 0xA0 SHL SUB DUP2 AND DUP4 MSTORE PUSH4 0xFFFFFFFF PUSH1 0x1 PUSH1 0xA0 SHL DUP3 DIV DUP2 AND PUSH1 0x20 DUP6 ADD MSTORE PUSH1 0x1 PUSH1 0xC0 SHL DUP3 DIV DUP2 AND SWAP3 DUP5 ADD SWAP3 SWAP1 SWAP3 MSTORE PUSH1 0x1 PUSH1 0xE0 SHL SWAP1 DIV AND PUSH1 0x60 DUP3 ADD MSTORE SWAP1 DUP4 ADD MLOAD SWAP1 SWAP2 POP PUSH2 0x1D0E SWAP1 PUSH2 0xFFFF AND PUSH3 0x15180 PUSH2 0x5CE9 JUMP JUMPDEST PUSH2 0x1D1D SWAP1 PUSH3 0xFFFFFF AND TIMESTAMP PUSH2 0x5C6E JUMP JUMPDEST DUP3 PUSH1 0xA0 ADD MLOAD PUSH4 0xFFFFFFFF AND GT PUSH2 0x1D65 JUMPI PUSH1 0x40 MLOAD PUSH3 0x461BCD PUSH1 0xE5 SHL DUP2 MSTORE PUSH1 0x20 PUSH1 0x4 DUP3 ADD MSTORE PUSH1 0xD PUSH1 0x24 DUP3 ADD MSTORE PUSH13 0x4E6F7420617661696C61626C65 PUSH1 0x98 SHL PUSH1 0x44 DUP3 ADD MSTORE PUSH1 0x64 ADD PUSH2 0xAAF JUMP JUMPDEST DUP1 MLOAD PUSH1 0x1 PUSH1 0x1 PUSH1 0xA0 SHL SUB AND ISZERO PUSH2 0x1D8D JUMPI PUSH1 0x40 MLOAD PUSH3 0x461BCD PUSH1 0xE5 SHL DUP2 MSTORE PUSH1 0x4 ADD PUSH2 0xAAF SWAP1 PUSH2 0x5BAB JUMP JUMPDEST DUP2 PUSH1 0x60 ADD MLOAD DUP3 PUSH1 0x40 ADD MLOAD PUSH2 0x1DA1 SWAP2 SWAP1 PUSH2 0x5C48 JUMP JUMPDEST PUSH2 0xFFFF AND DUP4 PUSH4 0xFFFFFFFF AND GT PUSH2 0x1DF9 JUMPI PUSH1 0x40 MLOAD PUSH3 0x461BCD PUSH1 0xE5 SHL DUP2 MSTORE PUSH1 0x20 PUSH1 0x4 DUP3 ADD MSTORE PUSH1 0x1B PUSH1 0x24 DUP3 ADD MSTORE PUSH32 0x5061796D656E7420616D6F756E7420696E73756666696369656E740000000000 PUSH1 0x44 DUP3 ADD MSTORE PUSH1 0x64 ADD PUSH2 0xAAF JUMP JUMPDEST PUSH1 0x0 PUSH2 0x1E54 DUP4 PUSH1 0x40 ADD MLOAD PUSH2 0xFFFF AND PUSH3 0x15180 DUP6 PUSH1 0x60 ADD MLOAD PUSH2 0xFFFF AND TIMESTAMP DUP8 PUSH1 0xA0 ADD MLOAD PUSH4 0xFFFFFFFF AND PUSH2 0x1E2A SWAP2 SWAP1 PUSH2 0x5D98 JUMP JUMPDEST PUSH2 0x1E34 SWAP2 SWAP1 PUSH2 0x5D14 JUMP JUMPDEST PUSH2 0x1E3E SWAP2 SWAP1 PUSH2 0x5CC7 JUMP JUMPDEST PUSH2 0x1E48 SWAP2 SWAP1 PUSH2 0x5C6E JUMP JUMPDEST DUP6 PUSH4 0xFFFFFFFF AND PUSH2 0x446D JUMP JUMPDEST CALLER DUP4 MSTORE SWAP1 POP PUSH2 0x1E62 TIMESTAMP PUSH2 0x385F JUMP JUMPDEST PUSH4 0xFFFFFFFF AND PUSH1 0x20 DUP4 ADD MSTORE PUSH2 0x1E76 DUP2 PUSH2 0x385F JUMP JUMPDEST DUP3 PUSH1 0x40 ADD DUP2 DUP2 MLOAD PUSH2 0x1E87 SWAP2 SWAP1 PUSH2 0x5C86 JUMP JUMPDEST PUSH4 0xFFFFFFFF SWAP1 DUP2 AND SWAP1 SWAP2 MSTORE DUP7 AND PUSH1 0x60 DUP5 ADD MSTORE POP PUSH2 0x1EDC PUSH32 0x0 CALLER JUMPDEST PUSH1 0x20 DUP7 ADD MLOAD PUSH2 0x1ED7 DUP6 PUSH8 0xDE0B6B3A7640000 PUSH2 0x5D14 JUMP JUMPDEST PUSH2 0x447C JUMP JUMPDEST DUP2 PUSH2 0x271C DUP8 PUSH2 0x2710 DUP2 LT PUSH2 0x1EF2 JUMPI PUSH2 0x1EF2 PUSH2 0x5EB3 JUMP JUMPDEST DUP3 MLOAD SWAP2 ADD DUP1 SLOAD PUSH1 0x20 DUP5 ADD MLOAD PUSH1 0x40 DUP6 ADD MLOAD PUSH1 0x60 SWAP1 SWAP6 ADD MLOAD PUSH1 0x1 PUSH1 0x1 PUSH1 0xA0 SHL SUB SWAP1 SWAP5 AND PUSH1 0x1 PUSH1 0x1 PUSH1 0xC0 SHL SUB NOT SWAP1 SWAP3 AND SWAP2 SWAP1 SWAP2 OR PUSH1 0x1 PUSH1 0xA0 SHL PUSH4 0xFFFFFFFF SWAP3 DUP4 AND MUL OR PUSH1 0x1 PUSH1 0x1 PUSH1 0xC0 SHL SUB AND PUSH1 0x1 PUSH1 0xC0 SHL SWAP5 DUP3 AND SWAP5 SWAP1 SWAP5 MUL PUSH1 0x1 PUSH1 0x1 PUSH1 0xE0 SHL SUB AND SWAP4 SWAP1 SWAP4 OR PUSH1 0x1 PUSH1 0xE0 SHL SWAP4 SWAP1 SWAP3 AND SWAP3 SWAP1 SWAP3 MUL OR SWAP1 SSTORE PUSH32 0x1E29568197EA50B42324D3D0E7C1CC0BBF744DF069A4150D45BC1871E03AE76E DUP7 CALLER PUSH2 0x1F99 DUP5 PUSH8 0xDE0B6B3A7640000 PUSH2 0x5D14 JUMP JUMPDEST PUSH1 0x40 DUP1 MLOAD SWAP4 DUP5 MSTORE PUSH1 0x1 PUSH1 0x1 PUSH1 0xA0 SHL SUB SWAP1 SWAP3 AND PUSH1 0x20 DUP5 ADD MSTORE SWAP1 DUP3 ADD MSTORE PUSH1 0x60 ADD PUSH1 0x40 MLOAD DUP1 SWAP2 SUB SWAP1 LOG1 POP POP PUSH1 0x1 PUSH1 0xB SSTORE POP POP POP POP JUMP JUMPDEST PUSH1 0x60 PUSH1 0x5 DUP1 SLOAD PUSH2 0x994 SWAP1 PUSH2 0x5E37 JUMP JUMPDEST PUSH1 0x40 DUP1 MLOAD PUSH1 0x80 DUP2 ADD DUP3 MSTORE PUSH2 0x4E2D SLOAD PUSH4 0xFFFFFFFF DUP1 DUP3 AND DUP4 MSTORE PUSH1 0x1 PUSH1 0x20 SHL DUP1 DUP4 DIV PUSH1 0x1 PUSH1 0x1 PUSH1 0x60 SHL SUB SWAP1 DUP2 AND PUSH1 0x20 DUP1 DUP8 ADD SWAP2 SWAP1 SWAP2 MSTORE PUSH1 0x1 PUSH1 0x80 SHL DUP1 DUP7 DIV DUP6 AND DUP8 DUP10 ADD MSTORE PUSH1 0x1 PUSH1 0xA0 SHL SWAP1 SWAP6 DIV DUP3 AND PUSH1 0x60 DUP1 DUP9 ADD SWAP2 SWAP1 SWAP2 MSTORE DUP8 MLOAD DUP1 DUP10 ADD DUP10 MSTORE PUSH2 0x4E2C SLOAD DUP1 DUP8 AND DUP3 MSTORE DUP6 SWAP1 DIV DUP7 AND DUP2 DUP5 ADD MSTORE PUSH1 0x1 PUSH1 0x1 PUSH1 0xA0 SHL SUB DUP11 AND PUSH1 0x0 SWAP1 DUP2 MSTORE PUSH2 0x4E2E DUP5 MSTORE DUP10 DUP2 KECCAK256 DUP11 MLOAD SWAP4 DUP5 ADD DUP12 MSTORE SLOAD SWAP7 DUP8 AND DUP4 MSTORE SWAP5 DUP7 DIV DUP5 AND SWAP3 DUP3 ADD SWAP3 SWAP1 SWAP3 MSTORE SWAP5 SWAP1 SWAP4 DIV AND SWAP5 DUP4 ADD SWAP5 SWAP1 SWAP5 MSTORE SWAP1 DUP4 PUSH2 0x209D PUSH2 0x2093 TIMESTAMP PUSH2 0x385F JUMP JUMPDEST DUP5 PUSH1 0x20 ADD MLOAD PUSH2 0x45A8 JUMP JUMPDEST SWAP1 POP PUSH1 0x0 DUP5 PUSH1 0x40 ADD MLOAD DUP3 PUSH2 0x20B1 SWAP2 SWAP1 PUSH2 0x5DAF JUMP JUMPDEST PUSH4 0xFFFFFFFF AND SWAP1 POP DUP1 ISZERO PUSH2 0x2134 JUMPI DUP5 MLOAD PUSH4 0xFFFFFFFF AND ISZERO PUSH2 0x2127 JUMPI DUP5 MLOAD PUSH1 0x60 DUP7 ADD MLOAD PUSH2 0x2118 SWAP2 PUSH4 0xFFFFFFFF AND SWAP1 PUSH2 0x20F1 SWAP1 PUSH1 0x1 PUSH1 0x1 PUSH1 0x60 SHL SUB AND DUP5 PUSH2 0x5D14 JUMP JUMPDEST PUSH2 0x20FB SWAP2 SWAP1 PUSH2 0x5CC7 JUMP JUMPDEST DUP7 PUSH1 0x20 ADD MLOAD PUSH1 0x1 PUSH1 0x1 PUSH1 0x60 SHL SUB AND PUSH2 0x2113 SWAP2 SWAP1 PUSH2 0x5C6E JUMP JUMPDEST PUSH2 0x45C3 JUMP JUMPDEST PUSH1 0x1 PUSH1 0x1 PUSH1 0x60 SHL SUB AND PUSH1 0x20 DUP7 ADD MSTORE JUMPDEST PUSH4 0xFFFFFFFF DUP3 AND PUSH1 0x40 DUP7 ADD MSTORE JUMPDEST DUP3 PUSH1 0x40 ADD MLOAD DUP6 PUSH1 0x20 ADD MLOAD PUSH2 0x2148 SWAP2 SWAP1 PUSH2 0x5DD4 JUMP JUMPDEST DUP4 MLOAD PUSH2 0x215A SWAP2 SWAP1 PUSH4 0xFFFFFFFF AND PUSH2 0x5D33 JUMP JUMPDEST DUP4 PUSH1 0x20 ADD MLOAD PUSH2 0x2169 SWAP2 SWAP1 PUSH2 0x5CA5 JUMP JUMPDEST PUSH1 0x1 PUSH1 0x1 PUSH1 0x60 SHL SUB SWAP1 DUP2 AND PUSH1 0x20 DUP1 DUP7 ADD DUP3 SWAP1 MSTORE SWAP7 SWAP1 SWAP7 ADD MLOAD AND PUSH1 0x40 SWAP1 SWAP4 ADD SWAP3 SWAP1 SWAP3 MSTORE POP SWAP2 SWAP5 SWAP4 POP POP POP POP JUMP JUMPDEST PUSH1 0x1 PUSH1 0x1 PUSH1 0xA0 SHL SUB DUP2 AND PUSH1 0x0 SWAP1 DUP2 MSTORE PUSH1 0x8 PUSH1 0x20 MSTORE PUSH1 0x40 DUP2 KECCAK256 SLOAD DUP1 ISZERO PUSH2 0x2208 JUMPI PUSH1 0x1 PUSH1 0x1 PUSH1 0xA0 SHL SUB DUP4 AND PUSH1 0x0 SWAP1 DUP2 MSTORE PUSH1 0x8 PUSH1 0x20 MSTORE PUSH1 0x40 SWAP1 KECCAK256 PUSH2 0x21D7 PUSH1 0x1 DUP4 PUSH2 0x5D98 JUMP JUMPDEST DUP2 SLOAD DUP2 LT PUSH2 0x21E7 JUMPI PUSH2 0x21E7 PUSH2 0x5EB3 JUMP JUMPDEST PUSH1 0x0 SWAP2 DUP3 MSTORE PUSH1 0x20 SWAP1 SWAP2 KECCAK256 ADD SLOAD PUSH1 0x1 PUSH1 0x20 SHL SWAP1 DIV PUSH1 0x1 PUSH1 0x1 PUSH1 0xE0 SHL SUB AND PUSH2 0x220B JUMP JUMPDEST PUSH1 0x0 JUMPDEST PUSH1 0x1 PUSH1 0x1 PUSH1 0xE0 SHL SUB AND SWAP4 SWAP3 POP POP POP JUMP JUMPDEST PUSH1 0x0 DUP1 MLOAD PUSH1 0x20 PUSH2 0x5F03 DUP4 CODECOPY DUP2 MLOAD SWAP2 MSTORE PUSH2 0x2234 DUP2 CALLER PUSH2 0x37FB JUMP JUMPDEST DUP3 PUSH4 0xFFFFFFFF AND DUP5 PUSH4 0xFFFFFFFF AND GT ISZERO PUSH2 0x2282 JUMPI PUSH1 0x40 MLOAD PUSH3 0x461BCD PUSH1 0xE5 SHL DUP2 MSTORE PUSH1 0x20 PUSH1 0x4 DUP3 ADD MSTORE PUSH1 0xF PUSH1 0x24 DUP3 ADD MSTORE PUSH15 0x125B98DBDC9C9958DD081A5B9C1D5D PUSH1 0x8A SHL PUSH1 0x44 DUP3 ADD MSTORE PUSH1 0x64 ADD PUSH2 0xAAF JUMP JUMPDEST PUSH7 0x6A94D74F430000 DUP3 PUSH1 0x1 PUSH1 0x1 PUSH1 0x60 SHL SUB AND GT DUP1 ISZERO PUSH2 0x22B2 JUMPI POP PUSH9 0x1A055690D9DB80000 DUP3 PUSH1 0x1 PUSH1 0x1 PUSH1 0x60 SHL SUB AND LT JUMPDEST PUSH2 0x22EF JUMPI PUSH1 0x40 MLOAD PUSH3 0x461BCD PUSH1 0xE5 SHL DUP2 MSTORE PUSH1 0x20 PUSH1 0x4 DUP3 ADD MSTORE PUSH1 0xE PUSH1 0x24 DUP3 ADD MSTORE PUSH14 0x14985D19481A5B98DBDC9C9958DD PUSH1 0x92 SHL PUSH1 0x44 DUP3 ADD MSTORE PUSH1 0x64 ADD PUSH2 0xAAF JUMP JUMPDEST PUSH32 0x0 PUSH1 0x1 PUSH1 0x1 PUSH1 0xA0 SHL SUB AND PUSH2 0x235D JUMPI PUSH1 0x40 MLOAD PUSH3 0x461BCD PUSH1 0xE5 SHL DUP2 MSTORE PUSH1 0x20 PUSH1 0x4 DUP3 ADD MSTORE PUSH1 0x15 PUSH1 0x24 DUP3 ADD MSTORE PUSH21 0x14995DD85C991CC81D1BDAD95B881B9BDD081CD95D PUSH1 0x5A SHL PUSH1 0x44 DUP3 ADD MSTORE PUSH1 0x64 ADD PUSH2 0xAAF JUMP JUMPDEST PUSH2 0x4E2C SLOAD PUSH4 0xFFFFFFFF AND PUSH2 0x2370 TIMESTAMP PUSH2 0x385F JUMP JUMPDEST PUSH4 0xFFFFFFFF AND LT DUP1 PUSH2 0x239F JUMPI POP PUSH2 0x4E2C SLOAD PUSH1 0x1 PUSH1 0x20 SHL SWAP1 DIV PUSH4 0xFFFFFFFF AND PUSH2 0x2397 TIMESTAMP PUSH2 0x385F JUMP JUMPDEST PUSH4 0xFFFFFFFF AND GT JUMPDEST PUSH2 0x23E1 JUMPI PUSH1 0x40 MLOAD PUSH3 0x461BCD PUSH1 0xE5 SHL DUP2 MSTORE PUSH1 0x20 PUSH1 0x4 DUP3 ADD MSTORE PUSH1 0x13 PUSH1 0x24 DUP3 ADD MSTORE PUSH19 0x14995DD85C991CC8185B1C9958591E481CD95D PUSH1 0x6A SHL PUSH1 0x44 DUP3 ADD MSTORE PUSH1 0x64 ADD PUSH2 0xAAF JUMP JUMPDEST PUSH2 0x4E2C DUP1 SLOAD PUSH4 0xFFFFFFFF DUP7 DUP2 AND PUSH8 0xFFFFFFFFFFFFFFFF NOT SWAP1 SWAP3 AND DUP3 OR PUSH1 0x1 PUSH1 0x20 SHL SWAP2 DUP8 AND SWAP2 DUP3 MUL OR SWAP1 SWAP3 SSTORE PUSH2 0x4E2D DUP1 SLOAD PUSH1 0x1 PUSH1 0x1 PUSH1 0x80 SHL SUB AND PUSH1 0x1 PUSH1 0x80 SHL DUP4 MUL PUSH1 0x1 PUSH1 0x1 PUSH1 0xA0 SHL SUB AND OR PUSH1 0x1 PUSH1 0xA0 SHL PUSH1 0x1 PUSH1 0x1 PUSH1 0x60 SHL SUB DUP8 AND SWAP1 DUP2 MUL SWAP2 SWAP1 SWAP2 OR SWAP1 SWAP2 SSTORE PUSH1 0x40 DUP1 MLOAD SWAP3 DUP4 MSTORE PUSH1 0x20 DUP4 ADD SWAP4 SWAP1 SWAP4 MSTORE SWAP2 DUP2 ADD SWAP2 SWAP1 SWAP2 MSTORE PUSH32 0x95EFD8A2A0AA591F48FD9673CF5D13C2150CA7A1FE1CBE438DD3F0AE47064663 SWAP1 PUSH1 0x60 ADD JUMPDEST PUSH1 0x40 MLOAD DUP1 SWAP2 SUB SWAP1 LOG1 POP POP POP POP JUMP JUMPDEST CALLER PUSH1 0x0 SWAP1 DUP2 MSTORE PUSH1 0x2 PUSH1 0x20 SWAP1 DUP2 MSTORE PUSH1 0x40 DUP1 DUP4 KECCAK256 PUSH1 0x1 PUSH1 0x1 PUSH1 0xA0 SHL SUB DUP7 AND DUP5 MSTORE SWAP1 SWAP2 MSTORE DUP2 KECCAK256 SLOAD DUP3 DUP2 LT ISZERO PUSH2 0x2510 JUMPI PUSH1 0x40 MLOAD PUSH3 0x461BCD PUSH1 0xE5 SHL DUP2 MSTORE PUSH1 0x20 PUSH1 0x4 DUP3 ADD MSTORE PUSH1 0x25 PUSH1 0x24 DUP3 ADD MSTORE PUSH32 0x45524332303A2064656372656173656420616C6C6F77616E63652062656C6F77 PUSH1 0x44 DUP3 ADD MSTORE PUSH5 0x207A65726F PUSH1 0xD8 SHL PUSH1 0x64 DUP3 ADD MSTORE PUSH1 0x84 ADD PUSH2 0xAAF JUMP JUMPDEST PUSH2 0x251D CALLER DUP6 DUP6 DUP5 SUB PUSH2 0x36D7 JUMP JUMPDEST POP PUSH1 0x1 SWAP4 SWAP3 POP POP POP JUMP JUMPDEST PUSH1 0x0 PUSH2 0xA24 CALLER DUP5 DUP5 PUSH2 0x3E4D JUMP JUMPDEST PUSH2 0x271C DUP2 PUSH2 0x2710 DUP2 LT PUSH2 0x2546 JUMPI PUSH1 0x0 DUP1 REVERT JUMPDEST ADD SLOAD PUSH1 0x1 PUSH1 0x1 PUSH1 0xA0 SHL SUB DUP2 AND SWAP2 POP PUSH4 0xFFFFFFFF PUSH1 0x1 PUSH1 0xA0 SHL DUP3 DIV DUP2 AND SWAP2 PUSH1 0x1 PUSH1 0xC0 SHL DUP2 DIV DUP3 AND SWAP2 PUSH1 0x1 PUSH1 0xE0 SHL SWAP1 SWAP2 DIV AND DUP5 JUMP JUMPDEST PUSH1 0xC DUP2 PUSH2 0x2710 DUP2 LT PUSH2 0x258A JUMPI PUSH1 0x0 DUP1 REVERT JUMPDEST ADD SLOAD PUSH2 0xFFFF DUP1 DUP3 AND SWAP3 POP PUSH3 0x10000 DUP3 DIV PUSH1 0x1 PUSH1 0x1 PUSH1 0xA0 SHL SUB AND SWAP2 PUSH1 0x1 PUSH1 0xB0 SHL DUP2 DIV DUP3 AND SWAP2 PUSH1 0x1 PUSH1 0xC0 SHL DUP3 DIV DUP2 AND SWAP2 PUSH1 0x1 PUSH1 0xD0 SHL DUP2 DIV SWAP1 SWAP2 AND SWAP1 PUSH1 0x1 PUSH1 0xE0 SHL SWAP1 DIV PUSH4 0xFFFFFFFF AND DUP7 JUMP JUMPDEST PUSH1 0x2 PUSH1 0xB SLOAD EQ ISZERO PUSH2 0x2626 JUMPI PUSH1 0x40 MLOAD PUSH3 0x461BCD PUSH1 0xE5 SHL DUP2 MSTORE PUSH1 0x20 PUSH1 0x4 DUP3 ADD MSTORE PUSH1 0x1F PUSH1 0x24 DUP3 ADD MSTORE PUSH32 0x5265656E7472616E637947756172643A207265656E7472616E742063616C6C00 PUSH1 0x44 DUP3 ADD MSTORE PUSH1 0x64 ADD PUSH2 0xAAF JUMP JUMPDEST PUSH1 0x2 PUSH1 0xB SSTORE PUSH1 0x0 PUSH1 0xC DUP4 PUSH2 0x2710 DUP2 LT PUSH2 0x2641 JUMPI PUSH2 0x2641 PUSH2 0x5EB3 JUMP JUMPDEST PUSH1 0x40 DUP1 MLOAD PUSH1 0xC0 DUP2 ADD DUP3 MSTORE SWAP3 SWAP1 SWAP2 ADD SLOAD PUSH2 0xFFFF DUP1 DUP3 AND DUP5 MSTORE PUSH1 0x1 PUSH1 0x1 PUSH1 0xA0 SHL SUB PUSH3 0x10000 DUP4 DIV AND PUSH1 0x20 DUP6 ADD MSTORE PUSH1 0x1 PUSH1 0xB0 SHL DUP3 DIV DUP2 AND SWAP3 DUP5 ADD SWAP3 SWAP1 SWAP3 MSTORE PUSH1 0x1 PUSH1 0xC0 SHL DUP2 DIV DUP3 AND PUSH1 0x60 DUP5 ADD MSTORE PUSH1 0x1 PUSH1 0xD0 SHL DUP2 DIV SWAP1 SWAP2 AND PUSH1 0x80 DUP4 ADD MSTORE PUSH4 0xFFFFFFFF PUSH1 0x1 PUSH1 0xE0 SHL SWAP1 SWAP2 DIV AND PUSH1 0xA0 DUP3 ADD MSTORE SWAP1 POP PUSH1 0x0 PUSH2 0x271C DUP5 PUSH2 0x2710 DUP2 LT PUSH2 0x26C5 JUMPI PUSH2 0x26C5 PUSH2 0x5EB3 JUMP JUMPDEST PUSH1 0x40 DUP1 MLOAD PUSH1 0x80 DUP2 ADD DUP3 MSTORE SWAP3 SWAP1 SWAP2 ADD SLOAD PUSH1 0x1 PUSH1 0x1 PUSH1 0xA0 SHL SUB DUP2 AND DUP4 MSTORE PUSH4 0xFFFFFFFF PUSH1 0x1 PUSH1 0xA0 SHL DUP3 DIV DUP2 AND PUSH1 0x20 DUP6 ADD MSTORE PUSH1 0x1 PUSH1 0xC0 SHL DUP3 DIV DUP2 AND SWAP3 DUP5 ADD SWAP3 SWAP1 SWAP3 MSTORE PUSH1 0x1 PUSH1 0xE0 SHL SWAP1 DIV AND PUSH1 0x60 DUP3 ADD MSTORE SWAP1 POP PUSH2 0x2719 CALLER SWAP1 JUMP JUMPDEST PUSH1 0x1 PUSH1 0x1 PUSH1 0xA0 SHL SUB AND DUP2 PUSH1 0x0 ADD MLOAD PUSH1 0x1 PUSH1 0x1 PUSH1 0xA0 SHL SUB AND EQ PUSH2 0x276A JUMPI PUSH1 0x40 MLOAD PUSH3 0x461BCD PUSH1 0xE5 SHL DUP2 MSTORE PUSH1 0x20 PUSH1 0x4 DUP3 ADD MSTORE PUSH1 0xA PUSH1 0x24 DUP3 ADD MSTORE PUSH10 0x139BDD081C995B9D1959 PUSH1 0xB2 SHL PUSH1 0x44 DUP3 ADD MSTORE PUSH1 0x64 ADD PUSH2 0xAAF JUMP JUMPDEST PUSH1 0x0 PUSH2 0x27D2 DUP3 PUSH1 0x40 ADD MLOAD PUSH4 0xFFFFFFFF AND DUP5 PUSH1 0x40 ADD MLOAD PUSH2 0xFFFF AND PUSH3 0x15180 DUP7 PUSH1 0x60 ADD MLOAD PUSH2 0xFFFF AND DUP7 PUSH1 0x20 ADD MLOAD DUP9 PUSH1 0xA0 ADD MLOAD PUSH2 0x27A4 SWAP2 SWAP1 PUSH2 0x5DAF JUMP JUMPDEST PUSH4 0xFFFFFFFF AND PUSH2 0x27B4 SWAP2 SWAP1 PUSH2 0x5D14 JUMP JUMPDEST PUSH2 0x27BE SWAP2 SWAP1 PUSH2 0x5CC7 JUMP JUMPDEST PUSH2 0x27C8 SWAP2 SWAP1 PUSH2 0x5C6E JUMP JUMPDEST PUSH2 0x1E48 SWAP2 SWAP1 PUSH2 0x5D98 JUMP JUMPDEST SWAP1 POP PUSH2 0x27DD DUP2 PUSH2 0x385F JUMP JUMPDEST DUP3 PUSH1 0x40 ADD DUP2 DUP2 MLOAD PUSH2 0x27EE SWAP2 SWAP1 PUSH2 0x5C86 JUMP JUMPDEST PUSH4 0xFFFFFFFF AND SWAP1 MSTORE POP PUSH2 0x2821 PUSH32 0x0 CALLER PUSH2 0x1EC0 JUMP JUMPDEST DUP2 PUSH2 0x271C DUP7 PUSH2 0x2710 DUP2 LT PUSH2 0x2837 JUMPI PUSH2 0x2837 PUSH2 0x5EB3 JUMP JUMPDEST DUP3 MLOAD SWAP2 ADD DUP1 SLOAD PUSH1 0x20 DUP5 ADD MLOAD PUSH1 0x40 DUP6 ADD MLOAD PUSH1 0x60 SWAP1 SWAP6 ADD MLOAD PUSH1 0x1 PUSH1 0x1 PUSH1 0xA0 SHL SUB SWAP1 SWAP5 AND PUSH1 0x1 PUSH1 0x1 PUSH1 0xC0 SHL SUB NOT SWAP1 SWAP3 AND SWAP2 SWAP1 SWAP2 OR PUSH1 0x1 PUSH1 0xA0 SHL PUSH4 0xFFFFFFFF SWAP3 DUP4 AND MUL OR PUSH1 0x1 PUSH1 0x1 PUSH1 0xC0 SHL SUB AND PUSH1 0x1 PUSH1 0xC0 SHL SWAP5 DUP3 AND SWAP5 SWAP1 SWAP5 MUL PUSH1 0x1 PUSH1 0x1 PUSH1 0xE0 SHL SUB AND SWAP4 SWAP1 SWAP4 OR PUSH1 0x1 PUSH1 0xE0 SHL SWAP4 SWAP1 SWAP3 AND SWAP3 SWAP1 SWAP3 MUL OR SWAP1 SSTORE PUSH32 0x4D7281212F84DDB5B45FA8C98CCEACA247D2A9CA33497D7FEB95DF1D3D047B08 DUP6 CALLER PUSH2 0x28DE DUP5 PUSH8 0xDE0B6B3A7640000 PUSH2 0x5D14 JUMP JUMPDEST PUSH1 0x40 DUP1 MLOAD SWAP4 DUP5 MSTORE PUSH1 0x1 PUSH1 0x1 PUSH1 0xA0 SHL SUB SWAP1 SWAP3 AND PUSH1 0x20 DUP5 ADD MSTORE SWAP1 DUP3 ADD MSTORE PUSH1 0x60 ADD PUSH1 0x40 MLOAD DUP1 SWAP2 SUB SWAP1 LOG1 POP POP PUSH1 0x1 PUSH1 0xB SSTORE POP POP POP JUMP JUMPDEST PUSH32 0xF51E39AAD788CAA2D21DCD39F2B0C07C6BF0BB8F5DBF12F2578B71EA806092F1 PUSH2 0x293B DUP2 CALLER PUSH2 0x37FB JUMP JUMPDEST PUSH1 0x40 MLOAD PUSH4 0x67563283 PUSH1 0xE1 SHL DUP2 MSTORE PUSH1 0x1 PUSH1 0x1 PUSH1 0xA0 SHL SUB PUSH32 0x0 AND SWAP1 PUSH4 0xCEAC6506 SWAP1 PUSH2 0x298B SWAP1 DUP8 SWAP1 DUP8 SWAP1 DUP8 SWAP1 PUSH1 0x4 ADD PUSH2 0x5BD1 JUMP JUMPDEST PUSH1 0x0 PUSH1 0x40 MLOAD DUP1 DUP4 SUB DUP2 PUSH1 0x0 DUP8 DUP1 EXTCODESIZE ISZERO DUP1 ISZERO PUSH2 0x29A5 JUMPI PUSH1 0x0 DUP1 REVERT JUMPDEST POP GAS CALL ISZERO DUP1 ISZERO PUSH2 0x29B9 JUMPI RETURNDATASIZE PUSH1 0x0 DUP1 RETURNDATACOPY RETURNDATASIZE PUSH1 0x0 REVERT JUMPDEST POP POP POP POP PUSH32 0x5E1F8B6E070BA95A96E5921C703FC1F3AE9ACCE39AEF68C989829D7B0DBFD3DD DUP5 PUSH2 0x29E6 CALLER SWAP1 JUMP JUMPDEST PUSH1 0x40 DUP1 MLOAD SWAP3 DUP4 MSTORE PUSH1 0x1 PUSH1 0x1 PUSH1 0xA0 SHL SUB SWAP1 SWAP2 AND PUSH1 0x20 DUP4 ADD MSTORE ADD PUSH2 0x2480 JUMP JUMPDEST DUP4 TIMESTAMP GT ISZERO PUSH2 0x2A53 JUMPI PUSH1 0x40 MLOAD PUSH3 0x461BCD PUSH1 0xE5 SHL DUP2 MSTORE PUSH1 0x20 PUSH1 0x4 DUP3 ADD MSTORE PUSH1 0x1D PUSH1 0x24 DUP3 ADD MSTORE PUSH32 0x4552433230566F7465733A207369676E61747572652065787069726564000000 PUSH1 0x44 DUP3 ADD MSTORE PUSH1 0x64 ADD PUSH2 0xAAF JUMP JUMPDEST PUSH1 0x40 DUP1 MLOAD PUSH32 0xE48329057BFD03D55E49B547132E39CFFD9C1820AD7B9D4C5307691425D15ADF PUSH1 0x20 DUP3 ADD MSTORE PUSH1 0x1 PUSH1 0x1 PUSH1 0xA0 SHL SUB DUP9 AND SWAP2 DUP2 ADD SWAP2 SWAP1 SWAP2 MSTORE PUSH1 0x60 DUP2 ADD DUP7 SWAP1 MSTORE PUSH1 0x80 DUP2 ADD DUP6 SWAP1 MSTORE PUSH1 0x0 SWAP1 PUSH2 0x2ACD SWAP1 PUSH2 0x2AC5 SWAP1 PUSH1 0xA0 ADD PUSH1 0x40 MLOAD PUSH1 0x20 DUP2 DUP4 SUB SUB DUP2 MSTORE SWAP1 PUSH1 0x40 MSTORE DUP1 MLOAD SWAP1 PUSH1 0x20 ADD KECCAK256 PUSH2 0x462B JUMP JUMPDEST DUP6 DUP6 DUP6 PUSH2 0x4679 JUMP JUMPDEST SWAP1 POP PUSH2 0x2AD8 DUP2 PUSH2 0x46A1 JUMP JUMPDEST DUP7 EQ PUSH2 0x2B26 JUMPI PUSH1 0x40 MLOAD PUSH3 0x461BCD PUSH1 0xE5 SHL DUP2 MSTORE PUSH1 0x20 PUSH1 0x4 DUP3 ADD MSTORE PUSH1 0x19 PUSH1 0x24 DUP3 ADD MSTORE PUSH32 0x4552433230566F7465733A20696E76616C6964206E6F6E636500000000000000 PUSH1 0x44 DUP3 ADD MSTORE PUSH1 0x64 ADD PUSH2 0xAAF JUMP JUMPDEST PUSH2 0x10B6 DUP2 DUP9 PUSH2 0x4302 JUMP JUMPDEST DUP4 TIMESTAMP GT ISZERO PUSH2 0x2B80 JUMPI PUSH1 0x40 MLOAD PUSH3 0x461BCD PUSH1 0xE5 SHL DUP2 MSTORE PUSH1 0x20 PUSH1 0x4 DUP3 ADD MSTORE PUSH1 0x1D PUSH1 0x24 DUP3 ADD MSTORE PUSH32 0x45524332305065726D69743A206578706972656420646561646C696E65000000 PUSH1 0x44 DUP3 ADD MSTORE PUSH1 0x64 ADD PUSH2 0xAAF JUMP JUMPDEST PUSH1 0x0 PUSH32 0x0 DUP9 DUP9 DUP9 PUSH2 0x2BAF DUP13 PUSH2 0x46A1 JUMP JUMPDEST PUSH1 0x40 DUP1 MLOAD PUSH1 0x20 DUP2 ADD SWAP7 SWAP1 SWAP7 MSTORE PUSH1 0x1 PUSH1 0x1 PUSH1 0xA0 SHL SUB SWAP5 DUP6 AND SWAP1 DUP7 ADD MSTORE SWAP3 SWAP1 SWAP2 AND PUSH1 0x60 DUP5 ADD MSTORE PUSH1 0x80 DUP4 ADD MSTORE PUSH1 0xA0 DUP3 ADD MSTORE PUSH1 0xC0 DUP2 ADD DUP7 SWAP1 MSTORE PUSH1 0xE0 ADD PUSH1 0x40 MLOAD PUSH1 0x20 DUP2 DUP4 SUB SUB DUP2 MSTORE SWAP1 PUSH1 0x40 MSTORE DUP1 MLOAD SWAP1 PUSH1 0x20 ADD KECCAK256 SWAP1 POP PUSH1 0x0 PUSH2 0x2C0A DUP3 PUSH2 0x462B JUMP JUMPDEST SWAP1 POP PUSH1 0x0 PUSH2 0x2C1A DUP3 DUP8 DUP8 DUP8 PUSH2 0x4679 JUMP JUMPDEST SWAP1 POP DUP10 PUSH1 0x1 PUSH1 0x1 PUSH1 0xA0 SHL SUB AND DUP2 PUSH1 0x1 PUSH1 0x1 PUSH1 0xA0 SHL SUB AND EQ PUSH2 0x2C7D JUMPI PUSH1 0x40 MLOAD PUSH3 0x461BCD PUSH1 0xE5 SHL DUP2 MSTORE PUSH1 0x20 PUSH1 0x4 DUP3 ADD MSTORE PUSH1 0x1E PUSH1 0x24 DUP3 ADD MSTORE PUSH32 0x45524332305065726D69743A20696E76616C6964207369676E61747572650000 PUSH1 0x44 DUP3 ADD MSTORE PUSH1 0x64 ADD PUSH2 0xAAF JUMP JUMPDEST PUSH2 0x2C88 DUP11 DUP11 DUP11 PUSH2 0x36D7 JUMP JUMPDEST POP POP POP POP POP POP POP POP POP POP JUMP JUMPDEST PUSH1 0x0 DUP3 DUP2 MSTORE PUSH1 0xA PUSH1 0x20 MSTORE PUSH1 0x40 SWAP1 KECCAK256 PUSH1 0x1 ADD SLOAD PUSH2 0x2CB0 DUP2 CALLER PUSH2 0x37FB JUMP JUMPDEST PUSH2 0x10E5 DUP4 DUP4 PUSH2 0x41DF JUMP JUMPDEST PUSH1 0x0 DUP1 JUMPDEST DUP8 DUP2 LT ISZERO PUSH2 0x305D JUMPI PUSH1 0x0 PUSH1 0xC DUP3 PUSH2 0x2710 DUP2 LT PUSH2 0x2CDC JUMPI PUSH2 0x2CDC PUSH2 0x5EB3 JUMP JUMPDEST PUSH1 0x40 DUP1 MLOAD PUSH1 0xC0 DUP2 ADD DUP3 MSTORE SWAP3 SWAP1 SWAP2 ADD SLOAD PUSH2 0xFFFF DUP1 DUP3 AND DUP5 MSTORE PUSH1 0x1 PUSH1 0x1 PUSH1 0xA0 SHL SUB PUSH3 0x10000 DUP4 DIV AND PUSH1 0x20 DUP6 ADD MSTORE PUSH1 0x1 PUSH1 0xB0 SHL DUP3 DIV DUP2 AND SWAP3 DUP5 ADD SWAP3 SWAP1 SWAP3 MSTORE PUSH1 0x1 PUSH1 0xC0 SHL DUP2 DIV DUP3 AND PUSH1 0x60 DUP5 ADD MSTORE PUSH1 0x1 PUSH1 0xD0 SHL DUP2 DIV SWAP1 SWAP2 AND PUSH1 0x80 DUP4 ADD MSTORE PUSH4 0xFFFFFFFF PUSH1 0x1 PUSH1 0xE0 SHL SWAP1 SWAP2 DIV AND PUSH1 0xA0 DUP3 ADD MSTORE SWAP1 POP PUSH1 0x0 DUP11 DUP11 DUP5 DUP2 DUP2 LT PUSH2 0x2D5D JUMPI PUSH2 0x2D5D PUSH2 0x5EB3 JUMP JUMPDEST SWAP1 POP PUSH1 0x20 MUL ADD CALLDATALOAD SWAP1 POP DUP2 PUSH1 0x0 ADD MLOAD PUSH2 0xFFFF AND PUSH1 0x0 EQ ISZERO PUSH2 0x2DB8 JUMPI PUSH1 0x40 MLOAD PUSH3 0x461BCD PUSH1 0xE5 SHL DUP2 MSTORE PUSH1 0x20 PUSH1 0x4 DUP3 ADD MSTORE PUSH1 0x16 PUSH1 0x24 DUP3 ADD MSTORE PUSH22 0x15D95A59DA1D081B9BDD081A5B9A5D1A585B1A5E9959 PUSH1 0x52 SHL PUSH1 0x44 DUP3 ADD MSTORE PUSH1 0x64 ADD PUSH2 0xAAF JUMP JUMPDEST CALLER PUSH1 0x40 MLOAD PUSH4 0x31A9108F PUSH1 0xE1 SHL DUP2 MSTORE PUSH1 0x4 DUP2 ADD DUP4 SWAP1 MSTORE PUSH1 0x1 PUSH1 0x1 PUSH1 0xA0 SHL SUB SWAP2 DUP3 AND SWAP2 PUSH32 0x0 AND SWAP1 PUSH4 0x6352211E SWAP1 PUSH1 0x24 ADD PUSH1 0x20 PUSH1 0x40 MLOAD DUP1 DUP4 SUB DUP2 DUP7 DUP1 EXTCODESIZE ISZERO DUP1 ISZERO PUSH2 0x2E1D JUMPI PUSH1 0x0 DUP1 REVERT JUMPDEST POP GAS STATICCALL ISZERO DUP1 ISZERO PUSH2 0x2E31 JUMPI RETURNDATASIZE PUSH1 0x0 DUP1 RETURNDATACOPY RETURNDATASIZE PUSH1 0x0 REVERT JUMPDEST POP POP POP POP PUSH1 0x40 MLOAD RETURNDATASIZE PUSH1 0x1F NOT PUSH1 0x1F DUP3 ADD AND DUP3 ADD DUP1 PUSH1 0x40 MSTORE POP DUP2 ADD SWAP1 PUSH2 0x2E55 SWAP2 SWAP1 PUSH2 0x5425 JUMP JUMPDEST PUSH1 0x1 PUSH1 0x1 PUSH1 0xA0 SHL SUB AND EQ PUSH2 0x2E7B JUMPI PUSH1 0x40 MLOAD PUSH3 0x461BCD PUSH1 0xE5 SHL DUP2 MSTORE PUSH1 0x4 ADD PUSH2 0xAAF SWAP1 PUSH2 0x5B7F JUMP JUMPDEST PUSH1 0x40 MLOAD PUSH4 0x23B872DD PUSH1 0xE0 SHL DUP2 MSTORE PUSH32 0x0 PUSH1 0x1 PUSH1 0x1 PUSH1 0xA0 SHL SUB AND SWAP1 PUSH4 0x23B872DD SWAP1 PUSH2 0x2ECB SWAP1 CALLER SWAP1 ADDRESS SWAP1 DUP7 SWAP1 PUSH1 0x4 ADD PUSH2 0x5ACE JUMP JUMPDEST PUSH1 0x0 PUSH1 0x40 MLOAD DUP1 DUP4 SUB DUP2 PUSH1 0x0 DUP8 DUP1 EXTCODESIZE ISZERO DUP1 ISZERO PUSH2 0x2EE5 JUMPI PUSH1 0x0 DUP1 REVERT JUMPDEST POP GAS CALL ISZERO DUP1 ISZERO PUSH2 0x2EF9 JUMPI RETURNDATASIZE PUSH1 0x0 DUP1 RETURNDATACOPY RETURNDATASIZE PUSH1 0x0 REVERT JUMPDEST POP POP PUSH1 0x40 DUP1 MLOAD DUP5 DUP2 MSTORE PUSH1 0x1 PUSH1 0x1 PUSH1 0xA0 SHL SUB DUP14 AND PUSH1 0x20 DUP3 ADD MSTORE PUSH32 0x386D7662103B38221201A01F5F88FF9C8C03246B5349135976C5DEC31F07B7EF SWAP4 POP ADD SWAP1 POP PUSH1 0x40 MLOAD DUP1 SWAP2 SUB SWAP1 LOG1 POP DUP1 MLOAD PUSH2 0x2F50 SWAP1 PUSH2 0xFFFF AND DUP5 PUSH2 0x5C6E JUMP JUMPDEST PUSH1 0x1 PUSH1 0x1 PUSH1 0xA0 SHL SUB DUP10 AND PUSH1 0x20 DUP4 ADD MSTORE PUSH2 0xFFFF DUP1 DUP10 AND PUSH1 0x40 DUP5 ADD MSTORE DUP8 DUP2 AND PUSH1 0x60 DUP5 ADD MSTORE DUP7 AND PUSH1 0x80 DUP4 ADD MSTORE PUSH4 0xFFFFFFFF DUP6 AND PUSH1 0xA0 DUP4 ADD MSTORE SWAP3 POP DUP1 PUSH1 0xC DUP4 PUSH2 0x2710 DUP2 LT PUSH2 0x2F9C JUMPI PUSH2 0x2F9C PUSH2 0x5EB3 JUMP JUMPDEST DUP3 MLOAD SWAP2 ADD DUP1 SLOAD PUSH1 0x20 DUP5 ADD MLOAD PUSH1 0x40 DUP6 ADD MLOAD PUSH1 0x60 DUP7 ADD MLOAD PUSH1 0x80 DUP8 ADD MLOAD PUSH1 0xA0 SWAP1 SWAP8 ADD MLOAD PUSH4 0xFFFFFFFF AND PUSH1 0x1 PUSH1 0xE0 SHL MUL PUSH1 0x1 PUSH1 0x1 PUSH1 0xE0 SHL SUB PUSH2 0xFFFF SWAP9 DUP10 AND PUSH1 0x1 PUSH1 0xD0 SHL MUL AND PUSH1 0x1 PUSH1 0x1 PUSH1 0xD0 SHL SUB SWAP3 DUP10 AND PUSH1 0x1 PUSH1 0xC0 SHL MUL PUSH2 0xFFFF PUSH1 0xC0 SHL NOT SWAP5 DUP11 AND PUSH1 0x1 PUSH1 0xB0 SHL MUL SWAP5 SWAP1 SWAP5 AND PUSH4 0xFFFFFFFF PUSH1 0xB0 SHL NOT PUSH1 0x1 PUSH1 0x1 PUSH1 0xA0 SHL SUB SWAP1 SWAP7 AND PUSH3 0x10000 MUL PUSH1 0x1 PUSH1 0x1 PUSH1 0xB0 SHL SUB NOT SWAP1 SWAP8 AND SWAP10 SWAP1 SWAP9 AND SWAP9 SWAP1 SWAP9 OR SWAP5 SWAP1 SWAP5 OR SWAP3 SWAP1 SWAP3 AND SWAP5 SWAP1 SWAP5 OR SWAP4 SWAP1 SWAP4 OR SWAP3 SWAP1 SWAP3 AND SWAP3 SWAP1 SWAP3 OR OR SWAP1 SSTORE POP DUP1 PUSH2 0x3055 DUP2 PUSH2 0x5E6C JUMP JUMPDEST SWAP2 POP POP PUSH2 0x2CBE JUMP JUMPDEST POP PUSH2 0x306A PUSH2 0x183E DUP3 PUSH2 0x385F JUMP JUMPDEST PUSH2 0x3077 DUP7 PUSH2 0x1852 DUP4 PUSH2 0x385F JUMP JUMPDEST POP PUSH2 0x308E DUP7 PUSH2 0x1870 DUP10 PUSH8 0xDE0B6B3A7640000 PUSH2 0x5D14 JUMP JUMPDEST POP POP POP POP POP POP POP POP JUMP JUMPDEST PUSH1 0x0 DUP1 JUMPDEST DUP3 DUP2 LT ISZERO PUSH2 0x3395 JUMPI PUSH1 0x0 PUSH1 0xC DUP3 PUSH2 0x2710 DUP2 LT PUSH2 0x30BA JUMPI PUSH2 0x30BA PUSH2 0x5EB3 JUMP JUMPDEST PUSH1 0x40 DUP1 MLOAD PUSH1 0xC0 DUP2 ADD DUP3 MSTORE SWAP3 SWAP1 SWAP2 ADD SLOAD PUSH2 0xFFFF DUP1 DUP3 AND DUP5 MSTORE PUSH1 0x1 PUSH1 0x1 PUSH1 0xA0 SHL SUB PUSH3 0x10000 DUP4 DIV AND PUSH1 0x20 DUP6 ADD MSTORE PUSH1 0x1 PUSH1 0xB0 SHL DUP3 DIV DUP2 AND SWAP3 DUP5 ADD SWAP3 SWAP1 SWAP3 MSTORE PUSH1 0x1 PUSH1 0xC0 SHL DUP2 DIV DUP3 AND PUSH1 0x60 DUP5 ADD MSTORE PUSH1 0x1 PUSH1 0xD0 SHL DUP2 DIV SWAP1 SWAP2 AND PUSH1 0x80 DUP4 ADD MSTORE PUSH4 0xFFFFFFFF PUSH1 0x1 PUSH1 0xE0 SHL SWAP1 SWAP2 DIV AND PUSH1 0xA0 DUP3 ADD MSTORE SWAP1 POP PUSH1 0x0 DUP6 DUP6 DUP5 DUP2 DUP2 LT PUSH2 0x313B JUMPI PUSH2 0x313B PUSH2 0x5EB3 JUMP JUMPDEST SWAP1 POP PUSH1 0x20 MUL ADD CALLDATALOAD SWAP1 POP PUSH2 0x314B CALLER SWAP1 JUMP JUMPDEST PUSH1 0x1 PUSH1 0x1 PUSH1 0xA0 SHL SUB AND DUP3 PUSH1 0x20 ADD MLOAD PUSH1 0x1 PUSH1 0x1 PUSH1 0xA0 SHL SUB AND EQ PUSH2 0x317F JUMPI PUSH1 0x40 MLOAD PUSH3 0x461BCD PUSH1 0xE5 SHL DUP2 MSTORE PUSH1 0x4 ADD PUSH2 0xAAF SWAP1 PUSH2 0x5B7F JUMP JUMPDEST PUSH1 0x0 PUSH2 0x271C DUP5 PUSH2 0x2710 DUP2 LT PUSH2 0x3196 JUMPI PUSH2 0x3196 PUSH2 0x5EB3 JUMP JUMPDEST ADD SLOAD PUSH1 0x1 PUSH1 0x1 PUSH1 0xA0 SHL SUB AND EQ PUSH2 0x31BE JUMPI PUSH1 0x40 MLOAD PUSH3 0x461BCD PUSH1 0xE5 SHL DUP2 MSTORE PUSH1 0x4 ADD PUSH2 0xAAF SWAP1 PUSH2 0x5BAB JUMP JUMPDEST PUSH1 0x40 MLOAD PUSH4 0x23B872DD PUSH1 0xE0 SHL DUP2 MSTORE PUSH32 0x0 PUSH1 0x1 PUSH1 0x1 PUSH1 0xA0 SHL SUB AND SWAP1 PUSH4 0x23B872DD SWAP1 PUSH2 0x320E SWAP1 ADDRESS SWAP1 CALLER SWAP1 DUP7 SWAP1 PUSH1 0x4 ADD PUSH2 0x5ACE JUMP JUMPDEST PUSH1 0x0 PUSH1 0x40 MLOAD DUP1 DUP4 SUB DUP2 PUSH1 0x0 DUP8 DUP1 EXTCODESIZE ISZERO DUP1 ISZERO PUSH2 0x3228 JUMPI PUSH1 0x0 DUP1 REVERT JUMPDEST POP GAS CALL ISZERO DUP1 ISZERO PUSH2 0x323C JUMPI RETURNDATASIZE PUSH1 0x0 DUP1 RETURNDATACOPY RETURNDATASIZE PUSH1 0x0 REVERT JUMPDEST POP POP POP POP PUSH32 0xFA3DA614F910B1404DC8190D3B3592514BBEDA644F073679A843BE160F262ADD DUP2 PUSH2 0x3269 CALLER SWAP1 JUMP JUMPDEST PUSH1 0x40 DUP1 MLOAD SWAP3 DUP4 MSTORE PUSH1 0x1 PUSH1 0x1 PUSH1 0xA0 SHL SUB SWAP1 SWAP2 AND PUSH1 0x20 DUP4 ADD MSTORE ADD PUSH1 0x40 MLOAD DUP1 SWAP2 SUB SWAP1 LOG1 POP DUP1 MLOAD PUSH2 0x329A SWAP1 PUSH2 0xFFFF AND DUP5 PUSH2 0x5C6E JUMP JUMPDEST PUSH1 0x0 PUSH1 0x20 DUP4 ADD DUP2 SWAP1 MSTORE PUSH1 0x40 DUP4 ADD DUP2 SWAP1 MSTORE PUSH1 0x60 DUP4 ADD DUP2 SWAP1 MSTORE PUSH1 0x80 DUP4 ADD DUP2 SWAP1 MSTORE PUSH1 0xA0 DUP4 ADD MSTORE SWAP3 POP DUP1 PUSH1 0xC DUP4 PUSH2 0x2710 DUP2 LT PUSH2 0x32D4 JUMPI PUSH2 0x32D4 PUSH2 0x5EB3 JUMP JUMPDEST DUP3 MLOAD SWAP2 ADD DUP1 SLOAD PUSH1 0x20 DUP5 ADD MLOAD PUSH1 0x40 DUP6 ADD MLOAD PUSH1 0x60 DUP7 ADD MLOAD PUSH1 0x80 DUP8 ADD MLOAD PUSH1 0xA0 SWAP1 SWAP8 ADD MLOAD PUSH4 0xFFFFFFFF AND PUSH1 0x1 PUSH1 0xE0 SHL MUL PUSH1 0x1 PUSH1 0x1 PUSH1 0xE0 SHL SUB PUSH2 0xFFFF SWAP9 DUP10 AND PUSH1 0x1 PUSH1 0xD0 SHL MUL AND PUSH1 0x1 PUSH1 0x1 PUSH1 0xD0 SHL SUB SWAP3 DUP10 AND PUSH1 0x1 PUSH1 0xC0 SHL MUL PUSH2 0xFFFF PUSH1 0xC0 SHL NOT SWAP5 DUP11 AND PUSH1 0x1 PUSH1 0xB0 SHL MUL SWAP5 SWAP1 SWAP5 AND PUSH4 0xFFFFFFFF PUSH1 0xB0 SHL NOT PUSH1 0x1 PUSH1 0x1 PUSH1 0xA0 SHL SUB SWAP1 SWAP7 AND PUSH3 0x10000 MUL PUSH1 0x1 PUSH1 0x1 PUSH1 0xB0 SHL SUB NOT SWAP1 SWAP8 AND SWAP10 SWAP1 SWAP9 AND SWAP9 SWAP1 SWAP9 OR SWAP5 SWAP1 SWAP5 OR SWAP3 SWAP1 SWAP3 AND SWAP5 SWAP1 SWAP5 OR SWAP4 SWAP1 SWAP4 OR SWAP3 SWAP1 SWAP3 AND SWAP3 SWAP1 SWAP3 OR OR SWAP1 SSTORE POP DUP1 PUSH2 0x338D DUP2 PUSH2 0x5E6C JUMP JUMPDEST SWAP2 POP POP PUSH2 0x309C JUMP JUMPDEST POP PUSH2 0x33A9 PUSH2 0x33A2 DUP3 PUSH2 0x385F JUMP JUMPDEST PUSH1 0x0 PUSH2 0x38C8 JUMP JUMPDEST PUSH2 0x33BD CALLER PUSH2 0x33B6 DUP4 PUSH2 0x385F JUMP JUMPDEST PUSH1 0x0 PUSH2 0x3AE2 JUMP JUMPDEST POP PUSH2 0x10E5 CALLER PUSH2 0x33D4 DUP5 PUSH8 0xDE0B6B3A7640000 PUSH2 0x5D14 JUMP JUMPDEST PUSH2 0x46C9 JUMP JUMPDEST PUSH1 0x40 DUP1 MLOAD DUP1 DUP3 ADD SWAP1 SWAP2 MSTORE PUSH1 0x0 DUP1 DUP3 MSTORE PUSH1 0x20 DUP3 ADD MSTORE PUSH1 0x1 PUSH1 0x1 PUSH1 0xA0 SHL SUB DUP4 AND PUSH1 0x0 SWAP1 DUP2 MSTORE PUSH1 0x8 PUSH1 0x20 MSTORE PUSH1 0x40 SWAP1 KECCAK256 DUP1 SLOAD PUSH4 0xFFFFFFFF DUP5 AND SWAP1 DUP2 LT PUSH2 0x341D JUMPI PUSH2 0x341D PUSH2 0x5EB3 JUMP JUMPDEST PUSH1 0x0 SWAP2 DUP3 MSTORE PUSH1 0x20 SWAP2 DUP3 SWAP1 KECCAK256 PUSH1 0x40 DUP1 MLOAD DUP1 DUP3 ADD SWAP1 SWAP2 MSTORE SWAP2 ADD SLOAD PUSH4 0xFFFFFFFF DUP2 AND DUP3 MSTORE PUSH1 0x1 PUSH1 0x20 SHL SWAP1 DIV PUSH1 0x1 PUSH1 0x1 PUSH1 0xE0 SHL SUB AND SWAP2 DUP2 ADD SWAP2 SWAP1 SWAP2 MSTORE SWAP4 SWAP3 POP POP POP JUMP JUMPDEST PUSH1 0x0 PUSH1 0xC DUP3 PUSH2 0x2710 DUP2 LT PUSH2 0x3472 JUMPI PUSH2 0x3472 PUSH2 0x5EB3 JUMP JUMPDEST PUSH1 0x40 DUP1 MLOAD PUSH1 0xC0 DUP2 ADD DUP3 MSTORE SWAP3 SWAP1 SWAP2 ADD SLOAD PUSH2 0xFFFF DUP1 DUP3 AND DUP5 MSTORE PUSH1 0x1 PUSH1 0x1 PUSH1 0xA0 SHL SUB PUSH3 0x10000 DUP4 DIV AND PUSH1 0x20 DUP6 ADD MSTORE PUSH1 0x1 PUSH1 0xB0 SHL DUP3 DIV DUP2 AND SWAP3 DUP5 ADD SWAP3 SWAP1 SWAP3 MSTORE PUSH1 0x1 PUSH1 0xC0 SHL DUP2 DIV DUP3 AND PUSH1 0x60 DUP5 ADD MSTORE PUSH1 0x1 PUSH1 0xD0 SHL DUP2 DIV SWAP1 SWAP2 AND PUSH1 0x80 DUP4 ADD MSTORE PUSH4 0xFFFFFFFF PUSH1 0x1 PUSH1 0xE0 SHL SWAP1 SWAP2 DIV AND PUSH1 0xA0 DUP3 ADD MSTORE SWAP1 POP PUSH1 0x0 PUSH2 0x271C DUP4 PUSH2 0x2710 DUP2 LT PUSH2 0x34F6 JUMPI PUSH2 0x34F6 PUSH2 0x5EB3 JUMP JUMPDEST PUSH1 0x40 DUP1 MLOAD PUSH1 0x80 DUP2 ADD DUP3 MSTORE SWAP3 SWAP1 SWAP2 ADD SLOAD PUSH1 0x1 PUSH1 0x1 PUSH1 0xA0 SHL SUB DUP2 AND DUP4 MSTORE PUSH4 0xFFFFFFFF PUSH1 0x1 PUSH1 0xA0 SHL DUP3 DIV DUP2 AND PUSH1 0x20 DUP6 ADD MSTORE PUSH1 0x1 PUSH1 0xC0 SHL DUP3 DIV DUP2 AND SWAP3 DUP5 ADD DUP4 SWAP1 MSTORE PUSH1 0x1 PUSH1 0xE0 SHL SWAP1 SWAP2 DIV AND PUSH1 0x60 DUP1 DUP5 ADD SWAP2 SWAP1 SWAP2 MSTORE DUP5 ADD MLOAD SWAP2 SWAP3 POP PUSH1 0x0 SWAP2 PUSH2 0xFFFF AND SWAP1 PUSH2 0x3560 SWAP1 PUSH3 0x15180 PUSH2 0x5D14 JUMP JUMPDEST PUSH2 0x356A SWAP2 SWAP1 PUSH2 0x5CC7 JUMP JUMPDEST SWAP1 POP PUSH1 0x0 PUSH2 0x3588 DUP5 PUSH1 0x80 ADD MLOAD PUSH2 0xFFFF AND PUSH3 0x15180 PUSH2 0x1A10 SWAP2 SWAP1 PUSH2 0x5CE9 JUMP JUMPDEST DUP3 GT DUP1 PUSH2 0x35DB JUMPI POP PUSH1 0x20 DUP4 ADD MLOAD PUSH2 0x35A5 SWAP1 PUSH4 0xFFFFFFFF AND TIMESTAMP PUSH2 0x5D98 JUMP JUMPDEST DUP5 PUSH1 0x60 ADD MLOAD PUSH2 0xFFFF AND DUP6 PUSH1 0x40 ADD MLOAD PUSH2 0xFFFF AND PUSH3 0x15180 PUSH2 0x35C5 SWAP2 SWAP1 PUSH2 0x5D14 JUMP JUMPDEST PUSH2 0x35CF SWAP2 SWAP1 PUSH2 0x5CC7 JUMP JUMPDEST PUSH2 0x35D9 SWAP1 DUP5 PUSH2 0x5D98 JUMP JUMPDEST GT JUMPDEST SWAP1 POP DUP1 ISZERO PUSH2 0x35FB JUMPI PUSH1 0x40 MLOAD PUSH3 0x461BCD PUSH1 0xE5 SHL DUP2 MSTORE PUSH1 0x4 ADD PUSH2 0xAAF SWAP1 PUSH2 0x5BAB JUMP JUMPDEST PUSH1 0x0 DUP1 DUP5 MSTORE PUSH1 0x20 DUP5 ADD DUP2 SWAP1 MSTORE PUSH1 0x40 DUP5 ADD DUP2 SWAP1 MSTORE PUSH1 0x60 DUP5 ADD MSTORE DUP3 PUSH2 0x271C DUP7 PUSH2 0x2710 DUP2 LT PUSH2 0x3629 JUMPI PUSH2 0x3629 PUSH2 0x5EB3 JUMP JUMPDEST DUP3 MLOAD SWAP2 ADD DUP1 SLOAD PUSH1 0x20 DUP5 ADD MLOAD PUSH1 0x40 DUP6 ADD MLOAD PUSH1 0x60 SWAP1 SWAP6 ADD MLOAD PUSH1 0x1 PUSH1 0x1 PUSH1 0xA0 SHL SUB SWAP1 SWAP5 AND PUSH1 0x1 PUSH1 0x1 PUSH1 0xC0 SHL SUB NOT SWAP1 SWAP3 AND SWAP2 SWAP1 SWAP2 OR PUSH1 0x1 PUSH1 0xA0 SHL PUSH4 0xFFFFFFFF SWAP3 DUP4 AND MUL OR PUSH1 0x1 PUSH1 0x1 PUSH1 0xC0 SHL SUB AND PUSH1 0x1 PUSH1 0xC0 SHL SWAP5 DUP3 AND SWAP5 SWAP1 SWAP5 MUL PUSH1 0x1 PUSH1 0x1 PUSH1 0xE0 SHL SUB AND SWAP4 SWAP1 SWAP4 OR PUSH1 0x1 PUSH1 0xE0 SHL SWAP4 SWAP1 SWAP3 AND SWAP3 SWAP1 SWAP3 MUL OR SWAP1 SSTORE POP POP POP POP POP JUMP JUMPDEST PUSH1 0x0 PUSH1 0x1 PUSH1 0x1 PUSH1 0xE0 SHL SUB NOT DUP3 AND PUSH4 0x7965DB0B PUSH1 0xE0 SHL EQ DUP1 PUSH2 0x97F JUMPI POP PUSH4 0x1FFC9A7 PUSH1 0xE0 SHL PUSH1 0x1 PUSH1 0x1 PUSH1 0xE0 SHL SUB NOT DUP4 AND EQ PUSH2 0x97F JUMP JUMPDEST PUSH1 0x1 PUSH1 0x1 PUSH1 0xA0 SHL SUB DUP4 AND PUSH2 0x3739 JUMPI PUSH1 0x40 MLOAD PUSH3 0x461BCD PUSH1 0xE5 SHL DUP2 MSTORE PUSH1 0x20 PUSH1 0x4 DUP3 ADD MSTORE PUSH1 0x24 DUP1 DUP3 ADD MSTORE PUSH32 0x45524332303A20617070726F76652066726F6D20746865207A65726F20616464 PUSH1 0x44 DUP3 ADD MSTORE PUSH4 0x72657373 PUSH1 0xE0 SHL PUSH1 0x64 DUP3 ADD MSTORE PUSH1 0x84 ADD PUSH2 0xAAF JUMP JUMPDEST PUSH1 0x1 PUSH1 0x1 PUSH1 0xA0 SHL SUB DUP3 AND PUSH2 0x379A JUMPI PUSH1 0x40 MLOAD PUSH3 0x461BCD PUSH1 0xE5 SHL DUP2 MSTORE PUSH1 0x20 PUSH1 0x4 DUP3 ADD MSTORE PUSH1 0x22 PUSH1 0x24 DUP3 ADD MSTORE PUSH32 0x45524332303A20617070726F766520746F20746865207A65726F206164647265 PUSH1 0x44 DUP3 ADD MSTORE PUSH2 0x7373 PUSH1 0xF0 SHL PUSH1 0x64 DUP3 ADD MSTORE PUSH1 0x84 ADD PUSH2 0xAAF JUMP JUMPDEST PUSH1 0x1 PUSH1 0x1 PUSH1 0xA0 SHL SUB DUP4 DUP2 AND PUSH1 0x0 DUP2 DUP2 MSTORE PUSH1 0x2 PUSH1 0x20 SWAP1 DUP2 MSTORE PUSH1 0x40 DUP1 DUP4 KECCAK256 SWAP5 DUP8 AND DUP1 DUP5 MSTORE SWAP5 DUP3 MSTORE SWAP2 DUP3 SWAP1 KECCAK256 DUP6 SWAP1 SSTORE SWAP1 MLOAD DUP5 DUP2 MSTORE PUSH32 0x8C5BE1E5EBEC7D5BD14F71427D1E84F3DD0314C0F7B2291E5B200AC8C7C3B925 SWAP2 ADD PUSH1 0x40 MLOAD DUP1 SWAP2 SUB SWAP1 LOG3 POP POP POP JUMP JUMPDEST PUSH2 0x3805 DUP3 DUP3 PUSH2 0x1B8D JUMP JUMPDEST PUSH2 0x1173 JUMPI PUSH2 0x381D DUP2 PUSH1 0x1 PUSH1 0x1 PUSH1 0xA0 SHL SUB AND PUSH1 0x14 PUSH2 0x46D3 JUMP JUMPDEST PUSH2 0x3828 DUP4 PUSH1 0x20 PUSH2 0x46D3 JUMP JUMPDEST PUSH1 0x40 MLOAD PUSH1 0x20 ADD PUSH2 0x3839 SWAP3 SWAP2 SWAP1 PUSH2 0x5A59 JUMP JUMPDEST PUSH1 0x40 DUP1 MLOAD PUSH1 0x1F NOT DUP2 DUP5 SUB ADD DUP2 MSTORE SWAP1 DUP3 SWAP1 MSTORE PUSH3 0x461BCD PUSH1 0xE5 SHL DUP3 MSTORE PUSH2 0xAAF SWAP2 PUSH1 0x4 ADD PUSH2 0x5B4C JUMP JUMPDEST PUSH1 0x0 PUSH4 0xFFFFFFFF DUP3 GT ISZERO PUSH2 0x38C4 JUMPI PUSH1 0x40 MLOAD PUSH3 0x461BCD PUSH1 0xE5 SHL DUP2 MSTORE PUSH1 0x20 PUSH1 0x4 DUP3 ADD MSTORE PUSH1 0x26 PUSH1 0x24 DUP3 ADD MSTORE PUSH32 0x53616665436173743A2076616C756520646F65736E27742066697420696E2033 PUSH1 0x44 DUP3 ADD MSTORE PUSH6 0x322062697473 PUSH1 0xD0 SHL PUSH1 0x64 DUP3 ADD MSTORE PUSH1 0x84 ADD PUSH2 0xAAF JUMP JUMPDEST POP SWAP1 JUMP JUMPDEST PUSH1 0x40 DUP1 MLOAD PUSH1 0x80 DUP2 ADD DUP3 MSTORE PUSH2 0x4E2D SLOAD PUSH4 0xFFFFFFFF DUP1 DUP3 AND DUP4 MSTORE PUSH1 0x1 PUSH1 0x20 SHL DUP1 DUP4 DIV PUSH1 0x1 PUSH1 0x1 PUSH1 0x60 SHL SUB SWAP1 DUP2 AND PUSH1 0x20 DUP1 DUP8 ADD SWAP2 SWAP1 SWAP2 MSTORE PUSH1 0x1 PUSH1 0x80 SHL DUP6 DIV DUP5 AND DUP7 DUP9 ADD MSTORE PUSH1 0x1 PUSH1 0xA0 SHL SWAP1 SWAP5 DIV AND PUSH1 0x60 DUP6 ADD MSTORE DUP5 MLOAD DUP1 DUP7 ADD SWAP1 SWAP6 MSTORE PUSH2 0x4E2C SLOAD DUP1 DUP4 AND DUP1 DUP8 MSTORE SWAP2 SWAP1 DIV SWAP1 SWAP2 AND SWAP2 DUP5 ADD SWAP2 SWAP1 SWAP2 MSTORE SWAP1 SWAP2 SWAP1 PUSH2 0x3942 TIMESTAMP PUSH2 0x385F JUMP JUMPDEST PUSH4 0xFFFFFFFF AND LT PUSH2 0x39FA JUMPI PUSH1 0x0 PUSH2 0x3965 PUSH2 0x395B TIMESTAMP PUSH2 0x385F JUMP JUMPDEST DUP4 PUSH1 0x20 ADD MLOAD PUSH2 0x45A8 JUMP JUMPDEST SWAP1 POP PUSH1 0x0 DUP4 PUSH1 0x40 ADD MLOAD DUP3 PUSH2 0x3979 SWAP2 SWAP1 PUSH2 0x5DAF JUMP JUMPDEST PUSH4 0xFFFFFFFF AND SWAP1 POP DUP1 ISZERO PUSH2 0x39F7 JUMPI DUP4 MLOAD PUSH4 0xFFFFFFFF AND ISZERO PUSH2 0x39EA JUMPI DUP4 MLOAD PUSH1 0x60 DUP6 ADD MLOAD PUSH2 0x39DB SWAP2 PUSH4 0xFFFFFFFF AND SWAP1 PUSH2 0x39B9 SWAP1 PUSH1 0x1 PUSH1 0x1 PUSH1 0x60 SHL SUB AND DUP5 PUSH2 0x5D14 JUMP JUMPDEST PUSH2 0x39C3 SWAP2 SWAP1 PUSH2 0x5CC7 JUMP JUMPDEST DUP6 PUSH1 0x20 ADD MLOAD PUSH1 0x1 PUSH1 0x1 PUSH1 0x60 SHL SUB AND PUSH2 0x2113 SWAP2 SWAP1 PUSH2 0x5C6E JUMP JUMPDEST PUSH1 0x1 PUSH1 0x1 PUSH1 0x60 SHL SUB AND PUSH1 0x20 DUP6 ADD MSTORE JUMPDEST PUSH4 0xFFFFFFFF DUP3 AND PUSH1 0x40 DUP6 ADD MSTORE JUMPDEST POP POP JUMPDEST DUP3 ISZERO PUSH2 0x3A20 JUMPI DUP4 DUP3 PUSH1 0x0 ADD DUP2 DUP2 MLOAD PUSH2 0x3A12 SWAP2 SWAP1 PUSH2 0x5C86 JUMP JUMPDEST PUSH4 0xFFFFFFFF AND SWAP1 MSTORE POP PUSH2 0x3A3C JUMP JUMPDEST DUP4 DUP3 PUSH1 0x0 ADD DUP2 DUP2 MLOAD PUSH2 0x3A32 SWAP2 SWAP1 PUSH2 0x5DAF JUMP JUMPDEST PUSH4 0xFFFFFFFF AND SWAP1 MSTORE POP JUMPDEST DUP2 MLOAD PUSH2 0x4E2D DUP1 SLOAD PUSH1 0x20 DUP1 DUP7 ADD MLOAD PUSH1 0x40 DUP1 DUP9 ADD MLOAD PUSH1 0x60 DUP10 ADD MLOAD PUSH1 0x1 PUSH1 0x1 PUSH1 0x60 SHL SUB SWAP1 DUP2 AND PUSH1 0x1 PUSH1 0xA0 SHL MUL PUSH1 0x1 PUSH1 0x1 PUSH1 0xA0 SHL SUB PUSH4 0xFFFFFFFF SWAP4 DUP5 AND PUSH1 0x1 PUSH1 0x80 SHL MUL AND PUSH1 0x1 PUSH1 0x1 PUSH1 0x80 SHL SUB SWAP3 SWAP1 SWAP6 AND PUSH1 0x1 PUSH1 0x20 SHL DUP2 MUL PUSH1 0x1 PUSH1 0x1 PUSH1 0x80 SHL SUB NOT SWAP1 SWAP9 AND SWAP4 SWAP1 SWAP10 AND SWAP3 SWAP1 SWAP3 OR SWAP6 SWAP1 SWAP6 OR SWAP5 SWAP1 SWAP5 AND SWAP2 SWAP1 SWAP2 OR SWAP3 SWAP1 SWAP3 OR SWAP1 SWAP3 SSTORE MLOAD SWAP2 DUP3 MSTORE PUSH32 0xAAC1802288DB8019F8EC43430EFC11A152C72473C57D6DDCDE3B6DD0C8926067 SWAP2 ADD PUSH2 0x2480 JUMP JUMPDEST PUSH1 0x1 PUSH1 0x1 PUSH1 0xA0 SHL SUB DUP4 AND PUSH1 0x0 SWAP1 DUP2 MSTORE PUSH2 0x4E2E PUSH1 0x20 SWAP1 DUP2 MSTORE PUSH1 0x40 DUP1 DUP4 KECCAK256 DUP2 MLOAD PUSH1 0x60 DUP1 DUP3 ADD DUP5 MSTORE SWAP2 SLOAD PUSH4 0xFFFFFFFF DUP1 DUP3 AND DUP4 MSTORE PUSH1 0x1 PUSH1 0x1 PUSH1 0x60 SHL SUB PUSH1 0x1 PUSH1 0x20 SHL DUP1 DUP5 DIV DUP3 AND DUP6 DUP10 ADD MSTORE PUSH1 0x1 PUSH1 0x80 SHL SWAP4 DUP5 SWAP1 DIV DUP3 AND DUP6 DUP9 ADD SWAP1 DUP2 MSTORE DUP8 MLOAD PUSH1 0x80 DUP2 ADD DUP10 MSTORE PUSH2 0x4E2D SLOAD DUP1 DUP7 AND DUP3 MSTORE SWAP3 DUP4 DIV DUP5 AND SWAP10 DUP2 ADD DUP11 SWAP1 MSTORE SWAP5 DUP3 DIV SWAP1 SWAP4 AND SWAP7 DUP5 ADD SWAP7 SWAP1 SWAP7 MSTORE PUSH1 0x1 PUSH1 0xA0 SHL SWAP1 SWAP6 DIV SWAP1 SWAP5 AND SWAP3 DUP2 ADD SWAP3 SWAP1 SWAP3 MSTORE SWAP2 MLOAD SWAP2 SWAP3 SWAP1 SWAP2 PUSH2 0x3B84 SWAP2 PUSH2 0x5DD4 JUMP JUMPDEST DUP3 MLOAD PUSH2 0x3B96 SWAP2 SWAP1 PUSH4 0xFFFFFFFF AND PUSH2 0x5D33 JUMP JUMPDEST DUP3 PUSH1 0x20 ADD MLOAD PUSH2 0x3BA5 SWAP2 SWAP1 PUSH2 0x5CA5 JUMP JUMPDEST PUSH1 0x1 PUSH1 0x1 PUSH1 0x60 SHL SUB SWAP1 DUP2 AND PUSH1 0x20 DUP1 DUP6 ADD SWAP2 SWAP1 SWAP2 MSTORE DUP3 ADD MLOAD AND PUSH1 0x40 DUP4 ADD MSTORE DUP4 ISZERO PUSH2 0x3BE8 JUMPI DUP5 DUP3 PUSH1 0x0 ADD DUP2 DUP2 MLOAD PUSH2 0x3BDA SWAP2 SWAP1 PUSH2 0x5C86 JUMP JUMPDEST PUSH4 0xFFFFFFFF AND SWAP1 MSTORE POP PUSH2 0x3C04 JUMP JUMPDEST DUP5 DUP3 PUSH1 0x0 ADD DUP2 DUP2 MLOAD PUSH2 0x3BFA SWAP2 SWAP1 PUSH2 0x5DAF JUMP JUMPDEST PUSH4 0xFFFFFFFF AND SWAP1 MSTORE POP JUMPDEST PUSH1 0x1 PUSH1 0x1 PUSH1 0xA0 SHL SUB DUP7 AND PUSH1 0x0 DUP2 DUP2 MSTORE PUSH2 0x4E2E PUSH1 0x20 SWAP1 DUP2 MSTORE PUSH1 0x40 SWAP2 DUP3 SWAP1 KECCAK256 DUP6 MLOAD DUP2 SLOAD DUP8 DUP5 ADD MLOAD DUP9 DUP7 ADD MLOAD PUSH4 0xFFFFFFFF SWAP4 DUP5 AND PUSH1 0x1 PUSH1 0x1 PUSH1 0x80 SHL SUB NOT SWAP1 SWAP4 AND SWAP3 SWAP1 SWAP3 OR PUSH1 0x1 PUSH1 0x20 SHL PUSH1 0x1 PUSH1 0x1 PUSH1 0x60 SHL SUB SWAP3 DUP4 AND MUL OR PUSH12 0xFFFFFFFFFFFFFFFFFFFFFFFF PUSH1 0x80 SHL NOT AND PUSH1 0x1 PUSH1 0x80 SHL SWAP2 SWAP1 SWAP3 AND MUL OR SWAP1 SWAP2 SSTORE DUP3 MLOAD DUP9 ISZERO ISZERO DUP2 MSTORE SWAP1 DUP10 AND SWAP2 DUP2 ADD SWAP2 SWAP1 SWAP2 MSTORE TIMESTAMP SWAP2 DUP2 ADD SWAP2 SWAP1 SWAP2 MSTORE PUSH32 0xB1DE227711ABA68CEC92891CCAABAD9474A3F417D166CA8F57E7D616F467D343 SWAP1 PUSH1 0x60 ADD PUSH1 0x40 MLOAD DUP1 SWAP2 SUB SWAP1 LOG2 PUSH32 0x5B9AAF4CC5141C090A75F8B8A627863EBA92DF81F0C83C096350DA9B79AEDD04 DUP7 DUP4 PUSH1 0x20 ADD MLOAD DUP5 PUSH1 0x40 ADD MLOAD PUSH1 0x40 MLOAD PUSH2 0x3D1D SWAP4 SWAP3 SWAP2 SWAP1 PUSH1 0x1 PUSH1 0x1 PUSH1 0xA0 SHL SUB SWAP4 SWAP1 SWAP4 AND DUP4 MSTORE PUSH1 0x1 PUSH1 0x1 PUSH1 0x60 SHL SUB SWAP2 DUP3 AND PUSH1 0x20 DUP5 ADD MSTORE AND PUSH1 0x40 DUP3 ADD MSTORE PUSH1 0x60 ADD SWAP1 JUMP JUMPDEST PUSH1 0x40 MLOAD DUP1 SWAP2 SUB SWAP1 LOG1 POP PUSH1 0x20 ADD MLOAD SWAP5 SWAP4 POP POP POP POP JUMP JUMPDEST PUSH1 0x40 DUP1 MLOAD PUSH1 0x1 PUSH1 0x1 PUSH1 0xA0 SHL SUB DUP5 DUP2 AND PUSH1 0x24 DUP4 ADD MSTORE PUSH1 0x44 DUP1 DUP4 ADD DUP6 SWAP1 MSTORE DUP4 MLOAD DUP1 DUP5 SUB SWAP1 SWAP2 ADD DUP2 MSTORE PUSH1 0x64 SWAP1 SWAP3 ADD DUP4 MSTORE PUSH1 0x20 DUP3 ADD DUP1 MLOAD PUSH1 0x1 PUSH1 0x1 PUSH1 0xE0 SHL SUB AND PUSH4 0xA9059CBB PUSH1 0xE0 SHL OR SWAP1 MSTORE SWAP2 MLOAD PUSH1 0x0 SWAP3 DUP4 SWAP3 SWAP1 DUP8 AND SWAP2 PUSH2 0x3D8E SWAP2 SWAP1 PUSH2 0x5A3D JUMP JUMPDEST PUSH1 0x0 PUSH1 0x40 MLOAD DUP1 DUP4 SUB DUP2 PUSH1 0x0 DUP7 GAS CALL SWAP2 POP POP RETURNDATASIZE DUP1 PUSH1 0x0 DUP2 EQ PUSH2 0x3DCB JUMPI PUSH1 0x40 MLOAD SWAP2 POP PUSH1 0x1F NOT PUSH1 0x3F RETURNDATASIZE ADD AND DUP3 ADD PUSH1 0x40 MSTORE RETURNDATASIZE DUP3 MSTORE RETURNDATASIZE PUSH1 0x0 PUSH1 0x20 DUP5 ADD RETURNDATACOPY PUSH2 0x3DD0 JUMP JUMPDEST PUSH1 0x60 SWAP2 POP JUMPDEST POP SWAP2 POP SWAP2 POP DUP2 DUP1 ISZERO PUSH2 0x3DFA JUMPI POP DUP1 MLOAD ISZERO DUP1 PUSH2 0x3DFA JUMPI POP DUP1 DUP1 PUSH1 0x20 ADD SWAP1 MLOAD DUP2 ADD SWAP1 PUSH2 0x3DFA SWAP2 SWAP1 PUSH2 0x5882 JUMP JUMPDEST PUSH2 0x3E46 JUMPI PUSH1 0x40 MLOAD PUSH3 0x461BCD PUSH1 0xE5 SHL DUP2 MSTORE PUSH1 0x20 PUSH1 0x4 DUP3 ADD MSTORE PUSH1 0x1F PUSH1 0x24 DUP3 ADD MSTORE PUSH32 0x5472616E7366657248656C7065723A205452414E534645525F4641494C454400 PUSH1 0x44 DUP3 ADD MSTORE PUSH1 0x64 ADD PUSH2 0xAAF JUMP JUMPDEST POP POP POP POP POP JUMP JUMPDEST PUSH1 0x1 PUSH1 0x1 PUSH1 0xA0 SHL SUB DUP4 AND PUSH2 0x3EB1 JUMPI PUSH1 0x40 MLOAD PUSH3 0x461BCD PUSH1 0xE5 SHL DUP2 MSTORE PUSH1 0x20 PUSH1 0x4 DUP3 ADD MSTORE PUSH1 0x25 PUSH1 0x24 DUP3 ADD MSTORE PUSH32 0x45524332303A207472616E736665722066726F6D20746865207A65726F206164 PUSH1 0x44 DUP3 ADD MSTORE PUSH5 0x6472657373 PUSH1 0xD8 SHL PUSH1 0x64 DUP3 ADD MSTORE PUSH1 0x84 ADD PUSH2 0xAAF JUMP JUMPDEST PUSH1 0x1 PUSH1 0x1 PUSH1 0xA0 SHL SUB DUP3 AND PUSH2 0x3F13 JUMPI PUSH1 0x40 MLOAD PUSH3 0x461BCD PUSH1 0xE5 SHL DUP2 MSTORE PUSH1 0x20 PUSH1 0x4 DUP3 ADD MSTORE PUSH1 0x23 PUSH1 0x24 DUP3 ADD MSTORE PUSH32 0x45524332303A207472616E7366657220746F20746865207A65726F2061646472 PUSH1 0x44 DUP3 ADD MSTORE PUSH3 0x657373 PUSH1 0xE8 SHL PUSH1 0x64 DUP3 ADD MSTORE PUSH1 0x84 ADD PUSH2 0xAAF JUMP JUMPDEST PUSH2 0x3F1E DUP4 DUP4 DUP4 PUSH2 0x486F JUMP JUMPDEST PUSH1 0x1 PUSH1 0x1 PUSH1 0xA0 SHL SUB DUP4 AND PUSH1 0x0 SWAP1 DUP2 MSTORE PUSH1 0x1 PUSH1 0x20 MSTORE PUSH1 0x40 SWAP1 KECCAK256 SLOAD DUP2 DUP2 LT ISZERO PUSH2 0x3F96 JUMPI PUSH1 0x40 MLOAD PUSH3 0x461BCD PUSH1 0xE5 SHL DUP2 MSTORE PUSH1 0x20 PUSH1 0x4 DUP3 ADD MSTORE PUSH1 0x26 PUSH1 0x24 DUP3 ADD MSTORE PUSH32 0x45524332303A207472616E7366657220616D6F756E7420657863656564732062 PUSH1 0x44 DUP3 ADD MSTORE PUSH6 0x616C616E6365 PUSH1 0xD0 SHL PUSH1 0x64 DUP3 ADD MSTORE PUSH1 0x84 ADD PUSH2 0xAAF JUMP JUMPDEST PUSH1 0x1 PUSH1 0x1 PUSH1 0xA0 SHL SUB DUP1 DUP6 AND PUSH1 0x0 SWAP1 DUP2 MSTORE PUSH1 0x1 PUSH1 0x20 MSTORE PUSH1 0x40 DUP1 DUP3 KECCAK256 DUP6 DUP6 SUB SWAP1 SSTORE SWAP2 DUP6 AND DUP2 MSTORE SWAP1 DUP2 KECCAK256 DUP1 SLOAD DUP5 SWAP3 SWAP1 PUSH2 0x3FCD SWAP1 DUP5 SWAP1 PUSH2 0x5C6E JUMP JUMPDEST SWAP3 POP POP DUP2 SWAP1 SSTORE POP DUP3 PUSH1 0x1 PUSH1 0x1 PUSH1 0xA0 SHL SUB AND DUP5 PUSH1 0x1 PUSH1 0x1 PUSH1 0xA0 SHL SUB AND PUSH32 0xDDF252AD1BE2C89B69C2B068FC378DAA952BA7F163C4A11628F55A4DF523B3EF DUP5 PUSH1 0x40 MLOAD PUSH2 0x4019 SWAP2 DUP2 MSTORE PUSH1 0x20 ADD SWAP1 JUMP JUMPDEST PUSH1 0x40 MLOAD DUP1 SWAP2 SUB SWAP1 LOG3 PUSH2 0x402C DUP5 DUP5 DUP5 PUSH2 0x48D8 JUMP JUMPDEST POP POP POP POP JUMP JUMPDEST PUSH2 0x403C DUP3 DUP3 PUSH2 0x1B8D JUMP JUMPDEST PUSH2 0x1173 JUMPI PUSH1 0x0 DUP3 DUP2 MSTORE PUSH1 0xA PUSH1 0x20 SWAP1 DUP2 MSTORE PUSH1 0x40 DUP1 DUP4 KECCAK256 PUSH1 0x1 PUSH1 0x1 PUSH1 0xA0 SHL SUB DUP6 AND DUP5 MSTORE SWAP1 SWAP2 MSTORE SWAP1 KECCAK256 DUP1 SLOAD PUSH1 0xFF NOT AND PUSH1 0x1 OR SWAP1 SSTORE PUSH2 0x4074 CALLER SWAP1 JUMP JUMPDEST PUSH1 0x1 PUSH1 0x1 PUSH1 0xA0 SHL SUB AND DUP2 PUSH1 0x1 PUSH1 0x1 PUSH1 0xA0 SHL SUB AND DUP4 PUSH32 0x2F8788117E7EFF1D82E926EC794901D17C78024A50270940304540A733656F0D PUSH1 0x40 MLOAD PUSH1 0x40 MLOAD DUP1 SWAP2 SUB SWAP1 LOG4 POP POP JUMP JUMPDEST PUSH1 0x0 ADDRESS PUSH1 0x1 PUSH1 0x1 PUSH1 0xA0 SHL SUB PUSH32 0x0 AND EQ DUP1 ISZERO PUSH2 0x4111 JUMPI POP PUSH32 0x0 CHAINID EQ JUMPDEST ISZERO PUSH2 0x413B JUMPI POP PUSH32 0x0 SWAP1 JUMP JUMPDEST POP PUSH1 0x40 DUP1 MLOAD PUSH32 0x0 PUSH1 0x20 DUP1 DUP4 ADD SWAP2 SWAP1 SWAP2 MSTORE PUSH32 0x0 DUP3 DUP5 ADD MSTORE PUSH32 0x0 PUSH1 0x60 DUP4 ADD MSTORE CHAINID PUSH1 0x80 DUP4 ADD MSTORE ADDRESS PUSH1 0xA0 DUP1 DUP5 ADD SWAP2 SWAP1 SWAP2 MSTORE DUP4 MLOAD DUP1 DUP5 SUB SWAP1 SWAP2 ADD DUP2 MSTORE PUSH1 0xC0 SWAP1 SWAP3 ADD SWAP1 SWAP3 MSTORE DUP1 MLOAD SWAP2 ADD KECCAK256 SWAP1 JUMP JUMPDEST PUSH2 0x41E9 DUP3 DUP3 PUSH2 0x1B8D JUMP JUMPDEST ISZERO PUSH2 0x1173 JUMPI PUSH1 0x0 DUP3 DUP2 MSTORE PUSH1 0xA PUSH1 0x20 SWAP1 DUP2 MSTORE PUSH1 0x40 DUP1 DUP4 KECCAK256 PUSH1 0x1 PUSH1 0x1 PUSH1 0xA0 SHL SUB DUP6 AND DUP1 DUP6 MSTORE SWAP3 MSTORE DUP1 DUP4 KECCAK256 DUP1 SLOAD PUSH1 0xFF NOT AND SWAP1 SSTORE MLOAD CALLER SWAP3 DUP6 SWAP2 PUSH32 0xF6391F5C32D9C69D2A47EA670B442974B53935D1EDC7FD64EB21E047A839171B SWAP2 SWAP1 LOG4 POP POP JUMP JUMPDEST DUP2 SLOAD PUSH1 0x0 SWAP1 DUP2 JUMPDEST DUP2 DUP2 LT ISZERO PUSH2 0x42AA JUMPI PUSH1 0x0 PUSH2 0x4261 DUP3 DUP5 PUSH2 0x48E3 JUMP JUMPDEST SWAP1 POP DUP5 DUP7 DUP3 DUP2 SLOAD DUP2 LT PUSH2 0x4276 JUMPI PUSH2 0x4276 PUSH2 0x5EB3 JUMP JUMPDEST PUSH1 0x0 SWAP2 DUP3 MSTORE PUSH1 0x20 SWAP1 SWAP2 KECCAK256 ADD SLOAD PUSH4 0xFFFFFFFF AND GT ISZERO PUSH2 0x4296 JUMPI DUP1 SWAP3 POP PUSH2 0x42A4 JUMP JUMPDEST PUSH2 0x42A1 DUP2 PUSH1 0x1 PUSH2 0x5C6E JUMP JUMPDEST SWAP2 POP JUMPDEST POP PUSH2 0x424D JUMP JUMPDEST DUP2 ISZERO PUSH2 0x42ED JUMPI DUP5 PUSH2 0x42BC PUSH1 0x1 DUP5 PUSH2 0x5D98 JUMP JUMPDEST DUP2 SLOAD DUP2 LT PUSH2 0x42CC JUMPI PUSH2 0x42CC PUSH2 0x5EB3 JUMP JUMPDEST PUSH1 0x0 SWAP2 DUP3 MSTORE PUSH1 0x20 SWAP1 SWAP2 KECCAK256 ADD SLOAD PUSH1 0x1 PUSH1 0x20 SHL SWAP1 DIV PUSH1 0x1 PUSH1 0x1 PUSH1 0xE0 SHL SUB AND PUSH2 0x42F0 JUMP JUMPDEST PUSH1 0x0 JUMPDEST PUSH1 0x1 PUSH1 0x1 PUSH1 0xE0 SHL SUB AND SWAP6 SWAP5 POP POP POP POP POP JUMP JUMPDEST PUSH1 0x1 PUSH1 0x1 PUSH1 0xA0 SHL SUB DUP3 DUP2 AND PUSH1 0x0 DUP2 DUP2 MSTORE PUSH1 0x7 PUSH1 0x20 DUP2 DUP2 MSTORE PUSH1 0x40 DUP1 DUP5 KECCAK256 DUP1 SLOAD PUSH1 0x1 DUP5 MSTORE DUP3 DUP7 KECCAK256 SLOAD SWAP5 SWAP1 SWAP4 MSTORE DUP8 DUP8 AND PUSH1 0x1 PUSH1 0x1 PUSH1 0xA0 SHL SUB NOT DUP5 AND DUP2 OR SWAP1 SWAP2 SSTORE SWAP1 MLOAD SWAP2 SWAP1 SWAP6 AND SWAP5 SWAP2 SWAP4 SWAP2 SWAP3 DUP6 SWAP3 SWAP2 PUSH32 0x3134E8A2E6D97E929A7E54011EA5485D7D196DD5F0BA4D4EF95803E8E3FC257F SWAP2 SWAP1 LOG4 PUSH2 0x402C DUP3 DUP5 DUP4 PUSH2 0x48FE JUMP JUMPDEST PUSH2 0x4E2F SLOAD PUSH1 0x40 DUP1 MLOAD PUSH1 0x20 PUSH1 0x1F DUP6 ADD DUP2 SWAP1 DIV DUP2 MUL DUP3 ADD DUP2 ADD SWAP1 SWAP3 MSTORE DUP4 DUP2 MSTORE PUSH1 0x0 SWAP3 PUSH1 0x1 PUSH1 0x1 PUSH1 0xA0 SHL SUB AND SWAP2 PUSH2 0x43D7 SWAP2 SWAP1 DUP7 SWAP1 DUP7 SWAP1 DUP2 SWAP1 DUP5 ADD DUP4 DUP3 DUP1 DUP3 DUP5 CALLDATACOPY PUSH1 0x0 SWAP3 ADD SWAP2 SWAP1 SWAP2 MSTORE POP PUSH2 0x43D1 SWAP3 POP DUP10 SWAP2 POP PUSH2 0x4A3B SWAP1 POP JUMP JUMPDEST SWAP1 PUSH2 0x4A8E JUMP JUMPDEST PUSH1 0x1 PUSH1 0x1 PUSH1 0xA0 SHL SUB AND EQ SWAP5 SWAP4 POP POP POP POP JUMP JUMPDEST PUSH1 0x0 PUSH2 0xFFFF DUP3 GT ISZERO PUSH2 0x38C4 JUMPI PUSH1 0x40 MLOAD PUSH3 0x461BCD PUSH1 0xE5 SHL DUP2 MSTORE PUSH1 0x20 PUSH1 0x4 DUP3 ADD MSTORE PUSH1 0x26 PUSH1 0x24 DUP3 ADD MSTORE PUSH32 0x53616665436173743A2076616C756520646F65736E27742066697420696E2031 PUSH1 0x44 DUP3 ADD MSTORE PUSH6 0x362062697473 PUSH1 0xD0 SHL PUSH1 0x64 DUP3 ADD MSTORE PUSH1 0x84 ADD PUSH2 0xAAF JUMP JUMPDEST PUSH2 0x1173 DUP3 DUP3 PUSH2 0x4AB2 JUMP JUMPDEST PUSH1 0x0 DUP2 DUP4 LT ISZERO PUSH2 0x4466 JUMPI DUP2 PUSH2 0x1226 JUMP JUMPDEST POP SWAP1 SWAP2 SWAP1 POP JUMP JUMPDEST PUSH1 0x0 DUP2 DUP4 LT PUSH2 0x4466 JUMPI DUP2 PUSH2 0x1226 JUMP JUMPDEST PUSH1 0x0 DUP1 DUP6 PUSH1 0x1 PUSH1 0x1 PUSH1 0xA0 SHL SUB AND PUSH4 0x23B872DD DUP7 DUP7 DUP7 PUSH1 0x40 MLOAD PUSH1 0x24 ADD PUSH2 0x44A3 SWAP4 SWAP3 SWAP2 SWAP1 PUSH2 0x5ACE JUMP JUMPDEST PUSH1 0x40 MLOAD PUSH1 0x20 DUP2 DUP4 SUB SUB DUP2 MSTORE SWAP1 PUSH1 0x40 MSTORE SWAP1 PUSH1 0xE0 SHL PUSH1 0x20 DUP3 ADD DUP1 MLOAD PUSH1 0x1 PUSH1 0x1 PUSH1 0xE0 SHL SUB DUP4 DUP2 DUP4 AND OR DUP4 MSTORE POP POP POP POP PUSH1 0x40 MLOAD PUSH2 0x44DC SWAP2 SWAP1 PUSH2 0x5A3D JUMP JUMPDEST PUSH1 0x0 PUSH1 0x40 MLOAD DUP1 DUP4 SUB DUP2 PUSH1 0x0 DUP7 GAS CALL SWAP2 POP POP RETURNDATASIZE DUP1 PUSH1 0x0 DUP2 EQ PUSH2 0x4519 JUMPI PUSH1 0x40 MLOAD SWAP2 POP PUSH1 0x1F NOT PUSH1 0x3F RETURNDATASIZE ADD AND DUP3 ADD PUSH1 0x40 MSTORE RETURNDATASIZE DUP3 MSTORE RETURNDATASIZE PUSH1 0x0 PUSH1 0x20 DUP5 ADD RETURNDATACOPY PUSH2 0x451E JUMP JUMPDEST PUSH1 0x60 SWAP2 POP JUMPDEST POP SWAP2 POP SWAP2 POP DUP2 DUP1 ISZERO PUSH2 0x4548 JUMPI POP DUP1 MLOAD ISZERO DUP1 PUSH2 0x4548 JUMPI POP DUP1 DUP1 PUSH1 0x20 ADD SWAP1 MLOAD DUP2 ADD SWAP1 PUSH2 0x4548 SWAP2 SWAP1 PUSH2 0x5882 JUMP JUMPDEST PUSH2 0x45A0 JUMPI PUSH1 0x40 MLOAD PUSH3 0x461BCD PUSH1 0xE5 SHL DUP2 MSTORE PUSH1 0x20 PUSH1 0x4 DUP3 ADD MSTORE PUSH1 0x24 DUP1 DUP3 ADD MSTORE PUSH32 0x5472616E7366657248656C7065723A205452414E534645525F46524F4D5F4641 PUSH1 0x44 DUP3 ADD MSTORE PUSH4 0x12531151 PUSH1 0xE2 SHL PUSH1 0x64 DUP3 ADD MSTORE PUSH1 0x84 ADD PUSH2 0xAAF JUMP JUMPDEST POP POP POP POP POP POP JUMP JUMPDEST PUSH1 0x0 DUP2 PUSH4 0xFFFFFFFF AND DUP4 PUSH4 0xFFFFFFFF AND LT PUSH2 0x4466 JUMPI DUP2 PUSH2 0x1226 JUMP JUMPDEST PUSH1 0x0 PUSH1 0x1 PUSH1 0x1 PUSH1 0x60 SHL SUB DUP3 GT ISZERO PUSH2 0x38C4 JUMPI PUSH1 0x40 MLOAD PUSH3 0x461BCD PUSH1 0xE5 SHL DUP2 MSTORE PUSH1 0x20 PUSH1 0x4 DUP3 ADD MSTORE PUSH1 0x26 PUSH1 0x24 DUP3 ADD MSTORE PUSH32 0x53616665436173743A2076616C756520646F65736E27742066697420696E2039 PUSH1 0x44 DUP3 ADD MSTORE PUSH6 0x362062697473 PUSH1 0xD0 SHL PUSH1 0x64 DUP3 ADD MSTORE PUSH1 0x84 ADD PUSH2 0xAAF JUMP JUMPDEST PUSH1 0x0 PUSH2 0x97F PUSH2 0x4638 PUSH2 0x40B8 JUMP JUMPDEST DUP4 PUSH1 0x40 MLOAD PUSH2 0x1901 PUSH1 0xF0 SHL PUSH1 0x20 DUP3 ADD MSTORE PUSH1 0x22 DUP2 ADD DUP4 SWAP1 MSTORE PUSH1 0x42 DUP2 ADD DUP3 SWAP1 MSTORE PUSH1 0x0 SWAP1 PUSH1 0x62 ADD PUSH1 0x40 MLOAD PUSH1 0x20 DUP2 DUP4 SUB SUB DUP2 MSTORE SWAP1 PUSH1 0x40 MSTORE DUP1 MLOAD SWAP1 PUSH1 0x20 ADD KECCAK256 SWAP1 POP SWAP3 SWAP2 POP POP JUMP JUMPDEST PUSH1 0x0 DUP1 PUSH1 0x0 PUSH2 0x468A DUP8 DUP8 DUP8 DUP8 PUSH2 0x4B3C JUMP JUMPDEST SWAP2 POP SWAP2 POP PUSH2 0x4697 DUP2 PUSH2 0x4C29 JUMP JUMPDEST POP SWAP6 SWAP5 POP POP POP POP POP JUMP JUMPDEST PUSH1 0x1 PUSH1 0x1 PUSH1 0xA0 SHL SUB DUP2 AND PUSH1 0x0 SWAP1 DUP2 MSTORE PUSH1 0x6 PUSH1 0x20 MSTORE PUSH1 0x40 SWAP1 KECCAK256 DUP1 SLOAD PUSH1 0x1 DUP2 ADD DUP3 SSTORE SWAP1 JUMPDEST POP SWAP2 SWAP1 POP JUMP JUMPDEST PUSH2 0x1173 DUP3 DUP3 PUSH2 0x4DE4 JUMP JUMPDEST PUSH1 0x60 PUSH1 0x0 PUSH2 0x46E2 DUP4 PUSH1 0x2 PUSH2 0x5D14 JUMP JUMPDEST PUSH2 0x46ED SWAP1 PUSH1 0x2 PUSH2 0x5C6E JUMP JUMPDEST PUSH8 0xFFFFFFFFFFFFFFFF DUP2 GT ISZERO PUSH2 0x4705 JUMPI PUSH2 0x4705 PUSH2 0x5EC9 JUMP JUMPDEST PUSH1 0x40 MLOAD SWAP1 DUP1 DUP3 MSTORE DUP1 PUSH1 0x1F ADD PUSH1 0x1F NOT AND PUSH1 0x20 ADD DUP3 ADD PUSH1 0x40 MSTORE DUP1 ISZERO PUSH2 0x472F JUMPI PUSH1 0x20 DUP3 ADD DUP2 DUP1 CALLDATASIZE DUP4 CALLDATACOPY ADD SWAP1 POP JUMPDEST POP SWAP1 POP PUSH1 0x3 PUSH1 0xFC SHL DUP2 PUSH1 0x0 DUP2 MLOAD DUP2 LT PUSH2 0x474A JUMPI PUSH2 0x474A PUSH2 0x5EB3 JUMP JUMPDEST PUSH1 0x20 ADD ADD SWAP1 PUSH1 0x1 PUSH1 0x1 PUSH1 0xF8 SHL SUB NOT AND SWAP1 DUP2 PUSH1 0x0 BYTE SWAP1 MSTORE8 POP PUSH1 0xF PUSH1 0xFB SHL DUP2 PUSH1 0x1 DUP2 MLOAD DUP2 LT PUSH2 0x4779 JUMPI PUSH2 0x4779 PUSH2 0x5EB3 JUMP JUMPDEST PUSH1 0x20 ADD ADD SWAP1 PUSH1 0x1 PUSH1 0x1 PUSH1 0xF8 SHL SUB NOT AND SWAP1 DUP2 PUSH1 0x0 BYTE SWAP1 MSTORE8 POP PUSH1 0x0 PUSH2 0x479D DUP5 PUSH1 0x2 PUSH2 0x5D14 JUMP JUMPDEST PUSH2 0x47A8 SWAP1 PUSH1 0x1 PUSH2 0x5C6E JUMP JUMPDEST SWAP1 POP JUMPDEST PUSH1 0x1 DUP2 GT ISZERO PUSH2 0x4820 JUMPI PUSH16 0x181899199A1A9B1B9C1CB0B131B232B3 PUSH1 0x81 SHL DUP6 PUSH1 0xF AND PUSH1 0x10 DUP2 LT PUSH2 0x47DC JUMPI PUSH2 0x47DC PUSH2 0x5EB3 JUMP JUMPDEST BYTE PUSH1 0xF8 SHL DUP3 DUP3 DUP2 MLOAD DUP2 LT PUSH2 0x47F2 JUMPI PUSH2 0x47F2 PUSH2 0x5EB3 JUMP JUMPDEST PUSH1 0x20 ADD ADD SWAP1 PUSH1 0x1 PUSH1 0x1 PUSH1 0xF8 SHL SUB NOT AND SWAP1 DUP2 PUSH1 0x0 BYTE SWAP1 MSTORE8 POP PUSH1 0x4 SWAP5 SWAP1 SWAP5 SHR SWAP4 PUSH2 0x4819 DUP2 PUSH2 0x5E20 JUMP JUMPDEST SWAP1 POP PUSH2 0x47AB JUMP JUMPDEST POP DUP4 ISZERO PUSH2 0x1226 JUMPI PUSH1 0x40 MLOAD PUSH3 0x461BCD PUSH1 0xE5 SHL DUP2 MSTORE PUSH1 0x20 PUSH1 0x4 DUP3 ADD DUP2 SWAP1 MSTORE PUSH1 0x24 DUP3 ADD MSTORE PUSH32 0x537472696E67733A20686578206C656E67746820696E73756666696369656E74 PUSH1 0x44 DUP3 ADD MSTORE PUSH1 0x64 ADD PUSH2 0xAAF JUMP JUMPDEST PUSH1 0x1 PUSH1 0x1 PUSH1 0xA0 SHL SUB DUP4 AND ISZERO DUP1 PUSH2 0x488C JUMPI POP PUSH1 0x1 PUSH1 0x1 PUSH1 0xA0 SHL SUB DUP3 AND ISZERO JUMPDEST PUSH2 0x10E5 JUMPI PUSH1 0x40 MLOAD PUSH3 0x461BCD PUSH1 0xE5 SHL DUP2 MSTORE PUSH1 0x20 PUSH1 0x4 DUP3 ADD MSTORE PUSH1 0x18 PUSH1 0x24 DUP3 ADD MSTORE PUSH32 0x45524332303A204E6F6E2D7472616E736665727261626C650000000000000000 PUSH1 0x44 DUP3 ADD MSTORE PUSH1 0x64 ADD PUSH2 0xAAF JUMP JUMPDEST PUSH2 0x10E5 DUP4 DUP4 DUP4 PUSH2 0x4DFC JUMP JUMPDEST PUSH1 0x0 PUSH2 0x48F2 PUSH1 0x2 DUP5 DUP5 XOR PUSH2 0x5CC7 JUMP JUMPDEST PUSH2 0x1226 SWAP1 DUP5 DUP5 AND PUSH2 0x5C6E JUMP JUMPDEST DUP2 PUSH1 0x1 PUSH1 0x1 PUSH1 0xA0 SHL SUB AND DUP4 PUSH1 0x1 PUSH1 0x1 PUSH1 0xA0 SHL SUB AND EQ ISZERO DUP1 ISZERO PUSH2 0x4920 JUMPI POP PUSH1 0x0 DUP2 GT JUMPDEST ISZERO PUSH2 0x10E5 JUMPI PUSH1 0x1 PUSH1 0x1 PUSH1 0xA0 SHL SUB DUP4 AND ISZERO PUSH2 0x49AE JUMPI PUSH1 0x1 PUSH1 0x1 PUSH1 0xA0 SHL SUB DUP4 AND PUSH1 0x0 SWAP1 DUP2 MSTORE PUSH1 0x8 PUSH1 0x20 MSTORE PUSH1 0x40 DUP2 KECCAK256 DUP2 SWAP1 PUSH2 0x495B SWAP1 PUSH2 0x4E2E DUP6 PUSH2 0x4E3A JUMP JUMPDEST SWAP2 POP SWAP2 POP DUP5 PUSH1 0x1 PUSH1 0x1 PUSH1 0xA0 SHL SUB AND PUSH32 0xDEC2BACDD2F05B59DE34DA9B523DFF8BE42E5E38E818C82FDB0BAE774387A724 DUP4 DUP4 PUSH1 0x40 MLOAD PUSH2 0x49A3 SWAP3 SWAP2 SWAP1 SWAP2 DUP3 MSTORE PUSH1 0x20 DUP3 ADD MSTORE PUSH1 0x40 ADD SWAP1 JUMP JUMPDEST PUSH1 0x40 MLOAD DUP1 SWAP2 SUB SWAP1 LOG2 POP POP JUMPDEST PUSH1 0x1 PUSH1 0x1 PUSH1 0xA0 SHL SUB DUP3 AND ISZERO PUSH2 0x10E5 JUMPI PUSH1 0x1 PUSH1 0x1 PUSH1 0xA0 SHL SUB DUP3 AND PUSH1 0x0 SWAP1 DUP2 MSTORE PUSH1 0x8 PUSH1 0x20 MSTORE PUSH1 0x40 DUP2 KECCAK256 DUP2 SWAP1 PUSH2 0x49E4 SWAP1 PUSH2 0x4FB1 DUP6 PUSH2 0x4E3A JUMP JUMPDEST SWAP2 POP SWAP2 POP DUP4 PUSH1 0x1 PUSH1 0x1 PUSH1 0xA0 SHL SUB AND PUSH32 0xDEC2BACDD2F05B59DE34DA9B523DFF8BE42E5E38E818C82FDB0BAE774387A724 DUP4 DUP4 PUSH1 0x40 MLOAD PUSH2 0x4A2C SWAP3 SWAP2 SWAP1 SWAP2 DUP3 MSTORE PUSH1 0x20 DUP3 ADD MSTORE PUSH1 0x40 ADD SWAP1 JUMP JUMPDEST PUSH1 0x40 MLOAD DUP1 SWAP2 SUB SWAP1 LOG2 POP POP POP POP POP JUMP JUMPDEST PUSH1 0x40 MLOAD PUSH32 0x19457468657265756D205369676E6564204D6573736167653A0A333200000000 PUSH1 0x20 DUP3 ADD MSTORE PUSH1 0x3C DUP2 ADD DUP3 SWAP1 MSTORE PUSH1 0x0 SWAP1 PUSH1 0x5C ADD PUSH1 0x40 MLOAD PUSH1 0x20 DUP2 DUP4 SUB SUB DUP2 MSTORE SWAP1 PUSH1 0x40 MSTORE DUP1 MLOAD SWAP1 PUSH1 0x20 ADD KECCAK256 SWAP1 POP SWAP2 SWAP1 POP JUMP JUMPDEST PUSH1 0x0 DUP1 PUSH1 0x0 PUSH2 0x4A9D DUP6 DUP6 PUSH2 0x4FBD JUMP JUMPDEST SWAP2 POP SWAP2 POP PUSH2 0x4AAA DUP2 PUSH2 0x4C29 JUMP JUMPDEST POP SWAP4 SWAP3 POP POP POP JUMP JUMPDEST PUSH2 0x4ABC DUP3 DUP3 PUSH2 0x502D JUMP JUMPDEST PUSH1 0x3 SLOAD PUSH1 0x1 PUSH1 0x1 PUSH1 0xE0 SHL SUB LT ISZERO PUSH2 0x4B2E JUMPI PUSH1 0x40 MLOAD PUSH3 0x461BCD PUSH1 0xE5 SHL DUP2 MSTORE PUSH1 0x20 PUSH1 0x4 DUP3 ADD MSTORE PUSH1 0x30 PUSH1 0x24 DUP3 ADD MSTORE PUSH32 0x4552433230566F7465733A20746F74616C20737570706C79207269736B73206F PUSH1 0x44 DUP3 ADD MSTORE PUSH16 0x766572666C6F77696E6720766F746573 PUSH1 0x80 SHL PUSH1 0x64 DUP3 ADD MSTORE PUSH1 0x84 ADD PUSH2 0xAAF JUMP JUMPDEST PUSH2 0x402C PUSH1 0x9 PUSH2 0x4FB1 DUP4 PUSH2 0x4E3A JUMP JUMPDEST PUSH1 0x0 DUP1 PUSH32 0x7FFFFFFFFFFFFFFFFFFFFFFFFFFFFFFF5D576E7357A4501DDFE92F46681B20A0 DUP4 GT ISZERO PUSH2 0x4B73 JUMPI POP PUSH1 0x0 SWAP1 POP PUSH1 0x3 PUSH2 0x4C20 JUMP JUMPDEST DUP5 PUSH1 0xFF AND PUSH1 0x1B EQ ISZERO DUP1 ISZERO PUSH2 0x4B8B JUMPI POP DUP5 PUSH1 0xFF AND PUSH1 0x1C EQ ISZERO JUMPDEST ISZERO PUSH2 0x4B9C JUMPI POP PUSH1 0x0 SWAP1 POP PUSH1 0x4 PUSH2 0x4C20 JUMP JUMPDEST PUSH1 0x40 DUP1 MLOAD PUSH1 0x0 DUP1 DUP3 MSTORE PUSH1 0x20 DUP3 ADD DUP1 DUP5 MSTORE DUP10 SWAP1 MSTORE PUSH1 0xFF DUP9 AND SWAP3 DUP3 ADD SWAP3 SWAP1 SWAP3 MSTORE PUSH1 0x60 DUP2 ADD DUP7 SWAP1 MSTORE PUSH1 0x80 DUP2 ADD DUP6 SWAP1 MSTORE PUSH1 0x1 SWAP1 PUSH1 0xA0 ADD PUSH1 0x20 PUSH1 0x40 MLOAD PUSH1 0x20 DUP2 SUB SWAP1 DUP1 DUP5 SUB SWAP1 DUP6 GAS STATICCALL ISZERO DUP1 ISZERO PUSH2 0x4BF0 JUMPI RETURNDATASIZE PUSH1 0x0 DUP1 RETURNDATACOPY RETURNDATASIZE PUSH1 0x0 REVERT JUMPDEST POP POP PUSH1 0x40 MLOAD PUSH1 0x1F NOT ADD MLOAD SWAP2 POP POP PUSH1 0x1 PUSH1 0x1 PUSH1 0xA0 SHL SUB DUP2 AND PUSH2 0x4C19 JUMPI PUSH1 0x0 PUSH1 0x1 SWAP3 POP SWAP3 POP POP PUSH2 0x4C20 JUMP JUMPDEST SWAP2 POP PUSH1 0x0 SWAP1 POP JUMPDEST SWAP5 POP SWAP5 SWAP3 POP POP POP JUMP JUMPDEST PUSH1 0x0 DUP2 PUSH1 0x4 DUP2 GT ISZERO PUSH2 0x4C3D JUMPI PUSH2 0x4C3D PUSH2 0x5E9D JUMP JUMPDEST EQ ISZERO PUSH2 0x4C46 JUMPI POP JUMP JUMPDEST PUSH1 0x1 DUP2 PUSH1 0x4 DUP2 GT ISZERO PUSH2 0x4C5A JUMPI PUSH2 0x4C5A PUSH2 0x5E9D JUMP JUMPDEST EQ ISZERO PUSH2 0x4CA8 JUMPI PUSH1 0x40 MLOAD PUSH3 0x461BCD PUSH1 0xE5 SHL DUP2 MSTORE PUSH1 0x20 PUSH1 0x4 DUP3 ADD MSTORE PUSH1 0x18 PUSH1 0x24 DUP3 ADD MSTORE PUSH32 0x45434453413A20696E76616C6964207369676E61747572650000000000000000 PUSH1 0x44 DUP3 ADD MSTORE PUSH1 0x64 ADD PUSH2 0xAAF JUMP JUMPDEST PUSH1 0x2 DUP2 PUSH1 0x4 DUP2 GT ISZERO PUSH2 0x4CBC JUMPI PUSH2 0x4CBC PUSH2 0x5E9D JUMP JUMPDEST EQ ISZERO PUSH2 0x4D0A JUMPI PUSH1 0x40 MLOAD PUSH3 0x461BCD PUSH1 0xE5 SHL DUP2 MSTORE PUSH1 0x20 PUSH1 0x4 DUP3 ADD MSTORE PUSH1 0x1F PUSH1 0x24 DUP3 ADD MSTORE PUSH32 0x45434453413A20696E76616C6964207369676E6174757265206C656E67746800 PUSH1 0x44 DUP3 ADD MSTORE PUSH1 0x64 ADD PUSH2 0xAAF JUMP JUMPDEST PUSH1 0x3 DUP2 PUSH1 0x4 DUP2 GT ISZERO PUSH2 0x4D1E JUMPI PUSH2 0x4D1E PUSH2 0x5E9D JUMP JUMPDEST EQ ISZERO PUSH2 0x4D77 JUMPI PUSH1 0x40 MLOAD PUSH3 0x461BCD PUSH1 0xE5 SHL DUP2 MSTORE PUSH1 0x20 PUSH1 0x4 DUP3 ADD MSTORE PUSH1 0x22 PUSH1 0x24 DUP3 ADD MSTORE PUSH32 0x45434453413A20696E76616C6964207369676E6174757265202773272076616C PUSH1 0x44 DUP3 ADD MSTORE PUSH2 0x7565 PUSH1 0xF0 SHL PUSH1 0x64 DUP3 ADD MSTORE PUSH1 0x84 ADD PUSH2 0xAAF JUMP JUMPDEST PUSH1 0x4 DUP2 PUSH1 0x4 DUP2 GT ISZERO PUSH2 0x4D8B JUMPI PUSH2 0x4D8B PUSH2 0x5E9D JUMP JUMPDEST EQ ISZERO PUSH2 0x1372 JUMPI PUSH1 0x40 MLOAD PUSH3 0x461BCD PUSH1 0xE5 SHL DUP2 MSTORE PUSH1 0x20 PUSH1 0x4 DUP3 ADD MSTORE PUSH1 0x22 PUSH1 0x24 DUP3 ADD MSTORE PUSH32 0x45434453413A20696E76616C6964207369676E6174757265202776272076616C PUSH1 0x44 DUP3 ADD MSTORE PUSH2 0x7565 PUSH1 0xF0 SHL PUSH1 0x64 DUP3 ADD MSTORE PUSH1 0x84 ADD PUSH2 0xAAF JUMP JUMPDEST PUSH2 0x4DEE DUP3 DUP3 PUSH2 0x5120 JUMP JUMPDEST PUSH2 0x402C PUSH1 0x9 PUSH2 0x4E2E DUP4 PUSH2 0x4E3A JUMP JUMPDEST PUSH1 0x1 PUSH1 0x1 PUSH1 0xA0 SHL SUB DUP4 DUP2 AND PUSH1 0x0 SWAP1 DUP2 MSTORE PUSH1 0x7 PUSH1 0x20 MSTORE PUSH1 0x40 DUP1 DUP3 KECCAK256 SLOAD DUP6 DUP5 AND DUP4 MSTORE SWAP2 KECCAK256 SLOAD PUSH2 0x10E5 SWAP3 SWAP2 DUP3 AND SWAP2 AND DUP4 PUSH2 0x48FE JUMP JUMPDEST PUSH1 0x0 PUSH2 0x1226 DUP3 DUP5 PUSH2 0x5D98 JUMP JUMPDEST DUP3 SLOAD PUSH1 0x0 SWAP1 DUP2 SWAP1 DUP1 ISZERO PUSH2 0x4E84 JUMPI DUP6 PUSH2 0x4E53 PUSH1 0x1 DUP4 PUSH2 0x5D98 JUMP JUMPDEST DUP2 SLOAD DUP2 LT PUSH2 0x4E63 JUMPI PUSH2 0x4E63 PUSH2 0x5EB3 JUMP JUMPDEST PUSH1 0x0 SWAP2 DUP3 MSTORE PUSH1 0x20 SWAP1 SWAP2 KECCAK256 ADD SLOAD PUSH1 0x1 PUSH1 0x20 SHL SWAP1 DIV PUSH1 0x1 PUSH1 0x1 PUSH1 0xE0 SHL SUB AND PUSH2 0x4E87 JUMP JUMPDEST PUSH1 0x0 JUMPDEST PUSH1 0x1 PUSH1 0x1 PUSH1 0xE0 SHL SUB AND SWAP3 POP PUSH2 0x4EA0 DUP4 DUP6 DUP8 PUSH4 0xFFFFFFFF AND JUMP JUMPDEST SWAP2 POP PUSH1 0x0 DUP2 GT DUP1 ISZERO PUSH2 0x4EDE JUMPI POP NUMBER DUP7 PUSH2 0x4EBA PUSH1 0x1 DUP5 PUSH2 0x5D98 JUMP JUMPDEST DUP2 SLOAD DUP2 LT PUSH2 0x4ECA JUMPI PUSH2 0x4ECA PUSH2 0x5EB3 JUMP JUMPDEST PUSH1 0x0 SWAP2 DUP3 MSTORE PUSH1 0x20 SWAP1 SWAP2 KECCAK256 ADD SLOAD PUSH4 0xFFFFFFFF AND EQ JUMPDEST ISZERO PUSH2 0x4F3E JUMPI PUSH2 0x4EEC DUP3 PUSH2 0x5281 JUMP JUMPDEST DUP7 PUSH2 0x4EF8 PUSH1 0x1 DUP5 PUSH2 0x5D98 JUMP JUMPDEST DUP2 SLOAD DUP2 LT PUSH2 0x4F08 JUMPI PUSH2 0x4F08 PUSH2 0x5EB3 JUMP JUMPDEST SWAP1 PUSH1 0x0 MSTORE PUSH1 0x20 PUSH1 0x0 KECCAK256 ADD PUSH1 0x0 ADD PUSH1 0x4 PUSH2 0x100 EXP DUP2 SLOAD DUP2 PUSH1 0x1 PUSH1 0x1 PUSH1 0xE0 SHL SUB MUL NOT AND SWAP1 DUP4 PUSH1 0x1 PUSH1 0x1 PUSH1 0xE0 SHL SUB AND MUL OR SWAP1 SSTORE POP PUSH2 0x4FA8 JUMP JUMPDEST DUP6 PUSH1 0x40 MLOAD DUP1 PUSH1 0x40 ADD PUSH1 0x40 MSTORE DUP1 PUSH2 0x4F53 NUMBER PUSH2 0x385F JUMP JUMPDEST PUSH4 0xFFFFFFFF AND DUP2 MSTORE PUSH1 0x20 ADD PUSH2 0x4F67 DUP6 PUSH2 0x5281 JUMP JUMPDEST PUSH1 0x1 PUSH1 0x1 PUSH1 0xE0 SHL SUB SWAP1 DUP2 AND SWAP1 SWAP2 MSTORE DUP3 SLOAD PUSH1 0x1 DUP2 ADD DUP5 SSTORE PUSH1 0x0 SWAP4 DUP5 MSTORE PUSH1 0x20 SWAP4 DUP5 SWAP1 KECCAK256 DUP4 MLOAD SWAP5 SWAP1 SWAP4 ADD MLOAD SWAP1 SWAP2 AND PUSH1 0x1 PUSH1 0x20 SHL MUL PUSH4 0xFFFFFFFF SWAP1 SWAP4 AND SWAP3 SWAP1 SWAP3 OR SWAP2 ADD SSTORE JUMPDEST POP SWAP4 POP SWAP4 SWAP2 POP POP JUMP JUMPDEST PUSH1 0x0 PUSH2 0x1226 DUP3 DUP5 PUSH2 0x5C6E JUMP JUMPDEST PUSH1 0x0 DUP1 DUP3 MLOAD PUSH1 0x41 EQ ISZERO PUSH2 0x4FF4 JUMPI PUSH1 0x20 DUP4 ADD MLOAD PUSH1 0x40 DUP5 ADD MLOAD PUSH1 0x60 DUP6 ADD MLOAD PUSH1 0x0 BYTE PUSH2 0x4FE8 DUP8 DUP3 DUP6 DUP6 PUSH2 0x4B3C JUMP JUMPDEST SWAP5 POP SWAP5 POP POP POP POP PUSH2 0x5026 JUMP JUMPDEST DUP3 MLOAD PUSH1 0x40 EQ ISZERO PUSH2 0x501E JUMPI PUSH1 0x20 DUP4 ADD MLOAD PUSH1 0x40 DUP5 ADD MLOAD PUSH2 0x5013 DUP7 DUP4 DUP4 PUSH2 0x52EA JUMP JUMPDEST SWAP4 POP SWAP4 POP POP POP PUSH2 0x5026 JUMP JUMPDEST POP PUSH1 0x0 SWAP1 POP PUSH1 0x2 JUMPDEST SWAP3 POP SWAP3 SWAP1 POP JUMP JUMPDEST PUSH1 0x1 PUSH1 0x1 PUSH1 0xA0 SHL SUB DUP3 AND PUSH2 0x5083 JUMPI PUSH1 0x40 MLOAD PUSH3 0x461BCD PUSH1 0xE5 SHL DUP2 MSTORE PUSH1 0x20 PUSH1 0x4 DUP3 ADD MSTORE PUSH1 0x1F PUSH1 0x24 DUP3 ADD MSTORE PUSH32 0x45524332303A206D696E7420746F20746865207A65726F206164647265737300 PUSH1 0x44 DUP3 ADD MSTORE PUSH1 0x64 ADD PUSH2 0xAAF JUMP JUMPDEST PUSH2 0x508F PUSH1 0x0 DUP4 DUP4 PUSH2 0x486F JUMP JUMPDEST DUP1 PUSH1 0x3 PUSH1 0x0 DUP3 DUP3 SLOAD PUSH2 0x50A1 SWAP2 SWAP1 PUSH2 0x5C6E JUMP JUMPDEST SWAP1 SWAP2 SSTORE POP POP PUSH1 0x1 PUSH1 0x1 PUSH1 0xA0 SHL SUB DUP3 AND PUSH1 0x0 SWAP1 DUP2 MSTORE PUSH1 0x1 PUSH1 0x20 MSTORE PUSH1 0x40 DUP2 KECCAK256 DUP1 SLOAD DUP4 SWAP3 SWAP1 PUSH2 0x50CE SWAP1 DUP5 SWAP1 PUSH2 0x5C6E JUMP JUMPDEST SWAP1 SWAP2 SSTORE POP POP PUSH1 0x40 MLOAD DUP2 DUP2 MSTORE PUSH1 0x1 PUSH1 0x1 PUSH1 0xA0 SHL SUB DUP4 AND SWAP1 PUSH1 0x0 SWAP1 PUSH32 0xDDF252AD1BE2C89B69C2B068FC378DAA952BA7F163C4A11628F55A4DF523B3EF SWAP1 PUSH1 0x20 ADD PUSH1 0x40 MLOAD DUP1 SWAP2 SUB SWAP1 LOG3 PUSH2 0x1173 PUSH1 0x0 DUP4 DUP4 PUSH2 0x48D8 JUMP JUMPDEST PUSH1 0x1 PUSH1 0x1 PUSH1 0xA0 SHL SUB DUP3 AND PUSH2 0x5180 JUMPI PUSH1 0x40 MLOAD PUSH3 0x461BCD PUSH1 0xE5 SHL DUP2 MSTORE PUSH1 0x20 PUSH1 0x4 DUP3 ADD MSTORE PUSH1 0x21 PUSH1 0x24 DUP3 ADD MSTORE PUSH32 0x45524332303A206275726E2066726F6D20746865207A65726F20616464726573 PUSH1 0x44 DUP3 ADD MSTORE PUSH1 0x73 PUSH1 0xF8 SHL PUSH1 0x64 DUP3 ADD MSTORE PUSH1 0x84 ADD PUSH2 0xAAF JUMP JUMPDEST PUSH2 0x518C DUP3 PUSH1 0x0 DUP4 PUSH2 0x486F JUMP JUMPDEST PUSH1 0x1 PUSH1 0x1 PUSH1 0xA0 SHL SUB DUP3 AND PUSH1 0x0 SWAP1 DUP2 MSTORE PUSH1 0x1 PUSH1 0x20 MSTORE PUSH1 0x40 SWAP1 KECCAK256 SLOAD DUP2 DUP2 LT ISZERO PUSH2 0x5200 JUMPI PUSH1 0x40 MLOAD PUSH3 0x461BCD PUSH1 0xE5 SHL DUP2 MSTORE PUSH1 0x20 PUSH1 0x4 DUP3 ADD MSTORE PUSH1 0x22 PUSH1 0x24 DUP3 ADD MSTORE PUSH32 0x45524332303A206275726E20616D6F756E7420657863656564732062616C616E PUSH1 0x44 DUP3 ADD MSTORE PUSH2 0x6365 PUSH1 0xF0 SHL PUSH1 0x64 DUP3 ADD MSTORE PUSH1 0x84 ADD PUSH2 0xAAF JUMP JUMPDEST PUSH1 0x1 PUSH1 0x1 PUSH1 0xA0 SHL SUB DUP4 AND PUSH1 0x0 SWAP1 DUP2 MSTORE PUSH1 0x1 PUSH1 0x20 MSTORE PUSH1 0x40 DUP2 KECCAK256 DUP4 DUP4 SUB SWAP1 SSTORE PUSH1 0x3 DUP1 SLOAD DUP5 SWAP3 SWAP1 PUSH2 0x522F SWAP1 DUP5 SWAP1 PUSH2 0x5D98 JUMP JUMPDEST SWAP1 SWAP2 SSTORE POP POP PUSH1 0x40 MLOAD DUP3 DUP2 MSTORE PUSH1 0x0 SWAP1 PUSH1 0x1 PUSH1 0x1 PUSH1 0xA0 SHL SUB DUP6 AND SWAP1 PUSH32 0xDDF252AD1BE2C89B69C2B068FC378DAA952BA7F163C4A11628F55A4DF523B3EF SWAP1 PUSH1 0x20 ADD PUSH1 0x40 MLOAD DUP1 SWAP2 SUB SWAP1 LOG3 PUSH2 0x10E5 DUP4 PUSH1 0x0 DUP5 PUSH2 0x48D8 JUMP JUMPDEST PUSH1 0x0 PUSH1 0x1 PUSH1 0x1 PUSH1 0xE0 SHL SUB DUP3 GT ISZERO PUSH2 0x38C4 JUMPI PUSH1 0x40 MLOAD PUSH3 0x461BCD PUSH1 0xE5 SHL DUP2 MSTORE PUSH1 0x20 PUSH1 0x4 DUP3 ADD MSTORE PUSH1 0x27 PUSH1 0x24 DUP3 ADD MSTORE PUSH32 0x53616665436173743A2076616C756520646F65736E27742066697420696E2032 PUSH1 0x44 DUP3 ADD MSTORE PUSH7 0x32342062697473 PUSH1 0xC8 SHL PUSH1 0x64 DUP3 ADD MSTORE PUSH1 0x84 ADD PUSH2 0xAAF JUMP JUMPDEST PUSH1 0x0 DUP1 PUSH1 0x1 PUSH1 0x1 PUSH1 0xFF SHL SUB DUP4 AND DUP2 PUSH2 0x5307 PUSH1 0xFF DUP7 SWAP1 SHR PUSH1 0x1B PUSH2 0x5C6E JUMP JUMPDEST SWAP1 POP PUSH2 0x5315 DUP8 DUP3 DUP9 DUP6 PUSH2 0x4B3C JUMP JUMPDEST SWAP4 POP SWAP4 POP POP POP SWAP4 POP SWAP4 SWAP2 POP POP JUMP JUMPDEST DUP1 CALLDATALOAD PUSH2 0x532E DUP2 PUSH2 0x5EDF JUMP JUMPDEST SWAP2 SWAP1 POP JUMP JUMPDEST PUSH1 0x0 DUP1 DUP4 PUSH1 0x1F DUP5 ADD SLT PUSH2 0x5345 JUMPI PUSH1 0x0 DUP1 REVERT JUMPDEST POP DUP2 CALLDATALOAD PUSH8 0xFFFFFFFFFFFFFFFF DUP2 GT ISZERO PUSH2 0x535D JUMPI PUSH1 0x0 DUP1 REVERT JUMPDEST PUSH1 0x20 DUP4 ADD SWAP2 POP DUP4 PUSH1 0x20 DUP3 PUSH1 0x5 SHL DUP6 ADD ADD GT ISZERO PUSH2 0x5026 JUMPI PUSH1 0x0 DUP1 REVERT JUMPDEST PUSH1 0x0 DUP1 DUP4 PUSH1 0x1F DUP5 ADD SLT PUSH2 0x538A JUMPI PUSH1 0x0 DUP1 REVERT JUMPDEST POP DUP2 CALLDATALOAD PUSH8 0xFFFFFFFFFFFFFFFF DUP2 GT ISZERO PUSH2 0x53A2 JUMPI PUSH1 0x0 DUP1 REVERT JUMPDEST PUSH1 0x20 DUP4 ADD SWAP2 POP DUP4 PUSH1 0x20 DUP3 DUP6 ADD ADD GT ISZERO PUSH2 0x5026 JUMPI PUSH1 0x0 DUP1 REVERT JUMPDEST DUP1 CALLDATALOAD PUSH2 0xFFFF DUP2 AND DUP2 EQ PUSH2 0x532E JUMPI PUSH1 0x0 DUP1 REVERT JUMPDEST DUP1 CALLDATALOAD PUSH4 0xFFFFFFFF DUP2 AND DUP2 EQ PUSH2 0x532E JUMPI PUSH1 0x0 DUP1 REVERT JUMPDEST DUP1 CALLDATALOAD PUSH1 0xFF DUP2 AND DUP2 EQ PUSH2 0x532E JUMPI PUSH1 0x0 DUP1 REVERT JUMPDEST DUP1 CALLDATALOAD PUSH1 0x1 PUSH1 0x1 PUSH1 0x60 SHL SUB DUP2 AND DUP2 EQ PUSH2 0x532E JUMPI PUSH1 0x0 DUP1 REVERT JUMPDEST PUSH1 0x0 PUSH1 0x20 DUP3 DUP5 SUB SLT ISZERO PUSH2 0x541A JUMPI PUSH1 0x0 DUP1 REVERT JUMPDEST DUP2 CALLDATALOAD PUSH2 0x1226 DUP2 PUSH2 0x5EDF JUMP JUMPDEST PUSH1 0x0 PUSH1 0x20 DUP3 DUP5 SUB SLT ISZERO PUSH2 0x5437 JUMPI PUSH1 0x0 DUP1 REVERT JUMPDEST DUP2 MLOAD PUSH2 0x1226 DUP2 PUSH2 0x5EDF JUMP JUMPDEST PUSH1 0x0 DUP1 PUSH1 0x40 DUP4 DUP6 SUB SLT ISZERO PUSH2 0x5455 JUMPI PUSH1 0x0 DUP1 REVERT JUMPDEST DUP3 CALLDATALOAD PUSH2 0x5460 DUP2 PUSH2 0x5EDF JUMP JUMPDEST SWAP2 POP PUSH1 0x20 DUP4 ADD CALLDATALOAD PUSH2 0x5470 DUP2 PUSH2 0x5EDF JUMP JUMPDEST DUP1 SWAP2 POP POP SWAP3 POP SWAP3 SWAP1 POP JUMP JUMPDEST PUSH1 0x0 DUP1 PUSH1 0x0 PUSH1 0x60 DUP5 DUP7 SUB SLT ISZERO PUSH2 0x5490 JUMPI PUSH1 0x0 DUP1 REVERT JUMPDEST DUP4 CALLDATALOAD PUSH2 0x549B DUP2 PUSH2 0x5EDF JUMP JUMPDEST SWAP3 POP PUSH1 0x20 DUP5 ADD CALLDATALOAD PUSH2 0x54AB DUP2 PUSH2 0x5EDF JUMP JUMPDEST SWAP3 SWAP6 SWAP3 SWAP5 POP POP POP PUSH1 0x40 SWAP2 SWAP1 SWAP2 ADD CALLDATALOAD SWAP1 JUMP JUMPDEST PUSH1 0x0 DUP1 PUSH1 0x0 DUP1 PUSH1 0x0 DUP1 PUSH1 0x0 PUSH1 0xE0 DUP9 DUP11 SUB SLT ISZERO PUSH2 0x54D7 JUMPI PUSH1 0x0 DUP1 REVERT JUMPDEST DUP8 CALLDATALOAD PUSH2 0x54E2 DUP2 PUSH2 0x5EDF JUMP JUMPDEST SWAP7 POP PUSH1 0x20 DUP9 ADD CALLDATALOAD PUSH2 0x54F2 DUP2 PUSH2 0x5EDF JUMP JUMPDEST SWAP6 POP PUSH1 0x40 DUP9 ADD CALLDATALOAD SWAP5 POP PUSH1 0x60 DUP9 ADD CALLDATALOAD SWAP4 POP PUSH2 0x550E PUSH1 0x80 DUP10 ADD PUSH2 0x53E0 JUMP JUMPDEST SWAP3 POP PUSH1 0xA0 DUP9 ADD CALLDATALOAD SWAP2 POP PUSH1 0xC0 DUP9 ADD CALLDATALOAD SWAP1 POP SWAP3 SWAP6 SWAP9 SWAP2 SWAP5 SWAP8 POP SWAP3 SWAP6 POP JUMP JUMPDEST PUSH1 0x0 DUP1 PUSH1 0x40 DUP4 DUP6 SUB SLT ISZERO PUSH2 0x553D JUMPI PUSH1 0x0 DUP1 REVERT JUMPDEST DUP3 CALLDATALOAD PUSH2 0x5548 DUP2 PUSH2 0x5EDF JUMP JUMPDEST SWAP2 POP PUSH1 0x20 DUP4 ADD CALLDATALOAD PUSH2 0x5470 DUP2 PUSH2 0x5EF4 JUMP JUMPDEST PUSH1 0x0 DUP1 PUSH1 0x40 DUP4 DUP6 SUB SLT ISZERO PUSH2 0x556B JUMPI PUSH1 0x0 DUP1 REVERT JUMPDEST DUP3 CALLDATALOAD PUSH2 0x5576 DUP2 PUSH2 0x5EDF JUMP JUMPDEST SWAP5 PUSH1 0x20 SWAP4 SWAP1 SWAP4 ADD CALLDATALOAD SWAP4 POP POP POP JUMP JUMPDEST PUSH1 0x0 DUP1 PUSH1 0x0 DUP1 PUSH1 0x0 DUP1 PUSH1 0xC0 DUP8 DUP10 SUB SLT ISZERO PUSH2 0x559D JUMPI PUSH1 0x0 DUP1 REVERT JUMPDEST DUP7 CALLDATALOAD PUSH2 0x55A8 DUP2 PUSH2 0x5EDF JUMP JUMPDEST SWAP6 POP PUSH1 0x20 DUP8 ADD CALLDATALOAD SWAP5 POP PUSH1 0x40 DUP8 ADD CALLDATALOAD SWAP4 POP PUSH2 0x55C4 PUSH1 0x60 DUP9 ADD PUSH2 0x53E0 JUMP JUMPDEST SWAP3 POP PUSH1 0x80 DUP8 ADD CALLDATALOAD SWAP2 POP PUSH1 0xA0 DUP8 ADD CALLDATALOAD SWAP1 POP SWAP3 SWAP6 POP SWAP3 SWAP6 POP SWAP3 SWAP6 JUMP JUMPDEST PUSH1 0x0 DUP1 PUSH1 0x40 DUP4 DUP6 SUB SLT ISZERO PUSH2 0x55F1 JUMPI PUSH1 0x0 DUP1 REVERT JUMPDEST DUP3 CALLDATALOAD PUSH2 0x55FC DUP2 PUSH2 0x5EDF JUMP JUMPDEST SWAP2 POP PUSH2 0x560A PUSH1 0x20 DUP5 ADD PUSH2 0x53CC JUMP JUMPDEST SWAP1 POP SWAP3 POP SWAP3 SWAP1 POP JUMP JUMPDEST PUSH1 0x0 DUP1 PUSH1 0x20 DUP4 DUP6 SUB SLT ISZERO PUSH2 0x5626 JUMPI PUSH1 0x0 DUP1 REVERT JUMPDEST DUP3 CALLDATALOAD PUSH8 0xFFFFFFFFFFFFFFFF DUP2 GT ISZERO PUSH2 0x563D JUMPI PUSH1 0x0 DUP1 REVERT JUMPDEST PUSH2 0x5649 DUP6 DUP3 DUP7 ADD PUSH2 0x5333 JUMP JUMPDEST SWAP1 SWAP7 SWAP1 SWAP6 POP SWAP4 POP POP POP POP JUMP JUMPDEST PUSH1 0x0 DUP1 PUSH1 0x0 DUP1 PUSH1 0x0 DUP1 PUSH1 0x0 PUSH1 0xC0 DUP9 DUP11 SUB SLT ISZERO PUSH2 0x5670 JUMPI PUSH1 0x0 DUP1 REVERT JUMPDEST DUP8 CALLDATALOAD PUSH8 0xFFFFFFFFFFFFFFFF DUP2 GT ISZERO PUSH2 0x5687 JUMPI PUSH1 0x0 DUP1 REVERT JUMPDEST PUSH2 0x5693 DUP11 DUP3 DUP12 ADD PUSH2 0x5333 JUMP JUMPDEST SWAP1 SWAP9 POP SWAP7 POP POP PUSH1 0x20 DUP9 ADD CALLDATALOAD PUSH2 0x56A7 DUP2 PUSH2 0x5EDF JUMP JUMPDEST SWAP5 POP PUSH2 0x56B5 PUSH1 0x40 DUP10 ADD PUSH2 0x53BA JUMP JUMPDEST SWAP4 POP PUSH2 0x56C3 PUSH1 0x60 DUP10 ADD PUSH2 0x53BA JUMP JUMPDEST SWAP3 POP PUSH2 0x56D1 PUSH1 0x80 DUP10 ADD PUSH2 0x53BA JUMP JUMPDEST SWAP2 POP PUSH2 0x56DF PUSH1 0xA0 DUP10 ADD PUSH2 0x53CC JUMP JUMPDEST SWAP1 POP SWAP3 SWAP6 SWAP9 SWAP2 SWAP5 SWAP8 POP SWAP3 SWAP6 POP JUMP JUMPDEST PUSH1 0x0 DUP1 PUSH1 0x0 DUP1 PUSH1 0x0 DUP1 PUSH1 0x0 DUP1 PUSH1 0x0 DUP1 PUSH1 0x0 DUP1 PUSH2 0x120 DUP14 DUP16 SUB SLT ISZERO PUSH2 0x5710 JUMPI PUSH1 0x0 DUP1 REVERT JUMPDEST PUSH8 0xFFFFFFFFFFFFFFFF DUP14 CALLDATALOAD GT ISZERO PUSH2 0x5726 JUMPI PUSH1 0x0 DUP1 REVERT JUMPDEST PUSH2 0x5733 DUP15 DUP15 CALLDATALOAD DUP16 ADD PUSH2 0x5333 JUMP JUMPDEST SWAP1 SWAP13 POP SWAP11 POP PUSH8 0xFFFFFFFFFFFFFFFF PUSH1 0x20 DUP15 ADD CALLDATALOAD GT ISZERO PUSH2 0x5751 JUMPI PUSH1 0x0 DUP1 REVERT JUMPDEST PUSH2 0x5761 DUP15 PUSH1 0x20 DUP16 ADD CALLDATALOAD DUP16 ADD PUSH2 0x5333 JUMP JUMPDEST SWAP1 SWAP11 POP SWAP9 POP PUSH2 0x5772 PUSH1 0x40 DUP15 ADD PUSH2 0x5323 JUMP JUMPDEST SWAP8 POP PUSH2 0x5780 PUSH1 0x60 DUP15 ADD PUSH2 0x53BA JUMP JUMPDEST SWAP7 POP PUSH2 0x578E PUSH1 0x80 DUP15 ADD PUSH2 0x53BA JUMP JUMPDEST SWAP6 POP PUSH2 0x579C PUSH1 0xA0 DUP15 ADD PUSH2 0x53BA JUMP JUMPDEST SWAP5 POP PUSH2 0x57AA PUSH1 0xC0 DUP15 ADD PUSH2 0x53CC JUMP JUMPDEST SWAP4 POP PUSH2 0x57B8 PUSH1 0xE0 DUP15 ADD PUSH2 0x53CC JUMP JUMPDEST SWAP3 POP PUSH8 0xFFFFFFFFFFFFFFFF PUSH2 0x100 DUP15 ADD CALLDATALOAD GT ISZERO PUSH2 0x57D4 JUMPI PUSH1 0x0 DUP1 REVERT JUMPDEST PUSH2 0x57E5 DUP15 PUSH2 0x100 DUP16 ADD CALLDATALOAD DUP16 ADD PUSH2 0x5378 JUMP JUMPDEST DUP2 SWAP4 POP DUP1 SWAP3 POP POP POP SWAP3 SWAP6 SWAP9 SWAP12 POP SWAP3 SWAP6 SWAP9 SWAP12 POP SWAP3 SWAP6 SWAP9 SWAP12 JUMP JUMPDEST PUSH1 0x0 DUP1 PUSH1 0x0 DUP1 PUSH1 0x0 DUP1 PUSH1 0xA0 DUP8 DUP10 SUB SLT ISZERO PUSH2 0x5816 JUMPI PUSH1 0x0 DUP1 REVERT JUMPDEST DUP7 CALLDATALOAD PUSH8 0xFFFFFFFFFFFFFFFF DUP2 GT ISZERO PUSH2 0x582D JUMPI PUSH1 0x0 DUP1 REVERT JUMPDEST PUSH2 0x5839 DUP10 DUP3 DUP11 ADD PUSH2 0x5333 JUMP JUMPDEST SWAP1 SWAP8 POP SWAP6 POP PUSH2 0x584C SWAP1 POP PUSH1 0x20 DUP9 ADD PUSH2 0x53BA JUMP JUMPDEST SWAP4 POP PUSH2 0x585A PUSH1 0x40 DUP9 ADD PUSH2 0x53BA JUMP JUMPDEST SWAP3 POP PUSH2 0x5868 PUSH1 0x60 DUP9 ADD PUSH2 0x53BA JUMP JUMPDEST SWAP2 POP PUSH2 0x5876 PUSH1 0x80 DUP9 ADD PUSH2 0x53CC JUMP JUMPDEST SWAP1 POP SWAP3 SWAP6 POP SWAP3 SWAP6 POP SWAP3 SWAP6 JUMP JUMPDEST PUSH1 0x0 PUSH1 0x20 DUP3 DUP5 SUB SLT ISZERO PUSH2 0x5894 JUMPI PUSH1 0x0 DUP1 REVERT JUMPDEST DUP2 MLOAD PUSH2 0x1226 DUP2 PUSH2 0x5EF4 JUMP JUMPDEST PUSH1 0x0 PUSH1 0x20 DUP3 DUP5 SUB SLT ISZERO PUSH2 0x58B1 JUMPI PUSH1 0x0 DUP1 REVERT JUMPDEST POP CALLDATALOAD SWAP2 SWAP1 POP JUMP JUMPDEST PUSH1 0x0 DUP1 PUSH1 0x40 DUP4 DUP6 SUB SLT ISZERO PUSH2 0x58CB JUMPI PUSH1 0x0 DUP1 REVERT JUMPDEST DUP3 CALLDATALOAD SWAP2 POP PUSH1 0x20 DUP4 ADD CALLDATALOAD PUSH2 0x5470 DUP2 PUSH2 0x5EDF JUMP JUMPDEST PUSH1 0x0 PUSH1 0x20 DUP3 DUP5 SUB SLT ISZERO PUSH2 0x58EF JUMPI PUSH1 0x0 DUP1 REVERT JUMPDEST DUP2 CALLDATALOAD PUSH1 0x1 PUSH1 0x1 PUSH1 0xE0 SHL SUB NOT DUP2 AND DUP2 EQ PUSH2 0x1226 JUMPI PUSH1 0x0 DUP1 REVERT JUMPDEST PUSH1 0x0 DUP1 PUSH1 0x0 PUSH1 0x40 DUP5 DUP7 SUB SLT ISZERO PUSH2 0x591C JUMPI PUSH1 0x0 DUP1 REVERT JUMPDEST DUP4 CALLDATALOAD SWAP3 POP PUSH1 0x20 DUP5 ADD CALLDATALOAD PUSH8 0xFFFFFFFFFFFFFFFF DUP2 GT ISZERO PUSH2 0x593A JUMPI PUSH1 0x0 DUP1 REVERT JUMPDEST PUSH2 0x5946 DUP7 DUP3 DUP8 ADD PUSH2 0x5378 JUMP JUMPDEST SWAP5 SWAP8 SWAP1 SWAP7 POP SWAP4 SWAP5 POP POP POP POP JUMP JUMPDEST PUSH1 0x0 DUP1 PUSH1 0x40 DUP4 DUP6 SUB SLT ISZERO PUSH2 0x5966 JUMPI PUSH1 0x0 DUP1 REVERT JUMPDEST DUP3 CALLDATALOAD SWAP2 POP PUSH2 0x560A PUSH1 0x20 DUP5 ADD PUSH2 0x53CC JUMP JUMPDEST PUSH1 0x0 DUP1 PUSH1 0x0 PUSH1 0x60 DUP5 DUP7 SUB SLT ISZERO PUSH2 0x598B JUMPI PUSH1 0x0 DUP1 REVERT JUMPDEST DUP4 CALLDATALOAD SWAP3 POP PUSH2 0x599B PUSH1 0x20 DUP6 ADD PUSH2 0x53CC JUMP JUMPDEST SWAP2 POP PUSH2 0x59A9 PUSH1 0x40 DUP6 ADD PUSH2 0x53CC JUMP JUMPDEST SWAP1 POP SWAP3 POP SWAP3 POP SWAP3 JUMP JUMPDEST PUSH1 0x0 DUP1 PUSH1 0x0 PUSH1 0x60 DUP5 DUP7 SUB SLT ISZERO PUSH2 0x59C7 JUMPI PUSH1 0x0 DUP1 REVERT JUMPDEST PUSH2 0x59D0 DUP5 PUSH2 0x53CC JUMP JUMPDEST SWAP3 POP PUSH2 0x59DE PUSH1 0x20 DUP6 ADD PUSH2 0x53CC JUMP JUMPDEST SWAP2 POP PUSH2 0x59A9 PUSH1 0x40 DUP6 ADD PUSH2 0x53F1 JUMP JUMPDEST PUSH1 0x0 PUSH1 0x20 DUP3 DUP5 SUB SLT ISZERO PUSH2 0x59FE JUMPI PUSH1 0x0 DUP1 REVERT JUMPDEST PUSH2 0x1226 DUP3 PUSH2 0x53F1 JUMP JUMPDEST DUP2 DUP4 MSTORE PUSH1 0x0 PUSH1 0x1 PUSH1 0x1 PUSH1 0xFB SHL SUB DUP4 GT ISZERO PUSH2 0x5A20 JUMPI PUSH1 0x0 DUP1 REVERT JUMPDEST DUP3 PUSH1 0x5 SHL DUP1 DUP4 PUSH1 0x20 DUP8 ADD CALLDATACOPY PUSH1 0x0 SWAP5 ADD PUSH1 0x20 ADD SWAP4 DUP5 MSTORE POP SWAP2 SWAP3 SWAP2 POP POP JUMP JUMPDEST PUSH1 0x0 DUP3 MLOAD PUSH2 0x5A4F DUP2 DUP5 PUSH1 0x20 DUP8 ADD PUSH2 0x5DF4 JUMP JUMPDEST SWAP2 SWAP1 SWAP2 ADD SWAP3 SWAP2 POP POP JUMP JUMPDEST PUSH32 0x416363657373436F6E74726F6C3A206163636F756E7420000000000000000000 DUP2 MSTORE PUSH1 0x0 DUP4 MLOAD PUSH2 0x5A91 DUP2 PUSH1 0x17 DUP6 ADD PUSH1 0x20 DUP9 ADD PUSH2 0x5DF4 JUMP JUMPDEST PUSH17 0x1034B99036B4B9B9B4B733903937B6329 PUSH1 0x7D SHL PUSH1 0x17 SWAP2 DUP5 ADD SWAP2 DUP3 ADD MSTORE DUP4 MLOAD PUSH2 0x5AC2 DUP2 PUSH1 0x28 DUP5 ADD PUSH1 0x20 DUP9 ADD PUSH2 0x5DF4 JUMP JUMPDEST ADD PUSH1 0x28 ADD SWAP5 SWAP4 POP POP POP POP JUMP JUMPDEST PUSH1 0x1 PUSH1 0x1 PUSH1 0xA0 SHL SUB SWAP4 DUP5 AND DUP2 MSTORE SWAP2 SWAP1 SWAP3 AND PUSH1 0x20 DUP3 ADD MSTORE PUSH1 0x40 DUP2 ADD SWAP2 SWAP1 SWAP2 MSTORE PUSH1 0x60 ADD SWAP1 JUMP JUMPDEST PUSH1 0xA0 DUP2 MSTORE PUSH1 0x0 PUSH2 0x5B06 PUSH1 0xA0 DUP4 ADD DUP10 DUP12 PUSH2 0x5A07 JUMP JUMPDEST DUP3 DUP2 SUB PUSH1 0x20 DUP5 ADD MSTORE PUSH2 0x5B19 DUP2 DUP9 DUP11 PUSH2 0x5A07 JUMP JUMPDEST PUSH1 0x1 PUSH1 0x1 PUSH1 0xA0 SHL SUB SWAP7 DUP8 AND PUSH1 0x40 DUP6 ADD MSTORE PUSH4 0xFFFFFFFF SWAP6 SWAP1 SWAP6 AND PUSH1 0x60 DUP5 ADD MSTORE POP POP SWAP3 AND PUSH1 0x80 SWAP1 SWAP3 ADD SWAP2 SWAP1 SWAP2 MSTORE SWAP5 SWAP4 POP POP POP POP JUMP JUMPDEST PUSH1 0x20 DUP2 MSTORE PUSH1 0x0 DUP3 MLOAD DUP1 PUSH1 0x20 DUP5 ADD MSTORE PUSH2 0x5B6B DUP2 PUSH1 0x40 DUP6 ADD PUSH1 0x20 DUP8 ADD PUSH2 0x5DF4 JUMP JUMPDEST PUSH1 0x1F ADD PUSH1 0x1F NOT AND SWAP2 SWAP1 SWAP2 ADD PUSH1 0x40 ADD SWAP3 SWAP2 POP POP JUMP JUMPDEST PUSH1 0x20 DUP1 DUP3 MSTORE PUSH1 0x12 SWAP1 DUP3 ADD MSTORE PUSH18 0x139BDD081E5BDD5C881BDDDB881DDBDC9B19 PUSH1 0x72 SHL PUSH1 0x40 DUP3 ADD MSTORE PUSH1 0x60 ADD SWAP1 JUMP JUMPDEST PUSH1 0x20 DUP1 DUP3 MSTORE PUSH1 0xC SWAP1 DUP3 ADD MSTORE PUSH12 0x13DB99DBDA5B99C81C995B9D PUSH1 0xA2 SHL PUSH1 0x40 DUP3 ADD MSTORE PUSH1 0x60 ADD SWAP1 JUMP JUMPDEST DUP4 DUP2 MSTORE PUSH1 0x40 PUSH1 0x20 DUP3 ADD MSTORE DUP2 PUSH1 0x40 DUP3 ADD MSTORE DUP2 DUP4 PUSH1 0x60 DUP4 ADD CALLDATACOPY PUSH1 0x0 DUP2 DUP4 ADD PUSH1 0x60 SWAP1 DUP2 ADD SWAP2 SWAP1 SWAP2 MSTORE PUSH1 0x1F SWAP1 SWAP3 ADD PUSH1 0x1F NOT AND ADD ADD SWAP3 SWAP2 POP POP JUMP JUMPDEST PUSH1 0x0 DUP1 DUP3 SLT DUP1 ISZERO PUSH1 0x1 PUSH1 0x1 PUSH1 0xFF SHL SUB DUP5 SWAP1 SUB DUP6 SGT AND ISZERO PUSH2 0x5C29 JUMPI PUSH2 0x5C29 PUSH2 0x5E87 JUMP JUMPDEST PUSH1 0x1 PUSH1 0xFF SHL DUP4 SWAP1 SUB DUP5 SLT DUP2 AND ISZERO PUSH2 0x5C42 JUMPI PUSH2 0x5C42 PUSH2 0x5E87 JUMP JUMPDEST POP POP ADD SWAP1 JUMP JUMPDEST PUSH1 0x0 PUSH2 0xFFFF DUP1 DUP4 AND DUP2 DUP6 AND DUP1 DUP4 SUB DUP3 GT ISZERO PUSH2 0x5C65 JUMPI PUSH2 0x5C65 PUSH2 0x5E87 JUMP JUMPDEST ADD SWAP5 SWAP4 POP POP POP POP JUMP JUMPDEST PUSH1 0x0 DUP3 NOT DUP3 GT ISZERO PUSH2 0x5C81 JUMPI PUSH2 0x5C81 PUSH2 0x5E87 JUMP JUMPDEST POP ADD SWAP1 JUMP JUMPDEST PUSH1 0x0 PUSH4 0xFFFFFFFF DUP1 DUP4 AND DUP2 DUP6 AND DUP1 DUP4 SUB DUP3 GT ISZERO PUSH2 0x5C65 JUMPI PUSH2 0x5C65 PUSH2 0x5E87 JUMP JUMPDEST PUSH1 0x0 PUSH1 0x1 PUSH1 0x1 PUSH1 0x60 SHL SUB DUP1 DUP4 AND DUP2 DUP6 AND DUP1 DUP4 SUB DUP3 GT ISZERO PUSH2 0x5C65 JUMPI PUSH2 0x5C65 PUSH2 0x5E87 JUMP JUMPDEST PUSH1 0x0 DUP3 PUSH2 0x5CE4 JUMPI PUSH4 0x4E487B71 PUSH1 0xE0 SHL PUSH1 0x0 MSTORE PUSH1 0x12 PUSH1 0x4 MSTORE PUSH1 0x24 PUSH1 0x0 REVERT JUMPDEST POP DIV SWAP1 JUMP JUMPDEST PUSH1 0x0 PUSH3 0xFFFFFF DUP1 DUP4 AND DUP2 DUP6 AND DUP2 DUP4 DIV DUP2 GT DUP3 ISZERO ISZERO AND ISZERO PUSH2 0x5D0B JUMPI PUSH2 0x5D0B PUSH2 0x5E87 JUMP JUMPDEST MUL SWAP5 SWAP4 POP POP POP POP JUMP JUMPDEST PUSH1 0x0 DUP2 PUSH1 0x0 NOT DIV DUP4 GT DUP3 ISZERO ISZERO AND ISZERO PUSH2 0x5D2E JUMPI PUSH2 0x5D2E PUSH2 0x5E87 JUMP JUMPDEST POP MUL SWAP1 JUMP JUMPDEST PUSH1 0x0 PUSH1 0x1 PUSH1 0x1 PUSH1 0x60 SHL SUB DUP1 DUP4 AND DUP2 DUP6 AND DUP2 DUP4 DIV DUP2 GT DUP3 ISZERO ISZERO AND ISZERO PUSH2 0x5D0B JUMPI PUSH2 0x5D0B PUSH2 0x5E87 JUMP JUMPDEST PUSH1 0x0 DUP1 DUP4 SLT DUP1 ISZERO PUSH1 0x1 PUSH1 0xFF SHL DUP6 ADD DUP5 SLT AND ISZERO PUSH2 0x5D77 JUMPI PUSH2 0x5D77 PUSH2 0x5E87 JUMP JUMPDEST PUSH1 0x1 PUSH1 0x1 PUSH1 0xFF SHL SUB DUP5 ADD DUP4 SGT DUP2 AND ISZERO PUSH2 0x5D92 JUMPI PUSH2 0x5D92 PUSH2 0x5E87 JUMP JUMPDEST POP POP SUB SWAP1 JUMP JUMPDEST PUSH1 0x0 DUP3 DUP3 LT ISZERO PUSH2 0x5DAA JUMPI PUSH2 0x5DAA PUSH2 0x5E87 JUMP JUMPDEST POP SUB SWAP1 JUMP JUMPDEST PUSH1 0x0 PUSH4 0xFFFFFFFF DUP4 DUP2 AND SWAP1 DUP4 AND DUP2 DUP2 LT ISZERO PUSH2 0x5DCC JUMPI PUSH2 0x5DCC PUSH2 0x5E87 JUMP JUMPDEST SUB SWAP4 SWAP3 POP POP POP JUMP JUMPDEST PUSH1 0x0 PUSH1 0x1 PUSH1 0x1 PUSH1 0x60 SHL SUB DUP4 DUP2 AND SWAP1 DUP4 AND DUP2 DUP2 LT ISZERO PUSH2 0x5DCC JUMPI PUSH2 0x5DCC PUSH2 0x5E87 JUMP JUMPDEST PUSH1 0x0 JUMPDEST DUP4 DUP2 LT ISZERO PUSH2 0x5E0F JUMPI DUP2 DUP2 ADD MLOAD DUP4 DUP3 ADD MSTORE PUSH1 0x20 ADD PUSH2 0x5DF7 JUMP JUMPDEST DUP4 DUP2 GT ISZERO PUSH2 0x402C JUMPI POP POP PUSH1 0x0 SWAP2 ADD MSTORE JUMP JUMPDEST PUSH1 0x0 DUP2 PUSH2 0x5E2F JUMPI PUSH2 0x5E2F PUSH2 0x5E87 JUMP JUMPDEST POP PUSH1 0x0 NOT ADD SWAP1 JUMP JUMPDEST PUSH1 0x1 DUP2 DUP2 SHR SWAP1 DUP3 AND DUP1 PUSH2 0x5E4B JUMPI PUSH1 0x7F DUP3 AND SWAP2 POP JUMPDEST PUSH1 0x20 DUP3 LT DUP2 EQ ISZERO PUSH2 0x46C3 JUMPI PUSH4 0x4E487B71 PUSH1 0xE0 SHL PUSH1 0x0 MSTORE PUSH1 0x22 PUSH1 0x4 MSTORE PUSH1 0x24 PUSH1 0x0 REVERT JUMPDEST PUSH1 0x0 PUSH1 0x0 NOT DUP3 EQ ISZERO PUSH2 0x5E80 JUMPI PUSH2 0x5E80 PUSH2 0x5E87 JUMP JUMPDEST POP PUSH1 0x1 ADD SWAP1 JUMP JUMPDEST PUSH4 0x4E487B71 PUSH1 0xE0 SHL PUSH1 0x0 MSTORE PUSH1 0x11 PUSH1 0x4 MSTORE PUSH1 0x24 PUSH1 0x0 REVERT JUMPDEST PUSH4 0x4E487B71 PUSH1 0xE0 SHL PUSH1 0x0 MSTORE PUSH1 0x21 PUSH1 0x4 MSTORE PUSH1 0x24 PUSH1 0x0 REVERT JUMPDEST PUSH4 0x4E487B71 PUSH1 0xE0 SHL PUSH1 0x0 MSTORE PUSH1 0x32 PUSH1 0x4 MSTORE PUSH1 0x24 PUSH1 0x0 REVERT JUMPDEST PUSH4 0x4E487B71 PUSH1 0xE0 SHL PUSH1 0x0 MSTORE PUSH1 0x41 PUSH1 0x4 MSTORE PUSH1 0x24 PUSH1 0x0 REVERT JUMPDEST PUSH1 0x1 PUSH1 0x1 PUSH1 0xA0 SHL SUB DUP2 AND DUP2 EQ PUSH2 0x1372 JUMPI PUSH1 0x0 DUP1 REVERT JUMPDEST DUP1 ISZERO ISZERO DUP2 EQ PUSH2 0x1372 JUMPI PUSH1 0x0 DUP1 REVERT INVALID 0xB1 SWAP6 CHAINID 0xDF CREATE 0x1E DUP6 PUSH16 0xB3F010C267A7B1C60363CF8A4664E21C 0xC8 SWAP13 0x26 0x22 CHAINID KECCAK256 0x21 0x4E LOG2 PUSH5 0x6970667358 0x22 SLT KECCAK256 SWAP11 0xC6 SAR 0x1F LOG4 DUP7 PUSH28 0xA6865BD7AAC8E1D15548BA70F18A06D73D04A038372EA5A6F964736F PUSH13 0x63430008070033000000000000 "
		},
		"gasEstimates": {
			"creation": {
				"codeDepositCost": "4881600",
				"executionCost": "infinite",
				"totalCost": "infinite"
			},
			"external": {
				"DEFAULT_ADMIN_ROLE()": "284",
				"DOMAIN_SEPARATOR()": "infinite",
				"allowance(address,address)": "infinite",
				"approve(address,uint256)": "24692",
				"balanceOf(address)": "2664",
				"builderMetadataUpdate(uint256,string)": "infinite",
				"checkUserRewards(address)": "infinite",
				"checkpoints(address,uint32)": "5161",
				"claim(address)": "infinite",
				"decimals()": "311",
				"decreaseAllowance(address,uint256)": "27004",
				"delegate(address)": "infinite",
				"delegateBySig(address,uint256,uint256,uint8,bytes32,bytes32)": "infinite",
				"delegates(address)": "2629",
				"getPastTotalSupply(uint256)": "infinite",
				"getPastVotes(address,uint256)": "7235",
				"getRewardRate()": "2395",
				"getRoleAdmin(bytes32)": "2557",
				"getVotes(address)": "7146",
				"grantRole(bytes32,address)": "infinite",
				"hasRole(bytes32,address)": "2809",
				"increaseAllowance(address,uint256)": "27007",
				"initialStake(uint256[],uint256[],address,uint16,uint16,uint16,uint32,uint32,bytes)": "infinite",
				"name()": "infinite",
				"nonces(address)": "2655",
				"numCheckpoints(address)": "2775",
				"payRent(uint256,uint32)": "infinite",
				"paymentAlert(uint256)": "infinite",
				"permit(address,address,uint256,uint256,uint8,bytes32,bytes32)": "infinite",
				"renounceRole(bytes32,address)": "29068",
				"rentWorld(uint256,uint32,uint32)": "infinite",
				"revokeRole(bytes32,address)": "infinite",
				"rewards(address)": "2749",
				"rewardsPerWeight()": "2634",
				"rewardsPeriod()": "2437",
				"setRewards(uint32,uint32,uint96)": "infinite",
				"setSigner(address)": "infinite",
				"stake(uint256[],address,uint16,uint16,uint16,uint32)": "infinite",
				"stakedWeight(address)": "2627",
				"supportsInterface(bytes4)": "infinite",
				"symbol()": "infinite",
				"terminateRental(uint256)": "infinite",
				"totalSupply()": "2438",
				"transfer(address,uint256)": "infinite",
				"transferFrom(address,address,uint256)": "infinite",
				"unstake(uint256[])": "infinite",
				"updateBuilderRole(address,bool)": "infinite",
				"updateMetadata(uint256,string)": "infinite",
				"updateRent(uint256[],uint16,uint16,uint16,uint32)": "infinite",
				"updateRewards(uint96)": "infinite",
				"version()": "infinite",
				"worldInfo(uint256)": "2840",
				"worldRentInfo(uint256)": "2709"
			},
			"internal": {
				"_afterTokenTransfer(address,address,uint256)": "infinite",
				"_beforeTokenTransfer(address,address,uint256)": "infinite",
				"_burn(address,uint256)": "infinite",
				"_mint(address,uint256)": "infinite",
				"_updateRewardsPerWeight(uint32,bool)": "infinite",
				"_updateUserRewards(address,uint32,bool)": "infinite",
				"_verifySignerSignature(bytes32,bytes calldata)": "infinite",
				"min(uint32,uint32)": "73"
			}
		},
		"methodIdentifiers": {
			"DEFAULT_ADMIN_ROLE()": "a217fddf",
			"DOMAIN_SEPARATOR()": "3644e515",
			"allowance(address,address)": "dd62ed3e",
			"approve(address,uint256)": "095ea7b3",
			"balanceOf(address)": "70a08231",
			"builderMetadataUpdate(uint256,string)": "be26989c",
			"checkUserRewards(address)": "9a1e9c33",
			"checkpoints(address,uint32)": "f1127ed8",
			"claim(address)": "1e83409a",
			"decimals()": "313ce567",
			"decreaseAllowance(address,uint256)": "a457c2d7",
			"delegate(address)": "5c19a95c",
			"delegateBySig(address,uint256,uint256,uint8,bytes32,bytes32)": "c3cda520",
			"delegates(address)": "587cde1e",
			"getPastTotalSupply(uint256)": "8e539e8c",
			"getPastVotes(address,uint256)": "3a46b1a8",
			"getRewardRate()": "7e1a3786",
			"getRoleAdmin(bytes32)": "248a9ca3",
			"getVotes(address)": "9ab24eb0",
			"grantRole(bytes32,address)": "2f2ff15d",
			"hasRole(bytes32,address)": "91d14854",
			"increaseAllowance(address,uint256)": "39509351",
			"initialStake(uint256[],uint256[],address,uint16,uint16,uint16,uint32,uint32,bytes)": "64fe8577",
			"name()": "06fdde03",
			"nonces(address)": "7ecebe00",
			"numCheckpoints(address)": "6fcfff45",
			"payRent(uint256,uint32)": "b326f59a",
			"paymentAlert(uint256)": "757ddbd5",
			"permit(address,address,uint256,uint256,uint8,bytes32,bytes32)": "d505accf",
			"renounceRole(bytes32,address)": "36568abe",
			"rentWorld(uint256,uint32,uint32)": "939113e3",
			"revokeRole(bytes32,address)": "d547741f",
			"rewards(address)": "0700037d",
			"rewardsPerWeight()": "fc196d08",
			"rewardsPeriod()": "26ae2b78",
			"setRewards(uint32,uint32,uint96)": "a354f39e",
			"setSigner(address)": "6c19e783",
			"stake(uint256[],address,uint16,uint16,uint16,uint32)": "dbb37abf",
			"stakedWeight(address)": "58ba9d27",
			"supportsInterface(bytes4)": "01ffc9a7",
			"symbol()": "95d89b41",
			"terminateRental(uint256)": "f9217419",
			"totalSupply()": "18160ddd",
			"transfer(address,uint256)": "a9059cbb",
			"transferFrom(address,address,uint256)": "23b872dd",
			"unstake(uint256[])": "e449f341",
			"updateBuilderRole(address,bool)": "8c81172a",
			"updateMetadata(uint256,string)": "53c8388e",
			"updateRent(uint256[],uint16,uint16,uint16,uint32)": "2cd8d4d7",
			"updateRewards(uint96)": "10a0638a",
			"version()": "54fd4d50",
			"worldInfo(uint256)": "ae1e68b9",
			"worldRentInfo(uint256)": "a93482a7"
		}
	},
	"abi": [
		{
			"inputs": [
				{
					"internalType": "address",
					"name": "wrld",
					"type": "address"
				},
				{
					"internalType": "address",
					"name": "nftw",
					"type": "address"
				}
			],
			"stateMutability": "nonpayable",
			"type": "constructor"
		},
		{
			"anonymous": false,
			"inputs": [
				{
					"indexed": true,
					"internalType": "address",
					"name": "owner",
					"type": "address"
				},
				{
					"indexed": true,
					"internalType": "address",
					"name": "spender",
					"type": "address"
				},
				{
					"indexed": false,
					"internalType": "uint256",
					"name": "value",
					"type": "uint256"
				}
			],
			"name": "Approval",
			"type": "event"
		},
		{
			"anonymous": false,
			"inputs": [
				{
					"indexed": false,
					"internalType": "uint256",
					"name": "tokenId",
					"type": "uint256"
				},
				{
					"indexed": false,
					"internalType": "address",
					"name": "builder",
					"type": "address"
				}
			],
			"name": "BuilderMetadataUpdate",
			"type": "event"
		},
		{
			"anonymous": false,
			"inputs": [
				{
					"indexed": true,
					"internalType": "address",
					"name": "delegator",
					"type": "address"
				},
				{
					"indexed": true,
					"internalType": "address",
					"name": "fromDelegate",
					"type": "address"
				},
				{
					"indexed": true,
					"internalType": "address",
					"name": "toDelegate",
					"type": "address"
				}
			],
			"name": "DelegateChanged",
			"type": "event"
		},
		{
			"anonymous": false,
			"inputs": [
				{
					"indexed": true,
					"internalType": "address",
					"name": "delegate",
					"type": "address"
				},
				{
					"indexed": false,
					"internalType": "uint256",
					"name": "previousBalance",
					"type": "uint256"
				},
				{
					"indexed": false,
					"internalType": "uint256",
					"name": "newBalance",
					"type": "uint256"
				}
			],
			"name": "DelegateVotesChanged",
			"type": "event"
		},
		{
			"anonymous": false,
			"inputs": [
				{
					"indexed": false,
					"internalType": "uint256",
					"name": "tokenId",
					"type": "uint256"
				},
				{
					"indexed": false,
					"internalType": "address",
					"name": "tenant",
					"type": "address"
				},
				{
					"indexed": false,
					"internalType": "uint256",
					"name": "payment",
					"type": "uint256"
				}
			],
			"name": "RentalPaid",
			"type": "event"
		},
		{
			"anonymous": false,
			"inputs": [
				{
					"indexed": false,
					"internalType": "address",
					"name": "receiver",
					"type": "address"
				},
				{
					"indexed": false,
					"internalType": "uint256",
					"name": "claimed",
					"type": "uint256"
				}
			],
			"name": "RewardClaimed",
			"type": "event"
		},
		{
			"anonymous": false,
			"inputs": [
				{
					"indexed": false,
					"internalType": "uint256",
					"name": "accumulated",
					"type": "uint256"
				}
			],
			"name": "RewardsPerWeightUpdated",
			"type": "event"
		},
		{
			"anonymous": false,
			"inputs": [
				{
					"indexed": false,
					"internalType": "uint32",
					"name": "start",
					"type": "uint32"
				},
				{
					"indexed": false,
					"internalType": "uint32",
					"name": "end",
					"type": "uint32"
				},
				{
					"indexed": false,
					"internalType": "uint256",
					"name": "rate",
					"type": "uint256"
				}
			],
			"name": "RewardsSet",
			"type": "event"
		},
		{
			"anonymous": false,
			"inputs": [
				{
					"indexed": false,
					"internalType": "uint32",
					"name": "start",
					"type": "uint32"
				},
				{
					"indexed": false,
					"internalType": "uint32",
					"name": "end",
					"type": "uint32"
				},
				{
					"indexed": false,
					"internalType": "uint256",
					"name": "rate",
					"type": "uint256"
				}
			],
			"name": "RewardsUpdated",
			"type": "event"
		},
		{
			"anonymous": false,
			"inputs": [
				{
					"indexed": true,
					"internalType": "bytes32",
					"name": "role",
					"type": "bytes32"
				},
				{
					"indexed": true,
					"internalType": "bytes32",
					"name": "previousAdminRole",
					"type": "bytes32"
				},
				{
					"indexed": true,
					"internalType": "bytes32",
					"name": "newAdminRole",
					"type": "bytes32"
				}
			],
			"name": "RoleAdminChanged",
			"type": "event"
		},
		{
			"anonymous": false,
			"inputs": [
				{
					"indexed": true,
					"internalType": "bytes32",
					"name": "role",
					"type": "bytes32"
				},
				{
					"indexed": true,
					"internalType": "address",
					"name": "account",
					"type": "address"
				},
				{
					"indexed": true,
					"internalType": "address",
					"name": "sender",
					"type": "address"
				}
			],
			"name": "RoleGranted",
			"type": "event"
		},
		{
			"anonymous": false,
			"inputs": [
				{
					"indexed": true,
					"internalType": "bytes32",
					"name": "role",
					"type": "bytes32"
				},
				{
					"indexed": true,
					"internalType": "address",
					"name": "account",
					"type": "address"
				},
				{
					"indexed": true,
					"internalType": "address",
					"name": "sender",
					"type": "address"
				}
			],
			"name": "RoleRevoked",
			"type": "event"
		},
		{
			"anonymous": false,
			"inputs": [
				{
					"indexed": true,
					"internalType": "address",
					"name": "from",
					"type": "address"
				},
				{
					"indexed": true,
					"internalType": "address",
					"name": "to",
					"type": "address"
				},
				{
					"indexed": false,
					"internalType": "uint256",
					"name": "value",
					"type": "uint256"
				}
			],
			"name": "Transfer",
			"type": "event"
		},
		{
			"anonymous": false,
			"inputs": [
				{
					"indexed": false,
					"internalType": "address",
					"name": "user",
					"type": "address"
				},
				{
					"indexed": false,
					"internalType": "uint256",
					"name": "userRewards",
					"type": "uint256"
				},
				{
					"indexed": false,
					"internalType": "uint256",
					"name": "paidRewardPerWeight",
					"type": "uint256"
				}
			],
			"name": "UserRewardsUpdated",
			"type": "event"
		},
		{
			"anonymous": false,
			"inputs": [
				{
					"indexed": true,
					"internalType": "address",
					"name": "user",
					"type": "address"
				},
				{
					"indexed": false,
					"internalType": "bool",
					"name": "increase",
					"type": "bool"
				},
				{
					"indexed": false,
					"internalType": "uint256",
					"name": "weight",
					"type": "uint256"
				},
				{
					"indexed": false,
					"internalType": "uint256",
					"name": "timestamp",
					"type": "uint256"
				}
			],
			"name": "WeightUpdated",
			"type": "event"
		},
		{
			"anonymous": false,
			"inputs": [
				{
					"indexed": false,
					"internalType": "uint256",
					"name": "tokenId",
					"type": "uint256"
				},
				{
					"indexed": false,
					"internalType": "address",
					"name": "tenant",
					"type": "address"
				},
				{
					"indexed": false,
					"internalType": "uint256",
					"name": "payment",
					"type": "uint256"
				}
			],
			"name": "WorldRented",
			"type": "event"
		},
		{
			"anonymous": false,
			"inputs": [
				{
					"indexed": false,
					"internalType": "uint256",
					"name": "tokinId",
					"type": "uint256"
				},
				{
					"indexed": false,
					"internalType": "address",
					"name": "user",
					"type": "address"
				}
			],
			"name": "WorldStaked",
			"type": "event"
		},
		{
			"anonymous": false,
			"inputs": [
				{
					"indexed": false,
					"internalType": "uint256",
					"name": "tokinId",
					"type": "uint256"
				},
				{
					"indexed": false,
					"internalType": "address",
					"name": "user",
					"type": "address"
				}
			],
			"name": "WorldUnstaked",
			"type": "event"
		},
		{
			"inputs": [],
			"name": "DEFAULT_ADMIN_ROLE",
			"outputs": [
				{
					"internalType": "bytes32",
					"name": "",
					"type": "bytes32"
				}
			],
			"stateMutability": "view",
			"type": "function"
		},
		{
			"inputs": [],
			"name": "DOMAIN_SEPARATOR",
			"outputs": [
				{
					"internalType": "bytes32",
					"name": "",
					"type": "bytes32"
				}
			],
			"stateMutability": "view",
			"type": "function"
		},
		{
			"inputs": [
				{
					"internalType": "address",
					"name": "owner",
					"type": "address"
				},
				{
					"internalType": "address",
					"name": "spender",
					"type": "address"
				}
			],
			"name": "allowance",
			"outputs": [
				{
					"internalType": "uint256",
					"name": "",
					"type": "uint256"
				}
			],
			"stateMutability": "view",
			"type": "function"
		},
		{
			"inputs": [
				{
					"internalType": "address",
					"name": "spender",
					"type": "address"
				},
				{
					"internalType": "uint256",
					"name": "amount",
					"type": "uint256"
				}
			],
			"name": "approve",
			"outputs": [
				{
					"internalType": "bool",
					"name": "",
					"type": "bool"
				}
			],
			"stateMutability": "nonpayable",
			"type": "function"
		},
		{
			"inputs": [
				{
					"internalType": "address",
					"name": "account",
					"type": "address"
				}
			],
			"name": "balanceOf",
			"outputs": [
				{
					"internalType": "uint256",
					"name": "",
					"type": "uint256"
				}
			],
			"stateMutability": "view",
			"type": "function"
		},
		{
			"inputs": [
				{
					"internalType": "uint256",
					"name": "tokenId",
					"type": "uint256"
				},
				{
					"internalType": "string",
					"name": "_tokenMetadataIPFSHash",
					"type": "string"
				}
			],
			"name": "builderMetadataUpdate",
			"outputs": [],
			"stateMutability": "nonpayable",
			"type": "function"
		},
		{
			"inputs": [
				{
					"internalType": "address",
					"name": "user",
					"type": "address"
				}
			],
			"name": "checkUserRewards",
			"outputs": [
				{
					"internalType": "uint256",
					"name": "",
					"type": "uint256"
				}
			],
			"stateMutability": "view",
			"type": "function"
		},
		{
			"inputs": [
				{
					"internalType": "address",
					"name": "account",
					"type": "address"
				},
				{
					"internalType": "uint32",
					"name": "pos",
					"type": "uint32"
				}
			],
			"name": "checkpoints",
			"outputs": [
				{
					"components": [
						{
							"internalType": "uint32",
							"name": "fromBlock",
							"type": "uint32"
						},
						{
							"internalType": "uint224",
							"name": "votes",
							"type": "uint224"
						}
					],
					"internalType": "struct ERC20Votes.Checkpoint",
					"name": "",
					"type": "tuple"
				}
			],
			"stateMutability": "view",
			"type": "function"
		},
		{
			"inputs": [
				{
					"internalType": "address",
					"name": "to",
					"type": "address"
				}
			],
			"name": "claim",
			"outputs": [],
			"stateMutability": "nonpayable",
			"type": "function"
		},
		{
			"inputs": [],
			"name": "decimals",
			"outputs": [
				{
					"internalType": "uint8",
					"name": "",
					"type": "uint8"
				}
			],
			"stateMutability": "view",
			"type": "function"
		},
		{
			"inputs": [
				{
					"internalType": "address",
					"name": "spender",
					"type": "address"
				},
				{
					"internalType": "uint256",
					"name": "subtractedValue",
					"type": "uint256"
				}
			],
			"name": "decreaseAllowance",
			"outputs": [
				{
					"internalType": "bool",
					"name": "",
					"type": "bool"
				}
			],
			"stateMutability": "nonpayable",
			"type": "function"
		},
		{
			"inputs": [
				{
					"internalType": "address",
					"name": "delegatee",
					"type": "address"
				}
			],
			"name": "delegate",
			"outputs": [],
			"stateMutability": "nonpayable",
			"type": "function"
		},
		{
			"inputs": [
				{
					"internalType": "address",
					"name": "delegatee",
					"type": "address"
				},
				{
					"internalType": "uint256",
					"name": "nonce",
					"type": "uint256"
				},
				{
					"internalType": "uint256",
					"name": "expiry",
					"type": "uint256"
				},
				{
					"internalType": "uint8",
					"name": "v",
					"type": "uint8"
				},
				{
					"internalType": "bytes32",
					"name": "r",
					"type": "bytes32"
				},
				{
					"internalType": "bytes32",
					"name": "s",
					"type": "bytes32"
				}
			],
			"name": "delegateBySig",
			"outputs": [],
			"stateMutability": "nonpayable",
			"type": "function"
		},
		{
			"inputs": [
				{
					"internalType": "address",
					"name": "account",
					"type": "address"
				}
			],
			"name": "delegates",
			"outputs": [
				{
					"internalType": "address",
					"name": "",
					"type": "address"
				}
			],
			"stateMutability": "view",
			"type": "function"
		},
		{
			"inputs": [
				{
					"internalType": "uint256",
					"name": "blockNumber",
					"type": "uint256"
				}
			],
			"name": "getPastTotalSupply",
			"outputs": [
				{
					"internalType": "uint256",
					"name": "",
					"type": "uint256"
				}
			],
			"stateMutability": "view",
			"type": "function"
		},
		{
			"inputs": [
				{
					"internalType": "address",
					"name": "account",
					"type": "address"
				},
				{
					"internalType": "uint256",
					"name": "blockNumber",
					"type": "uint256"
				}
			],
			"name": "getPastVotes",
			"outputs": [
				{
					"internalType": "uint256",
					"name": "",
					"type": "uint256"
				}
			],
			"stateMutability": "view",
			"type": "function"
		},
		{
			"inputs": [],
			"name": "getRewardRate",
			"outputs": [
				{
					"internalType": "uint256",
					"name": "",
					"type": "uint256"
				}
			],
			"stateMutability": "view",
			"type": "function"
		},
		{
			"inputs": [
				{
					"internalType": "bytes32",
					"name": "role",
					"type": "bytes32"
				}
			],
			"name": "getRoleAdmin",
			"outputs": [
				{
					"internalType": "bytes32",
					"name": "",
					"type": "bytes32"
				}
			],
			"stateMutability": "view",
			"type": "function"
		},
		{
			"inputs": [
				{
					"internalType": "address",
					"name": "account",
					"type": "address"
				}
			],
			"name": "getVotes",
			"outputs": [
				{
					"internalType": "uint256",
					"name": "",
					"type": "uint256"
				}
			],
			"stateMutability": "view",
			"type": "function"
		},
		{
			"inputs": [
				{
					"internalType": "bytes32",
					"name": "role",
					"type": "bytes32"
				},
				{
					"internalType": "address",
					"name": "account",
					"type": "address"
				}
			],
			"name": "grantRole",
			"outputs": [],
			"stateMutability": "nonpayable",
			"type": "function"
		},
		{
			"inputs": [
				{
					"internalType": "bytes32",
					"name": "role",
					"type": "bytes32"
				},
				{
					"internalType": "address",
					"name": "account",
					"type": "address"
				}
			],
			"name": "hasRole",
			"outputs": [
				{
					"internalType": "bool",
					"name": "",
					"type": "bool"
				}
			],
			"stateMutability": "view",
			"type": "function"
		},
		{
			"inputs": [
				{
					"internalType": "address",
					"name": "spender",
					"type": "address"
				},
				{
					"internalType": "uint256",
					"name": "addedValue",
					"type": "uint256"
				}
			],
			"name": "increaseAllowance",
			"outputs": [
				{
					"internalType": "bool",
					"name": "",
					"type": "bool"
				}
			],
			"stateMutability": "nonpayable",
			"type": "function"
		},
		{
			"inputs": [
				{
					"internalType": "uint256[]",
					"name": "tokenIds",
					"type": "uint256[]"
				},
				{
					"internalType": "uint256[]",
					"name": "weights",
					"type": "uint256[]"
				},
				{
					"internalType": "address",
					"name": "stakeTo",
					"type": "address"
				},
				{
					"internalType": "uint16",
					"name": "_deposit",
					"type": "uint16"
				},
				{
					"internalType": "uint16",
					"name": "_rentalPerDay",
					"type": "uint16"
				},
				{
					"internalType": "uint16",
					"name": "_minRentDays",
					"type": "uint16"
				},
				{
					"internalType": "uint32",
					"name": "_rentableUntil",
					"type": "uint32"
				},
				{
					"internalType": "uint32",
					"name": "_maxTimestamp",
					"type": "uint32"
				},
				{
					"internalType": "bytes",
					"name": "_signature",
					"type": "bytes"
				}
			],
			"name": "initialStake",
			"outputs": [],
			"stateMutability": "nonpayable",
			"type": "function"
		},
		{
			"inputs": [],
			"name": "name",
			"outputs": [
				{
					"internalType": "string",
					"name": "",
					"type": "string"
				}
			],
			"stateMutability": "view",
			"type": "function"
		},
		{
			"inputs": [
				{
					"internalType": "address",
					"name": "owner",
					"type": "address"
				}
			],
			"name": "nonces",
			"outputs": [
				{
					"internalType": "uint256",
					"name": "",
					"type": "uint256"
				}
			],
			"stateMutability": "view",
			"type": "function"
		},
		{
			"inputs": [
				{
					"internalType": "address",
					"name": "account",
					"type": "address"
				}
			],
			"name": "numCheckpoints",
			"outputs": [
				{
					"internalType": "uint32",
					"name": "",
					"type": "uint32"
				}
			],
			"stateMutability": "view",
			"type": "function"
		},
		{
			"inputs": [
				{
					"internalType": "uint256",
					"name": "tokenId",
					"type": "uint256"
				},
				{
					"internalType": "uint32",
					"name": "payment",
					"type": "uint32"
				}
			],
			"name": "payRent",
			"outputs": [],
			"stateMutability": "nonpayable",
			"type": "function"
		},
		{
			"inputs": [
				{
					"internalType": "uint256",
					"name": "tokenId",
					"type": "uint256"
				}
			],
			"name": "paymentAlert",
			"outputs": [
				{
					"internalType": "int256",
					"name": "timeRemaining",
					"type": "int256"
				}
			],
			"stateMutability": "view",
			"type": "function"
		},
		{
			"inputs": [
				{
					"internalType": "address",
					"name": "owner",
					"type": "address"
				},
				{
					"internalType": "address",
					"name": "spender",
					"type": "address"
				},
				{
					"internalType": "uint256",
					"name": "value",
					"type": "uint256"
				},
				{
					"internalType": "uint256",
					"name": "deadline",
					"type": "uint256"
				},
				{
					"internalType": "uint8",
					"name": "v",
					"type": "uint8"
				},
				{
					"internalType": "bytes32",
					"name": "r",
					"type": "bytes32"
				},
				{
					"internalType": "bytes32",
					"name": "s",
					"type": "bytes32"
				}
			],
			"name": "permit",
			"outputs": [],
			"stateMutability": "nonpayable",
			"type": "function"
		},
		{
			"inputs": [
				{
					"internalType": "bytes32",
					"name": "role",
					"type": "bytes32"
				},
				{
					"internalType": "address",
					"name": "account",
					"type": "address"
				}
			],
			"name": "renounceRole",
			"outputs": [],
			"stateMutability": "nonpayable",
			"type": "function"
		},
		{
			"inputs": [
				{
					"internalType": "uint256",
					"name": "tokenId",
					"type": "uint256"
				},
				{
					"internalType": "uint32",
					"name": "_paymentAlert",
					"type": "uint32"
				},
				{
					"internalType": "uint32",
					"name": "initialPayment",
					"type": "uint32"
				}
			],
			"name": "rentWorld",
			"outputs": [],
			"stateMutability": "nonpayable",
			"type": "function"
		},
		{
			"inputs": [
				{
					"internalType": "bytes32",
					"name": "role",
					"type": "bytes32"
				},
				{
					"internalType": "address",
					"name": "account",
					"type": "address"
				}
			],
			"name": "revokeRole",
			"outputs": [],
			"stateMutability": "nonpayable",
			"type": "function"
		},
		{
			"inputs": [
				{
					"internalType": "address",
					"name": "",
					"type": "address"
				}
			],
			"name": "rewards",
			"outputs": [
				{
					"internalType": "uint32",
					"name": "stakedWeight",
					"type": "uint32"
				},
				{
					"internalType": "uint96",
					"name": "accumulated",
					"type": "uint96"
				},
				{
					"internalType": "uint96",
					"name": "checkpoint",
					"type": "uint96"
				}
			],
			"stateMutability": "view",
			"type": "function"
		},
		{
			"inputs": [],
			"name": "rewardsPerWeight",
			"outputs": [
				{
					"internalType": "uint32",
					"name": "totalWeight",
					"type": "uint32"
				},
				{
					"internalType": "uint96",
					"name": "accumulated",
					"type": "uint96"
				},
				{
					"internalType": "uint32",
					"name": "lastUpdated",
					"type": "uint32"
				},
				{
					"internalType": "uint96",
					"name": "rate",
					"type": "uint96"
				}
			],
			"stateMutability": "view",
			"type": "function"
		},
		{
			"inputs": [],
			"name": "rewardsPeriod",
			"outputs": [
				{
					"internalType": "uint32",
					"name": "start",
					"type": "uint32"
				},
				{
					"internalType": "uint32",
					"name": "end",
					"type": "uint32"
				}
			],
			"stateMutability": "view",
			"type": "function"
		},
		{
			"inputs": [
				{
					"internalType": "uint32",
					"name": "start",
					"type": "uint32"
				},
				{
					"internalType": "uint32",
					"name": "end",
					"type": "uint32"
				},
				{
					"internalType": "uint96",
					"name": "rate",
					"type": "uint96"
				}
			],
			"name": "setRewards",
			"outputs": [],
			"stateMutability": "nonpayable",
			"type": "function"
		},
		{
			"inputs": [
				{
					"internalType": "address",
					"name": "_signer",
					"type": "address"
				}
			],
			"name": "setSigner",
			"outputs": [],
			"stateMutability": "nonpayable",
			"type": "function"
		},
		{
			"inputs": [
				{
					"internalType": "uint256[]",
					"name": "tokenIds",
					"type": "uint256[]"
				},
				{
					"internalType": "address",
					"name": "stakeTo",
					"type": "address"
				},
				{
					"internalType": "uint16",
					"name": "_deposit",
					"type": "uint16"
				},
				{
					"internalType": "uint16",
					"name": "_rentalPerDay",
					"type": "uint16"
				},
				{
					"internalType": "uint16",
					"name": "_minRentDays",
					"type": "uint16"
				},
				{
					"internalType": "uint32",
					"name": "_rentableUntil",
					"type": "uint32"
				}
			],
			"name": "stake",
			"outputs": [],
			"stateMutability": "nonpayable",
			"type": "function"
		},
		{
			"inputs": [
				{
					"internalType": "address",
					"name": "user",
					"type": "address"
				}
			],
			"name": "stakedWeight",
			"outputs": [
				{
					"internalType": "uint256",
					"name": "",
					"type": "uint256"
				}
			],
			"stateMutability": "view",
			"type": "function"
		},
		{
			"inputs": [
				{
					"internalType": "bytes4",
					"name": "interfaceId",
					"type": "bytes4"
				}
			],
			"name": "supportsInterface",
			"outputs": [
				{
					"internalType": "bool",
					"name": "",
					"type": "bool"
				}
			],
			"stateMutability": "view",
			"type": "function"
		},
		{
			"inputs": [],
			"name": "symbol",
			"outputs": [
				{
					"internalType": "string",
					"name": "",
					"type": "string"
				}
			],
			"stateMutability": "view",
			"type": "function"
		},
		{
			"inputs": [
				{
					"internalType": "uint256",
					"name": "tokenId",
					"type": "uint256"
				}
			],
			"name": "terminateRental",
			"outputs": [],
			"stateMutability": "nonpayable",
			"type": "function"
		},
		{
			"inputs": [],
			"name": "totalSupply",
			"outputs": [
				{
					"internalType": "uint256",
					"name": "",
					"type": "uint256"
				}
			],
			"stateMutability": "view",
			"type": "function"
		},
		{
			"inputs": [
				{
					"internalType": "address",
					"name": "recipient",
					"type": "address"
				},
				{
					"internalType": "uint256",
					"name": "amount",
					"type": "uint256"
				}
			],
			"name": "transfer",
			"outputs": [
				{
					"internalType": "bool",
					"name": "",
					"type": "bool"
				}
			],
			"stateMutability": "nonpayable",
			"type": "function"
		},
		{
			"inputs": [
				{
					"internalType": "address",
					"name": "sender",
					"type": "address"
				},
				{
					"internalType": "address",
					"name": "recipient",
					"type": "address"
				},
				{
					"internalType": "uint256",
					"name": "amount",
					"type": "uint256"
				}
			],
			"name": "transferFrom",
			"outputs": [
				{
					"internalType": "bool",
					"name": "",
					"type": "bool"
				}
			],
			"stateMutability": "nonpayable",
			"type": "function"
		},
		{
			"inputs": [
				{
					"internalType": "uint256[]",
					"name": "tokenIds",
					"type": "uint256[]"
				}
			],
			"name": "unstake",
			"outputs": [],
			"stateMutability": "nonpayable",
			"type": "function"
		},
		{
			"inputs": [
				{
					"internalType": "address",
					"name": "builder",
					"type": "address"
				},
				{
					"internalType": "bool",
					"name": "allow",
					"type": "bool"
				}
			],
			"name": "updateBuilderRole",
			"outputs": [],
			"stateMutability": "nonpayable",
			"type": "function"
		},
		{
			"inputs": [
				{
					"internalType": "uint256",
					"name": "tokenId",
					"type": "uint256"
				},
				{
					"internalType": "string",
					"name": "_tokenMetadataIPFSHash",
					"type": "string"
				}
			],
			"name": "updateMetadata",
			"outputs": [],
			"stateMutability": "nonpayable",
			"type": "function"
		},
		{
			"inputs": [
				{
					"internalType": "uint256[]",
					"name": "tokenIds",
					"type": "uint256[]"
				},
				{
					"internalType": "uint16",
					"name": "_deposit",
					"type": "uint16"
				},
				{
					"internalType": "uint16",
					"name": "_rentalPerDay",
					"type": "uint16"
				},
				{
					"internalType": "uint16",
					"name": "_minRentDays",
					"type": "uint16"
				},
				{
					"internalType": "uint32",
					"name": "_rentableUntil",
					"type": "uint32"
				}
			],
			"name": "updateRent",
			"outputs": [],
			"stateMutability": "nonpayable",
			"type": "function"
		},
		{
			"inputs": [
				{
					"internalType": "uint96",
					"name": "rate",
					"type": "uint96"
				}
			],
			"name": "updateRewards",
			"outputs": [],
			"stateMutability": "nonpayable",
			"type": "function"
		},
		{
			"inputs": [],
			"name": "version",
			"outputs": [
				{
					"internalType": "string",
					"name": "",
					"type": "string"
				}
			],
			"stateMutability": "view",
			"type": "function"
		},
		{
			"inputs": [
				{
					"internalType": "uint256",
					"name": "",
					"type": "uint256"
				}
			],
			"name": "worldInfo",
			"outputs": [
				{
					"internalType": "uint16",
					"name": "weight",
					"type": "uint16"
				},
				{
					"internalType": "address",
					"name": "owner",
					"type": "address"
				},
				{
					"internalType": "uint16",
					"name": "deposit",
					"type": "uint16"
				},
				{
					"internalType": "uint16",
					"name": "rentalPerDay",
					"type": "uint16"
				},
				{
					"internalType": "uint16",
					"name": "minRentDays",
					"type": "uint16"
				},
				{
					"internalType": "uint32",
					"name": "rentableUntil",
					"type": "uint32"
				}
			],
			"stateMutability": "view",
			"type": "function"
		},
		{
			"inputs": [
				{
					"internalType": "uint256",
					"name": "",
					"type": "uint256"
				}
			],
			"name": "worldRentInfo",
			"outputs": [
				{
					"internalType": "address",
					"name": "tenant",
					"type": "address"
				},
				{
					"internalType": "uint32",
					"name": "rentStartTime",
					"type": "uint32"
				},
				{
					"internalType": "uint32",
					"name": "rentalPaid",
					"type": "uint32"
				},
				{
					"internalType": "uint32",
					"name": "paymentAlert",
					"type": "uint32"
				}
			],
			"stateMutability": "view",
			"type": "function"
		}
	]
}