{
	"data": {
		"bytecode": {
			"linkReferences": {},
			"object": "60c06040523480156200001157600080fd5b50604051620024f4380380620024f4833981016040819052620000349162000323565b604080518082018252600a815269576f726c64566f74657360b01b6020808301918252835180850190945260068452651d9955d4931160d21b908401528151919291620000849160049162000260565b5080516200009a90600590602084019062000260565b50506001600755506001600160a01b038216620000e75760405162461bcd60e51b815260206004820152600660248201526506164647220360d41b60448201526064015b60405180910390fd5b6001600160a01b038116620001285760405162461bcd60e51b815260206004820152600660248201526506164647220360d41b6044820152606401620000de565b62000135600033620001ac565b620001617fb19546dff01e856fb3f010c267a7b1c60363cf8a4664e21cc89c26224620214e33620001ac565b6200018d7f8736816fdbcc15d6cc3f6dcf60e42b0ef33eb02281d312c807a38b4ad09190c082620001ac565b6001600160601b0319606092831b8116608052911b1660a05262000398565b620001b88282620001bc565b5050565b60008281526006602090815260408083206001600160a01b038516845290915290205460ff16620001b85760008281526006602090815260408083206001600160a01b03851684529091529020805460ff191660011790556200021c3390565b6001600160a01b0316816001600160a01b0316837f2f8788117e7eff1d82e926ec794901d17c78024a50270940304540a733656f0d60405160405180910390a45050565b8280546200026e906200035b565b90600052602060002090601f016020900481019282620002925760008555620002dd565b82601f10620002ad57805160ff1916838001178555620002dd565b82800160010185558215620002dd579182015b82811115620002dd578251825591602001919060010190620002c0565b50620002eb929150620002ef565b5090565b5b80821115620002eb5760008155600101620002f0565b80516001600160a01b03811681146200031e57600080fd5b919050565b600080604083850312156200033757600080fd5b620003428362000306565b9150620003526020840162000306565b90509250929050565b600181811c908216806200037057607f821691505b602082108114156200039257634e487b7160e01b600052602260045260246000fd5b50919050565b60805160601c60a05160601c61212c620003c860003960005050600081816108710152610d3e015261212c6000f3fe608060405234801561001057600080fd5b50600436106101da5760003560e01c806354fd4d50116101045780639a1e9c33116100a2578063a9059cbb11610071578063a9059cbb1461048d578063d547741f146104a0578063dd62ed3e146104b3578063fc196d08146104ec57600080fd5b80639a1e9c331461044c578063a217fddf1461045f578063a354f39e14610467578063a457c2d71461047a57600080fd5b806370a08231116100de57806370a08231146103f05780637e1a37861461041957806391d148541461043157806395d89b411461044457600080fd5b806354fd4d50146103a057806358ba9d27146103c15780635c2b21f61461029d57600080fd5b80631e83409a1161017c5780632f2ff15d1161014b5780632f2ff15d14610358578063313ce5671461036b57806336568abe1461037a578063395093511461038d57600080fd5b80631e83409a146102d757806323b872dd146102ea578063248a9ca3146102fd57806326ae2b781461032057600080fd5b8063095ea7b3116101b8578063095ea7b31461028a5780631074a2f01461029d57806310a0638a146102b257806318160ddd146102c557600080fd5b806301ffc9a7146101df57806306fdde03146102075780630700037d1461021c575b600080fd5b6101f26101ed366004611dc2565b610559565b60405190151581526020015b60405180910390f35b61020f610584565b6040516101fe9190611edb565b61025e61022a366004611c6f565b600a6020526000908152604090205463ffffffff8116906001600160601b03600160201b8204811691600160801b90041683565b6040805163ffffffff90941684526001600160601b0392831660208501529116908201526060016101fe565b6101f2610298366004611cf9565b610616565b6102b06102ab366004611d23565b61062c565b005b6102b06102c0366004611e2f565b610684565b6003545b6040519081526020016101fe565b6102b06102e5366004611c6f565b610822565b6101f26102f8366004611cbd565b6108d6565b6102c961030b366004611d86565b60009081526006602052604090206001015490565b60085461033b9063ffffffff80821691600160201b90041682565b6040805163ffffffff9384168152929091166020830152016101fe565b6102b0610366366004611d9f565b610980565b604051601281526020016101fe565b6102b0610388366004611d9f565b6109ab565b6101f261039b366004611cf9565b610a29565b6040805180820190915260058152640312e302e360dc1b602082015261020f565b6102c96103cf366004611c6f565b6001600160a01b03166000908152600a602052604090205463ffffffff1690565b6102c96103fe366004611c6f565b6001600160a01b031660009081526001602052604090205490565b600954600160a01b90046001600160601b03166102c9565b6101f261043f366004611d9f565b610a65565b61020f610a90565b6102c961045a366004611c6f565b610a9f565b6102c9600081565b6102b0610475366004611dec565b610c56565b6101f2610488366004611cf9565b610ed7565b6101f261049b366004611cf9565b610f70565b6102b06104ae366004611d9f565b610f7d565b6102c96104c1366004611c8a565b6001600160a01b03918216600090815260026020908152604080832093909416825291909152205490565b6009546105229063ffffffff808216916001600160601b03600160201b8204811692600160801b83041691600160a01b90041684565b6040805163ffffffff95861681526001600160601b03948516602082015294909216918401919091521660608201526080016101fe565b60006001600160e01b031982166351aa79cf60e11b148061057e575061057e82610fa3565b92915050565b60606004805461059390612068565b80601f01602080910402602001604051908101604052809291908181526020018280546105bf90612068565b801561060c5780601f106105e15761010080835404028352916020019161060c565b820191906000526020600020905b8154815290600101906020018083116105ef57829003601f168201915b5050505050905090565b6000610623338484610fd8565b50600192915050565b7f8736816fdbcc15d6cc3f6dcf60e42b0ef33eb02281d312c807a38b4ad09190c061065781336110fc565b61066961066383611160565b846111c8565b61067c8561067684611160565b856113df565b505050505050565b7fb19546dff01e856fb3f010c267a7b1c60363cf8a4664e21cc89c26224620214e6106af81336110fc565b666a94d74f430000826001600160601b03161180156106df57506801a055690d9db80000826001600160601b0316105b6107215760405162461bcd60e51b815260206004820152600e60248201526d14985d19481a5b98dbdc9c9958dd60921b60448201526064015b60405180910390fd5b60085463ffffffff1661073342611160565b63ffffffff161180156107625750600854600160201b900463ffffffff1661075a42611160565b63ffffffff16105b6107a35760405162461bcd60e51b815260206004820152601260248201527152657761726473206e6f742061637469766560701b6044820152606401610718565b600980546001600160a01b0316600160a01b6001600160601b038516908102919091179091556008546040805163ffffffff8084168252600160201b90930490921660208301528101919091527f7002fe256bf93307d98bb026fa5ff340a910a7fff410b4c7004cdc6ded69d34c906060015b60405180910390a15050565b61082d6000806111c8565b600061083b336000806113df565b336000908152600a6020526040902080546fffffffffffffffffffffffff00000000191690556001600160601b031690506108977f0000000000000000000000000000000000000000000000000000000000000000838361162c565b604080516001600160a01b0384168152602081018390527f106f923f993c2149d49b4255ff723acafa1f2d94393f561d3eda32ae348f72419101610816565b60006108e3848484611747565b6001600160a01b0384166000908152600260209081526040808320338452909152902054828110156109685760405162461bcd60e51b815260206004820152602860248201527f45524332303a207472616e7366657220616d6f756e74206578636565647320616044820152676c6c6f77616e636560c01b6064820152608401610718565b6109758533858403610fd8565b506001949350505050565b60008281526006602052604090206001015461099c81336110fc565b6109a68383611917565b505050565b6001600160a01b0381163314610a1b5760405162461bcd60e51b815260206004820152602f60248201527f416363657373436f6e74726f6c3a2063616e206f6e6c792072656e6f756e636560448201526e103937b632b9903337b91039b2b63360891b6064820152608401610718565b610a25828261199d565b5050565b3360008181526002602090815260408083206001600160a01b03871684529091528120549091610623918590610a60908690611f0e565b610fd8565b60009182526006602090815260408084206001600160a01b0393909316845291905290205460ff1690565b60606005805461059390612068565b6040805160808101825260095463ffffffff8082168352600160201b8083046001600160601b03908116602080870191909152600160801b808604851687890152600160a01b90950482166060808801919091528751808901895260085480871682528590048616818401526001600160a01b038a166000908152600a84528981208a519384018b525496871683529486048416928201929092529490930416948301949094529083610b5e610b5442611160565b8460200151611a04565b90506000846040015182610b729190611fe0565b63ffffffff1690508015610bf557845163ffffffff1615610be85784516060860151610bd99163ffffffff1690610bb2906001600160601b031684611f92565b610bbc9190611f70565b86602001516001600160601b0316610bd49190611f0e565b611a28565b6001600160601b031660208601525b63ffffffff821660408601525b82604001518560200151610c099190612005565b8351610c1b919063ffffffff16611fb1565b8360200151610c2a9190611f4e565b6001600160601b0390811660208086018290529690960151166040909301929092525091949350505050565b7fb19546dff01e856fb3f010c267a7b1c60363cf8a4664e21cc89c26224620214e610c8181336110fc565b8263ffffffff168463ffffffff161115610ccf5760405162461bcd60e51b815260206004820152600f60248201526e125b98dbdc9c9958dd081a5b9c1d5d608a1b6044820152606401610718565b666a94d74f430000826001600160601b0316118015610cff57506801a055690d9db80000826001600160601b0316105b610d3c5760405162461bcd60e51b815260206004820152600e60248201526d14985d19481a5b98dbdc9c9958dd60921b6044820152606401610718565b7f00000000000000000000000000000000000000000000000000000000000000006001600160a01b0316610daa5760405162461bcd60e51b815260206004820152601560248201527414995dd85c991cc81d1bdad95b881b9bdd081cd95d605a1b6044820152606401610718565b60085463ffffffff16610dbc42611160565b63ffffffff161080610dea5750600854600160201b900463ffffffff16610de242611160565b63ffffffff16115b610e2c5760405162461bcd60e51b815260206004820152601360248201527214995dd85c991cc8185b1c9958591e481cd95d606a1b6044820152606401610718565b6008805463ffffffff86811667ffffffffffffffff199092168217600160201b91871691820217909255600980546001600160801b0316600160801b83026001600160a01b031617600160a01b6001600160601b03871690810291909117909155604080519283526020830193909352918101919091527f95efd8a2a0aa591f48fd9673cf5d13c2150ca7a1fe1cbe438dd3f0ae47064663906060015b60405180910390a150505050565b3360009081526002602090815260408083206001600160a01b038616845290915281205482811015610f595760405162461bcd60e51b815260206004820152602560248201527f45524332303a2064656372656173656420616c6c6f77616e63652062656c6f77604482015264207a65726f60d81b6064820152608401610718565b610f663385858403610fd8565b5060019392505050565b6000610623338484611747565b600082815260066020526040902060010154610f9981336110fc565b6109a6838361199d565b60006001600160e01b03198216637965db0b60e01b148061057e57506301ffc9a760e01b6001600160e01b031983161461057e565b6001600160a01b03831661103a5760405162461bcd60e51b8152602060048201526024808201527f45524332303a20617070726f76652066726f6d20746865207a65726f206164646044820152637265737360e01b6064820152608401610718565b6001600160a01b03821661109b5760405162461bcd60e51b815260206004820152602260248201527f45524332303a20617070726f766520746f20746865207a65726f206164647265604482015261737360f01b6064820152608401610718565b6001600160a01b0383811660008181526002602090815260408083209487168084529482529182902085905590518481527f8c5be1e5ebec7d5bd14f71427d1e84f3dd0314c0f7b2291e5b200ac8c7c3b925910160405180910390a3505050565b6111068282610a65565b610a255761111e816001600160a01b03166014611a8c565b611129836020611a8c565b60405160200161113a929190611e66565b60408051601f198184030181529082905262461bcd60e51b825261071891600401611edb565b6000600160201b82106111c45760405162461bcd60e51b815260206004820152602660248201527f53616665436173743a2076616c756520646f65736e27742066697420696e203360448201526532206269747360d01b6064820152608401610718565b5090565b6040805160808101825260095463ffffffff8082168352600160201b8083046001600160601b03908116602080870191909152600160801b8504841686880152600160a01b90940416606085015284518086019095526008548083168087529190049091169184019190915290919061124042611160565b63ffffffff16106112f857600061126361125942611160565b8360200151611a04565b905060008360400151826112779190611fe0565b63ffffffff16905080156112f557835163ffffffff16156112e857835160608501516112d99163ffffffff16906112b7906001600160601b031684611f92565b6112c19190611f70565b85602001516001600160601b0316610bd49190611f0e565b6001600160601b031660208501525b63ffffffff821660408501525b50505b821561131e5783826000018181516113109190611f26565b63ffffffff1690525061133a565b83826000018181516113309190611fe0565b63ffffffff169052505b81516009805460208086015160408088015160608901516001600160601b03908116600160a01b026001600160a01b0363ffffffff938416600160801b02166001600160801b0392909516600160201b81026001600160801b0319909816939099169290921795909517949094169190911792909217909255519182527faac1802288db8019f8ec43430efc11a152c72473c57d6ddcde3b6dd0c89260679101610ec9565b6001600160a01b0383166000908152600a60209081526040808320815160608082018452915463ffffffff80821683526001600160601b03600160201b808404821685890152600160801b9384900482168588019081528751608081018952600954808616825292830484169981018a905294820490931696840196909652600160a01b9095049094169281019290925291519192909161147f91612005565b8251611491919063ffffffff16611fb1565b82602001516114a09190611f4e565b6001600160601b0390811660208085019190915282015116604083015283156114e35784826000018181516114d59190611f26565b63ffffffff169052506114ff565b84826000018181516114f59190611fe0565b63ffffffff169052505b6001600160a01b0386166000818152600a602090815260409182902085518154878401518886015163ffffffff9384166001600160801b031990931692909217600160201b6001600160601b0392831602176bffffffffffffffffffffffff60801b1916600160801b919092160217909155825188151581529089169181019190915242918101919091527fb1de227711aba68cec92891ccaabad9474a3f417d166ca8f57e7d616f467d3439060600160405180910390a27f5b9aaf4cc5141c090a75f8b8a627863eba92df81f0c83c096350da9b79aedd048683602001518460400151604051611617939291906001600160a01b039390931683526001600160601b03918216602084015216604082015260600190565b60405180910390a15060200151949350505050565b604080516001600160a01b038481166024830152604480830185905283518084039091018152606490920183526020820180516001600160e01b031663a9059cbb60e01b17905291516000928392908716916116889190611e4a565b6000604051808303816000865af19150503d80600081146116c5576040519150601f19603f3d011682016040523d82523d6000602084013e6116ca565b606091505b50915091508180156116f45750805115806116f45750808060200190518101906116f49190611d69565b6117405760405162461bcd60e51b815260206004820152601f60248201527f5472616e7366657248656c7065723a205452414e534645525f4641494c4544006044820152606401610718565b5050505050565b6001600160a01b0383166117ab5760405162461bcd60e51b815260206004820152602560248201527f45524332303a207472616e736665722066726f6d20746865207a65726f206164604482015264647265737360d81b6064820152608401610718565b6001600160a01b03821661180d5760405162461bcd60e51b815260206004820152602360248201527f45524332303a207472616e7366657220746f20746865207a65726f206164647260448201526265737360e81b6064820152608401610718565b6001600160a01b038316600090815260016020526040902054818110156118855760405162461bcd60e51b815260206004820152602660248201527f45524332303a207472616e7366657220616d6f756e7420657863656564732062604482015265616c616e636560d01b6064820152608401610718565b6001600160a01b038085166000908152600160205260408082208585039055918516815290812080548492906118bc908490611f0e565b92505081905550826001600160a01b0316846001600160a01b03167fddf252ad1be2c89b69c2b068fc378daa952ba7f163c4a11628f55a4df523b3ef8460405161190891815260200190565b60405180910390a35b50505050565b6119218282610a65565b610a255760008281526006602090815260408083206001600160a01b03851684529091529020805460ff191660011790556119593390565b6001600160a01b0316816001600160a01b0316837f2f8788117e7eff1d82e926ec794901d17c78024a50270940304540a733656f0d60405160405180910390a45050565b6119a78282610a65565b15610a255760008281526006602090815260408083206001600160a01b0385168085529252808320805460ff1916905551339285917ff6391f5c32d9c69d2a47ea670b442974b53935d1edc7fd64eb21e047a839171b9190a45050565b60008163ffffffff168363ffffffff1610611a1f5781611a21565b825b9392505050565b6000600160601b82106111c45760405162461bcd60e51b815260206004820152602660248201527f53616665436173743a2076616c756520646f65736e27742066697420696e203960448201526536206269747360d01b6064820152608401610718565b60606000611a9b836002611f92565b611aa6906002611f0e565b67ffffffffffffffff811115611abe57611abe6120cf565b6040519080825280601f01601f191660200182016040528015611ae8576020820181803683370190505b509050600360fc1b81600081518110611b0357611b036120b9565b60200101906001600160f81b031916908160001a905350600f60fb1b81600181518110611b3257611b326120b9565b60200101906001600160f81b031916908160001a9053506000611b56846002611f92565b611b61906001611f0e565b90505b6001811115611bd9576f181899199a1a9b1b9c1cb0b131b232b360811b85600f1660108110611b9557611b956120b9565b1a60f81b828281518110611bab57611bab6120b9565b60200101906001600160f81b031916908160001a90535060049490941c93611bd281612051565b9050611b64565b508315611a215760405162461bcd60e51b815260206004820181905260248201527f537472696e67733a20686578206c656e67746820696e73756666696369656e746044820152606401610718565b80356001600160a01b0381168114611c3f57600080fd5b919050565b803563ffffffff81168114611c3f57600080fd5b80356001600160601b0381168114611c3f57600080fd5b600060208284031215611c8157600080fd5b611a2182611c28565b60008060408385031215611c9d57600080fd5b611ca683611c28565b9150611cb460208401611c28565b90509250929050565b600080600060608486031215611cd257600080fd5b611cdb84611c28565b9250611ce960208501611c28565b9150604084013590509250925092565b60008060408385031215611d0c57600080fd5b611d1583611c28565b946020939093013593505050565b60008060008060808587031215611d3957600080fd5b611d4285611c28565b9350602085013592506040850135611d59816120e5565b9396929550929360600135925050565b600060208284031215611d7b57600080fd5b8151611a21816120e5565b600060208284031215611d9857600080fd5b5035919050565b60008060408385031215611db257600080fd5b82359150611cb460208401611c28565b600060208284031215611dd457600080fd5b81356001600160e01b031981168114611a2157600080fd5b600080600060608486031215611e0157600080fd5b611e0a84611c44565b9250611e1860208501611c44565b9150611e2660408501611c58565b90509250925092565b600060208284031215611e4157600080fd5b611a2182611c58565b60008251611e5c818460208701612025565b9190910192915050565b7f416363657373436f6e74726f6c3a206163636f756e7420000000000000000000815260008351611e9e816017850160208801612025565b7001034b99036b4b9b9b4b733903937b6329607d1b6017918401918201528351611ecf816028840160208801612025565b01602801949350505050565b6020815260008251806020840152611efa816040850160208701612025565b601f01601f19169190910160400192915050565b60008219821115611f2157611f216120a3565b500190565b600063ffffffff808316818516808303821115611f4557611f456120a3565b01949350505050565b60006001600160601b03808316818516808303821115611f4557611f456120a3565b600082611f8d57634e487b7160e01b600052601260045260246000fd5b500490565b6000816000190483118215151615611fac57611fac6120a3565b500290565b60006001600160601b0380831681851681830481118215151615611fd757611fd76120a3565b02949350505050565b600063ffffffff83811690831681811015611ffd57611ffd6120a3565b039392505050565b60006001600160601b0383811690831681811015611ffd57611ffd6120a3565b60005b83811015612040578181015183820152602001612028565b838111156119115750506000910152565b600081612060576120606120a3565b506000190190565b600181811c9082168061207c57607f821691505b6020821081141561209d57634e487b7160e01b600052602260045260246000fd5b50919050565b634e487b7160e01b600052601160045260246000fd5b634e487b7160e01b600052603260045260246000fd5b634e487b7160e01b600052604160045260246000fd5b80151581146120f357600080fd5b5056fea2646970667358221220cf4c820ee45cf791cb5cae54a3b9f05a1d59c62e34c8647d71ff1dd8b8308c9a64736f6c63430008070033",
			"opcodes": "PUSH1 0xC0 PUSH1 0x40 MSTORE CALLVALUE DUP1 ISZERO PUSH3 0x11 JUMPI PUSH1 0x0 DUP1 REVERT JUMPDEST POP PUSH1 0x40 MLOAD PUSH3 0x24F4 CODESIZE SUB DUP1 PUSH3 0x24F4 DUP4 CODECOPY DUP2 ADD PUSH1 0x40 DUP2 SWAP1 MSTORE PUSH3 0x34 SWAP2 PUSH3 0x323 JUMP JUMPDEST PUSH1 0x40 DUP1 MLOAD DUP1 DUP3 ADD DUP3 MSTORE PUSH1 0xA DUP2 MSTORE PUSH10 0x576F726C64566F746573 PUSH1 0xB0 SHL PUSH1 0x20 DUP1 DUP4 ADD SWAP2 DUP3 MSTORE DUP4 MLOAD DUP1 DUP6 ADD SWAP1 SWAP5 MSTORE PUSH1 0x6 DUP5 MSTORE PUSH6 0x1D9955D49311 PUSH1 0xD2 SHL SWAP1 DUP5 ADD MSTORE DUP2 MLOAD SWAP2 SWAP3 SWAP2 PUSH3 0x84 SWAP2 PUSH1 0x4 SWAP2 PUSH3 0x260 JUMP JUMPDEST POP DUP1 MLOAD PUSH3 0x9A SWAP1 PUSH1 0x5 SWAP1 PUSH1 0x20 DUP5 ADD SWAP1 PUSH3 0x260 JUMP JUMPDEST POP POP PUSH1 0x1 PUSH1 0x7 SSTORE POP PUSH1 0x1 PUSH1 0x1 PUSH1 0xA0 SHL SUB DUP3 AND PUSH3 0xE7 JUMPI PUSH1 0x40 MLOAD PUSH3 0x461BCD PUSH1 0xE5 SHL DUP2 MSTORE PUSH1 0x20 PUSH1 0x4 DUP3 ADD MSTORE PUSH1 0x6 PUSH1 0x24 DUP3 ADD MSTORE PUSH6 0x61646472203 PUSH1 0xD4 SHL PUSH1 0x44 DUP3 ADD MSTORE PUSH1 0x64 ADD JUMPDEST PUSH1 0x40 MLOAD DUP1 SWAP2 SUB SWAP1 REVERT JUMPDEST PUSH1 0x1 PUSH1 0x1 PUSH1 0xA0 SHL SUB DUP2 AND PUSH3 0x128 JUMPI PUSH1 0x40 MLOAD PUSH3 0x461BCD PUSH1 0xE5 SHL DUP2 MSTORE PUSH1 0x20 PUSH1 0x4 DUP3 ADD MSTORE PUSH1 0x6 PUSH1 0x24 DUP3 ADD MSTORE PUSH6 0x61646472203 PUSH1 0xD4 SHL PUSH1 0x44 DUP3 ADD MSTORE PUSH1 0x64 ADD PUSH3 0xDE JUMP JUMPDEST PUSH3 0x135 PUSH1 0x0 CALLER PUSH3 0x1AC JUMP JUMPDEST PUSH3 0x161 PUSH32 0xB19546DFF01E856FB3F010C267A7B1C60363CF8A4664E21CC89C26224620214E CALLER PUSH3 0x1AC JUMP JUMPDEST PUSH3 0x18D PUSH32 0x8736816FDBCC15D6CC3F6DCF60E42B0EF33EB02281D312C807A38B4AD09190C0 DUP3 PUSH3 0x1AC JUMP JUMPDEST PUSH1 0x1 PUSH1 0x1 PUSH1 0x60 SHL SUB NOT PUSH1 0x60 SWAP3 DUP4 SHL DUP2 AND PUSH1 0x80 MSTORE SWAP2 SHL AND PUSH1 0xA0 MSTORE PUSH3 0x398 JUMP JUMPDEST PUSH3 0x1B8 DUP3 DUP3 PUSH3 0x1BC JUMP JUMPDEST POP POP JUMP JUMPDEST PUSH1 0x0 DUP3 DUP2 MSTORE PUSH1 0x6 PUSH1 0x20 SWAP1 DUP2 MSTORE PUSH1 0x40 DUP1 DUP4 KECCAK256 PUSH1 0x1 PUSH1 0x1 PUSH1 0xA0 SHL SUB DUP6 AND DUP5 MSTORE SWAP1 SWAP2 MSTORE SWAP1 KECCAK256 SLOAD PUSH1 0xFF AND PUSH3 0x1B8 JUMPI PUSH1 0x0 DUP3 DUP2 MSTORE PUSH1 0x6 PUSH1 0x20 SWAP1 DUP2 MSTORE PUSH1 0x40 DUP1 DUP4 KECCAK256 PUSH1 0x1 PUSH1 0x1 PUSH1 0xA0 SHL SUB DUP6 AND DUP5 MSTORE SWAP1 SWAP2 MSTORE SWAP1 KECCAK256 DUP1 SLOAD PUSH1 0xFF NOT AND PUSH1 0x1 OR SWAP1 SSTORE PUSH3 0x21C CALLER SWAP1 JUMP JUMPDEST PUSH1 0x1 PUSH1 0x1 PUSH1 0xA0 SHL SUB AND DUP2 PUSH1 0x1 PUSH1 0x1 PUSH1 0xA0 SHL SUB AND DUP4 PUSH32 0x2F8788117E7EFF1D82E926EC794901D17C78024A50270940304540A733656F0D PUSH1 0x40 MLOAD PUSH1 0x40 MLOAD DUP1 SWAP2 SUB SWAP1 LOG4 POP POP JUMP JUMPDEST DUP3 DUP1 SLOAD PUSH3 0x26E SWAP1 PUSH3 0x35B JUMP JUMPDEST SWAP1 PUSH1 0x0 MSTORE PUSH1 0x20 PUSH1 0x0 KECCAK256 SWAP1 PUSH1 0x1F ADD PUSH1 0x20 SWAP1 DIV DUP2 ADD SWAP3 DUP3 PUSH3 0x292 JUMPI PUSH1 0x0 DUP6 SSTORE PUSH3 0x2DD JUMP JUMPDEST DUP3 PUSH1 0x1F LT PUSH3 0x2AD JUMPI DUP1 MLOAD PUSH1 0xFF NOT AND DUP4 DUP1 ADD OR DUP6 SSTORE PUSH3 0x2DD JUMP JUMPDEST DUP3 DUP1 ADD PUSH1 0x1 ADD DUP6 SSTORE DUP3 ISZERO PUSH3 0x2DD JUMPI SWAP2 DUP3 ADD JUMPDEST DUP3 DUP2 GT ISZERO PUSH3 0x2DD JUMPI DUP3 MLOAD DUP3 SSTORE SWAP2 PUSH1 0x20 ADD SWAP2 SWAP1 PUSH1 0x1 ADD SWAP1 PUSH3 0x2C0 JUMP JUMPDEST POP PUSH3 0x2EB SWAP3 SWAP2 POP PUSH3 0x2EF JUMP JUMPDEST POP SWAP1 JUMP JUMPDEST JUMPDEST DUP1 DUP3 GT ISZERO PUSH3 0x2EB JUMPI PUSH1 0x0 DUP2 SSTORE PUSH1 0x1 ADD PUSH3 0x2F0 JUMP JUMPDEST DUP1 MLOAD PUSH1 0x1 PUSH1 0x1 PUSH1 0xA0 SHL SUB DUP2 AND DUP2 EQ PUSH3 0x31E JUMPI PUSH1 0x0 DUP1 REVERT JUMPDEST SWAP2 SWAP1 POP JUMP JUMPDEST PUSH1 0x0 DUP1 PUSH1 0x40 DUP4 DUP6 SUB SLT ISZERO PUSH3 0x337 JUMPI PUSH1 0x0 DUP1 REVERT JUMPDEST PUSH3 0x342 DUP4 PUSH3 0x306 JUMP JUMPDEST SWAP2 POP PUSH3 0x352 PUSH1 0x20 DUP5 ADD PUSH3 0x306 JUMP JUMPDEST SWAP1 POP SWAP3 POP SWAP3 SWAP1 POP JUMP JUMPDEST PUSH1 0x1 DUP2 DUP2 SHR SWAP1 DUP3 AND DUP1 PUSH3 0x370 JUMPI PUSH1 0x7F DUP3 AND SWAP2 POP JUMPDEST PUSH1 0x20 DUP3 LT DUP2 EQ ISZERO PUSH3 0x392 JUMPI PUSH4 0x4E487B71 PUSH1 0xE0 SHL PUSH1 0x0 MSTORE PUSH1 0x22 PUSH1 0x4 MSTORE PUSH1 0x24 PUSH1 0x0 REVERT JUMPDEST POP SWAP2 SWAP1 POP JUMP JUMPDEST PUSH1 0x80 MLOAD PUSH1 0x60 SHR PUSH1 0xA0 MLOAD PUSH1 0x60 SHR PUSH2 0x212C PUSH3 0x3C8 PUSH1 0x0 CODECOPY PUSH1 0x0 POP POP PUSH1 0x0 DUP2 DUP2 PUSH2 0x871 ADD MSTORE PUSH2 0xD3E ADD MSTORE PUSH2 0x212C PUSH1 0x0 RETURN INVALID PUSH1 0x80 PUSH1 0x40 MSTORE CALLVALUE DUP1 ISZERO PUSH2 0x10 JUMPI PUSH1 0x0 DUP1 REVERT JUMPDEST POP PUSH1 0x4 CALLDATASIZE LT PUSH2 0x1DA JUMPI PUSH1 0x0 CALLDATALOAD PUSH1 0xE0 SHR DUP1 PUSH4 0x54FD4D50 GT PUSH2 0x104 JUMPI DUP1 PUSH4 0x9A1E9C33 GT PUSH2 0xA2 JUMPI DUP1 PUSH4 0xA9059CBB GT PUSH2 0x71 JUMPI DUP1 PUSH4 0xA9059CBB EQ PUSH2 0x48D JUMPI DUP1 PUSH4 0xD547741F EQ PUSH2 0x4A0 JUMPI DUP1 PUSH4 0xDD62ED3E EQ PUSH2 0x4B3 JUMPI DUP1 PUSH4 0xFC196D08 EQ PUSH2 0x4EC JUMPI PUSH1 0x0 DUP1 REVERT JUMPDEST DUP1 PUSH4 0x9A1E9C33 EQ PUSH2 0x44C JUMPI DUP1 PUSH4 0xA217FDDF EQ PUSH2 0x45F JUMPI DUP1 PUSH4 0xA354F39E EQ PUSH2 0x467 JUMPI DUP1 PUSH4 0xA457C2D7 EQ PUSH2 0x47A JUMPI PUSH1 0x0 DUP1 REVERT JUMPDEST DUP1 PUSH4 0x70A08231 GT PUSH2 0xDE JUMPI DUP1 PUSH4 0x70A08231 EQ PUSH2 0x3F0 JUMPI DUP1 PUSH4 0x7E1A3786 EQ PUSH2 0x419 JUMPI DUP1 PUSH4 0x91D14854 EQ PUSH2 0x431 JUMPI DUP1 PUSH4 0x95D89B41 EQ PUSH2 0x444 JUMPI PUSH1 0x0 DUP1 REVERT JUMPDEST DUP1 PUSH4 0x54FD4D50 EQ PUSH2 0x3A0 JUMPI DUP1 PUSH4 0x58BA9D27 EQ PUSH2 0x3C1 JUMPI DUP1 PUSH4 0x5C2B21F6 EQ PUSH2 0x29D JUMPI PUSH1 0x0 DUP1 REVERT JUMPDEST DUP1 PUSH4 0x1E83409A GT PUSH2 0x17C JUMPI DUP1 PUSH4 0x2F2FF15D GT PUSH2 0x14B JUMPI DUP1 PUSH4 0x2F2FF15D EQ PUSH2 0x358 JUMPI DUP1 PUSH4 0x313CE567 EQ PUSH2 0x36B JUMPI DUP1 PUSH4 0x36568ABE EQ PUSH2 0x37A JUMPI DUP1 PUSH4 0x39509351 EQ PUSH2 0x38D JUMPI PUSH1 0x0 DUP1 REVERT JUMPDEST DUP1 PUSH4 0x1E83409A EQ PUSH2 0x2D7 JUMPI DUP1 PUSH4 0x23B872DD EQ PUSH2 0x2EA JUMPI DUP1 PUSH4 0x248A9CA3 EQ PUSH2 0x2FD JUMPI DUP1 PUSH4 0x26AE2B78 EQ PUSH2 0x320 JUMPI PUSH1 0x0 DUP1 REVERT JUMPDEST DUP1 PUSH4 0x95EA7B3 GT PUSH2 0x1B8 JUMPI DUP1 PUSH4 0x95EA7B3 EQ PUSH2 0x28A JUMPI DUP1 PUSH4 0x1074A2F0 EQ PUSH2 0x29D JUMPI DUP1 PUSH4 0x10A0638A EQ PUSH2 0x2B2 JUMPI DUP1 PUSH4 0x18160DDD EQ PUSH2 0x2C5 JUMPI PUSH1 0x0 DUP1 REVERT JUMPDEST DUP1 PUSH4 0x1FFC9A7 EQ PUSH2 0x1DF JUMPI DUP1 PUSH4 0x6FDDE03 EQ PUSH2 0x207 JUMPI DUP1 PUSH4 0x700037D EQ PUSH2 0x21C JUMPI JUMPDEST PUSH1 0x0 DUP1 REVERT JUMPDEST PUSH2 0x1F2 PUSH2 0x1ED CALLDATASIZE PUSH1 0x4 PUSH2 0x1DC2 JUMP JUMPDEST PUSH2 0x559 JUMP JUMPDEST PUSH1 0x40 MLOAD SWAP1 ISZERO ISZERO DUP2 MSTORE PUSH1 0x20 ADD JUMPDEST PUSH1 0x40 MLOAD DUP1 SWAP2 SUB SWAP1 RETURN JUMPDEST PUSH2 0x20F PUSH2 0x584 JUMP JUMPDEST PUSH1 0x40 MLOAD PUSH2 0x1FE SWAP2 SWAP1 PUSH2 0x1EDB JUMP JUMPDEST PUSH2 0x25E PUSH2 0x22A CALLDATASIZE PUSH1 0x4 PUSH2 0x1C6F JUMP JUMPDEST PUSH1 0xA PUSH1 0x20 MSTORE PUSH1 0x0 SWAP1 DUP2 MSTORE PUSH1 0x40 SWAP1 KECCAK256 SLOAD PUSH4 0xFFFFFFFF DUP2 AND SWAP1 PUSH1 0x1 PUSH1 0x1 PUSH1 0x60 SHL SUB PUSH1 0x1 PUSH1 0x20 SHL DUP3 DIV DUP2 AND SWAP2 PUSH1 0x1 PUSH1 0x80 SHL SWAP1 DIV AND DUP4 JUMP JUMPDEST PUSH1 0x40 DUP1 MLOAD PUSH4 0xFFFFFFFF SWAP1 SWAP5 AND DUP5 MSTORE PUSH1 0x1 PUSH1 0x1 PUSH1 0x60 SHL SUB SWAP3 DUP4 AND PUSH1 0x20 DUP6 ADD MSTORE SWAP2 AND SWAP1 DUP3 ADD MSTORE PUSH1 0x60 ADD PUSH2 0x1FE JUMP JUMPDEST PUSH2 0x1F2 PUSH2 0x298 CALLDATASIZE PUSH1 0x4 PUSH2 0x1CF9 JUMP JUMPDEST PUSH2 0x616 JUMP JUMPDEST PUSH2 0x2B0 PUSH2 0x2AB CALLDATASIZE PUSH1 0x4 PUSH2 0x1D23 JUMP JUMPDEST PUSH2 0x62C JUMP JUMPDEST STOP JUMPDEST PUSH2 0x2B0 PUSH2 0x2C0 CALLDATASIZE PUSH1 0x4 PUSH2 0x1E2F JUMP JUMPDEST PUSH2 0x684 JUMP JUMPDEST PUSH1 0x3 SLOAD JUMPDEST PUSH1 0x40 MLOAD SWAP1 DUP2 MSTORE PUSH1 0x20 ADD PUSH2 0x1FE JUMP JUMPDEST PUSH2 0x2B0 PUSH2 0x2E5 CALLDATASIZE PUSH1 0x4 PUSH2 0x1C6F JUMP JUMPDEST PUSH2 0x822 JUMP JUMPDEST PUSH2 0x1F2 PUSH2 0x2F8 CALLDATASIZE PUSH1 0x4 PUSH2 0x1CBD JUMP JUMPDEST PUSH2 0x8D6 JUMP JUMPDEST PUSH2 0x2C9 PUSH2 0x30B CALLDATASIZE PUSH1 0x4 PUSH2 0x1D86 JUMP JUMPDEST PUSH1 0x0 SWAP1 DUP2 MSTORE PUSH1 0x6 PUSH1 0x20 MSTORE PUSH1 0x40 SWAP1 KECCAK256 PUSH1 0x1 ADD SLOAD SWAP1 JUMP JUMPDEST PUSH1 0x8 SLOAD PUSH2 0x33B SWAP1 PUSH4 0xFFFFFFFF DUP1 DUP3 AND SWAP2 PUSH1 0x1 PUSH1 0x20 SHL SWAP1 DIV AND DUP3 JUMP JUMPDEST PUSH1 0x40 DUP1 MLOAD PUSH4 0xFFFFFFFF SWAP4 DUP5 AND DUP2 MSTORE SWAP3 SWAP1 SWAP2 AND PUSH1 0x20 DUP4 ADD MSTORE ADD PUSH2 0x1FE JUMP JUMPDEST PUSH2 0x2B0 PUSH2 0x366 CALLDATASIZE PUSH1 0x4 PUSH2 0x1D9F JUMP JUMPDEST PUSH2 0x980 JUMP JUMPDEST PUSH1 0x40 MLOAD PUSH1 0x12 DUP2 MSTORE PUSH1 0x20 ADD PUSH2 0x1FE JUMP JUMPDEST PUSH2 0x2B0 PUSH2 0x388 CALLDATASIZE PUSH1 0x4 PUSH2 0x1D9F JUMP JUMPDEST PUSH2 0x9AB JUMP JUMPDEST PUSH2 0x1F2 PUSH2 0x39B CALLDATASIZE PUSH1 0x4 PUSH2 0x1CF9 JUMP JUMPDEST PUSH2 0xA29 JUMP JUMPDEST PUSH1 0x40 DUP1 MLOAD DUP1 DUP3 ADD SWAP1 SWAP2 MSTORE PUSH1 0x5 DUP2 MSTORE PUSH5 0x312E302E3 PUSH1 0xDC SHL PUSH1 0x20 DUP3 ADD MSTORE PUSH2 0x20F JUMP JUMPDEST PUSH2 0x2C9 PUSH2 0x3CF CALLDATASIZE PUSH1 0x4 PUSH2 0x1C6F JUMP JUMPDEST PUSH1 0x1 PUSH1 0x1 PUSH1 0xA0 SHL SUB AND PUSH1 0x0 SWAP1 DUP2 MSTORE PUSH1 0xA PUSH1 0x20 MSTORE PUSH1 0x40 SWAP1 KECCAK256 SLOAD PUSH4 0xFFFFFFFF AND SWAP1 JUMP JUMPDEST PUSH2 0x2C9 PUSH2 0x3FE CALLDATASIZE PUSH1 0x4 PUSH2 0x1C6F JUMP JUMPDEST PUSH1 0x1 PUSH1 0x1 PUSH1 0xA0 SHL SUB AND PUSH1 0x0 SWAP1 DUP2 MSTORE PUSH1 0x1 PUSH1 0x20 MSTORE PUSH1 0x40 SWAP1 KECCAK256 SLOAD SWAP1 JUMP JUMPDEST PUSH1 0x9 SLOAD PUSH1 0x1 PUSH1 0xA0 SHL SWAP1 DIV PUSH1 0x1 PUSH1 0x1 PUSH1 0x60 SHL SUB AND PUSH2 0x2C9 JUMP JUMPDEST PUSH2 0x1F2 PUSH2 0x43F CALLDATASIZE PUSH1 0x4 PUSH2 0x1D9F JUMP JUMPDEST PUSH2 0xA65 JUMP JUMPDEST PUSH2 0x20F PUSH2 0xA90 JUMP JUMPDEST PUSH2 0x2C9 PUSH2 0x45A CALLDATASIZE PUSH1 0x4 PUSH2 0x1C6F JUMP JUMPDEST PUSH2 0xA9F JUMP JUMPDEST PUSH2 0x2C9 PUSH1 0x0 DUP2 JUMP JUMPDEST PUSH2 0x2B0 PUSH2 0x475 CALLDATASIZE PUSH1 0x4 PUSH2 0x1DEC JUMP JUMPDEST PUSH2 0xC56 JUMP JUMPDEST PUSH2 0x1F2 PUSH2 0x488 CALLDATASIZE PUSH1 0x4 PUSH2 0x1CF9 JUMP JUMPDEST PUSH2 0xED7 JUMP JUMPDEST PUSH2 0x1F2 PUSH2 0x49B CALLDATASIZE PUSH1 0x4 PUSH2 0x1CF9 JUMP JUMPDEST PUSH2 0xF70 JUMP JUMPDEST PUSH2 0x2B0 PUSH2 0x4AE CALLDATASIZE PUSH1 0x4 PUSH2 0x1D9F JUMP JUMPDEST PUSH2 0xF7D JUMP JUMPDEST PUSH2 0x2C9 PUSH2 0x4C1 CALLDATASIZE PUSH1 0x4 PUSH2 0x1C8A JUMP JUMPDEST PUSH1 0x1 PUSH1 0x1 PUSH1 0xA0 SHL SUB SWAP2 DUP3 AND PUSH1 0x0 SWAP1 DUP2 MSTORE PUSH1 0x2 PUSH1 0x20 SWAP1 DUP2 MSTORE PUSH1 0x40 DUP1 DUP4 KECCAK256 SWAP4 SWAP1 SWAP5 AND DUP3 MSTORE SWAP2 SWAP1 SWAP2 MSTORE KECCAK256 SLOAD SWAP1 JUMP JUMPDEST PUSH1 0x9 SLOAD PUSH2 0x522 SWAP1 PUSH4 0xFFFFFFFF DUP1 DUP3 AND SWAP2 PUSH1 0x1 PUSH1 0x1 PUSH1 0x60 SHL SUB PUSH1 0x1 PUSH1 0x20 SHL DUP3 DIV DUP2 AND SWAP3 PUSH1 0x1 PUSH1 0x80 SHL DUP4 DIV AND SWAP2 PUSH1 0x1 PUSH1 0xA0 SHL SWAP1 DIV AND DUP5 JUMP JUMPDEST PUSH1 0x40 DUP1 MLOAD PUSH4 0xFFFFFFFF SWAP6 DUP7 AND DUP2 MSTORE PUSH1 0x1 PUSH1 0x1 PUSH1 0x60 SHL SUB SWAP5 DUP6 AND PUSH1 0x20 DUP3 ADD MSTORE SWAP5 SWAP1 SWAP3 AND SWAP2 DUP5 ADD SWAP2 SWAP1 SWAP2 MSTORE AND PUSH1 0x60 DUP3 ADD MSTORE PUSH1 0x80 ADD PUSH2 0x1FE JUMP JUMPDEST PUSH1 0x0 PUSH1 0x1 PUSH1 0x1 PUSH1 0xE0 SHL SUB NOT DUP3 AND PUSH4 0x51AA79CF PUSH1 0xE1 SHL EQ DUP1 PUSH2 0x57E JUMPI POP PUSH2 0x57E DUP3 PUSH2 0xFA3 JUMP JUMPDEST SWAP3 SWAP2 POP POP JUMP JUMPDEST PUSH1 0x60 PUSH1 0x4 DUP1 SLOAD PUSH2 0x593 SWAP1 PUSH2 0x2068 JUMP JUMPDEST DUP1 PUSH1 0x1F ADD PUSH1 0x20 DUP1 SWAP2 DIV MUL PUSH1 0x20 ADD PUSH1 0x40 MLOAD SWAP1 DUP2 ADD PUSH1 0x40 MSTORE DUP1 SWAP3 SWAP2 SWAP1 DUP2 DUP2 MSTORE PUSH1 0x20 ADD DUP3 DUP1 SLOAD PUSH2 0x5BF SWAP1 PUSH2 0x2068 JUMP JUMPDEST DUP1 ISZERO PUSH2 0x60C JUMPI DUP1 PUSH1 0x1F LT PUSH2 0x5E1 JUMPI PUSH2 0x100 DUP1 DUP4 SLOAD DIV MUL DUP4 MSTORE SWAP2 PUSH1 0x20 ADD SWAP2 PUSH2 0x60C JUMP JUMPDEST DUP3 ADD SWAP2 SWAP1 PUSH1 0x0 MSTORE PUSH1 0x20 PUSH1 0x0 KECCAK256 SWAP1 JUMPDEST DUP2 SLOAD DUP2 MSTORE SWAP1 PUSH1 0x1 ADD SWAP1 PUSH1 0x20 ADD DUP1 DUP4 GT PUSH2 0x5EF JUMPI DUP3 SWAP1 SUB PUSH1 0x1F AND DUP3 ADD SWAP2 JUMPDEST POP POP POP POP POP SWAP1 POP SWAP1 JUMP JUMPDEST PUSH1 0x0 PUSH2 0x623 CALLER DUP5 DUP5 PUSH2 0xFD8 JUMP JUMPDEST POP PUSH1 0x1 SWAP3 SWAP2 POP POP JUMP JUMPDEST PUSH32 0x8736816FDBCC15D6CC3F6DCF60E42B0EF33EB02281D312C807A38B4AD09190C0 PUSH2 0x657 DUP2 CALLER PUSH2 0x10FC JUMP JUMPDEST PUSH2 0x669 PUSH2 0x663 DUP4 PUSH2 0x1160 JUMP JUMPDEST DUP5 PUSH2 0x11C8 JUMP JUMPDEST PUSH2 0x67C DUP6 PUSH2 0x676 DUP5 PUSH2 0x1160 JUMP JUMPDEST DUP6 PUSH2 0x13DF JUMP JUMPDEST POP POP POP POP POP POP JUMP JUMPDEST PUSH32 0xB19546DFF01E856FB3F010C267A7B1C60363CF8A4664E21CC89C26224620214E PUSH2 0x6AF DUP2 CALLER PUSH2 0x10FC JUMP JUMPDEST PUSH7 0x6A94D74F430000 DUP3 PUSH1 0x1 PUSH1 0x1 PUSH1 0x60 SHL SUB AND GT DUP1 ISZERO PUSH2 0x6DF JUMPI POP PUSH9 0x1A055690D9DB80000 DUP3 PUSH1 0x1 PUSH1 0x1 PUSH1 0x60 SHL SUB AND LT JUMPDEST PUSH2 0x721 JUMPI PUSH1 0x40 MLOAD PUSH3 0x461BCD PUSH1 0xE5 SHL DUP2 MSTORE PUSH1 0x20 PUSH1 0x4 DUP3 ADD MSTORE PUSH1 0xE PUSH1 0x24 DUP3 ADD MSTORE PUSH14 0x14985D19481A5B98DBDC9C9958DD PUSH1 0x92 SHL PUSH1 0x44 DUP3 ADD MSTORE PUSH1 0x64 ADD JUMPDEST PUSH1 0x40 MLOAD DUP1 SWAP2 SUB SWAP1 REVERT JUMPDEST PUSH1 0x8 SLOAD PUSH4 0xFFFFFFFF AND PUSH2 0x733 TIMESTAMP PUSH2 0x1160 JUMP JUMPDEST PUSH4 0xFFFFFFFF AND GT DUP1 ISZERO PUSH2 0x762 JUMPI POP PUSH1 0x8 SLOAD PUSH1 0x1 PUSH1 0x20 SHL SWAP1 DIV PUSH4 0xFFFFFFFF AND PUSH2 0x75A TIMESTAMP PUSH2 0x1160 JUMP JUMPDEST PUSH4 0xFFFFFFFF AND LT JUMPDEST PUSH2 0x7A3 JUMPI PUSH1 0x40 MLOAD PUSH3 0x461BCD PUSH1 0xE5 SHL DUP2 MSTORE PUSH1 0x20 PUSH1 0x4 DUP3 ADD MSTORE PUSH1 0x12 PUSH1 0x24 DUP3 ADD MSTORE PUSH18 0x52657761726473206E6F7420616374697665 PUSH1 0x70 SHL PUSH1 0x44 DUP3 ADD MSTORE PUSH1 0x64 ADD PUSH2 0x718 JUMP JUMPDEST PUSH1 0x9 DUP1 SLOAD PUSH1 0x1 PUSH1 0x1 PUSH1 0xA0 SHL SUB AND PUSH1 0x1 PUSH1 0xA0 SHL PUSH1 0x1 PUSH1 0x1 PUSH1 0x60 SHL SUB DUP6 AND SWAP1 DUP2 MUL SWAP2 SWAP1 SWAP2 OR SWAP1 SWAP2 SSTORE PUSH1 0x8 SLOAD PUSH1 0x40 DUP1 MLOAD PUSH4 0xFFFFFFFF DUP1 DUP5 AND DUP3 MSTORE PUSH1 0x1 PUSH1 0x20 SHL SWAP1 SWAP4 DIV SWAP1 SWAP3 AND PUSH1 0x20 DUP4 ADD MSTORE DUP2 ADD SWAP2 SWAP1 SWAP2 MSTORE PUSH32 0x7002FE256BF93307D98BB026FA5FF340A910A7FFF410B4C7004CDC6DED69D34C SWAP1 PUSH1 0x60 ADD JUMPDEST PUSH1 0x40 MLOAD DUP1 SWAP2 SUB SWAP1 LOG1 POP POP JUMP JUMPDEST PUSH2 0x82D PUSH1 0x0 DUP1 PUSH2 0x11C8 JUMP JUMPDEST PUSH1 0x0 PUSH2 0x83B CALLER PUSH1 0x0 DUP1 PUSH2 0x13DF JUMP JUMPDEST CALLER PUSH1 0x0 SWAP1 DUP2 MSTORE PUSH1 0xA PUSH1 0x20 MSTORE PUSH1 0x40 SWAP1 KECCAK256 DUP1 SLOAD PUSH16 0xFFFFFFFFFFFFFFFFFFFFFFFF00000000 NOT AND SWAP1 SSTORE PUSH1 0x1 PUSH1 0x1 PUSH1 0x60 SHL SUB AND SWAP1 POP PUSH2 0x897 PUSH32 0x0 DUP4 DUP4 PUSH2 0x162C JUMP JUMPDEST PUSH1 0x40 DUP1 MLOAD PUSH1 0x1 PUSH1 0x1 PUSH1 0xA0 SHL SUB DUP5 AND DUP2 MSTORE PUSH1 0x20 DUP2 ADD DUP4 SWAP1 MSTORE PUSH32 0x106F923F993C2149D49B4255FF723ACAFA1F2D94393F561D3EDA32AE348F7241 SWAP2 ADD PUSH2 0x816 JUMP JUMPDEST PUSH1 0x0 PUSH2 0x8E3 DUP5 DUP5 DUP5 PUSH2 0x1747 JUMP JUMPDEST PUSH1 0x1 PUSH1 0x1 PUSH1 0xA0 SHL SUB DUP5 AND PUSH1 0x0 SWAP1 DUP2 MSTORE PUSH1 0x2 PUSH1 0x20 SWAP1 DUP2 MSTORE PUSH1 0x40 DUP1 DUP4 KECCAK256 CALLER DUP5 MSTORE SWAP1 SWAP2 MSTORE SWAP1 KECCAK256 SLOAD DUP3 DUP2 LT ISZERO PUSH2 0x968 JUMPI PUSH1 0x40 MLOAD PUSH3 0x461BCD PUSH1 0xE5 SHL DUP2 MSTORE PUSH1 0x20 PUSH1 0x4 DUP3 ADD MSTORE PUSH1 0x28 PUSH1 0x24 DUP3 ADD MSTORE PUSH32 0x45524332303A207472616E7366657220616D6F756E7420657863656564732061 PUSH1 0x44 DUP3 ADD MSTORE PUSH8 0x6C6C6F77616E6365 PUSH1 0xC0 SHL PUSH1 0x64 DUP3 ADD MSTORE PUSH1 0x84 ADD PUSH2 0x718 JUMP JUMPDEST PUSH2 0x975 DUP6 CALLER DUP6 DUP5 SUB PUSH2 0xFD8 JUMP JUMPDEST POP PUSH1 0x1 SWAP5 SWAP4 POP POP POP POP JUMP JUMPDEST PUSH1 0x0 DUP3 DUP2 MSTORE PUSH1 0x6 PUSH1 0x20 MSTORE PUSH1 0x40 SWAP1 KECCAK256 PUSH1 0x1 ADD SLOAD PUSH2 0x99C DUP2 CALLER PUSH2 0x10FC JUMP JUMPDEST PUSH2 0x9A6 DUP4 DUP4 PUSH2 0x1917 JUMP JUMPDEST POP POP POP JUMP JUMPDEST PUSH1 0x1 PUSH1 0x1 PUSH1 0xA0 SHL SUB DUP2 AND CALLER EQ PUSH2 0xA1B JUMPI PUSH1 0x40 MLOAD PUSH3 0x461BCD PUSH1 0xE5 SHL DUP2 MSTORE PUSH1 0x20 PUSH1 0x4 DUP3 ADD MSTORE PUSH1 0x2F PUSH1 0x24 DUP3 ADD MSTORE PUSH32 0x416363657373436F6E74726F6C3A2063616E206F6E6C792072656E6F756E6365 PUSH1 0x44 DUP3 ADD MSTORE PUSH15 0x103937B632B9903337B91039B2B633 PUSH1 0x89 SHL PUSH1 0x64 DUP3 ADD MSTORE PUSH1 0x84 ADD PUSH2 0x718 JUMP JUMPDEST PUSH2 0xA25 DUP3 DUP3 PUSH2 0x199D JUMP JUMPDEST POP POP JUMP JUMPDEST CALLER PUSH1 0x0 DUP2 DUP2 MSTORE PUSH1 0x2 PUSH1 0x20 SWAP1 DUP2 MSTORE PUSH1 0x40 DUP1 DUP4 KECCAK256 PUSH1 0x1 PUSH1 0x1 PUSH1 0xA0 SHL SUB DUP8 AND DUP5 MSTORE SWAP1 SWAP2 MSTORE DUP2 KECCAK256 SLOAD SWAP1 SWAP2 PUSH2 0x623 SWAP2 DUP6 SWAP1 PUSH2 0xA60 SWAP1 DUP7 SWAP1 PUSH2 0x1F0E JUMP JUMPDEST PUSH2 0xFD8 JUMP JUMPDEST PUSH1 0x0 SWAP2 DUP3 MSTORE PUSH1 0x6 PUSH1 0x20 SWAP1 DUP2 MSTORE PUSH1 0x40 DUP1 DUP5 KECCAK256 PUSH1 0x1 PUSH1 0x1 PUSH1 0xA0 SHL SUB SWAP4 SWAP1 SWAP4 AND DUP5 MSTORE SWAP2 SWAP1 MSTORE SWAP1 KECCAK256 SLOAD PUSH1 0xFF AND SWAP1 JUMP JUMPDEST PUSH1 0x60 PUSH1 0x5 DUP1 SLOAD PUSH2 0x593 SWAP1 PUSH2 0x2068 JUMP JUMPDEST PUSH1 0x40 DUP1 MLOAD PUSH1 0x80 DUP2 ADD DUP3 MSTORE PUSH1 0x9 SLOAD PUSH4 0xFFFFFFFF DUP1 DUP3 AND DUP4 MSTORE PUSH1 0x1 PUSH1 0x20 SHL DUP1 DUP4 DIV PUSH1 0x1 PUSH1 0x1 PUSH1 0x60 SHL SUB SWAP1 DUP2 AND PUSH1 0x20 DUP1 DUP8 ADD SWAP2 SWAP1 SWAP2 MSTORE PUSH1 0x1 PUSH1 0x80 SHL DUP1 DUP7 DIV DUP6 AND DUP8 DUP10 ADD MSTORE PUSH1 0x1 PUSH1 0xA0 SHL SWAP1 SWAP6 DIV DUP3 AND PUSH1 0x60 DUP1 DUP9 ADD SWAP2 SWAP1 SWAP2 MSTORE DUP8 MLOAD DUP1 DUP10 ADD DUP10 MSTORE PUSH1 0x8 SLOAD DUP1 DUP8 AND DUP3 MSTORE DUP6 SWAP1 DIV DUP7 AND DUP2 DUP5 ADD MSTORE PUSH1 0x1 PUSH1 0x1 PUSH1 0xA0 SHL SUB DUP11 AND PUSH1 0x0 SWAP1 DUP2 MSTORE PUSH1 0xA DUP5 MSTORE DUP10 DUP2 KECCAK256 DUP11 MLOAD SWAP4 DUP5 ADD DUP12 MSTORE SLOAD SWAP7 DUP8 AND DUP4 MSTORE SWAP5 DUP7 DIV DUP5 AND SWAP3 DUP3 ADD SWAP3 SWAP1 SWAP3 MSTORE SWAP5 SWAP1 SWAP4 DIV AND SWAP5 DUP4 ADD SWAP5 SWAP1 SWAP5 MSTORE SWAP1 DUP4 PUSH2 0xB5E PUSH2 0xB54 TIMESTAMP PUSH2 0x1160 JUMP JUMPDEST DUP5 PUSH1 0x20 ADD MLOAD PUSH2 0x1A04 JUMP JUMPDEST SWAP1 POP PUSH1 0x0 DUP5 PUSH1 0x40 ADD MLOAD DUP3 PUSH2 0xB72 SWAP2 SWAP1 PUSH2 0x1FE0 JUMP JUMPDEST PUSH4 0xFFFFFFFF AND SWAP1 POP DUP1 ISZERO PUSH2 0xBF5 JUMPI DUP5 MLOAD PUSH4 0xFFFFFFFF AND ISZERO PUSH2 0xBE8 JUMPI DUP5 MLOAD PUSH1 0x60 DUP7 ADD MLOAD PUSH2 0xBD9 SWAP2 PUSH4 0xFFFFFFFF AND SWAP1 PUSH2 0xBB2 SWAP1 PUSH1 0x1 PUSH1 0x1 PUSH1 0x60 SHL SUB AND DUP5 PUSH2 0x1F92 JUMP JUMPDEST PUSH2 0xBBC SWAP2 SWAP1 PUSH2 0x1F70 JUMP JUMPDEST DUP7 PUSH1 0x20 ADD MLOAD PUSH1 0x1 PUSH1 0x1 PUSH1 0x60 SHL SUB AND PUSH2 0xBD4 SWAP2 SWAP1 PUSH2 0x1F0E JUMP JUMPDEST PUSH2 0x1A28 JUMP JUMPDEST PUSH1 0x1 PUSH1 0x1 PUSH1 0x60 SHL SUB AND PUSH1 0x20 DUP7 ADD MSTORE JUMPDEST PUSH4 0xFFFFFFFF DUP3 AND PUSH1 0x40 DUP7 ADD MSTORE JUMPDEST DUP3 PUSH1 0x40 ADD MLOAD DUP6 PUSH1 0x20 ADD MLOAD PUSH2 0xC09 SWAP2 SWAP1 PUSH2 0x2005 JUMP JUMPDEST DUP4 MLOAD PUSH2 0xC1B SWAP2 SWAP1 PUSH4 0xFFFFFFFF AND PUSH2 0x1FB1 JUMP JUMPDEST DUP4 PUSH1 0x20 ADD MLOAD PUSH2 0xC2A SWAP2 SWAP1 PUSH2 0x1F4E JUMP JUMPDEST PUSH1 0x1 PUSH1 0x1 PUSH1 0x60 SHL SUB SWAP1 DUP2 AND PUSH1 0x20 DUP1 DUP7 ADD DUP3 SWAP1 MSTORE SWAP7 SWAP1 SWAP7 ADD MLOAD AND PUSH1 0x40 SWAP1 SWAP4 ADD SWAP3 SWAP1 SWAP3 MSTORE POP SWAP2 SWAP5 SWAP4 POP POP POP POP JUMP JUMPDEST PUSH32 0xB19546DFF01E856FB3F010C267A7B1C60363CF8A4664E21CC89C26224620214E PUSH2 0xC81 DUP2 CALLER PUSH2 0x10FC JUMP JUMPDEST DUP3 PUSH4 0xFFFFFFFF AND DUP5 PUSH4 0xFFFFFFFF AND GT ISZERO PUSH2 0xCCF JUMPI PUSH1 0x40 MLOAD PUSH3 0x461BCD PUSH1 0xE5 SHL DUP2 MSTORE PUSH1 0x20 PUSH1 0x4 DUP3 ADD MSTORE PUSH1 0xF PUSH1 0x24 DUP3 ADD MSTORE PUSH15 0x125B98DBDC9C9958DD081A5B9C1D5D PUSH1 0x8A SHL PUSH1 0x44 DUP3 ADD MSTORE PUSH1 0x64 ADD PUSH2 0x718 JUMP JUMPDEST PUSH7 0x6A94D74F430000 DUP3 PUSH1 0x1 PUSH1 0x1 PUSH1 0x60 SHL SUB AND GT DUP1 ISZERO PUSH2 0xCFF JUMPI POP PUSH9 0x1A055690D9DB80000 DUP3 PUSH1 0x1 PUSH1 0x1 PUSH1 0x60 SHL SUB AND LT JUMPDEST PUSH2 0xD3C JUMPI PUSH1 0x40 MLOAD PUSH3 0x461BCD PUSH1 0xE5 SHL DUP2 MSTORE PUSH1 0x20 PUSH1 0x4 DUP3 ADD MSTORE PUSH1 0xE PUSH1 0x24 DUP3 ADD MSTORE PUSH14 0x14985D19481A5B98DBDC9C9958DD PUSH1 0x92 SHL PUSH1 0x44 DUP3 ADD MSTORE PUSH1 0x64 ADD PUSH2 0x718 JUMP JUMPDEST PUSH32 0x0 PUSH1 0x1 PUSH1 0x1 PUSH1 0xA0 SHL SUB AND PUSH2 0xDAA JUMPI PUSH1 0x40 MLOAD PUSH3 0x461BCD PUSH1 0xE5 SHL DUP2 MSTORE PUSH1 0x20 PUSH1 0x4 DUP3 ADD MSTORE PUSH1 0x15 PUSH1 0x24 DUP3 ADD MSTORE PUSH21 0x14995DD85C991CC81D1BDAD95B881B9BDD081CD95D PUSH1 0x5A SHL PUSH1 0x44 DUP3 ADD MSTORE PUSH1 0x64 ADD PUSH2 0x718 JUMP JUMPDEST PUSH1 0x8 SLOAD PUSH4 0xFFFFFFFF AND PUSH2 0xDBC TIMESTAMP PUSH2 0x1160 JUMP JUMPDEST PUSH4 0xFFFFFFFF AND LT DUP1 PUSH2 0xDEA JUMPI POP PUSH1 0x8 SLOAD PUSH1 0x1 PUSH1 0x20 SHL SWAP1 DIV PUSH4 0xFFFFFFFF AND PUSH2 0xDE2 TIMESTAMP PUSH2 0x1160 JUMP JUMPDEST PUSH4 0xFFFFFFFF AND GT JUMPDEST PUSH2 0xE2C JUMPI PUSH1 0x40 MLOAD PUSH3 0x461BCD PUSH1 0xE5 SHL DUP2 MSTORE PUSH1 0x20 PUSH1 0x4 DUP3 ADD MSTORE PUSH1 0x13 PUSH1 0x24 DUP3 ADD MSTORE PUSH19 0x14995DD85C991CC8185B1C9958591E481CD95D PUSH1 0x6A SHL PUSH1 0x44 DUP3 ADD MSTORE PUSH1 0x64 ADD PUSH2 0x718 JUMP JUMPDEST PUSH1 0x8 DUP1 SLOAD PUSH4 0xFFFFFFFF DUP7 DUP2 AND PUSH8 0xFFFFFFFFFFFFFFFF NOT SWAP1 SWAP3 AND DUP3 OR PUSH1 0x1 PUSH1 0x20 SHL SWAP2 DUP8 AND SWAP2 DUP3 MUL OR SWAP1 SWAP3 SSTORE PUSH1 0x9 DUP1 SLOAD PUSH1 0x1 PUSH1 0x1 PUSH1 0x80 SHL SUB AND PUSH1 0x1 PUSH1 0x80 SHL DUP4 MUL PUSH1 0x1 PUSH1 0x1 PUSH1 0xA0 SHL SUB AND OR PUSH1 0x1 PUSH1 0xA0 SHL PUSH1 0x1 PUSH1 0x1 PUSH1 0x60 SHL SUB DUP8 AND SWAP1 DUP2 MUL SWAP2 SWAP1 SWAP2 OR SWAP1 SWAP2 SSTORE PUSH1 0x40 DUP1 MLOAD SWAP3 DUP4 MSTORE PUSH1 0x20 DUP4 ADD SWAP4 SWAP1 SWAP4 MSTORE SWAP2 DUP2 ADD SWAP2 SWAP1 SWAP2 MSTORE PUSH32 0x95EFD8A2A0AA591F48FD9673CF5D13C2150CA7A1FE1CBE438DD3F0AE47064663 SWAP1 PUSH1 0x60 ADD JUMPDEST PUSH1 0x40 MLOAD DUP1 SWAP2 SUB SWAP1 LOG1 POP POP POP POP JUMP JUMPDEST CALLER PUSH1 0x0 SWAP1 DUP2 MSTORE PUSH1 0x2 PUSH1 0x20 SWAP1 DUP2 MSTORE PUSH1 0x40 DUP1 DUP4 KECCAK256 PUSH1 0x1 PUSH1 0x1 PUSH1 0xA0 SHL SUB DUP7 AND DUP5 MSTORE SWAP1 SWAP2 MSTORE DUP2 KECCAK256 SLOAD DUP3 DUP2 LT ISZERO PUSH2 0xF59 JUMPI PUSH1 0x40 MLOAD PUSH3 0x461BCD PUSH1 0xE5 SHL DUP2 MSTORE PUSH1 0x20 PUSH1 0x4 DUP3 ADD MSTORE PUSH1 0x25 PUSH1 0x24 DUP3 ADD MSTORE PUSH32 0x45524332303A2064656372656173656420616C6C6F77616E63652062656C6F77 PUSH1 0x44 DUP3 ADD MSTORE PUSH5 0x207A65726F PUSH1 0xD8 SHL PUSH1 0x64 DUP3 ADD MSTORE PUSH1 0x84 ADD PUSH2 0x718 JUMP JUMPDEST PUSH2 0xF66 CALLER DUP6 DUP6 DUP5 SUB PUSH2 0xFD8 JUMP JUMPDEST POP PUSH1 0x1 SWAP4 SWAP3 POP POP POP JUMP JUMPDEST PUSH1 0x0 PUSH2 0x623 CALLER DUP5 DUP5 PUSH2 0x1747 JUMP JUMPDEST PUSH1 0x0 DUP3 DUP2 MSTORE PUSH1 0x6 PUSH1 0x20 MSTORE PUSH1 0x40 SWAP1 KECCAK256 PUSH1 0x1 ADD SLOAD PUSH2 0xF99 DUP2 CALLER PUSH2 0x10FC JUMP JUMPDEST PUSH2 0x9A6 DUP4 DUP4 PUSH2 0x199D JUMP JUMPDEST PUSH1 0x0 PUSH1 0x1 PUSH1 0x1 PUSH1 0xE0 SHL SUB NOT DUP3 AND PUSH4 0x7965DB0B PUSH1 0xE0 SHL EQ DUP1 PUSH2 0x57E JUMPI POP PUSH4 0x1FFC9A7 PUSH1 0xE0 SHL PUSH1 0x1 PUSH1 0x1 PUSH1 0xE0 SHL SUB NOT DUP4 AND EQ PUSH2 0x57E JUMP JUMPDEST PUSH1 0x1 PUSH1 0x1 PUSH1 0xA0 SHL SUB DUP4 AND PUSH2 0x103A JUMPI PUSH1 0x40 MLOAD PUSH3 0x461BCD PUSH1 0xE5 SHL DUP2 MSTORE PUSH1 0x20 PUSH1 0x4 DUP3 ADD MSTORE PUSH1 0x24 DUP1 DUP3 ADD MSTORE PUSH32 0x45524332303A20617070726F76652066726F6D20746865207A65726F20616464 PUSH1 0x44 DUP3 ADD MSTORE PUSH4 0x72657373 PUSH1 0xE0 SHL PUSH1 0x64 DUP3 ADD MSTORE PUSH1 0x84 ADD PUSH2 0x718 JUMP JUMPDEST PUSH1 0x1 PUSH1 0x1 PUSH1 0xA0 SHL SUB DUP3 AND PUSH2 0x109B JUMPI PUSH1 0x40 MLOAD PUSH3 0x461BCD PUSH1 0xE5 SHL DUP2 MSTORE PUSH1 0x20 PUSH1 0x4 DUP3 ADD MSTORE PUSH1 0x22 PUSH1 0x24 DUP3 ADD MSTORE PUSH32 0x45524332303A20617070726F766520746F20746865207A65726F206164647265 PUSH1 0x44 DUP3 ADD MSTORE PUSH2 0x7373 PUSH1 0xF0 SHL PUSH1 0x64 DUP3 ADD MSTORE PUSH1 0x84 ADD PUSH2 0x718 JUMP JUMPDEST PUSH1 0x1 PUSH1 0x1 PUSH1 0xA0 SHL SUB DUP4 DUP2 AND PUSH1 0x0 DUP2 DUP2 MSTORE PUSH1 0x2 PUSH1 0x20 SWAP1 DUP2 MSTORE PUSH1 0x40 DUP1 DUP4 KECCAK256 SWAP5 DUP8 AND DUP1 DUP5 MSTORE SWAP5 DUP3 MSTORE SWAP2 DUP3 SWAP1 KECCAK256 DUP6 SWAP1 SSTORE SWAP1 MLOAD DUP5 DUP2 MSTORE PUSH32 0x8C5BE1E5EBEC7D5BD14F71427D1E84F3DD0314C0F7B2291E5B200AC8C7C3B925 SWAP2 ADD PUSH1 0x40 MLOAD DUP1 SWAP2 SUB SWAP1 LOG3 POP POP POP JUMP JUMPDEST PUSH2 0x1106 DUP3 DUP3 PUSH2 0xA65 JUMP JUMPDEST PUSH2 0xA25 JUMPI PUSH2 0x111E DUP2 PUSH1 0x1 PUSH1 0x1 PUSH1 0xA0 SHL SUB AND PUSH1 0x14 PUSH2 0x1A8C JUMP JUMPDEST PUSH2 0x1129 DUP4 PUSH1 0x20 PUSH2 0x1A8C JUMP JUMPDEST PUSH1 0x40 MLOAD PUSH1 0x20 ADD PUSH2 0x113A SWAP3 SWAP2 SWAP1 PUSH2 0x1E66 JUMP JUMPDEST PUSH1 0x40 DUP1 MLOAD PUSH1 0x1F NOT DUP2 DUP5 SUB ADD DUP2 MSTORE SWAP1 DUP3 SWAP1 MSTORE PUSH3 0x461BCD PUSH1 0xE5 SHL DUP3 MSTORE PUSH2 0x718 SWAP2 PUSH1 0x4 ADD PUSH2 0x1EDB JUMP JUMPDEST PUSH1 0x0 PUSH1 0x1 PUSH1 0x20 SHL DUP3 LT PUSH2 0x11C4 JUMPI PUSH1 0x40 MLOAD PUSH3 0x461BCD PUSH1 0xE5 SHL DUP2 MSTORE PUSH1 0x20 PUSH1 0x4 DUP3 ADD MSTORE PUSH1 0x26 PUSH1 0x24 DUP3 ADD MSTORE PUSH32 0x53616665436173743A2076616C756520646F65736E27742066697420696E2033 PUSH1 0x44 DUP3 ADD MSTORE PUSH6 0x322062697473 PUSH1 0xD0 SHL PUSH1 0x64 DUP3 ADD MSTORE PUSH1 0x84 ADD PUSH2 0x718 JUMP JUMPDEST POP SWAP1 JUMP JUMPDEST PUSH1 0x40 DUP1 MLOAD PUSH1 0x80 DUP2 ADD DUP3 MSTORE PUSH1 0x9 SLOAD PUSH4 0xFFFFFFFF DUP1 DUP3 AND DUP4 MSTORE PUSH1 0x1 PUSH1 0x20 SHL DUP1 DUP4 DIV PUSH1 0x1 PUSH1 0x1 PUSH1 0x60 SHL SUB SWAP1 DUP2 AND PUSH1 0x20 DUP1 DUP8 ADD SWAP2 SWAP1 SWAP2 MSTORE PUSH1 0x1 PUSH1 0x80 SHL DUP6 DIV DUP5 AND DUP7 DUP9 ADD MSTORE PUSH1 0x1 PUSH1 0xA0 SHL SWAP1 SWAP5 DIV AND PUSH1 0x60 DUP6 ADD MSTORE DUP5 MLOAD DUP1 DUP7 ADD SWAP1 SWAP6 MSTORE PUSH1 0x8 SLOAD DUP1 DUP4 AND DUP1 DUP8 MSTORE SWAP2 SWAP1 DIV SWAP1 SWAP2 AND SWAP2 DUP5 ADD SWAP2 SWAP1 SWAP2 MSTORE SWAP1 SWAP2 SWAP1 PUSH2 0x1240 TIMESTAMP PUSH2 0x1160 JUMP JUMPDEST PUSH4 0xFFFFFFFF AND LT PUSH2 0x12F8 JUMPI PUSH1 0x0 PUSH2 0x1263 PUSH2 0x1259 TIMESTAMP PUSH2 0x1160 JUMP JUMPDEST DUP4 PUSH1 0x20 ADD MLOAD PUSH2 0x1A04 JUMP JUMPDEST SWAP1 POP PUSH1 0x0 DUP4 PUSH1 0x40 ADD MLOAD DUP3 PUSH2 0x1277 SWAP2 SWAP1 PUSH2 0x1FE0 JUMP JUMPDEST PUSH4 0xFFFFFFFF AND SWAP1 POP DUP1 ISZERO PUSH2 0x12F5 JUMPI DUP4 MLOAD PUSH4 0xFFFFFFFF AND ISZERO PUSH2 0x12E8 JUMPI DUP4 MLOAD PUSH1 0x60 DUP6 ADD MLOAD PUSH2 0x12D9 SWAP2 PUSH4 0xFFFFFFFF AND SWAP1 PUSH2 0x12B7 SWAP1 PUSH1 0x1 PUSH1 0x1 PUSH1 0x60 SHL SUB AND DUP5 PUSH2 0x1F92 JUMP JUMPDEST PUSH2 0x12C1 SWAP2 SWAP1 PUSH2 0x1F70 JUMP JUMPDEST DUP6 PUSH1 0x20 ADD MLOAD PUSH1 0x1 PUSH1 0x1 PUSH1 0x60 SHL SUB AND PUSH2 0xBD4 SWAP2 SWAP1 PUSH2 0x1F0E JUMP JUMPDEST PUSH1 0x1 PUSH1 0x1 PUSH1 0x60 SHL SUB AND PUSH1 0x20 DUP6 ADD MSTORE JUMPDEST PUSH4 0xFFFFFFFF DUP3 AND PUSH1 0x40 DUP6 ADD MSTORE JUMPDEST POP POP JUMPDEST DUP3 ISZERO PUSH2 0x131E JUMPI DUP4 DUP3 PUSH1 0x0 ADD DUP2 DUP2 MLOAD PUSH2 0x1310 SWAP2 SWAP1 PUSH2 0x1F26 JUMP JUMPDEST PUSH4 0xFFFFFFFF AND SWAP1 MSTORE POP PUSH2 0x133A JUMP JUMPDEST DUP4 DUP3 PUSH1 0x0 ADD DUP2 DUP2 MLOAD PUSH2 0x1330 SWAP2 SWAP1 PUSH2 0x1FE0 JUMP JUMPDEST PUSH4 0xFFFFFFFF AND SWAP1 MSTORE POP JUMPDEST DUP2 MLOAD PUSH1 0x9 DUP1 SLOAD PUSH1 0x20 DUP1 DUP7 ADD MLOAD PUSH1 0x40 DUP1 DUP9 ADD MLOAD PUSH1 0x60 DUP10 ADD MLOAD PUSH1 0x1 PUSH1 0x1 PUSH1 0x60 SHL SUB SWAP1 DUP2 AND PUSH1 0x1 PUSH1 0xA0 SHL MUL PUSH1 0x1 PUSH1 0x1 PUSH1 0xA0 SHL SUB PUSH4 0xFFFFFFFF SWAP4 DUP5 AND PUSH1 0x1 PUSH1 0x80 SHL MUL AND PUSH1 0x1 PUSH1 0x1 PUSH1 0x80 SHL SUB SWAP3 SWAP1 SWAP6 AND PUSH1 0x1 PUSH1 0x20 SHL DUP2 MUL PUSH1 0x1 PUSH1 0x1 PUSH1 0x80 SHL SUB NOT SWAP1 SWAP9 AND SWAP4 SWAP1 SWAP10 AND SWAP3 SWAP1 SWAP3 OR SWAP6 SWAP1 SWAP6 OR SWAP5 SWAP1 SWAP5 AND SWAP2 SWAP1 SWAP2 OR SWAP3 SWAP1 SWAP3 OR SWAP1 SWAP3 SSTORE MLOAD SWAP2 DUP3 MSTORE PUSH32 0xAAC1802288DB8019F8EC43430EFC11A152C72473C57D6DDCDE3B6DD0C8926067 SWAP2 ADD PUSH2 0xEC9 JUMP JUMPDEST PUSH1 0x1 PUSH1 0x1 PUSH1 0xA0 SHL SUB DUP4 AND PUSH1 0x0 SWAP1 DUP2 MSTORE PUSH1 0xA PUSH1 0x20 SWAP1 DUP2 MSTORE PUSH1 0x40 DUP1 DUP4 KECCAK256 DUP2 MLOAD PUSH1 0x60 DUP1 DUP3 ADD DUP5 MSTORE SWAP2 SLOAD PUSH4 0xFFFFFFFF DUP1 DUP3 AND DUP4 MSTORE PUSH1 0x1 PUSH1 0x1 PUSH1 0x60 SHL SUB PUSH1 0x1 PUSH1 0x20 SHL DUP1 DUP5 DIV DUP3 AND DUP6 DUP10 ADD MSTORE PUSH1 0x1 PUSH1 0x80 SHL SWAP4 DUP5 SWAP1 DIV DUP3 AND DUP6 DUP9 ADD SWAP1 DUP2 MSTORE DUP8 MLOAD PUSH1 0x80 DUP2 ADD DUP10 MSTORE PUSH1 0x9 SLOAD DUP1 DUP7 AND DUP3 MSTORE SWAP3 DUP4 DIV DUP5 AND SWAP10 DUP2 ADD DUP11 SWAP1 MSTORE SWAP5 DUP3 DIV SWAP1 SWAP4 AND SWAP7 DUP5 ADD SWAP7 SWAP1 SWAP7 MSTORE PUSH1 0x1 PUSH1 0xA0 SHL SWAP1 SWAP6 DIV SWAP1 SWAP5 AND SWAP3 DUP2 ADD SWAP3 SWAP1 SWAP3 MSTORE SWAP2 MLOAD SWAP2 SWAP3 SWAP1 SWAP2 PUSH2 0x147F SWAP2 PUSH2 0x2005 JUMP JUMPDEST DUP3 MLOAD PUSH2 0x1491 SWAP2 SWAP1 PUSH4 0xFFFFFFFF AND PUSH2 0x1FB1 JUMP JUMPDEST DUP3 PUSH1 0x20 ADD MLOAD PUSH2 0x14A0 SWAP2 SWAP1 PUSH2 0x1F4E JUMP JUMPDEST PUSH1 0x1 PUSH1 0x1 PUSH1 0x60 SHL SUB SWAP1 DUP2 AND PUSH1 0x20 DUP1 DUP6 ADD SWAP2 SWAP1 SWAP2 MSTORE DUP3 ADD MLOAD AND PUSH1 0x40 DUP4 ADD MSTORE DUP4 ISZERO PUSH2 0x14E3 JUMPI DUP5 DUP3 PUSH1 0x0 ADD DUP2 DUP2 MLOAD PUSH2 0x14D5 SWAP2 SWAP1 PUSH2 0x1F26 JUMP JUMPDEST PUSH4 0xFFFFFFFF AND SWAP1 MSTORE POP PUSH2 0x14FF JUMP JUMPDEST DUP5 DUP3 PUSH1 0x0 ADD DUP2 DUP2 MLOAD PUSH2 0x14F5 SWAP2 SWAP1 PUSH2 0x1FE0 JUMP JUMPDEST PUSH4 0xFFFFFFFF AND SWAP1 MSTORE POP JUMPDEST PUSH1 0x1 PUSH1 0x1 PUSH1 0xA0 SHL SUB DUP7 AND PUSH1 0x0 DUP2 DUP2 MSTORE PUSH1 0xA PUSH1 0x20 SWAP1 DUP2 MSTORE PUSH1 0x40 SWAP2 DUP3 SWAP1 KECCAK256 DUP6 MLOAD DUP2 SLOAD DUP8 DUP5 ADD MLOAD DUP9 DUP7 ADD MLOAD PUSH4 0xFFFFFFFF SWAP4 DUP5 AND PUSH1 0x1 PUSH1 0x1 PUSH1 0x80 SHL SUB NOT SWAP1 SWAP4 AND SWAP3 SWAP1 SWAP3 OR PUSH1 0x1 PUSH1 0x20 SHL PUSH1 0x1 PUSH1 0x1 PUSH1 0x60 SHL SUB SWAP3 DUP4 AND MUL OR PUSH12 0xFFFFFFFFFFFFFFFFFFFFFFFF PUSH1 0x80 SHL NOT AND PUSH1 0x1 PUSH1 0x80 SHL SWAP2 SWAP1 SWAP3 AND MUL OR SWAP1 SWAP2 SSTORE DUP3 MLOAD DUP9 ISZERO ISZERO DUP2 MSTORE SWAP1 DUP10 AND SWAP2 DUP2 ADD SWAP2 SWAP1 SWAP2 MSTORE TIMESTAMP SWAP2 DUP2 ADD SWAP2 SWAP1 SWAP2 MSTORE PUSH32 0xB1DE227711ABA68CEC92891CCAABAD9474A3F417D166CA8F57E7D616F467D343 SWAP1 PUSH1 0x60 ADD PUSH1 0x40 MLOAD DUP1 SWAP2 SUB SWAP1 LOG2 PUSH32 0x5B9AAF4CC5141C090A75F8B8A627863EBA92DF81F0C83C096350DA9B79AEDD04 DUP7 DUP4 PUSH1 0x20 ADD MLOAD DUP5 PUSH1 0x40 ADD MLOAD PUSH1 0x40 MLOAD PUSH2 0x1617 SWAP4 SWAP3 SWAP2 SWAP1 PUSH1 0x1 PUSH1 0x1 PUSH1 0xA0 SHL SUB SWAP4 SWAP1 SWAP4 AND DUP4 MSTORE PUSH1 0x1 PUSH1 0x1 PUSH1 0x60 SHL SUB SWAP2 DUP3 AND PUSH1 0x20 DUP5 ADD MSTORE AND PUSH1 0x40 DUP3 ADD MSTORE PUSH1 0x60 ADD SWAP1 JUMP JUMPDEST PUSH1 0x40 MLOAD DUP1 SWAP2 SUB SWAP1 LOG1 POP PUSH1 0x20 ADD MLOAD SWAP5 SWAP4 POP POP POP POP JUMP JUMPDEST PUSH1 0x40 DUP1 MLOAD PUSH1 0x1 PUSH1 0x1 PUSH1 0xA0 SHL SUB DUP5 DUP2 AND PUSH1 0x24 DUP4 ADD MSTORE PUSH1 0x44 DUP1 DUP4 ADD DUP6 SWAP1 MSTORE DUP4 MLOAD DUP1 DUP5 SUB SWAP1 SWAP2 ADD DUP2 MSTORE PUSH1 0x64 SWAP1 SWAP3 ADD DUP4 MSTORE PUSH1 0x20 DUP3 ADD DUP1 MLOAD PUSH1 0x1 PUSH1 0x1 PUSH1 0xE0 SHL SUB AND PUSH4 0xA9059CBB PUSH1 0xE0 SHL OR SWAP1 MSTORE SWAP2 MLOAD PUSH1 0x0 SWAP3 DUP4 SWAP3 SWAP1 DUP8 AND SWAP2 PUSH2 0x1688 SWAP2 SWAP1 PUSH2 0x1E4A JUMP JUMPDEST PUSH1 0x0 PUSH1 0x40 MLOAD DUP1 DUP4 SUB DUP2 PUSH1 0x0 DUP7 GAS CALL SWAP2 POP POP RETURNDATASIZE DUP1 PUSH1 0x0 DUP2 EQ PUSH2 0x16C5 JUMPI PUSH1 0x40 MLOAD SWAP2 POP PUSH1 0x1F NOT PUSH1 0x3F RETURNDATASIZE ADD AND DUP3 ADD PUSH1 0x40 MSTORE RETURNDATASIZE DUP3 MSTORE RETURNDATASIZE PUSH1 0x0 PUSH1 0x20 DUP5 ADD RETURNDATACOPY PUSH2 0x16CA JUMP JUMPDEST PUSH1 0x60 SWAP2 POP JUMPDEST POP SWAP2 POP SWAP2 POP DUP2 DUP1 ISZERO PUSH2 0x16F4 JUMPI POP DUP1 MLOAD ISZERO DUP1 PUSH2 0x16F4 JUMPI POP DUP1 DUP1 PUSH1 0x20 ADD SWAP1 MLOAD DUP2 ADD SWAP1 PUSH2 0x16F4 SWAP2 SWAP1 PUSH2 0x1D69 JUMP JUMPDEST PUSH2 0x1740 JUMPI PUSH1 0x40 MLOAD PUSH3 0x461BCD PUSH1 0xE5 SHL DUP2 MSTORE PUSH1 0x20 PUSH1 0x4 DUP3 ADD MSTORE PUSH1 0x1F PUSH1 0x24 DUP3 ADD MSTORE PUSH32 0x5472616E7366657248656C7065723A205452414E534645525F4641494C454400 PUSH1 0x44 DUP3 ADD MSTORE PUSH1 0x64 ADD PUSH2 0x718 JUMP JUMPDEST POP POP POP POP POP JUMP JUMPDEST PUSH1 0x1 PUSH1 0x1 PUSH1 0xA0 SHL SUB DUP4 AND PUSH2 0x17AB JUMPI PUSH1 0x40 MLOAD PUSH3 0x461BCD PUSH1 0xE5 SHL DUP2 MSTORE PUSH1 0x20 PUSH1 0x4 DUP3 ADD MSTORE PUSH1 0x25 PUSH1 0x24 DUP3 ADD MSTORE PUSH32 0x45524332303A207472616E736665722066726F6D20746865207A65726F206164 PUSH1 0x44 DUP3 ADD MSTORE PUSH5 0x6472657373 PUSH1 0xD8 SHL PUSH1 0x64 DUP3 ADD MSTORE PUSH1 0x84 ADD PUSH2 0x718 JUMP JUMPDEST PUSH1 0x1 PUSH1 0x1 PUSH1 0xA0 SHL SUB DUP3 AND PUSH2 0x180D JUMPI PUSH1 0x40 MLOAD PUSH3 0x461BCD PUSH1 0xE5 SHL DUP2 MSTORE PUSH1 0x20 PUSH1 0x4 DUP3 ADD MSTORE PUSH1 0x23 PUSH1 0x24 DUP3 ADD MSTORE PUSH32 0x45524332303A207472616E7366657220746F20746865207A65726F2061646472 PUSH1 0x44 DUP3 ADD MSTORE PUSH3 0x657373 PUSH1 0xE8 SHL PUSH1 0x64 DUP3 ADD MSTORE PUSH1 0x84 ADD PUSH2 0x718 JUMP JUMPDEST PUSH1 0x1 PUSH1 0x1 PUSH1 0xA0 SHL SUB DUP4 AND PUSH1 0x0 SWAP1 DUP2 MSTORE PUSH1 0x1 PUSH1 0x20 MSTORE PUSH1 0x40 SWAP1 KECCAK256 SLOAD DUP2 DUP2 LT ISZERO PUSH2 0x1885 JUMPI PUSH1 0x40 MLOAD PUSH3 0x461BCD PUSH1 0xE5 SHL DUP2 MSTORE PUSH1 0x20 PUSH1 0x4 DUP3 ADD MSTORE PUSH1 0x26 PUSH1 0x24 DUP3 ADD MSTORE PUSH32 0x45524332303A207472616E7366657220616D6F756E7420657863656564732062 PUSH1 0x44 DUP3 ADD MSTORE PUSH6 0x616C616E6365 PUSH1 0xD0 SHL PUSH1 0x64 DUP3 ADD MSTORE PUSH1 0x84 ADD PUSH2 0x718 JUMP JUMPDEST PUSH1 0x1 PUSH1 0x1 PUSH1 0xA0 SHL SUB DUP1 DUP6 AND PUSH1 0x0 SWAP1 DUP2 MSTORE PUSH1 0x1 PUSH1 0x20 MSTORE PUSH1 0x40 DUP1 DUP3 KECCAK256 DUP6 DUP6 SUB SWAP1 SSTORE SWAP2 DUP6 AND DUP2 MSTORE SWAP1 DUP2 KECCAK256 DUP1 SLOAD DUP5 SWAP3 SWAP1 PUSH2 0x18BC SWAP1 DUP5 SWAP1 PUSH2 0x1F0E JUMP JUMPDEST SWAP3 POP POP DUP2 SWAP1 SSTORE POP DUP3 PUSH1 0x1 PUSH1 0x1 PUSH1 0xA0 SHL SUB AND DUP5 PUSH1 0x1 PUSH1 0x1 PUSH1 0xA0 SHL SUB AND PUSH32 0xDDF252AD1BE2C89B69C2B068FC378DAA952BA7F163C4A11628F55A4DF523B3EF DUP5 PUSH1 0x40 MLOAD PUSH2 0x1908 SWAP2 DUP2 MSTORE PUSH1 0x20 ADD SWAP1 JUMP JUMPDEST PUSH1 0x40 MLOAD DUP1 SWAP2 SUB SWAP1 LOG3 JUMPDEST POP POP POP POP JUMP JUMPDEST PUSH2 0x1921 DUP3 DUP3 PUSH2 0xA65 JUMP JUMPDEST PUSH2 0xA25 JUMPI PUSH1 0x0 DUP3 DUP2 MSTORE PUSH1 0x6 PUSH1 0x20 SWAP1 DUP2 MSTORE PUSH1 0x40 DUP1 DUP4 KECCAK256 PUSH1 0x1 PUSH1 0x1 PUSH1 0xA0 SHL SUB DUP6 AND DUP5 MSTORE SWAP1 SWAP2 MSTORE SWAP1 KECCAK256 DUP1 SLOAD PUSH1 0xFF NOT AND PUSH1 0x1 OR SWAP1 SSTORE PUSH2 0x1959 CALLER SWAP1 JUMP JUMPDEST PUSH1 0x1 PUSH1 0x1 PUSH1 0xA0 SHL SUB AND DUP2 PUSH1 0x1 PUSH1 0x1 PUSH1 0xA0 SHL SUB AND DUP4 PUSH32 0x2F8788117E7EFF1D82E926EC794901D17C78024A50270940304540A733656F0D PUSH1 0x40 MLOAD PUSH1 0x40 MLOAD DUP1 SWAP2 SUB SWAP1 LOG4 POP POP JUMP JUMPDEST PUSH2 0x19A7 DUP3 DUP3 PUSH2 0xA65 JUMP JUMPDEST ISZERO PUSH2 0xA25 JUMPI PUSH1 0x0 DUP3 DUP2 MSTORE PUSH1 0x6 PUSH1 0x20 SWAP1 DUP2 MSTORE PUSH1 0x40 DUP1 DUP4 KECCAK256 PUSH1 0x1 PUSH1 0x1 PUSH1 0xA0 SHL SUB DUP6 AND DUP1 DUP6 MSTORE SWAP3 MSTORE DUP1 DUP4 KECCAK256 DUP1 SLOAD PUSH1 0xFF NOT AND SWAP1 SSTORE MLOAD CALLER SWAP3 DUP6 SWAP2 PUSH32 0xF6391F5C32D9C69D2A47EA670B442974B53935D1EDC7FD64EB21E047A839171B SWAP2 SWAP1 LOG4 POP POP JUMP JUMPDEST PUSH1 0x0 DUP2 PUSH4 0xFFFFFFFF AND DUP4 PUSH4 0xFFFFFFFF AND LT PUSH2 0x1A1F JUMPI DUP2 PUSH2 0x1A21 JUMP JUMPDEST DUP3 JUMPDEST SWAP4 SWAP3 POP POP POP JUMP JUMPDEST PUSH1 0x0 PUSH1 0x1 PUSH1 0x60 SHL DUP3 LT PUSH2 0x11C4 JUMPI PUSH1 0x40 MLOAD PUSH3 0x461BCD PUSH1 0xE5 SHL DUP2 MSTORE PUSH1 0x20 PUSH1 0x4 DUP3 ADD MSTORE PUSH1 0x26 PUSH1 0x24 DUP3 ADD MSTORE PUSH32 0x53616665436173743A2076616C756520646F65736E27742066697420696E2039 PUSH1 0x44 DUP3 ADD MSTORE PUSH6 0x362062697473 PUSH1 0xD0 SHL PUSH1 0x64 DUP3 ADD MSTORE PUSH1 0x84 ADD PUSH2 0x718 JUMP JUMPDEST PUSH1 0x60 PUSH1 0x0 PUSH2 0x1A9B DUP4 PUSH1 0x2 PUSH2 0x1F92 JUMP JUMPDEST PUSH2 0x1AA6 SWAP1 PUSH1 0x2 PUSH2 0x1F0E JUMP JUMPDEST PUSH8 0xFFFFFFFFFFFFFFFF DUP2 GT ISZERO PUSH2 0x1ABE JUMPI PUSH2 0x1ABE PUSH2 0x20CF JUMP JUMPDEST PUSH1 0x40 MLOAD SWAP1 DUP1 DUP3 MSTORE DUP1 PUSH1 0x1F ADD PUSH1 0x1F NOT AND PUSH1 0x20 ADD DUP3 ADD PUSH1 0x40 MSTORE DUP1 ISZERO PUSH2 0x1AE8 JUMPI PUSH1 0x20 DUP3 ADD DUP2 DUP1 CALLDATASIZE DUP4 CALLDATACOPY ADD SWAP1 POP JUMPDEST POP SWAP1 POP PUSH1 0x3 PUSH1 0xFC SHL DUP2 PUSH1 0x0 DUP2 MLOAD DUP2 LT PUSH2 0x1B03 JUMPI PUSH2 0x1B03 PUSH2 0x20B9 JUMP JUMPDEST PUSH1 0x20 ADD ADD SWAP1 PUSH1 0x1 PUSH1 0x1 PUSH1 0xF8 SHL SUB NOT AND SWAP1 DUP2 PUSH1 0x0 BYTE SWAP1 MSTORE8 POP PUSH1 0xF PUSH1 0xFB SHL DUP2 PUSH1 0x1 DUP2 MLOAD DUP2 LT PUSH2 0x1B32 JUMPI PUSH2 0x1B32 PUSH2 0x20B9 JUMP JUMPDEST PUSH1 0x20 ADD ADD SWAP1 PUSH1 0x1 PUSH1 0x1 PUSH1 0xF8 SHL SUB NOT AND SWAP1 DUP2 PUSH1 0x0 BYTE SWAP1 MSTORE8 POP PUSH1 0x0 PUSH2 0x1B56 DUP5 PUSH1 0x2 PUSH2 0x1F92 JUMP JUMPDEST PUSH2 0x1B61 SWAP1 PUSH1 0x1 PUSH2 0x1F0E JUMP JUMPDEST SWAP1 POP JUMPDEST PUSH1 0x1 DUP2 GT ISZERO PUSH2 0x1BD9 JUMPI PUSH16 0x181899199A1A9B1B9C1CB0B131B232B3 PUSH1 0x81 SHL DUP6 PUSH1 0xF AND PUSH1 0x10 DUP2 LT PUSH2 0x1B95 JUMPI PUSH2 0x1B95 PUSH2 0x20B9 JUMP JUMPDEST BYTE PUSH1 0xF8 SHL DUP3 DUP3 DUP2 MLOAD DUP2 LT PUSH2 0x1BAB JUMPI PUSH2 0x1BAB PUSH2 0x20B9 JUMP JUMPDEST PUSH1 0x20 ADD ADD SWAP1 PUSH1 0x1 PUSH1 0x1 PUSH1 0xF8 SHL SUB NOT AND SWAP1 DUP2 PUSH1 0x0 BYTE SWAP1 MSTORE8 POP PUSH1 0x4 SWAP5 SWAP1 SWAP5 SHR SWAP4 PUSH2 0x1BD2 DUP2 PUSH2 0x2051 JUMP JUMPDEST SWAP1 POP PUSH2 0x1B64 JUMP JUMPDEST POP DUP4 ISZERO PUSH2 0x1A21 JUMPI PUSH1 0x40 MLOAD PUSH3 0x461BCD PUSH1 0xE5 SHL DUP2 MSTORE PUSH1 0x20 PUSH1 0x4 DUP3 ADD DUP2 SWAP1 MSTORE PUSH1 0x24 DUP3 ADD MSTORE PUSH32 0x537472696E67733A20686578206C656E67746820696E73756666696369656E74 PUSH1 0x44 DUP3 ADD MSTORE PUSH1 0x64 ADD PUSH2 0x718 JUMP JUMPDEST DUP1 CALLDATALOAD PUSH1 0x1 PUSH1 0x1 PUSH1 0xA0 SHL SUB DUP2 AND DUP2 EQ PUSH2 0x1C3F JUMPI PUSH1 0x0 DUP1 REVERT JUMPDEST SWAP2 SWAP1 POP JUMP JUMPDEST DUP1 CALLDATALOAD PUSH4 0xFFFFFFFF DUP2 AND DUP2 EQ PUSH2 0x1C3F JUMPI PUSH1 0x0 DUP1 REVERT JUMPDEST DUP1 CALLDATALOAD PUSH1 0x1 PUSH1 0x1 PUSH1 0x60 SHL SUB DUP2 AND DUP2 EQ PUSH2 0x1C3F JUMPI PUSH1 0x0 DUP1 REVERT JUMPDEST PUSH1 0x0 PUSH1 0x20 DUP3 DUP5 SUB SLT ISZERO PUSH2 0x1C81 JUMPI PUSH1 0x0 DUP1 REVERT JUMPDEST PUSH2 0x1A21 DUP3 PUSH2 0x1C28 JUMP JUMPDEST PUSH1 0x0 DUP1 PUSH1 0x40 DUP4 DUP6 SUB SLT ISZERO PUSH2 0x1C9D JUMPI PUSH1 0x0 DUP1 REVERT JUMPDEST PUSH2 0x1CA6 DUP4 PUSH2 0x1C28 JUMP JUMPDEST SWAP2 POP PUSH2 0x1CB4 PUSH1 0x20 DUP5 ADD PUSH2 0x1C28 JUMP JUMPDEST SWAP1 POP SWAP3 POP SWAP3 SWAP1 POP JUMP JUMPDEST PUSH1 0x0 DUP1 PUSH1 0x0 PUSH1 0x60 DUP5 DUP7 SUB SLT ISZERO PUSH2 0x1CD2 JUMPI PUSH1 0x0 DUP1 REVERT JUMPDEST PUSH2 0x1CDB DUP5 PUSH2 0x1C28 JUMP JUMPDEST SWAP3 POP PUSH2 0x1CE9 PUSH1 0x20 DUP6 ADD PUSH2 0x1C28 JUMP JUMPDEST SWAP2 POP PUSH1 0x40 DUP5 ADD CALLDATALOAD SWAP1 POP SWAP3 POP SWAP3 POP SWAP3 JUMP JUMPDEST PUSH1 0x0 DUP1 PUSH1 0x40 DUP4 DUP6 SUB SLT ISZERO PUSH2 0x1D0C JUMPI PUSH1 0x0 DUP1 REVERT JUMPDEST PUSH2 0x1D15 DUP4 PUSH2 0x1C28 JUMP JUMPDEST SWAP5 PUSH1 0x20 SWAP4 SWAP1 SWAP4 ADD CALLDATALOAD SWAP4 POP POP POP JUMP JUMPDEST PUSH1 0x0 DUP1 PUSH1 0x0 DUP1 PUSH1 0x80 DUP6 DUP8 SUB SLT ISZERO PUSH2 0x1D39 JUMPI PUSH1 0x0 DUP1 REVERT JUMPDEST PUSH2 0x1D42 DUP6 PUSH2 0x1C28 JUMP JUMPDEST SWAP4 POP PUSH1 0x20 DUP6 ADD CALLDATALOAD SWAP3 POP PUSH1 0x40 DUP6 ADD CALLDATALOAD PUSH2 0x1D59 DUP2 PUSH2 0x20E5 JUMP JUMPDEST SWAP4 SWAP7 SWAP3 SWAP6 POP SWAP3 SWAP4 PUSH1 0x60 ADD CALLDATALOAD SWAP3 POP POP JUMP JUMPDEST PUSH1 0x0 PUSH1 0x20 DUP3 DUP5 SUB SLT ISZERO PUSH2 0x1D7B JUMPI PUSH1 0x0 DUP1 REVERT JUMPDEST DUP2 MLOAD PUSH2 0x1A21 DUP2 PUSH2 0x20E5 JUMP JUMPDEST PUSH1 0x0 PUSH1 0x20 DUP3 DUP5 SUB SLT ISZERO PUSH2 0x1D98 JUMPI PUSH1 0x0 DUP1 REVERT JUMPDEST POP CALLDATALOAD SWAP2 SWAP1 POP JUMP JUMPDEST PUSH1 0x0 DUP1 PUSH1 0x40 DUP4 DUP6 SUB SLT ISZERO PUSH2 0x1DB2 JUMPI PUSH1 0x0 DUP1 REVERT JUMPDEST DUP3 CALLDATALOAD SWAP2 POP PUSH2 0x1CB4 PUSH1 0x20 DUP5 ADD PUSH2 0x1C28 JUMP JUMPDEST PUSH1 0x0 PUSH1 0x20 DUP3 DUP5 SUB SLT ISZERO PUSH2 0x1DD4 JUMPI PUSH1 0x0 DUP1 REVERT JUMPDEST DUP2 CALLDATALOAD PUSH1 0x1 PUSH1 0x1 PUSH1 0xE0 SHL SUB NOT DUP2 AND DUP2 EQ PUSH2 0x1A21 JUMPI PUSH1 0x0 DUP1 REVERT JUMPDEST PUSH1 0x0 DUP1 PUSH1 0x0 PUSH1 0x60 DUP5 DUP7 SUB SLT ISZERO PUSH2 0x1E01 JUMPI PUSH1 0x0 DUP1 REVERT JUMPDEST PUSH2 0x1E0A DUP5 PUSH2 0x1C44 JUMP JUMPDEST SWAP3 POP PUSH2 0x1E18 PUSH1 0x20 DUP6 ADD PUSH2 0x1C44 JUMP JUMPDEST SWAP2 POP PUSH2 0x1E26 PUSH1 0x40 DUP6 ADD PUSH2 0x1C58 JUMP JUMPDEST SWAP1 POP SWAP3 POP SWAP3 POP SWAP3 JUMP JUMPDEST PUSH1 0x0 PUSH1 0x20 DUP3 DUP5 SUB SLT ISZERO PUSH2 0x1E41 JUMPI PUSH1 0x0 DUP1 REVERT JUMPDEST PUSH2 0x1A21 DUP3 PUSH2 0x1C58 JUMP JUMPDEST PUSH1 0x0 DUP3 MLOAD PUSH2 0x1E5C DUP2 DUP5 PUSH1 0x20 DUP8 ADD PUSH2 0x2025 JUMP JUMPDEST SWAP2 SWAP1 SWAP2 ADD SWAP3 SWAP2 POP POP JUMP JUMPDEST PUSH32 0x416363657373436F6E74726F6C3A206163636F756E7420000000000000000000 DUP2 MSTORE PUSH1 0x0 DUP4 MLOAD PUSH2 0x1E9E DUP2 PUSH1 0x17 DUP6 ADD PUSH1 0x20 DUP9 ADD PUSH2 0x2025 JUMP JUMPDEST PUSH17 0x1034B99036B4B9B9B4B733903937B6329 PUSH1 0x7D SHL PUSH1 0x17 SWAP2 DUP5 ADD SWAP2 DUP3 ADD MSTORE DUP4 MLOAD PUSH2 0x1ECF DUP2 PUSH1 0x28 DUP5 ADD PUSH1 0x20 DUP9 ADD PUSH2 0x2025 JUMP JUMPDEST ADD PUSH1 0x28 ADD SWAP5 SWAP4 POP POP POP POP JUMP JUMPDEST PUSH1 0x20 DUP2 MSTORE PUSH1 0x0 DUP3 MLOAD DUP1 PUSH1 0x20 DUP5 ADD MSTORE PUSH2 0x1EFA DUP2 PUSH1 0x40 DUP6 ADD PUSH1 0x20 DUP8 ADD PUSH2 0x2025 JUMP JUMPDEST PUSH1 0x1F ADD PUSH1 0x1F NOT AND SWAP2 SWAP1 SWAP2 ADD PUSH1 0x40 ADD SWAP3 SWAP2 POP POP JUMP JUMPDEST PUSH1 0x0 DUP3 NOT DUP3 GT ISZERO PUSH2 0x1F21 JUMPI PUSH2 0x1F21 PUSH2 0x20A3 JUMP JUMPDEST POP ADD SWAP1 JUMP JUMPDEST PUSH1 0x0 PUSH4 0xFFFFFFFF DUP1 DUP4 AND DUP2 DUP6 AND DUP1 DUP4 SUB DUP3 GT ISZERO PUSH2 0x1F45 JUMPI PUSH2 0x1F45 PUSH2 0x20A3 JUMP JUMPDEST ADD SWAP5 SWAP4 POP POP POP POP JUMP JUMPDEST PUSH1 0x0 PUSH1 0x1 PUSH1 0x1 PUSH1 0x60 SHL SUB DUP1 DUP4 AND DUP2 DUP6 AND DUP1 DUP4 SUB DUP3 GT ISZERO PUSH2 0x1F45 JUMPI PUSH2 0x1F45 PUSH2 0x20A3 JUMP JUMPDEST PUSH1 0x0 DUP3 PUSH2 0x1F8D JUMPI PUSH4 0x4E487B71 PUSH1 0xE0 SHL PUSH1 0x0 MSTORE PUSH1 0x12 PUSH1 0x4 MSTORE PUSH1 0x24 PUSH1 0x0 REVERT JUMPDEST POP DIV SWAP1 JUMP JUMPDEST PUSH1 0x0 DUP2 PUSH1 0x0 NOT DIV DUP4 GT DUP3 ISZERO ISZERO AND ISZERO PUSH2 0x1FAC JUMPI PUSH2 0x1FAC PUSH2 0x20A3 JUMP JUMPDEST POP MUL SWAP1 JUMP JUMPDEST PUSH1 0x0 PUSH1 0x1 PUSH1 0x1 PUSH1 0x60 SHL SUB DUP1 DUP4 AND DUP2 DUP6 AND DUP2 DUP4 DIV DUP2 GT DUP3 ISZERO ISZERO AND ISZERO PUSH2 0x1FD7 JUMPI PUSH2 0x1FD7 PUSH2 0x20A3 JUMP JUMPDEST MUL SWAP5 SWAP4 POP POP POP POP JUMP JUMPDEST PUSH1 0x0 PUSH4 0xFFFFFFFF DUP4 DUP2 AND SWAP1 DUP4 AND DUP2 DUP2 LT ISZERO PUSH2 0x1FFD JUMPI PUSH2 0x1FFD PUSH2 0x20A3 JUMP JUMPDEST SUB SWAP4 SWAP3 POP POP POP JUMP JUMPDEST PUSH1 0x0 PUSH1 0x1 PUSH1 0x1 PUSH1 0x60 SHL SUB DUP4 DUP2 AND SWAP1 DUP4 AND DUP2 DUP2 LT ISZERO PUSH2 0x1FFD JUMPI PUSH2 0x1FFD PUSH2 0x20A3 JUMP JUMPDEST PUSH1 0x0 JUMPDEST DUP4 DUP2 LT ISZERO PUSH2 0x2040 JUMPI DUP2 DUP2 ADD MLOAD DUP4 DUP3 ADD MSTORE PUSH1 0x20 ADD PUSH2 0x2028 JUMP JUMPDEST DUP4 DUP2 GT ISZERO PUSH2 0x1911 JUMPI POP POP PUSH1 0x0 SWAP2 ADD MSTORE JUMP JUMPDEST PUSH1 0x0 DUP2 PUSH2 0x2060 JUMPI PUSH2 0x2060 PUSH2 0x20A3 JUMP JUMPDEST POP PUSH1 0x0 NOT ADD SWAP1 JUMP JUMPDEST PUSH1 0x1 DUP2 DUP2 SHR SWAP1 DUP3 AND DUP1 PUSH2 0x207C JUMPI PUSH1 0x7F DUP3 AND SWAP2 POP JUMPDEST PUSH1 0x20 DUP3 LT DUP2 EQ ISZERO PUSH2 0x209D JUMPI PUSH4 0x4E487B71 PUSH1 0xE0 SHL PUSH1 0x0 MSTORE PUSH1 0x22 PUSH1 0x4 MSTORE PUSH1 0x24 PUSH1 0x0 REVERT JUMPDEST POP SWAP2 SWAP1 POP JUMP JUMPDEST PUSH4 0x4E487B71 PUSH1 0xE0 SHL PUSH1 0x0 MSTORE PUSH1 0x11 PUSH1 0x4 MSTORE PUSH1 0x24 PUSH1 0x0 REVERT JUMPDEST PUSH4 0x4E487B71 PUSH1 0xE0 SHL PUSH1 0x0 MSTORE PUSH1 0x32 PUSH1 0x4 MSTORE PUSH1 0x24 PUSH1 0x0 REVERT JUMPDEST PUSH4 0x4E487B71 PUSH1 0xE0 SHL PUSH1 0x0 MSTORE PUSH1 0x41 PUSH1 0x4 MSTORE PUSH1 0x24 PUSH1 0x0 REVERT JUMPDEST DUP1 ISZERO ISZERO DUP2 EQ PUSH2 0x20F3 JUMPI PUSH1 0x0 DUP1 REVERT JUMPDEST POP JUMP INVALID LOG2 PUSH5 0x6970667358 0x22 SLT KECCAK256 0xCF 0x4C DUP3 0xE 0xE4 0x5C 0xF7 SWAP2 0xCB 0x5C 0xAE SLOAD LOG3 0xB9 CREATE GAS SAR MSIZE 0xC6 0x2E CALLVALUE 0xC8 PUSH5 0x7D71FF1DD8 0xB8 ADDRESS DUP13 SWAP11 PUSH5 0x736F6C6343 STOP ADDMOD SMOD STOP CALLER "
		},
		"gasEstimates": {
			"creation": {
				"codeDepositCost": "1698400",
				"executionCost": "infinite",
				"totalCost": "infinite"
			},
			"external": {
				"DEFAULT_ADMIN_ROLE()": "262",
				"alertBoost(address,uint256,bool,uint256)": "infinite",
				"alertStaked(address,uint256,bool,uint256)": "infinite",
				"allowance(address,address)": "infinite",
				"approve(address,uint256)": "24631",
				"balanceOf(address)": "2582",
				"checkUserRewards(address)": "infinite",
				"claim(address)": "infinite",
				"decimals()": "244",
				"decreaseAllowance(address,uint256)": "26988",
				"getRewardRate()": "2394",
				"getRoleAdmin(bytes32)": "2534",
				"grantRole(bytes32,address)": "infinite",
				"hasRole(bytes32,address)": "2743",
				"increaseAllowance(address,uint256)": "27034",
				"name()": "infinite",
				"renounceRole(bytes32,address)": "29090",
				"revokeRole(bytes32,address)": "infinite",
				"rewards(address)": "2755",
				"rewardsPerWeight()": "2612",
				"rewardsPeriod()": "2481",
				"setRewards(uint32,uint32,uint96)": "infinite",
				"stakedWeight(address)": "2611",
				"supportsInterface(bytes4)": "infinite",
				"symbol()": "infinite",
				"totalSupply()": "2393",
				"transfer(address,uint256)": "51193",
				"transferFrom(address,address,uint256)": "infinite",
				"updateRewards(uint96)": "infinite",
				"version()": "infinite"
			},
			"internal": {
				"_updateRewardsPerWeight(uint32,bool)": "infinite",
				"_updateUserRewards(address,uint32,bool)": "infinite",
				"earliest(uint32,uint32)": "73"
			}
		},
		"methodIdentifiers": {
			"DEFAULT_ADMIN_ROLE()": "a217fddf",
			"alertBoost(address,uint256,bool,uint256)": "5c2b21f6",
			"alertStaked(address,uint256,bool,uint256)": "1074a2f0",
			"allowance(address,address)": "dd62ed3e",
			"approve(address,uint256)": "095ea7b3",
			"balanceOf(address)": "70a08231",
			"checkUserRewards(address)": "9a1e9c33",
			"claim(address)": "1e83409a",
			"decimals()": "313ce567",
			"decreaseAllowance(address,uint256)": "a457c2d7",
			"getRewardRate()": "7e1a3786",
			"getRoleAdmin(bytes32)": "248a9ca3",
			"grantRole(bytes32,address)": "2f2ff15d",
			"hasRole(bytes32,address)": "91d14854",
			"increaseAllowance(address,uint256)": "39509351",
			"name()": "06fdde03",
			"renounceRole(bytes32,address)": "36568abe",
			"revokeRole(bytes32,address)": "d547741f",
			"rewards(address)": "0700037d",
			"rewardsPerWeight()": "fc196d08",
			"rewardsPeriod()": "26ae2b78",
			"setRewards(uint32,uint32,uint96)": "a354f39e",
			"stakedWeight(address)": "58ba9d27",
			"supportsInterface(bytes4)": "01ffc9a7",
			"symbol()": "95d89b41",
			"totalSupply()": "18160ddd",
			"transfer(address,uint256)": "a9059cbb",
			"transferFrom(address,address,uint256)": "23b872dd",
			"updateRewards(uint96)": "10a0638a",
			"version()": "54fd4d50"
		}
	},
	"abi": [
		{
			"inputs": [
				{
					"internalType": "address",
					"name": "wrld",
					"type": "address"
				},
				{
					"internalType": "address",
					"name": "nftw",
					"type": "address"
				}
			],
			"stateMutability": "nonpayable",
			"type": "constructor"
		},
		{
			"anonymous": false,
			"inputs": [
				{
					"indexed": true,
					"internalType": "address",
					"name": "owner",
					"type": "address"
				},
				{
					"indexed": true,
					"internalType": "address",
					"name": "spender",
					"type": "address"
				},
				{
					"indexed": false,
					"internalType": "uint256",
					"name": "value",
					"type": "uint256"
				}
			],
			"name": "Approval",
			"type": "event"
		},
		{
			"anonymous": false,
			"inputs": [
				{
					"indexed": false,
					"internalType": "address",
					"name": "receiver",
					"type": "address"
				},
				{
					"indexed": false,
					"internalType": "uint256",
					"name": "claimed",
					"type": "uint256"
				}
			],
			"name": "RewardClaimed",
			"type": "event"
		},
		{
			"anonymous": false,
			"inputs": [
				{
					"indexed": false,
					"internalType": "uint256",
					"name": "accumulated",
					"type": "uint256"
				}
			],
			"name": "RewardsPerWeightUpdated",
			"type": "event"
		},
		{
			"anonymous": false,
			"inputs": [
				{
					"indexed": false,
					"internalType": "uint32",
					"name": "start",
					"type": "uint32"
				},
				{
					"indexed": false,
					"internalType": "uint32",
					"name": "end",
					"type": "uint32"
				},
				{
					"indexed": false,
					"internalType": "uint256",
					"name": "rate",
					"type": "uint256"
				}
			],
			"name": "RewardsSet",
			"type": "event"
		},
		{
			"anonymous": false,
			"inputs": [
				{
					"indexed": false,
					"internalType": "uint32",
					"name": "start",
					"type": "uint32"
				},
				{
					"indexed": false,
					"internalType": "uint32",
					"name": "end",
					"type": "uint32"
				},
				{
					"indexed": false,
					"internalType": "uint256",
					"name": "rate",
					"type": "uint256"
				}
			],
			"name": "RewardsUpdated",
			"type": "event"
		},
		{
			"anonymous": false,
			"inputs": [
				{
					"indexed": true,
					"internalType": "bytes32",
					"name": "role",
					"type": "bytes32"
				},
				{
					"indexed": true,
					"internalType": "bytes32",
					"name": "previousAdminRole",
					"type": "bytes32"
				},
				{
					"indexed": true,
					"internalType": "bytes32",
					"name": "newAdminRole",
					"type": "bytes32"
				}
			],
			"name": "RoleAdminChanged",
			"type": "event"
		},
		{
			"anonymous": false,
			"inputs": [
				{
					"indexed": true,
					"internalType": "bytes32",
					"name": "role",
					"type": "bytes32"
				},
				{
					"indexed": true,
					"internalType": "address",
					"name": "account",
					"type": "address"
				},
				{
					"indexed": true,
					"internalType": "address",
					"name": "sender",
					"type": "address"
				}
			],
			"name": "RoleGranted",
			"type": "event"
		},
		{
			"anonymous": false,
			"inputs": [
				{
					"indexed": true,
					"internalType": "bytes32",
					"name": "role",
					"type": "bytes32"
				},
				{
					"indexed": true,
					"internalType": "address",
					"name": "account",
					"type": "address"
				},
				{
					"indexed": true,
					"internalType": "address",
					"name": "sender",
					"type": "address"
				}
			],
			"name": "RoleRevoked",
			"type": "event"
		},
		{
			"anonymous": false,
			"inputs": [
				{
					"indexed": true,
					"internalType": "address",
					"name": "from",
					"type": "address"
				},
				{
					"indexed": true,
					"internalType": "address",
					"name": "to",
					"type": "address"
				},
				{
					"indexed": false,
					"internalType": "uint256",
					"name": "value",
					"type": "uint256"
				}
			],
			"name": "Transfer",
			"type": "event"
		},
		{
			"anonymous": false,
			"inputs": [
				{
					"indexed": false,
					"internalType": "address",
					"name": "user",
					"type": "address"
				},
				{
					"indexed": false,
					"internalType": "uint256",
					"name": "userRewards",
					"type": "uint256"
				},
				{
					"indexed": false,
					"internalType": "uint256",
					"name": "paidRewardPerWeight",
					"type": "uint256"
				}
			],
			"name": "UserRewardsUpdated",
			"type": "event"
		},
		{
			"anonymous": false,
			"inputs": [
				{
					"indexed": true,
					"internalType": "address",
					"name": "user",
					"type": "address"
				},
				{
					"indexed": false,
					"internalType": "bool",
					"name": "increase",
					"type": "bool"
				},
				{
					"indexed": false,
					"internalType": "uint256",
					"name": "weight",
					"type": "uint256"
				},
				{
					"indexed": false,
					"internalType": "uint256",
					"name": "timestamp",
					"type": "uint256"
				}
			],
			"name": "WeightUpdated",
			"type": "event"
		},
		{
			"inputs": [],
			"name": "DEFAULT_ADMIN_ROLE",
			"outputs": [
				{
					"internalType": "bytes32",
					"name": "",
					"type": "bytes32"
				}
			],
			"stateMutability": "view",
			"type": "function"
		},
		{
			"inputs": [
				{
					"internalType": "address",
					"name": "user",
					"type": "address"
				},
				{
					"internalType": "uint256",
					"name": "",
					"type": "uint256"
				},
				{
					"internalType": "bool",
					"name": "boost",
					"type": "bool"
				},
				{
					"internalType": "uint256",
					"name": "weight",
					"type": "uint256"
				}
			],
			"name": "alertBoost",
			"outputs": [],
			"stateMutability": "nonpayable",
			"type": "function"
		},
		{
			"inputs": [
				{
					"internalType": "address",
					"name": "user",
					"type": "address"
				},
				{
					"internalType": "uint256",
					"name": "",
					"type": "uint256"
				},
				{
					"internalType": "bool",
					"name": "staked",
					"type": "bool"
				},
				{
					"internalType": "uint256",
					"name": "weight",
					"type": "uint256"
				}
			],
			"name": "alertStaked",
			"outputs": [],
			"stateMutability": "nonpayable",
			"type": "function"
		},
		{
			"inputs": [
				{
					"internalType": "address",
					"name": "owner",
					"type": "address"
				},
				{
					"internalType": "address",
					"name": "spender",
					"type": "address"
				}
			],
			"name": "allowance",
			"outputs": [
				{
					"internalType": "uint256",
					"name": "",
					"type": "uint256"
				}
			],
			"stateMutability": "view",
			"type": "function"
		},
		{
			"inputs": [
				{
					"internalType": "address",
					"name": "spender",
					"type": "address"
				},
				{
					"internalType": "uint256",
					"name": "amount",
					"type": "uint256"
				}
			],
			"name": "approve",
			"outputs": [
				{
					"internalType": "bool",
					"name": "",
					"type": "bool"
				}
			],
			"stateMutability": "nonpayable",
			"type": "function"
		},
		{
			"inputs": [
				{
					"internalType": "address",
					"name": "account",
					"type": "address"
				}
			],
			"name": "balanceOf",
			"outputs": [
				{
					"internalType": "uint256",
					"name": "",
					"type": "uint256"
				}
			],
			"stateMutability": "view",
			"type": "function"
		},
		{
			"inputs": [
				{
					"internalType": "address",
					"name": "user",
					"type": "address"
				}
			],
			"name": "checkUserRewards",
			"outputs": [
				{
					"internalType": "uint256",
					"name": "",
					"type": "uint256"
				}
			],
			"stateMutability": "view",
			"type": "function"
		},
		{
			"inputs": [
				{
					"internalType": "address",
					"name": "to",
					"type": "address"
				}
			],
			"name": "claim",
			"outputs": [],
			"stateMutability": "nonpayable",
			"type": "function"
		},
		{
			"inputs": [],
			"name": "decimals",
			"outputs": [
				{
					"internalType": "uint8",
					"name": "",
					"type": "uint8"
				}
			],
			"stateMutability": "view",
			"type": "function"
		},
		{
			"inputs": [
				{
					"internalType": "address",
					"name": "spender",
					"type": "address"
				},
				{
					"internalType": "uint256",
					"name": "subtractedValue",
					"type": "uint256"
				}
			],
			"name": "decreaseAllowance",
			"outputs": [
				{
					"internalType": "bool",
					"name": "",
					"type": "bool"
				}
			],
			"stateMutability": "nonpayable",
			"type": "function"
		},
		{
			"inputs": [],
			"name": "getRewardRate",
			"outputs": [
				{
					"internalType": "uint256",
					"name": "",
					"type": "uint256"
				}
			],
			"stateMutability": "view",
			"type": "function"
		},
		{
			"inputs": [
				{
					"internalType": "bytes32",
					"name": "role",
					"type": "bytes32"
				}
			],
			"name": "getRoleAdmin",
			"outputs": [
				{
					"internalType": "bytes32",
					"name": "",
					"type": "bytes32"
				}
			],
			"stateMutability": "view",
			"type": "function"
		},
		{
			"inputs": [
				{
					"internalType": "bytes32",
					"name": "role",
					"type": "bytes32"
				},
				{
					"internalType": "address",
					"name": "account",
					"type": "address"
				}
			],
			"name": "grantRole",
			"outputs": [],
			"stateMutability": "nonpayable",
			"type": "function"
		},
		{
			"inputs": [
				{
					"internalType": "bytes32",
					"name": "role",
					"type": "bytes32"
				},
				{
					"internalType": "address",
					"name": "account",
					"type": "address"
				}
			],
			"name": "hasRole",
			"outputs": [
				{
					"internalType": "bool",
					"name": "",
					"type": "bool"
				}
			],
			"stateMutability": "view",
			"type": "function"
		},
		{
			"inputs": [
				{
					"internalType": "address",
					"name": "spender",
					"type": "address"
				},
				{
					"internalType": "uint256",
					"name": "addedValue",
					"type": "uint256"
				}
			],
			"name": "increaseAllowance",
			"outputs": [
				{
					"internalType": "bool",
					"name": "",
					"type": "bool"
				}
			],
			"stateMutability": "nonpayable",
			"type": "function"
		},
		{
			"inputs": [],
			"name": "name",
			"outputs": [
				{
					"internalType": "string",
					"name": "",
					"type": "string"
				}
			],
			"stateMutability": "view",
			"type": "function"
		},
		{
			"inputs": [
				{
					"internalType": "bytes32",
					"name": "role",
					"type": "bytes32"
				},
				{
					"internalType": "address",
					"name": "account",
					"type": "address"
				}
			],
			"name": "renounceRole",
			"outputs": [],
			"stateMutability": "nonpayable",
			"type": "function"
		},
		{
			"inputs": [
				{
					"internalType": "bytes32",
					"name": "role",
					"type": "bytes32"
				},
				{
					"internalType": "address",
					"name": "account",
					"type": "address"
				}
			],
			"name": "revokeRole",
			"outputs": [],
			"stateMutability": "nonpayable",
			"type": "function"
		},
		{
			"inputs": [
				{
					"internalType": "address",
					"name": "",
					"type": "address"
				}
			],
			"name": "rewards",
			"outputs": [
				{
					"internalType": "uint32",
					"name": "stakedWeight",
					"type": "uint32"
				},
				{
					"internalType": "uint96",
					"name": "accumulated",
					"type": "uint96"
				},
				{
					"internalType": "uint96",
					"name": "checkpoint",
					"type": "uint96"
				}
			],
			"stateMutability": "view",
			"type": "function"
		},
		{
			"inputs": [],
			"name": "rewardsPerWeight",
			"outputs": [
				{
					"internalType": "uint32",
					"name": "totalWeight",
					"type": "uint32"
				},
				{
					"internalType": "uint96",
					"name": "accumulated",
					"type": "uint96"
				},
				{
					"internalType": "uint32",
					"name": "lastUpdated",
					"type": "uint32"
				},
				{
					"internalType": "uint96",
					"name": "rate",
					"type": "uint96"
				}
			],
			"stateMutability": "view",
			"type": "function"
		},
		{
			"inputs": [],
			"name": "rewardsPeriod",
			"outputs": [
				{
					"internalType": "uint32",
					"name": "start",
					"type": "uint32"
				},
				{
					"internalType": "uint32",
					"name": "end",
					"type": "uint32"
				}
			],
			"stateMutability": "view",
			"type": "function"
		},
		{
			"inputs": [
				{
					"internalType": "uint32",
					"name": "start",
					"type": "uint32"
				},
				{
					"internalType": "uint32",
					"name": "end",
					"type": "uint32"
				},
				{
					"internalType": "uint96",
					"name": "rate",
					"type": "uint96"
				}
			],
			"name": "setRewards",
			"outputs": [],
			"stateMutability": "nonpayable",
			"type": "function"
		},
		{
			"inputs": [
				{
					"internalType": "address",
					"name": "user",
					"type": "address"
				}
			],
			"name": "stakedWeight",
			"outputs": [
				{
					"internalType": "uint256",
					"name": "",
					"type": "uint256"
				}
			],
			"stateMutability": "view",
			"type": "function"
		},
		{
			"inputs": [
				{
					"internalType": "bytes4",
					"name": "interfaceId",
					"type": "bytes4"
				}
			],
			"name": "supportsInterface",
			"outputs": [
				{
					"internalType": "bool",
					"name": "",
					"type": "bool"
				}
			],
			"stateMutability": "view",
			"type": "function"
		},
		{
			"inputs": [],
			"name": "symbol",
			"outputs": [
				{
					"internalType": "string",
					"name": "",
					"type": "string"
				}
			],
			"stateMutability": "view",
			"type": "function"
		},
		{
			"inputs": [],
			"name": "totalSupply",
			"outputs": [
				{
					"internalType": "uint256",
					"name": "",
					"type": "uint256"
				}
			],
			"stateMutability": "view",
			"type": "function"
		},
		{
			"inputs": [
				{
					"internalType": "address",
					"name": "recipient",
					"type": "address"
				},
				{
					"internalType": "uint256",
					"name": "amount",
					"type": "uint256"
				}
			],
			"name": "transfer",
			"outputs": [
				{
					"internalType": "bool",
					"name": "",
					"type": "bool"
				}
			],
			"stateMutability": "nonpayable",
			"type": "function"
		},
		{
			"inputs": [
				{
					"internalType": "address",
					"name": "sender",
					"type": "address"
				},
				{
					"internalType": "address",
					"name": "recipient",
					"type": "address"
				},
				{
					"internalType": "uint256",
					"name": "amount",
					"type": "uint256"
				}
			],
			"name": "transferFrom",
			"outputs": [
				{
					"internalType": "bool",
					"name": "",
					"type": "bool"
				}
			],
			"stateMutability": "nonpayable",
			"type": "function"
		},
		{
			"inputs": [
				{
					"internalType": "uint96",
					"name": "rate",
					"type": "uint96"
				}
			],
			"name": "updateRewards",
			"outputs": [],
			"stateMutability": "nonpayable",
			"type": "function"
		},
		{
			"inputs": [],
			"name": "version",
			"outputs": [
				{
					"internalType": "string",
					"name": "",
					"type": "string"
				}
			],
			"stateMutability": "view",
			"type": "function"
		}
	]
}